:020000040800F2
:100000003043002089010008E30F0008010F0008B9
:10001000E10F00081D04000849120008000000005C
:10002000000000000000000000000000E70F0008D2
:100030001F04000800000000E50F0008E90F000899
:10004000A3010008A3010008A3010008A301000800
:10005000A3010008A3010008A3010008A3010008F0
:10006000A3010008A3010008A3010008A3010008E0
:10007000A3010008A3010008A3010008A3010008D0
:10008000A3010008A3010008A3010008A3010008C0
:10009000A3010008A3010008A3010008A3010008B0
:1000A000A3010008A3010008A3010008A3010008A0
:1000B000A3010008A30100084D100008A3010008D7
:1000C000A3010008A3010008A3010008A301000880
:1000D000A301000809120008A3010008A3010008F9
:1000E000A3010008A3010008A301000800F002F822
:1000F00000F03AF80AA090E8000C82448344AAF188
:100100000107DA4501D100F02FF8AFF2090EBAE885
:100110000F0013F0010F18BFFB1A43F0010318473B
:100120007C2100009C210000103A24BF78C878C1CF
:10013000FAD8520724BF30C830C144BF04680C60ED
:10014000704700000023002400250026103A28BF35
:1001500078C1FBD8520728BF30C148BF0B60704739
:100160001FB51FBD10B510BD00F006F91146FFF711
:10017000F7FF01F0FDFC00F024F903B4FFF7F2FFF4
:1001800003BC00F09BF8000009488047094800477D
:10019000FEE7FEE7FEE7FEE7FEE7FEE7FEE7FEE737
:1001A000FEE7FEE704480549054A064B7047000094
:1001B0004B100008ED000008300300203043002001
:1001C000302300203023002010B5002000F07CF800
:1001D000FFF7C8FFBDE81040012000F06FB8032A08
:1001E00040F2308010F0030C00F0158011F8013B54
:1001F000BCF1020F624498BF11F801CB00F8013B3B
:1002000038BF11F8013BA2F1040298BF00F801CBFE
:1002100038BF00F8013B11F0030300F05C80083A9E
:10022000C0F0088051F8043B083A51F804CBA0E82C
:100230000810F5E7121D5CBF51F8043B40F8043B81
:10024000AFF30080D20724BF11F8013B11F801CBB6
:1002500048BF11F8012B24BF00F8013B00F801CB87
:1002600048BF00F8012B70474FF0000200B513465D
:1002700094469646203922BFA0E80C50A0E80C50C6
:10028000B1F12001BFF4F7AF090728BFA0E80C5077
:1002900048BF0CC05DF804EB890028BF40F8042B70
:1002A00008BF704748BF20F8022B11F0804F18BFDD
:1002B00000F8012B704770477047704701491820BC
:1002C000ABBEFEE72600020010B500F03DF8BDE829
:1002D000104000F033B810B5203AC0F00B80B1E800
:1002E0001850203AA0E81850B1E81850A0E818506B
:1002F000BFF4F5AF5FEA027C24BFB1E81850A0E874
:10030000185044BF18C918C0BDE810405FEA827C8D
:1003100024BF51F8043B40F8043B08BF7047D207A4
:1003200028BF31F8023B48BF11F8012B28BF20F845
:10033000023B48BF00F8012B70477047002801D0EE
:10034000FFF7BCBF7047000010B5002102A000F00D
:1003500041F8012010BD0000534947414252543A30
:100360002041626E6F726D616C207465726D696E92
:100370006174696F6E000000754600F04BF8AE4680
:1003800005006946534620F00700854618B020B5A1
:10039000FFF708FFBDE820404FF000064FF00007D0
:1003A0004FF000084FF0000B21F00701AC46ACE81D
:1003B000C009ACE8C009ACE8C009ACE8C0098D468A
:1003C000704710B50446AFF300802046BDE81040EA
:1003D000FFF7D3BE70B505460C460A2000E06D1C41
:1003E00000F011F835B128780028F8D102E0641C3B
:1003F00000F009F814B120780028F8D1BDE8704069
:100400000A20AFF3008008B569468DF8000003208C
:10041000ABBE08BD00487047CC020020FEE7704725
:1004200072B6FEE72DE9F84FDFF8B8910024A9F184
:10043000040B23460F2709F1040AABF1040EC9E0AF
:100440000125A5402A40AA427DD1674ED1F804C0BB
:10045000ACEB0608B44532D014DCBCF1030F3AD043
:1004600009DCBCF1000F2AD0BCF1010F1CD0BCF19B
:10047000020F31D11DE0BCF1110F17D0BCF1120FEA
:100480002AD119E0B8F5881F19D006DCB8F5803FED
:1004900015D0B8F5801F1FD111E0B8F5001F0ED0A0
:1004A000B8F5041F18D10AE0CB6815E0CB681B1D16
:1004B00012E0CB6808330FE0CB680C330CE08B689C
:1004C0002BB1012B4FF0080303D0456104E0042356
:1004D00002E0056100E00023FF2A01D8064601E0A2
:1004E00000F104064FEA840501D9A5F12005D6F8EC
:1004F000008007FA05FC28EA0C0803FA05F548EA2B
:100500000508C6F800804D68ED0062D5374DAE692C
:1005100046F00106AE61AD6924F0030605F0010561
:100520000095334D06EB050CDCF80850A607360F96
:1005300007FA06F825EA0805DFF8B880404503D138
:100540004FF0000817E044E0DFF8AC80404502D1EE
:100550004FF001080FE0DFF8A480404502D14FF0D2
:10056000020808E0DFF89880404502D14FF0030808
:1005700001E04FF0040808FA06F848EA0508CCF84C
:1005800008804D68D9F80060ED024D4601D516434C
:1005900000E096432E604D68DAF80060AD025546E3
:1005A00001D5164300E096432E604D68DBF80060ED
:1005B000AD035D4601D5164300E096432E604D68BD
:1005C000DEF80060ED03754601D5164300E0964362
:1005D0002E60641C0D682A46E5407FF431AFBDE80B
:1005E000F88F0000080401400000111000100240C4
:1005F0000000014000080140000C014000100140D3
:10060000001401400148806870470000000000208D
:100610000248816802781144816070470000002020
:10062000074810B5016841F010010160032000F097
:1006300075F80F2000F006F800F024F8002010BD37
:100640000020024070B50D4D04464FF47A712878B1
:10065000B1FBF0F00A490968B1FBF0F000F0DCFAF8
:1006600048B9102C07D200222146501E00F036F85F
:1006700000206C6070BD012070BD000000000020F3
:100680000C0000200C4808B5816941F0010181612E
:10069000816901F001010091C16941F08051C1619E
:1006A000C06900F0805000900448416821F0E0618A
:1006B00041F00071416008BD00100240000001409F
:1006C000002809DB00F01F02012191404009800051
:1006D00000F1E020C0F8001170470000F0B40E4BAC
:1006E0001B680C46C3F30223C3F10705042D00D990
:1006F0000425191D072901D2002300E0DB1E012675
:1007000006FA05F1491E214099409E40761E16408A
:100710003143F0BC00F099BD0CED00E0064900F05B
:10072000070208684FF6FF03184040EA0220034A18
:1007300010430860704700000CED00E00000FA056F
:100740002DE9F0470F46050061D0434E306800F0B8
:100750000700B84209D2306820F007003843306003
:10076000306800F00700B84251D128683B4C81073F
:1007700012D5400703D5606840F4E06060602878D7
:10078000000703D5606840F4605060606068A96845
:1007900020F0F000084360602878C00728D068681F
:1007A000012810D02168022810D0890700292EDAEC
:1007B000616821F0030101436160FFF723FF804678
:1007C00041F288390DE021688903EFE78901EDE7FF
:1007D000FFF718FFA0EB0801494502D90320BDE847
:1007E000F0876068696800F00C00B0EB810FEFD112
:1007F000306800F00700B8420BD9306820F00700DD
:1008000038433060306800F00700B84201D0012062
:10081000E5E72878400705D56068E96820F4E060DE
:10082000084360602878000706D56068296920F4CD
:10083000605040EAC100606000F038F86168084A22
:10084000C1F30311515CC8400649086006480068BE
:10085000FFF7F8FE0020C2E700200240001002402F
:10086000822000080C0000200400002004480549F4
:1008700000684968044AC1F30221515CC8407047CE
:100880000C00002000100240922000080448054996
:1008900000684968044AC1F3C221515CC8407047EE
:1008A0000C00002000100240922000080E4A5168FF
:1008B0000E4801F00C03042B11D0082B0FD10C486B
:1008C000C1F38343C903C05C0AD55168084AC1F328
:1008D0004041921E515C054A5043B0FBF1F0704715
:1008E00004494843704700000010024000127A009B
:1008F0007220000800093D002DE9F84F040070D077
:100900002078C04DC00749D06868C0F38100012835
:1009100007D06868C0F38100022809D16868C00365
:1009200006D52868800339D560680028E7D035E00F
:100930006068B0F5803F0BD010B1B0F5A02F11D09A
:10094000286820F480302860286820F4802002E0A5
:10095000286840F480302860606890B1FFF752FE4C
:1009600006460AE0286840F480202860F0E700BFCF
:10097000FFF748FE801B642873D828688003F7D5EA
:100980000CE0FFF73FFE064605E000BFFFF73AFE2A
:10099000801B6428F0D828688003F7D420789A4E0A
:1009A00080074FF001094FF0000839D5686810F052
:1009B0000C0F07D06868C0F38100022809D168686D
:1009C000C00306D42868800714D52069012808D1FF
:1009D00010E02069B0B1C6F80090FFF713FE07469B
:1009E00005E00AE1FFF70EFEC01B0228C4D8286804
:1009F0008007F7D52868616920F0F80040EAC10057
:100A000028600DE0C6F80080FFF7FCFD074604E013
:100A1000FFF7F8FDC01B022823D828688007F7D409
:100A2000207800072CD57948A169D9B1C0F8009089
:100A3000FFF7E8FD074604E0FFF7E4FDC01B0228CE
:100A40000FD8686A8007F7D571484FF4FA510068EB
:100A5000B0FBF1F0009000BF0098411E0091FAD267
:100A60000EE080E0C0F80080FFF7CCFD074604E010
:100A7000FFF7C8FDC01B022875D8686A8007F7D445
:100A80002078400760D5E8690027C00008D4E869ED
:100A900040F08050E861E869012700F08050009044
:100AA0005C480168C90513D40168834641F480712C
:100AB0000160FFF7A7FD824606E000BFFFF7A2FD39
:100AC000A0EB0A0064284ED8DBF80000C005F5D57D
:100AD000E06801280AD008B1052813D0286A20F060
:100AE00001002862286A20F0040002E0286A40F031
:100AF00001002862E06841F2883B98B1FFF782FD6F
:100B000082460BE0286A40F004002862EEE700BF4E
:100B1000FFF778FDA0EB0A0159455AD8286A8007EB
:100B2000F6D50CE0FFF76EFD824605E0FFF76AFDA3
:100B3000A0EB0A0159454CD8286A8007F6D41FB1AA
:100B4000E86920F08050E861E06988B36968C1F322
:100B50008101022944D00228C6F8608004D0FFF742
:100B600051FD044638E034E0FFF74CFD074604E051
:100B7000FFF748FDC01B02282BD828688001F7D456
:100B8000206AB0F5803F05D16868A16820F4003084
:100B900008436860D4E908010843696821F47411C6
:100BA00008436860C6F86090FFF72CFD044606E035
:100BB00025E000BFFFF726FD001B022809D82868A2
:100BC0008001F7D51BE000BFFFF71CFD001B0228CA
:100BD00002D90320BDE8F88F28688001F4D40EE024
:100BE0000128F7D06868226A00F48031914204D16C
:100BF000616A00F47010884201D00120EAE7002009
:100C0000E8E7000000100240000042428004424237
:100C10000C0000200070004010B5401EB0F1807F35
:100C200001D3012010BD4FF0E02460610F21601757
:100C300000F00BFB0020A06107202061002010BD08
:100C400070B590F83C20012A26D0012480F83C4061
:100C5000022280F83D2003685A689D6822F07006E1
:100C60000A6832435A600D4B02689A4208D0B2F1CA
:100C7000804F05D00A4B9A4202D00A4B9A4204D1C7
:100C8000496825F080031943916080F83D400021B8
:100C900080F83C10084670BD022070BD002C014059
:100CA000000400400008004010B5040003D094F890
:100CB0003D0010B107E0012010BD002084F83C0089
:100CC000204600F01FF8022084F83D00211D206816
:100CD00000F0CCF9012084F8460084F83E0084F846
:100CE0003F0084F8400084F8410084F8420084F812
:100CF000430084F8440084F8450084F83D00002057
:100D000010BD000008B500680B49884212D10B489D
:100D1000C16941F00401C161C069002200F0040012
:100D2000009001211E20FFF7D9FCBDE808401E20DD
:100D3000FFF7C6BC08BD00000008004000100240DC
:100D400070B5044690F83C000025012817D0012614
:100D500084F83C60022084F83D002068826822F01C
:100D6000770222F47F4282600868502838D00DDC78
:100D700020284FD005DC90B3102811D14AE0022082
:100D800070BD302846D040280AD13BE060282FD0E3
:100D900070280DD0B0F5805F03D0B0F5005F12D0A1
:100DA000012584F83D60002084F83C00284670BD91
:100DB000CB68D1E90121206800F094F920688168AE
:100DC00041F0770109E0CB68D1E90121206800F00A
:100DD00089F92068816841F480418160E1E719E088
:100DE000CA684968206800F08FF95021206806E041
:100DF000CA684968206800F098F96021206800F00E
:100E00007BF9CEE7CA684968206800F07DF9402187
:100E10002068F4E7226801461046F0E770B5040048
:100E200004D094F84100002510B106E0012070BD07
:100E300084F84050204600F023F8242084F8410034
:100E40002068C16821F40051C160204600F080F99B
:100E50002068016921F4904101612068416921F015
:100E60002A0141612068C16841F40051C160656494
:100E7000202084F8410084F842006563002070BDA2
:100E800030B585B000240094019402940394006866
:100E9000184988422CD11848816941F48041816108
:100EA000816901F480410491816941F0040181610B
:100EB0008069124D00F0040004904FF4007000901F
:100EC000022001900320039069462846FFF7AAFA02
:100ED0002815CDE90004694628460294FFF7A2FAD6
:100EE000002202212520FFF7F9FB2520FFF7E8FB70
:100EF00005B030BD0038014000100240000801403C
:100F0000FEE700000D4808B5816941F010018161DC
:100F1000816901F010010091816941F02001816136
:100F2000816901F020010091816941F00401816132
:100F3000806900F00400009008BD0000001002402D
:100F400010B586B0002416480094019402940394CE
:100F500004941249059401604721C0E9011431212C
:100F6000C0E903148461FFF79FFE08B1FFF758FA48
:100F70004FF48050009069460948FFF7E1FE08B140
:100F8000FFF74EFA049404A905480594FFF758FEAC
:100F9000002801D0FFF744FA06B010BD0008004059
:100FA000F40000200D4810B50B4901604FF41651B4
:100FB000416000214FF4C0628160C0E903120C223D
:100FC000C0E90521C161FFF729FF002803D0BDE872
:100FD0001040FFF725BA10BD003801403C01002049
:100FE000FEE7FEE770477047FFF712BB30B58FB0E2
:100FF00028216846FFF738F914210AA8FFF734F9C9
:1010000001210804CDE90010002402940225049176
:10101000CDE907504FF4E01009906846FFF76CFCEB
:1010200008B172B6FEE70F20CDE90A054FF48060E3
:10103000CDE90C4002210AA80E94FFF781FB00289D
:1010400001D072B6FEE70FB030BD704705480068AA
:101050000169C90705D06FF001010161024800680C
:1010600000477047F400002038000020F0B5026807
:10107000194B1A4C1A4D4FF08047984205D0B84290
:1010800003D0A04201D0A84203D122F070064A68E2
:101090003243984205D0B84203D0A04201D0A842C2
:1010A00003D122F44074CA6822434C6922F08002C2
:1010B000224302608A68C2620A688262984201D151
:1010C00009690163012141610169C90703D001690F
:1010D00021F001010161F0BD002C0140000400403D
:1010E0000008004010B5846842EA032224F47F44DB
:1010F0000A432243826010BD826822F070020A43D4
:1011000042F007018160704710B5036A046A24F059
:1011100001040462846924F0F00444EA021423F018
:101120000A020A438461026210BD10B5036A046AB0
:1011300024F010040462846923F0A00324F47044B2
:1011400044EA023243EA01118261016210BD0000EB
:1011500070B5044600680169E26821F4405111430A
:1011600001612169A0680843616908432168CA6870
:1011700041F20C639A430243CA6020684169A26944
:1011800021F44071114341611E492068884202D117
:10119000FFF77CFB01E0FFF769FB00EBC00101EB0F
:1011A0000012606864218000B2FBF0F3B3FBF1F33E
:1011B0006FF018067343B2FBF0F5B2FBF0F605EBE7
:1011C0008305322303EB0515B5FBF1F5B6FBF1F60C
:1011D00005F0F00505EB0615B2FBF0F6B2FBF0F0FA
:1011E000B0FBF1F06FF01802504306EB800003EB08
:1011F0000010B0FBF1F0216800F00F002844886077
:1012000070BD00000038014010B50C4C2068C0686B
:10121000800606D50A480068804721686FF02000E4
:1012200008602068C068000606D506480068804748
:1012300021686FF08000086010BD00003C010020B4
:101240003000002034000020FEE70907090E0028C6
:1012500004DB00F1E02080F80014704700F00F007C
:1012600000F1E02080F8141D7047000070B50A4DB1
:10127000084600240A211646E9700722314600F08C
:1012800009FE012805D144F6206000F031FE012856
:1012900000D00324204670BDBC0000202DE9F041A1
:1012A0000F4C07461646A08888460025FF2801D91E
:1012B000FEF78AFFA088032804D3A188A06800F065
:1012C0008AFC18B105252846BDE8F081A06810F811
:1012D000011B3970A188891E3180C8F80000F2E72F
:1012E000BC00002070B5104C03460025607810B19A
:1012F0000525284670BD491E0126E1600846E680A6
:101300000B70E1881144E180E18800F064FC014643
:10131000E088A2680244401CE08011702670012120
:10132000002000F07BFCE4E7BC00002010B50021A9
:10133000012000F073FC034900204870BDE8104014
:1013400000F098BDBC00002010B50021084600F058
:1013500065FCBDE8104000F079BC000070B5064D9A
:1013600000242878012802D00624204670BD286970
:10137000804700202870F8E71000002070B50C4668
:101380000988002505292FD1417840F2CF760A023D
:1013900081781143C278491C1302027989B21A4339
:1013A000531EB34220D200232380012300F8013BC7
:1013B0002688761C2680560703D003EBD203DEB2C4
:1013C00001E0C2F3C70600F8016B23885B1C238091
:1013D000002300F0EBFA18B100F0E3FB054604E04F
:1013E00020883044208000E00325284670BD70B579
:1013F0000C460988002505292FD1417840F2CF7687
:101400000A0281781143C278491C1302027989B219
:101410001A43531EB34220D200232380022300F834
:10142000013B23885B1C2380530704D0012303EB7B
:10143000D203DEB201E0C2F3C70600F8016B2388D5
:101440005B1C238000F000FB18B100F0AAFB0546EE
:1014500004E020883044208000E00325284670BD49
:1014600070B50C4609880026052925D141780579F3
:101470000A0281781143491C6A1E89B27C2A1BD852
:1014800000222280032200F8012B22880023521C14
:1014900022806A0000F8012B2288521C22802A46F2
:1014A00000F012FB18B100F07CFB064605E0208836
:1014B00000EB4500208000E00326304670BD70B58B
:1014C0000C4609880026052927D1417805790A02AA
:1014D00081781143C278491C45EA02256A1E89B207
:1014E0007C2A1AD200222280042200F8012B2288B2
:1014F000521C22806A0000F8012B2288521C228094
:101500002A4600F00DFB18B100F04BFB064605E043
:10151000208800EB4500208000E00326304670BDA7
:101520002DE9F0410446088800270D460A2842D3D9
:10153000607826790102A078227A0843401C1FFABD
:1015400080F8E07846EA00266079731E0102A079EF
:101550000843401C81B2E0797C2B42EA0022607A89
:1015600028D83AB3792A25D8B0EB420F22D10123EB
:1015700004F10A0000F0A8FA98B900212980172187
:1015800021702988601C491C2980710000F8011B0A
:1015900029880023491C29803246414600F094FAEC
:1015A00018B100F0FEFA074605E0288800EB460077
:1015B000288000E003273846BDE8F08170B5064C6E
:1015C0000D4606492288401CFEF709FE2088401C73
:1015D0002880002070BD0000CC0000208401002085
:1015E00038B50988002405290BD141780A02817891
:1015F0001143491C027989B21AB9C278FF2A03D073
:1016000012B10324204638BD00228DF80120C07895
:10161000FF280CD08DF8002001231A46684600F000
:10162000C5F90028EED000F0BCFA0446EAE7012034
:101630008DF80000F0E710B509880024052902D0D4
:101640000324204610BD417801230A028178C01C82
:101650001143491C89B21A4600F036FA0028F0D02E
:1016600000F09FFA0446ECE72DE9F0410D460988A9
:101670000024052926D9417843790A02817811434B
:10168000491C8EB2C178027942EA0122510704D086
:10169000012101EBD201C9B201E0C2F3C701571E1B
:1016A000B7F5F66F0ED299420CD101233146801D59
:1016B00000F07CF918B100F074FA044603E005204C
:1016C000288000E003242046BDE8F08170B50D4677
:1016D0000988002406291DD341780A028178114324
:1016E000C278491C1302027989B21A434379561E03
:1016F000772E0FD85606360E9E420BD10123801D41
:1017000000F0E2F918B100F04CFA044603E00520BD
:10171000288000E00324204670BD00002DE9F04140
:101720001D46069B1746064641B1F72906D81E4CB2
:101730000846217100211EB1012E15D002252EE090
:101740001A4A22611A4A62611A4AE2601A4AC4E9D4
:1017500006211A4921621A4961621A49A1622A4680
:10176000394600F099F812E0174A2261174A62617F
:10177000174AE260174AC4E906211749216217494E
:1017800061621749A1622A463946FFF76FFD0500DD
:1017900005D100F067FB28B1667101202070284652
:1017A000BDE8F0810325FAE7100000207D1900084C
:1017B0009919000825190008D51800086D1F0008A0
:1017C00015200008D51F00082D1300084913000834
:1017D000E51200089D120008891C00089D1D0008E4
:1017E0006D1D000838B52B4C207808B1062038BD97
:1017F000684600F029FB01284AD19DF80000E8B3B3
:10180000012802D0022843D10FE0224AA369921D89
:10181000911CC81F984788BB60782179884200D006
:1018200060BB022000F026FB32E0A0680121194BCA
:101830000278A270E170002113F12C0313F83150EB
:1018400065B1954207D103EBC1014A681149891D71
:101850009047E07002E0491C1029EFDB607868B126
:10186000E07880B10021E180A17841F08002A16898
:101870000A70E288521C92B2E28000E008E08854CC
:10188000E088401CE080D4E90213E2882079984780
:10189000002038BD1000002070B515460846002411
:1018A0000822294600F0F6FA01280DD1B5F5964F29
:1018B00001D9232003E006496800B1FBF0F080B2B3
:1018C00000F016FB012800D00324204670BD000064
:1018D000A07F17002DE9F041104C07461646A0885E
:1018E00088460025FF2801D9FEF76EFCA088042851
:1018F00004D3A1880A4800F07BF918B105252846D1
:10190000BDE8F081064800783870A088C01E30809D
:101910000348401CC8F80000F1E70000D000002098
:10192000A401002070B5134C0346002560780128FF
:1019300002D00525284670BD491E0126A160084633
:1019400066800B70618811446180618800F050F9F5
:101950006188094A5318491C61801870010A60881F
:101960000244401C6080117026700121002000F0AC
:1019700055F9DFE7D0000020A4010020054910B58B
:10198000002048700146012000F048F9BDE81040F1
:1019900000F06EB9D000002010B50021084600F01C
:1019A0003DF9BDE8104000F051B90000F0B5491E06
:1019B00089B28C180A2C01D90120F0BD541EE517FC
:1019C00004EB5575012404EBE5061E4D012B18D1DF
:1019D000F4B213E010F8016B00230AE026FA03F7D3
:1019E00007F001076F54491C521E5B1C89B292B26A
:1019F000DBB20AB1082BF1D3641EE4B2002CE9D1AA
:101A00001EE016F0FF061BD000273B4611E000BF8A
:101A100015F801E0BEF1000F05D004FA03FC4CEA12
:101A2000070C0CF0FF07521E491C5B1C92B289B2D6
:101A3000DBB20AB1082BEBD300F8017B761EE0E79E
:101A40000020F0BDDC000020F0B5491E8CB2A118CA
:101A50000A2901D90120F0BD511ECB1701EB5371AA
:101A6000012505EBE101CEB216491BE000273B46FC
:101A700011E000BF11F804E0BEF1000F05D005FA37
:101A800003FC4CEA070C0CF0FF07521E641C5B1CA5
:101A900092B2A4B2DBB20AB1082BEBD3761E00F8E7
:101AA000017BF6B2002EE1D100200A5C3AB100229F
:101AB0000A54401C80B20A28F7D30020F0BD01224E
:101AC000F6E70000E600002010B5491E89B28C1828
:101AD0000A2C01D9012010BD104C012B09D018E0AF
:101AE00030F8023B5BBA24F81130491C521E89B20F
:101AF00092B2002AF4D10EE034F811301B0A00F83B
:101B0000013B14F81130491C521E00F8013B89B208
:101B100092B2002AF0D1002010BD0000B8020020CF
:101B2000491E10B58BB29C1810490A2C0FD9012000
:101B300010BD00BF31F81340240A00F8014B11F822
:101B400013405B1C521E00F8014B9BB292B2002A5C
:101B5000F0D1002031F81020521C21F81020401C38
:101B600080B20A28F6D3002010BD0000A402002095
:101B700008B5FEF755FDFFF739FAFFF7C3F9FFF790
:101B800011FAFFF7DDF901200022014600904FF421
:101B900016531046FFF7C2FDFFF7E0FBFFF722FEEA
:101BA000FCE7002804D0012803D0072803D0042034
:101BB0007047022070470620704710B5092801D8E9
:101BC000303004E0A0F10A01052902D83730C0B254
:101BD00010BDFEF7F9FA002203E010F8013B1A44A9
:101BE000D2B2491E89B2F8D25042C0B2704700004A
:101BF00070B5094DFF231A4605F5807606E000BF53
:101C000010F8014B54402A5D5A40335D491E89B299
:101C1000F6D242EA032070BD9A2000080A4B002841
:101C20001A68D06802D040F0200001E020F02000C7
:101C3000D06018680029C16802D041F0800101E03D
:101C400021F08001C16070473C0100200748006816
:101C5000016A41F21112114207D1016A9210114238
:101C600003D1016821F0010101607047F4000020F8
:101C700004480021026851620068016841F00101D6
:101C800001607047F4000020F8B5374C0027207839
:101C900008B1FEF799FA684600F0F4F8607800257C
:101CA000012670B3012802D002285AD139E0FFF78B
:101CB000DFFF9DF800003A2807D00D2808D0A0F1DA
:101CC0003001092907D8C8B20DE0A570A58048E009
:101CD0000220607045E0A0F14101052902D83738A3
:101CE000C0B200E0FF20A17811B1012939D10DE087
:101CF000A188FF2906D8A288A16800018854A6708F
:101D00002FE025E06570FFF7A1FF2AE0A288A16817
:101D100011440A7802430A70A088401CA080A57074
:101D20001FE09DF80000E178884207D1FFF78EFFA1
:101D30006570012000F09EF8074612E03A2801D0B5
:101D400065700EE0A570A5806670FFF791FF08E052
:101D50009DF800003A2804D1FFF78AFFA580A570FE
:101D600066703846F8BD0000BC0000200A4810B577
:101D70004178012909D0022907D04178012906D0EC
:101D80004078022803D0FEF71FFA00214170FFF7C8
:101D90005DFF002010BD0000BC00002070B5294C84
:101DA0000026607808B1FEF70FFA20780025052894
:101DB00046D2DFE800F041030A3136003A2000F055
:101DC00091F802202070A5703AE0E088F0B1A17887
:101DD0001C48C06811B1012932D108E0007800091F
:101DE000FFF7EBFE00F07EF80120A07028E00078FD
:101DF00000F00F00FFF7E1FE00F074F8E068401C0F
:101E0000E060A570E088401EE08019E00D2000F041
:101E100069F80320207013E0E07800F063F80420F4
:101E2000F8E72570032000F025F806460021012080
:101E3000FFF7F4FE257003E000210120FFF7EEFE1E
:101E4000304670BDBC0000200549024600204B789A
:101E5000002B04D0087810700020487001207047D3
:101E6000F000002002490020487001207047000067
:101E7000F0000020024901224A70087010467047A5
:101E8000F00000200249096801700120704700003D
:101E900004380140124810B5104AC0E90021002161
:101EA0000C22C160C0E905214FF48052C161012BB1
:101EB00009D0022B0AD0016181600948FEF7AEFF0C
:101EC00048B1002010BD4FF4C06101E04FF48061C3
:101ED00082600161F1E7012010BD0000003801407F
:101EE0003C0100200149086001207047043801408E
:101EF00030B587B000251C4C0095019502950395DF
:101F0000049518490595216040F60F61401E6160F7
:101F1000C4E9025025612046A561FEF7C5FE08B15F
:101F2000FEF77EFA4FF48050009069460E48FEF7A7
:101F300007FF08B1FEF774FA049504A90A4805954D
:101F4000FEF77EFE08B1FEF76BFA21686FF0010024
:101F500008612068C16841F00101C16007B001203B
:101F600030BD000000080040F400002038B5174CD8
:101F70000025207808B1FEF727F96846FFF782FFB1
:101F8000607830B1124A012807D0022810D0032807
:101F900001D1FFF76DFE284638BD0020A0809DF8D6
:101FA0000000A1880A44491CA180107002200BE0A7
:101FB000A088FF2807D89DF80010A0880244401C84
:101FC000A0801170E5E703206070E2E7D0000020F8
:101FD000A401002070B50E4D0024687870B102286D
:101FE0000BD003280DD0687858B16878022808D043
:101FF0006878032805D0FEF7E7F80120FFF73AFFDD
:102000000446FFF723FE01206870204670BD0000E3
:10201000D000002070B5154C00256078012801D053
:10202000FEF7D2F8207810B101281CD104E000217D
:102030000120FFF7F3FD16E0608850B1A06800783A
:10204000FFF750FFA068401CA0606088401E6080C1
:1020500009E00320FFF70EFF054600210120FFF7EE
:10206000DDFD00202070284670BD0000D00000205B
:10207000010202030405060708090A0B0C0D0E0FE6
:102080001010000000000000000001020304060719
:102090000809000000000102030400C1814001C0E2
:1020A000804101C0804100C1814001C0804100C128
:1020B000814000C1814001C0804101C0804100C118
:1020C000814000C1814001C0804100C1814001C008
:1020D000804101C0804100C1814001C0804100C1F8
:1020E000814000C1814001C0804100C1814001C0E8
:1020F000804101C0804100C1814000C1814001C0D8
:10210000804101C0804100C1814001C0804100C1C7
:10211000814000C1814001C0804101C0804100C1B7
:10212000814000C1814001C0804100C1814001C0A7
:10213000804101C0804100C1814000C1814001C097
:10214000804101C0804100C1814001C0804100C187
:10215000814000C1814001C0804100C1814001C077
:10216000804101C0804100C1814001C0804100C167
:10217000814000C1814001C0804101C0804100C157
:10218000814000C1814001C0804100C1814001C047
:10219000804101C0804100C1814000C0C101C30332
:1021A00002C2C60607C705C5C404CC0C0DCD0FCFAF
:1021B000CE0E0ACACB0BC90908C8D81819D91BDB1F
:1021C000DA1A1EDEDF1FDD1D1CDC14D4D515D7176F
:1021D00016D6D21213D311D1D010F03031F133F31F
:1021E000F23236F6F737F53534F43CFCFD3DFF3F6F
:1021F0003EFEFA3A3BFB39F9F83828E8E929EB2B9F
:102200002AEAEE2E2FEF2DEDEC2CE42425E527E72E
:10221000E62622E2E323E12120E0A06061A163A39E
:10222000A26266A6A767A56564A46CACAD6DAF6F2E
:102230006EAEAA6A6BAB69A9A86878B8B979BB7B9E
:102240007ABABE7E7FBF7DBDBC7CB47475B577B7EE
:10225000B67672B2B373B17170B05090915193531E
:10226000529296565797559594549C5C5D9D5F9FEE
:102270009E5E5A9A9B5B99595898884849894B8B1E
:102280008A4A4E8E8F4F8D4D4C8C448485458747AE
:10229000468682424383418180400000BC22000880
:1022A00000000020F400000028010008B02300080E
:1022B000F40000203C42000044010008010000003E
:1022C000100000000000000000127A000200000070
:1022D00000000000000000000000000000000000FE
:1022E00000000000000000000000000000000000EE
:1022F000000000000000000011000000BD150008F3
:1023000004000000BF14000803000000611400086E
:1023100010000000CD160008060000003716000867
:102320001700000021150008010000007D130008BF
:1023300005000000E11500080F0000006916000804
:1023400002000000EF130008000000000000000081
:10235000000000000000000000000000000000007D
:10236000000000000000000000000000000000006D
:10237000000000000000000000000000000000005D
:10238000A401002000000000000000000000000088
:102390000000000000000000010101010000000039
:1023A0000101010101010000000001010000000025
:04000005080000ED02
:00000001FF
