:020000040800F2
:1000000038890020E1020008651C0008DD1A00089C
:10001000611C000841130008411D00080000000099
:100020000000000000000000000000006D1C00083F
:100030004513000800000000691C0008711C00083E
:10004000FB020008FB020008FB020008FB0200089C
:10005000FB020008FB020008FB020008FB0200088C
:10006000FB020008FB020008FB020008FB0200087C
:10007000FB020008FB020008FB020008FB0200086C
:10008000FB020008FB020008FB020008FB0200085C
:10009000FB020008FB020008FB020008FB0200084C
:1000A000FB020008FB020008FB020008FB0200083C
:1000B000FB020008FB020008FB020008FB0200082C
:1000C000FB020008FB020008FB020008FB0200081C
:1000D000FB020008FB020008FB020008FB0200080C
:1000E000FB020008FB020008FB020008FB020008FC
:1000F000FB020008FB020008FB020008FB020008EC
:10010000FB020008FB020008FB020008FB020008DB
:10011000FB020008FB020008FB020008FB020008CB
:10012000FB020008FB020008FB020008FB020008BB
:10013000FB020008FB020008FB020008FB020008AB
:10014000FB020008FB020008FB020008FB0200089B
:10015000FB020008FB020008FB020008FB0200088B
:10016000FB020008FB020008FB020008FB0200087B
:10017000FB020008FB020008FB020008FB0200086B
:10018000FB020008FB020008FB020008FB0200085B
:10019000FB020008FB020008FB020008FB0200084B
:1001A000FB020008FB020008FB020008FB0200083B
:1001B000FB02000800F002F800F082F814A696E8AE
:1001C000000CB244B344DA4501D100F079F8BAE842
:1001D0000F000FA696E83000A5EB040504EB060718
:1001E000AAEB0704A7F101074FEA15154FEA3414EB
:1001F000A4F10104AC4201D300F062F813F0010F46
:1002000018BFFB1A43F0010300F001F8DBE71847C1
:10021000DC350000FC3500000A444FF0000C10F8FB
:10022000013B13F0070408BF10F8014B1D1108BF74
:1002300010F8015B641E05D010F8016B641E01F814
:10024000016BF9D113F0080F1EBF10F8014BAD1C64
:100250000C1B09D16D1E58BF01F801CBFAD505E082
:1002600014F8016B01F8016B6D1EF9D59142D6D3DC
:10027000704700007047000000230024002500267E
:10028000103A28BF78C1FBD8520728BF30C148BFF9
:100290000B607047782900F06D81732900F08C8322
:1002A000002070471FB503F0D7F89DE8030000F069
:1002B000E3FA00F0C7FC1FBD10B500F02CFD10BD27
:1002C00000F097FD1146FFF7EDFF01F04DFE00F045
:1002D000FBFE03B4FFF7F0FF03BC00F033FF0000A8
:1002E0000948804709480047FEE7FEE7FEE7FEE7CA
:1002F000FEE7FEE7FEE7FEE7FEE7FEE70448054906
:10030000054A064B704700002D1D0008B501000886
:100310003809002038890020384900203849002059
:1003200070B5064600F08CFA056806F10B0020F067
:100330000704B4429CBF002070BD2B466A68BAB166
:100340001068A04210D304F1080188423CBF5068F5
:10035000586007D35168101941601168091B01608A
:1003600058601460101D70BD13465268002AE7D112
:100370002146284600F06CFA0028DED170BD70B529
:100380000446051F00F05CFA0068002C14BF4468A6
:1003900070BD002C18BFAC423CBF20466468F8D347
:1003A00001680A18AA4218BF456003D12A680546A9
:1003B0001144016028684119A1421CBF6C6070BDE6
:1003C0006168696021680844286070BD53EA020CC6
:1003D00000F069802DE9F04B4FF00006002B1FBFA5
:1003E000B3FA83F503FA05F424FA05F65E4012BF6A
:1003F0001643B2FA82F502FA05F4C5F120051EBFD4
:1004000022FA05FC44EA0C04203556EA044C4FEA73
:10041000144418BF641C4FF000084FF000099042CC
:1004200071EB030C39D3002919BFB1FA81F701FA36
:1004300007F6B0FA80F700FA07F6C7F120071EBFEB
:1004400020FA07FC46EA0C062037B6FBF4FCA7EBC3
:100450000507103F07F01F0BCBF120062CFA06F61C
:100460000CFA0BFB44BFB3460026202FA4BF5E4608
:100470004FF0000B5BEA060C08BF4FF0010B19EBC5
:100480000B0948EB0608ABFB027C06FB02CC0BFB1E
:1004900003CCC01B71EB0C01C1E70B460246414681
:1004A0004846BDE8F08B13B5084318BF4FF0FF3046
:1004B0000146AFF30080BDE81C4070470FB404490B
:1004C00010B503AA029800F07BFA10BC5DF814FB8B
:1004D0001407002070B5044685690068C10601D57F
:1004E000302600E02026C00707D070BDD4E90121E6
:1004F00030469047206A401C20626D1EF6D570BDC4
:1005000070B5044685690078C00707D170BDD4E98D
:10051000012120209047206A401C20626D1EF6D5E4
:1005200070BD70B50C460546012A05D028788006B6
:1005300000D5EA69002302E0012305E05B1C934239
:1005400002D2E05C0028F9D1A869E618C01AA861B7
:10055000286A184428622846FFF7BCFF04E0D5E962
:10056000012114F8010B9047B442F8D32846FFF755
:10057000C7FF70BD70B504460D4621461068AFF345
:1005800000802188090502D50F4A7A4402E00E4A0C
:100590007A440E32002104F1240305E000F00F0636
:1005A0000009965D5E54491C0028F7D1207800238D
:1005B000000704D5702D02D009B102231132204664
:1005C000BDE8704000F08DB94E2F00002DE9F05FBE
:1005D000894604464FF0000ADFF824B1FB44C0F816
:1005E00020A02046E168884700287DD0252806D035
:1005F000D4E901219047206A401C2062F1E70025E0
:100600005F462046E16888472028064607DB312EF2
:1006100005D2B81910F8200C08B10543F1E7A80776
:1006200001D525F00405C4F81CA00027C4F818A0C3
:100630002A2E09D0304601F0D3FD38B304EB8708E9
:10064000303EC8F8186019E059F8041B204604EB46
:1006500087029161E1688847012F064618D1E06959
:10066000002820DA25F020051DE0D8F8180000EB5E
:10067000800006EB40003038C8F818002046E168DA
:100680008847064601F0ACFD0028EED1012F0AD0C4
:100690002E2E08D12046E16888477F1C0646022F8F
:1006A00045F02005C4DBA069002803DA404245F08C
:1006B0000105A061E80701D025F01005A6B1A6F15B
:1006C0004100192802D8203645F400654A463146D3
:1006D000204625604D46FFF7DDFD60B1012807D0BB
:1006E000ED1D25F0070000E007E000F1080978E7BC
:1006F00005F1040975E730467AE7206ABDE8F09F06
:10070000242F000010B5044603E002F03BFE401C1D
:1007100009D014F8010B05490028F6D1BDE81040B6
:100720000A2002F02FBE4FF0FF3010BD140700204A
:1007300040EA010310B59B070FD1042A0DD310C85E
:1007400008C9121F9C42F8D020BA19BA884201D9B0
:10075000012010BD4FF0FF3010BD1AB1D30703D0F8
:10076000521C07E0002010BD10F8013B11F8014BAE
:100770001B1B07D110F8013B11F8014B1B1B01D1CA
:10078000921EF1D1184610BD10B5203AC0F00B8072
:10079000B1E81850A0E81850B1E81850A0E8185077
:1007A000203ABFF4F5AF5FEA027C24BFB1E81850ED
:1007B000A0E8185044BF18C918C0BDE810405FEA4F
:1007C000827C24BF51F8043B40F8043B08BF7047CB
:1007D000D20728BF31F8023B48BF11F8012B28BFD0
:1007E00020F8023B48BF00F8012B70474FF0000291
:1007F00000B5134694469646203922BFA0E80C5017
:10080000A0E80C50B1F12001BFF4F7AF090728BFF1
:10081000A0E80C5048BF0CC05DF804EB890028BF6D
:1008200040F8042B08BF704748BF20F8022B11F096
:10083000804F18BF00F8012B704770477047704712
:1008400000487047C40700207047704770477047E2
:1008500038B504460A4600206946AFF300800028F8
:1008600008BF38BD02460099204600F0C3F80120B9
:1008700038BD012000F082BAF8B5AFF3008005461C
:1008800000200C460C2000BF0646A819A0420DD936
:10089000324669460020AFF30080070008BF00F031
:1008A0006DFA0098A04218BF0546C419FFF7C8FFAB
:1008B00005600746F01D20F007004619284600F0A5
:1008C0000AF8B44208BFF8BDA21B31463868BDE83B
:1008D000F84000F08FB800210160416070470C20A3
:1008E00070472DE9F0470D4699469246044600F1BF
:1008F00024080168880604D5E06921F01001216010
:1009000000E00120A84201DD471B00E00027A169AB
:100910007A1902EB0900081AA0612078C00602D4F7
:100920002046FFF7D7FD002608E0D4E901211AF898
:1009300006009047206A401C761C20624E45F4DB7E
:100940002078C0060AD52046FFF7C4FD06E0D4E9AA
:10095000012130209047206A401C2062381EA7F1F8
:100960000107F4DC07E0D4E9012118F805009047FD
:10097000206A401C2062281EA5F10105F3DC2046F8
:10098000FFF7BEFD2078000602D50220BDE8F08703
:100990000120FBE710B5436913B1AFF3008001E01C
:1009A000FFF7BFFD012010BD127800F124010A708D
:1009B00000224A700122EDE711684FF0FF32E9E7AB
:1009C000074B70B50D467B4400F033F804462846CB
:1009D00000F042F810B14FF0FF3070BD204670BDFE
:1009E000BB29000000487047BC0700200048704742
:1009F000BC070020034640688C46002818BF884288
:100A00003CBF03464068F8D318681844884207D0B2
:100A10000CF1030020F00700001D411A521A014694
:100A2000081D0A60FFF7ABBC01694A1C0261087827
:100A3000704700B58FB0CDE901310021059105491E
:100A40007944CDE9031011466846FFF7BFFD0FB0AA
:100A500000BD0000E5FFFFFF007B00F08000704755
:100A60002DE9F05F054617460C46C86820F42010B3
:100A700040F48000C860800602D5084600F065FAA0
:100A8000E06841F282014FF0FF3A0140022903D0B1
:100A9000204600F0F7F9B9E000F42041B1F5004F2D
:100AA0000FD1C00306D56168E06A884200D80846C5
:100AB000606006E02069E0626060606900F092F9C1
:100AC000A061A0680022EEB200280DDAE1688B0573
:100AD0000AD4C043A06041F490302260E0606068B6
:100AE000411C61600670AAE0E0689146226040F413
:100AF0000050E060206978BB606900F065F904F19E
:100B000024054FF00108A8B1A08910F4407F08D057
:100B1000E069FFF705FC206118B1E06840F400606F
:100B200017E0C4F81C802561E06820F4407040F4B0
:100B300080600EE0E069FFF7F3FB00282061F0D051
:100B4000E06840F4006010F4407FE06002D140F4BF
:100B50008070E06020696060E06825696FF0010BDB
:100B6000C1051ED56168E06A884200D80846411B6D
:100B700004D02246284600F08FF9E8BB1FB1E56299
:100B8000C4E9015959E0681CE0626060E069401EF8
:100B9000A060E06840F48030E06030462E70BDE830
:100BA000F09F17B100F480320AE06068411C616078
:100BB0000670E0680A2E40F48030E06006D0002223
:100BC000E16A6068814203D90B4602E00122F7E73F
:100BD0000346B4F80CC05B1B5FEA4C5C04D4D4F849
:100BE0001CC09C4500DD02B3814200D80146002BA9
:100BF000A1EB0008E56200E008E0C4E9015907DD67
:100C000022461946284600F047F908B15046C6E783
:100C1000B8F1000F09D0A169E5626560A1EB080099
:100C2000A061E06840F01000E06047B16168A06931
:100C3000E562491B08446560A0615846AFE730464D
:100C4000ADE7000010B542485421FFF7CFFD414801
:100C50005421FFF7CBFD40485421FFF7C7FD3F4922
:100C60003B483C4A3F4B08603D490A603A4919609D
:100C7000531C0365481C1065012008653B48344A35
:100C800039A1784400F082F920B9384878440A380C
:100C900000F028FA37482F4A35A1784400F076F959
:100CA00020B9344878440A3800F01CFA32482A4AFD
:100CB0002FA1784400F06AF920B92F4878440A3807
:100CC00000F010FA40232248DC000021224600F008
:100CD000B5F820B125487844543800F003FA1D488F
:100CE00022464023002100F0A9F820B12148784491
:100CF000543800F0F7F9184822461023002100F07C
:100D00009DF8002806D01C487844BDE810405638AD
:100D100000F0E8B910BD104870B5006D20F0010476
:100D20000B4800F0ABF90B4800F0A8F90A4800F0B6
:100D3000A5F909E0206D20F00105204600F09EF99C
:100D40002046FFF71CFB2C46002CF3D170BD0000A1
:100D5000C0060020140700206807002000000020C3
:100D60000400002008000020720000008F2800000E
:100D7000770000007B2800006728000010B500F015
:100D8000B9F9BDE8104000F0A8B90EB5CDE90001F1
:100D900000F08EFA029069460120ABBE0EBD08B588
:100DA000694600900220ABBE08BD1FB58DE8070064
:100DB00069460520ABBE04B010BD1FB58DE80F001D
:100DC00069460620ABBEF6E708B5694600900920E3
:100DD000ABBE08BD1CB5CDE9000169460A20ABBE1B
:100DE0001CBD704708B5694600900C20ABBE08BD1D
:100DF00070477546FFF7F6FDAE4605006946534657
:100E000020F00700854618B020B5FFF777FABDE857
:100E100020404FF000064FF000074FF000084FF061
:100E2000000BAC46ACE8C009ACE8C009ACE8C009AE
:100E3000ACE8C00921F007018D46704770B5C46861
:100E4000A50713D0650211D4B2F5807F09D0B2F5A1
:100E5000007F06D0B2F5806F08D1012300F1240194
:100E600006E05D1E6FF07F46B54201D3012070BDE4
:100E70000161C361416024F470611143C1600020CD
:100E800070BD0000C16821F4001141F08001C16013
:100E900000218160016070472DE9F74F15460C462F
:100EA0004FF0FF3B3848D768D2F814A0074209D06A
:100EB0005046A969FFF78EFF002819DB3248C0436E
:100EC0000740EF604FF000496FF000484C4501D3F8
:100ED000464600E0264600993B4650463246FFF71C
:100EE00064FFA96920F00042B21A1144A96128B137
:100EF0002846FFF7C7FF5846BDE8FE8FA41BE5D183
:100F00000020F9E770B504460569C06A6168884247
:100F100000D80846E16821F42011E160C90312D528
:100F2000A84208D02246411B2846FFF7B5FF10B162
:100F30004FF0FF3070BD0020E562C4E90150E06869
:100F400020F48030E060002070BD10B50446C06819
:100F500020F02000E060A16AA06988420DD0204600
:100F6000FFF7D0FFE06820F4405040F01000E06050
:100F7000A06AA0612069E062606044F24001E0681C
:100F80008843E06010BD0000100002002DE9F04130
:100F90000C461646070047D0104600F06FF8207840
:100FA000611C61280AD0722802D077283CD102E067
:100FB0000125002405E00225042402E0082448F26B
:100FC000020511F8010B2B2806D0622809D011F870
:100FD000010C74280AD00BE045F0030544F002042C
:100FE000EFE745F0040544F00104EAE744F010049B
:100FF00038462146FFF7C9FE411C15D0002131615A
:1010000071604FF40071F560F1617061200704D5E3
:1010100030460222002100F09BF8306D40F00100C4
:1010200030653046BDE8F0810020FBE72DE9F04156
:101030000D460646104C206DC10704D0410804D06F
:1010400020F00104F7E722460EE05420FFF768F98C
:1010500007000ED0206D47F00101084354212065A0
:101060003846FFF7C3FB3A4629463046BDE8F04113
:101070008CE70020D6E70000C00600202DE9F047ED
:1010800004464FF0FF380026C568D4E90497A80746
:1010900018D02046FFF736FF3846FFF780FE0028BD
:1010A00000DA4646280502D54846FFF768F94C2184
:1010B0002046FFF79BFB206D20F0010020653046A5
:1010C000BDE8F0874046FBE710B50446AFF300806B
:1010D0002046BDE81040FFF7FCB8002801D000F022
:1010E00031B8704710B500F0C9F8BDE81040FFF7FF
:1010F000F4BF000010B5012805D0002103A000F0C6
:10110000A3F8012010BD09A1F8E700005349475298
:10111000544D454D3A204F7574206F6620686561C7
:1011200070206D656D6F7279000000003A2048658F
:101130006170206D656D6F727920636F727275706A
:101140007465640001491820ABBEFEE7260002006A
:101150002DE9F041044616460D464769007B80079D
:101160002ED03846FFF730FE50BB3EB3012E02D0E2
:10117000022E25D104E0204600F0C0F805441DE011
:101180003846FFF72FFEE168002841F01001E160CA
:1011900005DA2046FFF776FE0120BDE8F081C9039D
:1011A0000BD56268E16A914200D81146A2691144E8
:1011B0002269891A814200DD08460544002D01DAC2
:1011C0000220EAE7E16A6068E268814206D29103A0
:1011D000E06203D522F4003141F01002A669002735
:1011E000AE4213DCE16A814201D90B4600E00346BE
:1011F00003EB060C2369ACEB030CAC4506DD814226
:1012000001D98C4600E084469C4505D1A760276043
:1012100042F02000A5620DE0AD1BE669AE1B8142E5
:10122000A66000D90846C01A281A206058196060C4
:1012300022F0200003490840E060002084F8487054
:10124000ABE70000BFCFD7FF70B505460C460A20BC
:1012500000E06D1C00F04BF835B128780028F8D17B
:1012600002E0641C00F043F814B120780028F8D1A3
:10127000BDE870400A2000F03AB8000010B5014601
:1012800002A0FFF7E1FF012010BD000053494752C3
:10129000545245443A2052656469726563743A2039
:1012A00063616E2774206F70656E3A200000000045
:1012B00010B5431C02E010F8011B71B18107FAD18F
:1012C0004FF0013202C88C1A8C4314EAC211F9D0D3
:1012D000C01A0A0603D0C01E10BDC01A10BD0A04F1
:1012E00001D0801E10BD0902FCD0401E10BD08B503
:1012F00069468DF800000320ABBE08BD10B501465D
:10130000C268900703D0900607D5886A0AE0FFF705
:101310006DFB01210160881E10BD8B69486818446F
:101320000B69C01A91F848301BB191F84910401A66
:1013300010BD1103FCD50028FADD401E10BD0000D1
:10134000FEE700007047000040F63010C2F20000D7
:101350000068704740F27C0040F63011C2F2000095
:10136000C2F2000100780A6810440860704700006B
:1013700080B543F60040C4F20200016841F40071F8
:101380000160016841F480610160016841F480718D
:101390000160032000F074F80F2000F005F800F061
:1013A00027F8002080BD000070B540F27C06C2F234
:1013B000000640F234413278C2F200014FF47A73F1
:1013C0000968B3FBF2F20446B1FBF2F1084600F003
:1013D0006FFB0F2C4FF0010508D838B94FF0FF30E4
:1013E00021460022002500F01FF87460284670BDD9
:1013F00082B0002043F640010190C4F202014A6825
:1014000042F480424A604A6802F480420192019AA2
:101410000090086840F080500860086800F0805034
:101420000090009802B0704710B54EF60C5CCEF2FA
:10143000000CDCF80030C3F3022E8EF00704042CFD
:1014400028BF0424BEF103034FF0FF3E0EFA04F45C
:1014500038BF0023A14399400EFA03F39A43114386
:1014600000F00F0200F160430901043A03F5644300
:101470006244002848BF02F10C03197010BD00003F
:101480004EF60C51CEF200010A684FF6FF031A40E7
:1014900060F30A2242F0806040F0FD7008607047FF
:1014A00070B582B00020019043F64000C4F2020003
:1014B0000168402641F0805101600068C4F20E26A8
:1014C00000F080500190019847F204050120C4F219
:1014D00000053060FFF738FF044600BF2868C003EE
:1014E00006D4FFF731FF001BB0F57A7FF6D90EE086
:1014F00001207060FFF728FF044600BF28688003C2
:1015000008D4FFF721FF001BB0F57A7FF6D903203E
:1015100002B070BD002002B070BD0000002804BF02
:10152000012070472DE9F04143F60808C4F2020893
:101530000446D8F8F8030D4600F00F00884207D2A1
:1015400088F8F853D8F8F80300F00F00A84277D1D4
:101550002068810717D5410705D5D8F8001041F458
:10156000E051C8F80010010705D5D8F8001041F483
:101570006041C8F80010D8F80010A26821F0F0010E
:101580001143C8F80010C00740D1D8F8F80300F0A4
:101590000F00A84207D988F8F853D8F8F80300F0EC
:1015A0000F00A8424CD12068410707D5D8F8001099
:1015B000E26821F4E0511143C8F80010000708D593
:1015C000D8F80000216920F4604040EAC100C8F862
:1015D000000000F055F8D8F8001043F23852C1F37B
:1015E0000311C0F60002515C40F2344220FA01F1CE
:1015F00040F28000C2F200000068C2F200021160F6
:10160000FFF7D2FE0020BDE8F08100BF6068811EB8
:10161000022907D258F8081C89015CBF0120BDE8E7
:10162000F08111E0012807D158F8081C89035CBF3C
:101630000120BDE8F08107E058F8081C890703D4B1
:101640000120BDE8F08100BFD8F8001021F00301AF
:101650000843C8F80000FFF777FE064641F28837D6
:10166000D8F80000616800F00C00B0EB810F8CD05E
:10167000FFF76AFE801BB842F2D90320BDE8F08173
:1016800010B543F60404C4F20204606800F00C00D4
:1016900008280BD0042819BF42F20040C0F2F40021
:1016A00047F64000C0F27D1010BD00BF20682168E1
:1016B0002368490247F64001C0F27D1100F03F0265
:1016C000C3F388105CBF42F20041C0F2F401A1FBF9
:1016D00000010023FEF77AFE21680222C1F30141D6
:1016E00002EB4101B0FBF1F010BD0000002804BF87
:1016F000012070472DE9F04182B00446007843F69E
:101700000006C007C4F202060CD0B06800F00C005E
:10171000042840F081803068800303D56068002889
:1017200000F07281207880071BD5B06810F00C0F94
:1017300009D0B06800F00C00082840F0878070687D
:10174000400200F183803068800703D5E0680128FB
:1017500040F05A813068216920F0F80040EAC10069
:1017600030602078000713D4207840072AD4A56978
:10177000002D00F04481B06800F00C00082840F013
:10178000A580012D40F01281012002B0BDE8F0815A
:101790006069002800F082800020C4F24720012107
:1017A000C0F8801EFFF7D0FD054600BF706F8007B0
:1017B000DAD4FFF7C9FD401B0228F7D9032002B095
:1017C000BDE8F081306C5FEAC0080AD400200190C7
:1017D000306C40F080503064306C00F080500190EC
:1017E000019847F20007C4F200073868C00547D4E3
:1017F000386840F480703860FFF7A6FD054600BFEA
:101800003868C0053CD4FFF79FFD401B0228F7D97C
:10181000032002B0BDE8F081B06800F00C00082899
:1018200003D1706840023FF576AF61683068B1F56A
:10183000803F07D0B1F5A02F40F09C8040F480207D
:101840003060306840F4803030609DE0E06800280F
:1018500040F20000C4F247205CD001210160FFF794
:1018600073FD0546306880073FF574AFFFF76CFDE8
:10187000401B0228F6D9032002B0BDE8F08100BF6A
:10188000A168306F012905D0052955D140F0040029
:101890003067306F40F00100306757E00020C4F23D
:1018A00047200021C0F8801EFFF74EFD054600BF0F
:1018B000706F80077FF558AFFFF746FD401B022889
:1018C000F6D9032002B0BDE8F08100BF0027C4F2C2
:1018D000472700203866FFF737FD022D05460DD15A
:1018E0003068800140F19480FFF72EFD401B0228F4
:1018F0004FF00300F4D902B0BDE8F08130688001F8
:101900007DD5FFF721FD401B02284FF00300F5D9DC
:10191000F1E700BF00210160FFF716FD054600BF9B
:10192000306880077FF51DAFFFF70EFD401B0228D2
:101930004FF00300F4D9DEE720F001003067306F8C
:10194000002920F00400306700F08680FFF7FCFCDF
:10195000054641F2883700BF306F800700F18E8066
:10196000FFF7F2FC401BB842F6D9032002B0BDE8F5
:10197000F08100BF20F4803030603068002920F40E
:101980008020306000F08480FFF7DEFC054600BF59
:10199000306880033FF5C6AEFFF7D6FC401B6428D5
:1019A000F6D9032002B0BDE8F08100BF7068E1699C
:1019B00000F480028A4227D1216A00F03F028A4265
:1019C00022D147F6C071626A0140B1EB821F1BD180
:1019D000A16A4FF6FF73C903994300F44032A1F5A1
:1019E00080318A4210D1E16A00F07062B2EB016F7F
:1019F0000AD1216B00F0E040B0EB017F04D1002060
:101A000002B0BDE8F08100BF012002B0BDE8F08166
:101A100004F11C052FCD246B084340EA8210D90342
:101A20004FF6FF729143A1F5803140EA056008430B
:101A300040EA0470706001203866FFF785FC0446B8
:101A400030688001DBD4FFF77FFC001B02284FF0D9
:101A50000300F5D94FE700BFFFF776FC054641F2DA
:101A6000883700BF306F800708D5FFF76DFC401B3B
:101A7000B8424FF00300F5D93DE700BFB8F1000FC1
:101A80003FF575AE306C20F0805030646FE600BFDB
:101A9000FFF75AFC054600BF306880037FF542AE71
:101AA000FFF752FC401B64284FF00300F4D922E7F3
:101AB000411E0020B0EB116F1CBF012070474EF299
:101AC0001002CEF2000251604EF62351CEF2000118
:101AD000F0230B700721906011607047FEE7000053
:101AE00081B00020009043F63000C4F2020001688B
:101AF00041F001010160006800F0010000900098D1
:101B000001B0704710B540F61C04C2F2000440F268
:101B1000905104F11800C2F20001002200F012F905
:101B2000C2B24AB1030A43F2B870C0F600000BA17A
:101B3000FEF7C4FCFEE700BFA069002100F0F2F947
:101B4000A169E0600846002100F0FCF9E16820612D
:101B500049684068C4E9001010BD00BF61695F6E4C
:101B60006574776F726B5F6372656174655F616ED8
:101B7000645F696E69740000B0B588B040F61C05FA
:101B8000C2F200054FF07F50A8601C20FEF7C8FB92
:101B90000446E8601C20FEF7C3FB002C286143D0FC
:101BA0000246002840D041F2400C0120C0F2821CC5
:101BB00005F108030021CDE90400CDE90600CDE9D7
:101BC0000000CDE90200C4E900C3C4E902112061AC
:101BD0002075E17504ABC2E9021110611075D17571
:101BE0006946A8694FF0040EA36105F114039161E1
:101BF0002146A4F815E0C2E900C3A2F815E000F000
:101C0000B1F9012804BF08B0B0BDA86900F008F917
:101C1000030AC2B243F2B870C0F600000CA1FEF78E
:101C20004DFC00BFFEE700BF02A008B0BDE8B04019
:101C3000FEF768BD4D656D6F727920616C6C6F63E6
:101C40006174696F6E206661696C656421000000D3
:101C500061695F6E6574776F726B5F72756E00009D
:101C6000FEE70000FEE7000070470000704700003C
:101C7000FFF770BB10B594B007AC20463421FEF7D7
:101C8000B5FD002043F640010690CDE90400CDE902
:101C900002000190C4F202010A6842F080520A6018
:101CA000096801F080510191019947F2000101900A
:101CB000C4F200010A6842F440420A600968012245
:101CC00001F44041019101990221CDE90D10082054
:101CD0000F90B420CDE9100104200A921022CDE922
:101CE0001201204607910B92FFF700FD10B172B66A
:101CF000FEE700BFFFF7D4FB10B172B6FEE700BFEE
:101D00000F20029002200390002004904FF4A05076
:101D100005904FF48050069002A80521FFF7FEFBC6
:101D200010B172B6FEE700BF14B010BD4EF6885079
:101D3000CEF20000016841F47001016070470000BC
:101D4000FEE700002DE9F04790B0154640F29452AE
:101D50000E4600270524C2F200020021012381461D
:101D6000CDE9004700F028FF010603D010B0BDE820
:101D7000F08700BF0DF108088246404600F034F8B5
:101D800058B386B1BDF8160068B108F10C070024FD
:101D900056F824203846214600F0EAFDBDF816002A
:101DA00001348442F4D385B1BDF80E0068B108F166
:101DB0000406002455F824203046214600F0D8FDC2
:101DC000BDF80E0001348442F4D3D9F8000002A912
:101DD00000F028F800285046C8D1D9F8000000F0DB
:101DE00039FF10B0BDE8F087002804BF002070471D
:101DF00080B584B043F22851C0F60001D1E9001249
:101E0000039243F23052C0F60002D2E9002302915D
:101E1000CDE90023694602AA00F062FE04B080BD4D
:101E200000F018BF2DE9F0470F46824600F020FF72
:101E3000002845D040F63808C2F200080646404661
:101E400001213A4600F082FE40F2840440F20C0583
:101E50008146C2F20004C2F20005A8B3206B2168DB
:101E6000226940F080402063D8F8000041F08041B2
:101E700042F08042216000F1500122612A6B236C04
:101E8000C4E9021100F5F071A161E16142F0804105
:101E90002A6C43F08043296300F50271C4E90E0007
:101EA000236400F12803A963E96342F0804100F54F
:101EB0000C70C4E912332964C5E9120009E000BFBF
:101EC0000020BDE8F08700BF30463021122200F02C
:101ED000ADFF08F1040001213A4600F021FE07465B
:101EE00090B1D8F8040000F12401C5E9021100F115
:101EF0002801C4E90A11C5E91A11C5E91600C5E9A6
:101F00000A11C5E9060004E030463021132200F032
:101F10008DFF504600F038FF384000EA0900BDE868
:101F2000F0870000002818BF00F024BE40F2945053
:101F300040F20012C2F20000CAF2C012026000F0C9
:101F400019BE0000002818BF00F076BF40F2945080
:101F500040F20012C2F20000CAF2C012026000F0A9
:101F60006BBF000000F038BFFFF702FAFFF782FEF8
:101F7000FFF7B6FDFFF7C6FDFFF7FEFDFCE700002B
:101F80009FED4B0A63E000BFD2ED003A91ED004AAD
:101F900092ED013A91ED011A04EE230AD2ED021AF4
:101FA00091ED022AD2ED032AD1ED030A92ED044A03
:101FB00001EE030AD1ED043A91ED053A92ED071ACC
:101FC00002EE210A92ED052AD1ED061A00EEA20AD0
:101FD000D2ED062AD1ED070A03EE840A92ED084AF3
:101FE000D1ED083A03EE020A92ED093A92ED0A2A7F
:101FF00001EEA20AD1ED092AD1ED0A1A00EE810AFA
:1020000092ED0B1AD1ED0B0A03EE840AD2ED0C3AD5
:1020100091ED0C4A02EE830AD2ED0D2A91ED0D3AB4
:1020200001EE820A92ED0E2AD1ED0F1A00EE810A1E
:10203000D1ED0E0A92ED0F1A40314032103B04EE02
:10204000230A03EE220A00EE820A01EE810A102B17
:102050009AD21AE0D1ED000A92ED001A00EE810A40
:10206000D1ED010A92ED011A00EE810AD1ED020ACA
:1020700092ED021A00EE810AD1ED030A92ED031AE5
:10208000103110321B1F00EE810A042BE2D206E051
:10209000F1EC010A5B1EB2EC011A00EE810A002B82
:1020A000F6D1D0ED000A30EE800A80ED000A7047CC
:1020B0000000000010B54169044688472069A0422D
:1020C00000D1002010BD00002DE9F04F002699B08E
:1020D0000F4605463446B0464CE0A868C4EBC4033E
:1020E0008946426802EB83020E92806810AA00EBD8
:1020F000C40A2C480D9251F8082F006A120A62F3A4
:102100001F200190D1F804B01C2105A8FEF76EFB3A
:10211000D9F81800006800F097FB0590D9F818006E
:10212000806806905FEA0A0009D0C0F80080D9F8FC
:102130000010416029B1498819B1012102E04046EF
:1021400003E00021016001B900200790D9F81800D0
:102150001C2205A9406809900198CDE90A0B0D9849
:10216000FEF712FB1C2210A90E98FEF70DFB761C41
:10217000B6B2641C0DB1288800E00020A04205D949
:10218000686818B150F824100029A6D11EB1A868BB
:102190004068386001E0C7F8008019B03046BDE8FB
:1021A000F08F000074340008D3ED000A9FED0B1A85
:1021B00001EB820300EB8200001F1B1F8B420BD33D
:1021C00093ED000AB4EEE00AF1EE10FA01D8B0EE99
:1021D000410A80ED000AEFE77047000000000000B0
:1021E00030380A2801D201207047002070470000D3
:1021F000F0B50546059C24F0010003EB80069FED39
:10220000460AE70856E001C9D3ED002AC0F3031CD3
:1022100002EB8C0C9CED002A00F00F0C02EB8C0CF6
:1022200002EE220ADCED001A93ED012AC0F3072C1E
:102230004FEA1C1C02EB8C0C01EE820A9CED001A8A
:10224000D3ED021AC0F3032C02EB8C0CD3ED042A5D
:1022500001EE210ADCED000A93ED031AC0F3074CEE
:102260004FEA1C1C02EB8C0C00EE810A9CED002A4C
:10227000C0F3034C02EB8C0CDCED001A02EE220AD8
:1022800093ED052A4FEA107C02EB8C0CC0F303603F
:102290009CED001A01EE820AD3ED061A02EB8000D3
:1022A000D0ED000A01EE210A93ED071A20337F1EBC
:1022B00000EE810A002FA6D116E000BF11F8010B35
:1022C00093ED001A070902EB870700F00F00D7ED26
:1022D000000A02EB800000EE810AD0ED000A93EDC7
:1022E000011A083300EE810AB342E7D3E0070AD0AF
:1022F00011F8010B93ED001A000902EB8000D0EDFC
:10230000000A00EE810AD5ED000A084630EE800A88
:1023100085ED000AF0BD000000000000F0B50446A5
:10232000059D9FED370AE8084FE040C9D3ED002A2C
:10233000F7B202EB8707401E97ED002AC6F3072786
:1023400002EB870702EE220AD7ED001A93ED012A6D
:10235000C6F3074702EB8707360E01EE820A97EDB8
:10236000001AD3ED021A02EB8606D3ED042AD6ED4D
:10237000000A01EE210A93ED031A40C9F7B200EEFC
:10238000810A02EB870797ED002AC6F3072702EBC5
:10239000870702EE220AD7ED001A93ED052AC6F34D
:1023A000074702EB8707360E01EE820A97ED001A07
:1023B000D3ED061A02EB8606D6ED000A01EE210ADD
:1023C00093ED071A203300EE810A0028ADD105F005
:1023D00007000AE011F8015B401E02EB8505B3EC33
:1023E000011AD5ED000A00EE810A0028F2D1D4EDE1
:1023F000000A084630EE800A84ED000AF0BD0000B5
:102400000000000070B505460C464888698888427F
:1024100002D9AAB1002070BD92B100260CE000BF25
:102420006168C6EBC6006A6801EB800102EB8000C0
:102430001C22FEF7A9F9761C6088B042F0D801E0B2
:10244000606868606088688020882880012070BD8E
:1024500030B500B3F9B1F2B15268E2B10F4C136874
:10246000A34203D00260012913D014E00023121DFF
:1024700007E000BF52F82350A54204D040F8235093
:102480005B1C8B42F6D38B4205D152F82300A0424D
:1024900001D1012030BD002030BD0000DECAFAA10C
:1024A00070B50D46060014461AD0CCB1104600F0A7
:1024B00071FA00B16088A84212D10023042109E01A
:1024C000C3EBC302606801EB8202805820B146F87A
:1024D00023005B1CAB42F3D3AB4201D1012070BDA2
:1024E000002070BD0349884201D1012070470020BF
:1024F00070470000DECAFAA12DE9FE4F92468946D8
:10250000040003D0208E20B1656B03E00020BDE8FD
:10251000FE8F0025002060832083207CC04380073D
:1025200002D030221121DCE0B9F1000F61D0D5B327
:102530002888C0B3D9F818000026D0F8008056E0EB
:10254000A868006800EB0610019052D058B3C6EBA3
:10255000C600029009EB80000121009000F024FAEF
:10256000DBF81830596888421AD80098DBF80C203C
:102570008069D768D0F80CC0674511D19768D0F84A
:1025800008C067450CD152684068824208D118687B
:1025900000F04BF90746584600F002FF874203D28D
:1025A000182212219DE024E0DBF81800006800F0FA
:1025B0004BF9029920F07E4259F8210020F07E402C
:1025C000824201D01922ECE70098406888B1009857
:1025D0008069006878B14146404500D2084680468F
:1025E000DDE900105A4600F08FF8761C2DB12888DE
:1025F00004E01722D5E72122D3E70020B04206D914
:10260000686820B150F826B0BBF1000F98D1BAF13C
:10261000000F74D0208E012806D9656B0C3503D0CD
:10262000288808B1002658E0182259E0A8680068F8
:1026300000EB061B3BD0BBF1000F38D0C6EBC60049
:1026400001900AEB80000121009000F0ADF9D9F86B
:10265000183059688842E7D80098D9F80C2080696A
:10266000D768D0F80CC06745DED19768D0F808C0AD
:102670006745D9D1526840688242D5D1186800F0C8
:10268000D4F80746484600F08BFE8742CCD3D9F8F1
:102690001800006800F0D8F820F07E4201985AF83F
:1026A000200020F07E40824203D0192218E0172239
:1026B00016E0009840680028F9D00098806900680A
:1026C00068B14146404500D2084680464A465846D1
:1026D000009900F019F8761C3DB1288806E0212207
:1026E0001321204600F0A2FB10E70020B04206D9DB
:1026F000686820B150F82690B9F1000F96D1A4F87F
:1027000018804FF0010002E770B504460E461546EA
:10271000104600F045FE0146A060B06900684843DD
:10272000E06071686160726810442060A8690268A6
:10273000920007D4D0E90223D21A11448160A9691A
:102740006068C86070BD70B50646002521E0B068BD
:10275000006800EB051488690268920005D581685D
:10276000A268606800F030FE08E0D0E90223D21AC7
:1027700063681A44826089696068C860D4E90101AD
:10278000084460602168884201D3E068081A6D1C23
:1027900060600EB1308800E00020A84206D9706861
:1027A000002803D050F825100029D0D170BD2DE9A4
:1027B000F0410646002529E0B1688369096801EB0C
:1027C000051419688900D4E901120DD5986800F044
:1027D000FBFDD4E90101084460602168884201D30F
:1027E000E068081A606010E00A44626021688A426A
:1027F00001D3E2688A1A62608169D1E90237DB1B82
:102800001A448A6080696168C1606D1C0EB13088AD
:1028100000E00020A84206D97068002803D050F8D4
:1028200025000028C8D1BDE8F08159B1C0F3C61217
:102830005143C91D21F00701C0F34150C140C91DDA
:10284000C80870470020704770B54021C0F343426C
:10285000022A1BD0394A20F07E439C1A0D014E01FA
:1028600093425FD029DC364AA3EB0204934259D04D
:1028700019DC402B57D0403BB3F580234CD0802B44
:1028800037D0AB424FD12E49C91F4CE0C0F3C051E5
:10289000C905C0F3C61241EAC21100F07F0211431C
:1028A00041F480213FE0A4F54074F93C1FD00F2C87
:1028B00035D0B44237D1234935E0234BE21A9C424C
:1028C0001BD00BDC214AA2181DD0802A19D0AA42A5
:1028D00011D0A2F58062073A25D117E00F2A18D04F
:1028E000B2420CD01A4BDA421DD11A491BE01A49E8
:1028F00019E01A4917E01A4915E01A4913E01A4974
:1029000011E01A490FE0194980390CE01449C91D3A
:1029100009E014490F3106E01049803903E00E49FF
:102920000F3100E0114600F080420A4300F00051F0
:10293000114300F00060084370BD00004004060031
:10294000470404004010040000047E00000482FFDD
:1029500000F801FF4010820140080400C00004009C
:10296000400484004008840040108400C0008400BB
:1029700070B514460D46064600F00CF840B170687C
:10298000C5EBC50110EB810002D04460012070BD91
:10299000002070BD28B1416819B1408808B10120FC
:1029A000704700207047000010B502002AD0164B77
:1029B0001068B3EBC01F03D0144BB3EBC01F01D1A1
:1029C000012000E0002008429069406802D01F30DA
:1029D00020F01F005369D9B2012900D000211C0A40
:1029E00007E0012907D0936953F821305843491C67
:1029F0001AB1234602E00123F8E700238B42F0DC02
:102A0000002800DC002010BD0060004200600002D1
:102A100008B509A10968009148B101789DF8002026
:102A2000914204D104226946FDF782FE08B10020DC
:102A300008BD012008BD0000038404842DE9F04195
:102A4000066C816B04460025C163CEB1D9B101206B
:102A5000626CB0470CE00220626CB047E06BFFF79D
:102A600029FB07460320626CE16BB0476D1CE763EE
:102A7000E16B0029EFD106E0FFF71CFB6D1CE06362
:102A8000E06B0028F8D12846BDE8F081034600201D
:102A9000996B002908D0CB600A69401C8A4203D098
:102AA000002A01D01146F6E770472DE9F041846B0A
:102AB000002594B1012600272079C00707D0216A9C
:102AC000204611B18847304600E038460544206969
:102AD000A04202D008B10446EEE72846BDE8F081E6
:102AE00010B570B169B162B1074C0460D1E9004121
:102AF000C0E90141D2E90012C0E9031201231846DE
:102B000010BD002010BD0000DECAFAA1016810B19E
:102B1000024A8A4300D00020704700000001C0A193
:102B200030B44AB140B139B1074C1368A34206D161
:102B300030BC0C32FFF7B4BC30BC0020704730BC56
:102B40001C32FFF785BC0000DECAFAA130B44AB1DE
:102B500040B139B1064C1368A34206D130BC121DF6
:102B6000FFF79EBC30BC0020704730BCFFF770BC44
:102B7000DECAFAA1F8B50E46FFF7C8FF04000AD076
:102B800000270097208E00B1606B6946FFF79CFA22
:102B9000050006D00BE01022114600F047F9002096
:102BA000F8BD18221121204600F040F9009706B127
:102BB00035800098F8BD00002DE9F04F89B0050080
:102BC000DDE912104FF0000A564663F30706CDE91F
:102BD000011361F30F261D4F9146544660F31746CB
:102BE000834618D0C5F8009000F063F9B8B1B84634
:102BF000BF8AC6F30721F0B2002200F04EF9064664
:102C0000C7F30721F8B2002200F047F9864208D046
:102C1000D8F804400EE0F86909B0BDE8F08F3C68D0
:102C200008E00BA0006800906846FFF7F1FE18B9B5
:102C3000D8F80840C5F800A0DDE901105A4600F0B8
:102C40002CF9C9F808002046E6E7000074340008B3
:102C50000384048410B5FFF759FF20B1BDE810408C
:102C60000C3000F020B90148806910BD74340008B0
:102C70002DE9F04F91B00C46FFF748FF050013D047
:102C8000B4B13DA12068FFF72DFC06004FF0000B0A
:102C900011D020680190D4E90301CDE90401D4E901
:102CA0000101CDE9020143E0002011B0BDE8F08F41
:102CB000112210215CE001212046D4F804A0FFF786
:102CC00073FE804604F11C00D4F82090012110907E
:102CD000FFF76AFE07461422294907A8FDF754FDAD
:102CE0000120B8F1000F02D0ADF8220002E0ADF8EB
:102CF00022B0002409941FB1ADF82A00109802E018
:102D0000ADF82AB000200B90B9F1000F02D10FB13D
:102D1000132206E0BAF1000F05D1B8F1000F02D07E
:102D20001222102123E0142207A901A8FDF72CFD8F
:102D300014492868884212D186F00102144602A97B
:102D400005F12000FFF75EFB68B1224604A905F1FA
:102D50002800FFF757FB40B12846FFF797FE0320F6
:102D600028612846A1E7122200E0132216212846F6
:102D700000F05CF898E70000696E697400000000DC
:102D8000C83400080001C0A170B5FFF7BFFE0028DD
:102D900007D0017C890705D41022112100F046F8E4
:102DA000002070BD0B4A0168914211D10546FFF722
:102DB0007CFE286C60B1AC6B54B1D5E91032214671
:102DC000002098472069A04202D008B10446F4E7E9
:102DD000012070BD0001C0A170B513460D46FFF77C
:102DE00095FE04461A462946FFF786FB00281CD0AC
:102DF000208E08B1656B00E00025012802D9666BC2
:102E00000C360DE000260BE02846FFF79CFC204620
:102E1000FFF714FE3046FFF7CAFC608B401C60834E
:102E2000608B218B8842EFD380B270BD002802D026
:102E30000C3000F040B87047F8B50E46FFF766FE5C
:102E4000040007D000270097208E012808D9606B66
:102E50000C3006E010221146FFF7E8FF0020F8BD15
:102E600000206946FFF730F9050005D1182211212D
:102E70002046FFF7DBFF009706B135800098F8BDCC
:102E800002460068010A012004E05368491E53F815
:102E9000213058430029F8D17047000640EA01402C
:102EA00040EA022070470022016802700260084672
:102EB000704701207047037813F0FF0F01D0002006
:102EC00070470170016862F31F21016001207047A3
:102ED0002DE9F047806988B0018809B1426800E0B7
:102EE0000022526832B109B1426800E00022526803
:102EF000146800E00024012902D942680C3200E085
:102F0000002252684AB1012902D942680C3200E01D
:102F100000225268D2F8008001E04FF00008022938
:102F200002D94268183200E00022526842B10229F8
:102F300002D94268183200E000225268176800E0A7
:102F4000002702290BD9426812F1180F07D032F876
:102F5000183F012B03D9526812B1526800E00022D9
:102F6000E368D8F80CC003295E68DCE90153DCF89B
:102F70000CC003FB0CF3D7F818C0DCF8007027F086
:102F80007E4A02D94768243700E000277F685FB196
:102F9000032902D94068243000E00020406800681E
:102FA00010B18069876800E00027D8F81800A1698F
:102FB0008068896812B19269946800E00024DCE9B5
:102FC000022CDFF85080E1461AEB080C10D0BCF55B
:102FD0009C0F15D0BCF5CC0F07D10097CDE903535A
:102FE000CDE901464B4600F063F808B0BDE8F08734
:102FF0008DE85700CDE90553684600F00DF8F4E779
:103000000097CDE90353CDE901464B4600F0A6F801
:10301000EBE70000C0EF7DFE2DE9F04F04462DEDFB
:10302000028B81B0D0E9005AD4E90501484305EB91
:10303000800934E060692E4605EB80089FED1B8A0D
:10304000D4F810B0A7680DE08DED008A5B465246BB
:1030500039466846FEF794FF9DED000A07EB8B07A3
:10306000A6EC010A4645EFD3E06890B100200DE0E0
:10307000E16801EB800191ED000A05EB8001401C45
:10308000D1ED000A30EE200A81ED000A616981422B
:10309000EED8216960690AEB810A05EB80054D4590
:1030A000C8D301B0BDEC028BBDE8F08F000000007A
:1030B0002DE9FF4F04462DED028B83B08B46DDE9F1
:1030C0001550DDE9128A684304EB8006DDF8509064
:1030D0005FEA080005D040224146184600F074F926
:1030E00033E0984631E000BF04EB85079FED1A8A74
:1030F00007990DE08DED018A5B46424601A8CDF8A7
:103100000090FFF775F89DED010A0146A4EC010A55
:10311000BC42EFD30BEB890BBAF1000F15D0A4EB37
:10312000850100200DE000BF01EB80020AEB800367
:1031300092ED000AD3ED000A401C30EE200A82ED29
:10314000000AA842F0D301EB8504B442CCD303B00B
:10315000BDEC028BBDE8FF8F000000002DE9FF4FA2
:1031600004462DED028B83B08B46DDE91550DDE979
:10317000128A684304EB8006DDF850905FEA08008D
:1031800006D04FF480624146184600F01DF932E047
:10319000984630E004EB85079FED1A8A07990DE009
:1031A0008DED018A5B46424601A8CDF80090FFF7FD
:1031B000B5F89DED010A0146A4EC010ABC42EFD32B
:1031C0000BEB890BBAF1000F15D0A4EB85010020A1
:1031D0000DE000BF01EB80020AEB800392ED000AD4
:1031E000D3ED000A401C30EE200A82ED000AA8420E
:1031F000F0D301EB8504B442CCD303B0BDEC028B19
:10320000BDE8FF8F00000000D3ED021A93ED000A25
:1032100093ED011AF5EEC01A01EB8203F1EE10FAFC
:1032200000EB82002AD2B5EEC01AF1EE10FA11D0EE
:10323000001F1B1F8B4220D3D3ED000AF4EEC00AFF
:10324000F1EE10FA03D870EEC00A60EE810AC0ED0C
:10325000000AEDE79FED161A0BE000BFD3ED000A60
:10326000F4EEC00AF1EE10FA01D8F0EE410AC0ED1A
:10327000000A001F1B1F8B42F0D27047001F1B1F4C
:103280008B42FAD3D3ED000AF4EEE10AF1EE10FA24
:1032900009D8F4EEC00AF1EE10FA06D870EEC00AB2
:1032A00060EE810A01E0F0EE610AC0ED000AE5E798
:1032B0000000000070B505468069018809B14268C8
:1032C00000E00022526832B109B1426800E00022F9
:1032D0005268146800E00024012902D942680C32C7
:1032E00000E00022526842B1012902D940680C3046
:1032F00000E000204068066800E00026E86988B128
:103300004068012804F108002CD0FFF7B9FD0246FF
:10331000E8698368A0698168B0698068BDE8704029
:10332000FFF772BFB0698668A069856804F108007C
:10333000FFF7A6FD05EB800106EB8000DFED100A2C
:103340000BE000BF91ED000AB5EEC00AF1EE10FAF5
:1033500001D8B0EE600A80ED000A001F091FA942E3
:10336000F0D270BDFFF78CFD0246E8698368A06962
:103370008168B0698068BDE87040FEF715BF000045
:10338000000000008A68002A02DC0022FDF768BB0A
:10339000521E8A604A68C0B2531C4B60107070475E
:1033A0000146C0684A698969C068D26809685043A3
:1033B000044A1140A1F58022C03A01D1C01DC008C5
:1033C00070470000FFFF7F01F0B588420ED0002A51
:1033D0000CD08318814210D999420ED2114403E0D7
:1033E00013F8012D01F8012D8342F9D8F0BD00BF7B
:1033F00010F8013B01F8013B521E8B0701D0002A57
:10340000F6D1170911E000BF50F8046B7F1E50F889
:10341000045B50F8084B50F8043C41F8046B41F849
:10342000045B41F8084B41F8043C002FECD1C2F397
:10343000810304E050F8044B41F8044B5B1E002B61
:10344000F8D102F0030204E010F8013B01F8013B5F
:10345000521E002AF8D1F0BDF1EE100A4FF6FF71AE
:10346000C0F2C03120EA010040F04070E1EE100AE5
:103470007047000030100000011000000210000032
:103480000901000001020000010500001010000009
:10349000101000000100000000000000010000000A
:1034A00000000000010000000100000040040400D2
:1034B000000000000000000000000000000000000C
:1034C0000104000000000000DECAFAA100000000B4
:1034D0000000000000000000000000003031323326
:1034E0003435363738394142434445464030580038
:1034F000303132333435363738396162636465666A
:1035000040307800040000080000000000000002C5
:1035100000010000103A7474003A7474003A747434
:10352000000000000000000000000100E005002095
:1035300000000100FC050020000000000000000069
:103540000102030406070809040000009C02002091
:1035500004000000C003002004000000200200203E
:103560000400000044030020040000008801002043
:10357000000000000000000000000000000000004B
:10358000D454033F17D3CABD10EA903D03B4F13EB3
:1035900000000080D905843F96B8083F35C2A63F99
:1035A000E68056BF47E5363FC82ABEBEA3BAAEBDC9
:1035B000F43563BF93B3F1BFC459CEBE452BB3BF3F
:1035C000D9BA90BD973F0D3F4458E93EA250CBBFBA
:1035D0003A529E3EFF439BBE3DE79BBE1AA0094068
:1035E0009C17C73D0D7F733F24B8873EFD70B2BE68
:1035F000D6E631BE40A09E3FB7D2BBBEA6C348BEF2
:103600004A80563E9807213DFEB1D0BD7DC1CEBE59
:10361000C216083DBAA96E3D3C37E93DF09C12BE8A
:10362000B4DBFCBDFA9F0B3EB2029CBEEFAD893EFF
:103630007E479DBE8CCC27BEA6D1A9BDAE650BBE74
:10364000000000000C03C8BD9E096BBE24F780BDBE
:103650008410A3BD4B8F20BEBE4DDCBDF0058F3D59
:1036600009499DBEA8685A3D1FF9A03E98D346BDA2
:103670006E939D3EA4D29E3CC41BF8BDD88F3B3FA9
:10368000D8BD96BD3AFF593FDCEABB3EFD161F3F51
:1036900016C886BEFA2C983FB6955A3EE9E232BE6D
:1036A0001E0B6F3E00F34CBECA041A3EB4FB12BEA2
:1036B0008DAE853E12857EBE6A89453E987E27BDC9
:1036C0008BC7703D9E9DD63D32843F3EE0C6793D1E
:1036D0003070F8BC2361E03DB69C64BDD8BF8FBE9E
:1036E0008D070EBE8F8F45BD7CA4D53E06D507BD88
:1036F0005E9E463E3D72603F48024CBE27C36C3F13
:10370000E175EC3E1BDB143FCE19673E4BC7A43F6F
:10371000E0F43BBCE883513DDCA090BD1CC5B4BDCA
:10372000B01A873CEEA695BE290A9C3E447680BE20
:103730004B8110BEA9DA9E3ECE8BCC3E43C9B0BDB4
:10374000F8A04E3DC7A95F3FA30D49BE45E7D63E51
:103750006438023F93AD243FC25EAFBD0B01483FCA
:10376000E27595BF6E093ABE7A310D3EEAA787BD74
:10377000F2C08DBE26552E3EEBA33B3E321D3DBE14
:103780009A001A3E35E6A2BDDB9AA13F7F9011BE9A
:10379000F70F35BEF275FABDE0A72F3F381F52BDB7
:1037A000358B2DBE1DAA133F63C84CBEBE4FF33EE2
:1037B0006592B3BD0000000054454D504C41544546
:1037C000202D204572726F722028257329202D200C
:1037D000747970653D30782530327820636F646588
:1037E0003D3078253032780D0A000000203800087E
:1037F00000000020C006000018020008803A0008FF
:10380000C006002078820000780200080000000056
:1038100000000000000000000000000000000000A8
:10382000C10E1C4010820901100B1D010A10092A4B
:1038300030292C5A10180A2D6468091E584B34027E
:103840000869049A500CE92013B4081B2040041A9C
:103850005C04136C061B2064081A74041A90042973
:10386000201330044C2004010C1A10085A140CA91F
:1038700004DA0404091E204B38056C1A88041A3433
:103880000429241A785869C05A7C0C19A7115A8047
:103890000C411A9894692429F4E9605A2804A91C57
:1038A0006920691C2904091EA01A70F429A4291C86
:1038B0008B1802745A1C0C415A9C8C410A25A09802
:1038C0001A7454295C2B400416A11A34E91A011306
:1038D00022D42B208C7C190429409A707C5A740CB9
:1038E000192B119A94880A25A47C291CE9202918EF
:1038F0001A900D2904E94029040A1950501AE0A42D
:1039000029D0291C8B3C03845A400C415AA89C4165
:103910000A25ACA82B40040EA1398419131A1C588F
:103920001318062A20781AFC041AA80429409AB011
:103930007C5AB40C32029AB8880A25B07C091E2041
:103940002980115324F419642A01981A0C681A0268
:10395000081A2C082294D5200401031318051420FA
:10396000D12E140848354208190539384B50023811
:103970001A60081A5C3859A0391C5AEC1C1AFC0849
:103980005A841C291F291C1A10F8291C1A20083ACD
:10399000C47029AAA15A54705A50705A06385A74E1
:1039A000A81A84085AA4545A0B1C5AF01C19ED1B6F
:1039B00020B41C2A0715B11A50F813B5325B085809
:1039C00054415A093C4BB8013C1AC8083A2C3CCA2D
:1039D00002901954293C9A603C5A073C5ACCE81A88
:1039E000DC081A6C3C1BE0089800081401C0A135E3
:1039F0003F46F21DDECAFAA13B111A783029082A87
:103A000094B8311A207C1AC4680110DB4004C83114
:103A100029781AE433291C9A80941A3449291C1AEB
:103A2000F41C415A05A45A38E01A48085A0C1C19CB
:103A30000F391C5AF81C1A08901A4C1C1B0401362A
:103A4000A97012061420D12E5B0868685A0A385AE9
:103A500058381A68085A1C545A031C5AD81C1AE8B9
:103A6000085A3C1C01180000000000000000000083
:103A70000000000000000000000000000000000046
:04000005080001B539
:00000001FF
