:020000040800F2
:10000000980C001059490008334900083549000888
:1000100037490008394900083B4900080000000042
:100020000000000000000000000000003D49000842
:100030003F4900080000000041490008434900080A
:100040009149000895490008994900089D49000810
:10005000A1490008A5490008A9490008AD490008C0
:10006000B1490008B5490008B9490008BD49000870
:10007000C1490008C5490008C9490008CD49000820
:10008000D1490008D5490008D9490008DD490008D0
:10009000E1490008E5490008E9490008ED49000880
:1000A000F1490008F5490008F9490008FD49000830
:1000B000014A0008054A0008094A00080D4A0008DC
:1000C000114A0008154A0008194A00081D4A00088C
:1000D000214A0008254A0008294A00082D4A00083C
:1000E000314A0008354A0008394A00083D4A0008EC
:1000F000414A0008454A0008494A00084D4A00089C
:10010000514A0008554A0008594A00085D4A00084B
:10011000614A0008654A0008694A00086D4A0008FB
:10012000714A0008754A0008794A00087D4A0008AB
:10013000814A0008854A0008894A00088D4A00085B
:10014000914A0008954A0008994A00089D4A00080B
:10015000A14A0008A54A0008A94A0008AD4A0008BB
:10016000B14A0008B54A0008B94A0008BD4A00086B
:10017000C14A0008C54A0008C94A0008CD4A00081B
:10018000D14A0008D54A0008D94A0008DD4A0008CB
:10019000E14A0008E54A0008E94A0008ED4A00087B
:1001A000F14A0008F54A0008F94A0008FD4A00082B
:1001B000014B000840F0200070472DE9F14FB0B02E
:1001C000924604910DF142013A9A2B9199464A7058
:1001D00000200AE01AF8011B0498309A9047002882
:1001E000049000F042860D98401C0D909AF8000093
:1001F00050B12528EED100210022079108920991E3
:100200000A920B910C9204E00D9800F030BE41F080
:1002100001011AF8010F2028F9D023280CD02B282F
:1002200004D02D2805D0302809D00BE041F0020180
:10023000EFE741F00401ECE741F00801E9E741F0A4
:100240001001E6E72A280FD1D9F8002052F8040B54
:10025000C9F8002000280F9003D540420F9041F0CC
:1002600004010AF1010A14E00F92DFF8083C0AE0E9
:100270000F98984205DA00EB800402EB4402303A12
:100280000F920AF1010A9AF80020A2F130000A2820
:10029000EED39AF800002E2803D04FF0FF320E92D2
:1002A00029E01AF8010F2A2809D1D9F8000050F8DE
:1002B000042BC9F800000E920AF1010A1BE02D2858
:1002C0000CBF0AF1010A002000220E92DFF8A44BB5
:1002D0000BE040B90E9AA24205DA02EB820503EB6D
:1002E0004503303B0E930AF1010A9AF80030A3F15E
:1002F00030020A2AEDD3ADF840100FF67C309AF8A0
:10030000001000F0BDFE08B11AF8010B8DF8420094
:100310009DF84200682805D19AF8000068280CD1A1
:10032000622106E06C2804BF9AF800006C2804D112
:1003300071218DF842100AF1010A12A806901AF8EC
:1003400001BBBBF125012CD01C3900F09481091FA1
:10035000022940F29081133900F0B984093900F084
:100360008A81891E00F04E85491E00F0FB84491EDB
:10037000022940F28081091F00F0F484491F00F037
:10038000EF80491E00F0A384491E00F0D780C91EEB
:100390000CD0891E00F09B84C91E00F0988400F0E8
:1003A0003CBD01230793252100F034BDD9F800009E
:1003B00050F8044BC9F80000002C059440F0AB80C5
:1003C0002B994878002800F0A1804FF0FF340FF6F9
:1003D000B02000F061FE201A40F0478500F029BDF2
:1003E00001236A4602A9304600F00EFE002840F0C4
:1003F0003C856D1EF4D13096079D12AF75B1309ECD
:1004000017F8011B0498B0470028049000F02D85D0
:100410000D98401C6D1E0D90F2D130960A9D302132
:10042000002D8DF800100CDD309E01236A4602A9D4
:10043000304600F0E9FD002840F017856D1EF4D12C
:100440003096059F089D75B1309E17F8011B0498E2
:10045000B0470028049000F008850D98401C6D1EE0
:100460000D90F2D130960B9D3021002D8DF80010AB
:100470000CDD309E01236A4602A9304600F0C4FD1F
:10048000002840F0F2846D1EF4D13096059808994A
:10049000099D471875B1309E17F8011B0498B047A5
:1004A0000028049000F0E1840D98401C6D1E0D9012
:1004B000F2D130960C9D3021002D8DF800100CDD0E
:1004C000309E01236A4602A9304600F09DFD0028B7
:1004D00040F0CB846D1EF4D130969DF8400041076A
:1004E0007FF584AE2020002C8DF800007FF77EAED3
:1004F000309D01236A4602A9284600F085FD0028A8
:1005000040F0B384641EF4D130956FE60FF6583096
:10051000059000F08EBC0E9D002D04D5204600F005
:10052000DBFD044607E02A46204600F0F1FD0028E6
:1005300014BF041B2C46089400F07BBCD9F80010B3
:1005400051F8040BC9F8001020F00004002121F03C
:10055000FF35CDE9024512AB0593782100F04EBC82
:100560002B99487820B14FF0FF340FF6CC2030E7BC
:100570009DF84200622860D0682817D06A283FD0D2
:100580006C2806D0712847D074282CD07A281DD02A
:1005900062E0D9F8001051F8040BC9F800100028E7
:1005A00066D14FF0FF340FF6A82012E7D9F80010FB
:1005B00051F8040BC9F8001020B94FF0FF340FF6C2
:1005C000902006E70D99018000F033BCD9F80010A7
:1005D00051F8040BC9F80010002849D14FF0FF343E
:1005E0000FF66C20F5E6D9F8001051F8040BC9F8A5
:1005F000001000283CD14FF0FF340FF65420E8E6FD
:10060000D9F8001051F8040BC9F8001080B94FF068
:10061000FF340FF63C20DCE6D9F8001051F8040B4B
:10062000C9F8001020B94FF0FF340FF62420D0E6AF
:100630000D9AD317C0E90023FBE3D9F8001051F855
:10064000040BC9F8001020B94FF0FF340FF600205A
:10065000BFE60D990170ECE3D9F8001051F8040BD6
:10066000C9F8001020B94FF0FF340FF6E410B0E6DF
:100670000D990160DDE39DF842004C2807BFD9F8D1
:100680000010CA1DD9F80000C21D22F00702C9F8E7
:100690000020D2E900010832C9F80020CDE90201AA
:1006A000C80F02D007982D210AE0BDF8400081074D
:1006B00002D507982B2103E0C00705D50798202114
:1006C00012AA1154401C079012A807994BF020035E
:1006D00000EB010CDDE90201CDE92C01612BCDF825
:1006E00014C021AC0BD00E98002848BF062105D4B9
:1006F00004BF4BF02000672801D101210E91DDE9F4
:1007000002014F0047EAD0777E15FF174FF0FF3206
:10071000974208BF964210D1090341EA10510003E5
:10072000002908BF002808D0ABF1610503211A2D6C
:10073000089118D30FF6381110E0DDE902014A00E4
:10074000521512F1010F11D108030FD1ABF1610560
:1007500003211A2D08911FD30FF61C1103226046A6
:1007600000F002FD65E30FF60411F7E7DDE9020191
:100770006A4600F005FDCDE902014BF0200061283A
:1007800011D1059830210170821C0592BBF1610FD7
:100790000CBF7821582102E00FF6D801DEE7417046
:1007A0000798801C0790DDE9020120F0000231F07B
:1007B000004308BF002A02D10026002542E14BF089
:1007C0002008B8F1610F40F092800E98002847BFD2
:1007D00021210191401C0190019FDDE92C017F1C2A
:1007E00000220023DDE9024500F002FD38BF85F05C
:1007F000004500998DF88420091F002F00910DF10C
:10080000850632DD204629460022002300F00AFD3D
:100810002BD21C2200F020FD04460D4600F0BAFD4C
:10082000FF1F002F804609DD00F0D0FD02460B4679
:100830002046294600F092FE04460D46F01D072191
:10084000B8F1000F0CDD491E5EBF08F00F0200F882
:10085000012D4FEA2818F3D502E0002200F8012DFF
:10086000491EFAD5C61D002FCCDC0DF18500361AC5
:1008700001980DF185048642D8BF304600282FD458
:10088000B04206DA0DF185010A5C082AA8BF0F21E3
:1008900000DA0021024621AB134400E0401E13F8A9
:1008A0000159521E8D42F9D00F2904D10DF1850155
:1008B0008B5C5B1C8B54002A04D50099091D21AC6C
:1008C000401C0091411E0BD4621813783033DDB206
:1008D0003A2DA4BF5B443A3B491E02F80139F4D5D6
:1008E0000E99002940F1AC80421E0E92A8E00099BA
:1008F000DFF8042747F29750414391FBF2F2009250
:10090000DDE92C45C2F10702002A25F0004504DD8F
:100910002046294600F04CFB0BE052420020DFF855
:10092000DC1600F045FB02460B462046294600F047
:1009300087FE04460D46B8F1660F06BF009F0A37D2
:1009400006270E983F18142FC8BF142730208DF8A3
:1009500084000DF18506002F34DD2046294600F085
:1009600093FF01460A4606F1080304200A26B2FB5B
:10097000F6F606EB860EA2EB4E02303203F8012C9F
:100980000A22B6FBF2F202EB820EA6EB4E063036DE
:10099000401E03F8026DE9D1083F002F03F108065D
:1009A000D9DD084600F082FF02460B462046294664
:1009B00000F0D4FD0022DFF8483600F085FF044641
:1009C0000D46CAE70DF18500361A0DF1850404E0E5
:1009D0000098401E761E0090641C20783028F7D0C6
:1009E000B8F1660F02D10099491C04E0B8F1650F17
:1009F0000CBF012100210E9808188642B8BF701E56
:100A000000281DD4B04204DA215C3429C8BF392142
:100A100000DC30210246631E9D1800E0401E15F8E0
:100A20000169521E8E42F9D0392902D1A15C491CBC
:100A3000A154002A04D50099491C1C46401C009171
:100A40000646009D01F016F8406A0778DDF8388008
:100A500030B2002802DC01260FF220644BF02000A7
:100A6000662808BF6D1C16D0672846D128B210F141
:100A7000040F48DB404546DA9DF840006D1C010735
:100A800003D430B24045D8BF804628B2B8EB000846
:100A900048BF4FF000080FFA85FBBBF1000F00F3D1
:100AA000B5800898411C0891302205990A54B8F184
:100AB000000F03DC9DF84000010704D50898411C95
:100AC000089105990F5418EB0B0FB8BFC8F100053A
:100AD0002DB26842A84432B20B909045B8BF46464A
:100AE000059B089836B2099632462146184400F014
:100AF0003BFBA8EB06000C90D2E0BBF1610F17D1D5
:100B00004FF0700B19E030B2404504DA9DF8401008
:100B10000A0758BF8046B8F1010848BF4FF00008E7
:100B2000BBF1670F14BF4FF0450B4FF0650B04E0AE
:100B3000BBF1410F08BF4FF0500B0898411C0891C2
:100B4000B8F1000F059914F8012B0A5403DC9DF845
:100B5000400001071AD50898411C0891B8F1000F10
:100B600005990F5412DD761E30B28045B8BF464657
:100B70000598089B32B22146184400F0F5FA08990E
:100B800036B271180891A8EB06000B9005980899E9
:100B9000084429B2002980F800B003D42B22427007
:100BA000821C04E02D2242700D46821C6D42002101
:100BB0002CAB28460AE004460A2094FBF0F000EB38
:100BC0008005A4EB450403F8014B491C00B2002842
:100BD000F1DC012906DC4BF02000652804BF302041
:100BE00002F8010B00292CAB08D1302002F8010BD0
:100BF00006E0491E585C303002F8010B0029F8DC91
:100C0000059908980844121A099249E030B229B2AD
:100C100088421CDA0598089B32B22146184400F03D
:100C2000A3FA089936B271180891ABEB0600B8F137
:100C3000000F0B9003DC9DF84000020704D50598D7
:100C400047540999491C0991CDF8308028E005984E
:100C5000089B2AB22146184400F086FA0898761BB1
:100C60005844B8F1000F089003DC9DF840100A07C3
:100C700003D5411C089105990F5430B28045B8BF87
:100C800046460598089B32B204EB0B01184400F06D
:100C90006BFA089836B230180890A8EB06000B9053
:100CA0009DF8400000F01400102840F0C280079A20
:100CB00008990B988A18099982180C988A18821832
:100CC0000F98824280F2B580821A0A92B1E09DF8B4
:100CD0004200622808D068280ED06A2814D06C28F8
:100CE0001FD0712810D01CE0D9F8001051F8040B67
:100CF000C9F80010C0B21AE0D9F8001051F8040B7E
:100D0000C9F8001080B212E0D9F80000C21D22F02C
:100D10000702C9F80020D2E900010832C9F8002012
:100D200006E0D9F8001051F8040BC9F800100021B2
:100D3000CDE902019DF8400001075AD5DDE9022303
:100D4000002B08BF002A54D04BF02000782850D147
:100D5000079812A930220A54401C431C079301F83B
:100D600000B046E09DF84200622808D068280ED006
:100D70006A2814D06C281FD0712810D01CE0D9F834
:100D8000001051F8040BC9F8001040B21AE0D9F86D
:100D9000001051F8040BC9F8001000B212E0D9F8A5
:100DA0000000C21D22F00702C9F80020D2E90001AC
:100DB0000832C9F8002006E0D9F8001051F8040BF9
:100DC000C9F80010C117CDE90201002902D5079822
:100DD0002D210AE0BDF84000810702D507982B219C
:100DE00003E0C00705D50798202112AA1154401C22
:100DF000079012A8079901440591594602A800F0EE
:100E00004DF816E001200790D9F8000050F8041BB7
:100E1000C9F800008DF848100BE001212522BBF134
:100E2000000F07918DF8482003D0022207928DF819
:100E300049B00F9A07980A990C9C121A0898521AEE
:100E40000B99121A0998521A121A9DF84000141B95
:100E500041073FF5D1AA2020002C8DF800007FF734
:100E6000CBAA309E2546FFF7BBBA4FF0FF3031B01A
:100E7000BDE8F08FCBCCCC0C686A6C747A4C000067
:100E80007072696E74665F733A20626164202573C4
:100E900020617267756D656E740000002DE9FC4776
:100EA00007468A463C6950466F2808BF082505D08A
:100EB000FFF780F9782814BF0A251025D7E900012B
:100EC0003C2680468946BAF1640F18BFBAF1690F13
:100ED00005D1002903D5D8F1000869EB4909B9F11A
:100EE000000F08BFB8F1000F0CD1386B50B9082DB6
:100EF0003AD197F83800010736D530223B2684F8DE
:100F00003B2031E08DF800A0404649462A46EB17C9
:100F100000F0B4FD3032D0B2761E3A2801960EDAD7
:100F2000A255404649462A46EB1700F0A7FD8046E9
:100F30005FEA010908BFB8F1000F05D108E09DF88C
:100F400000001218513AEBE7F868A1198842DBD388
:100F5000082D09D197F83800010705D5A05D302884
:100F600002D0761E3020A055C6F13C02BA61A1190C
:100F7000F960386B824208DA821A3A624FF6EF70F3
:100F8000398F01403987BDE8F38700280ED597F8DF
:100F9000380000F01400102808D17B6B7969386A9A
:100FA0005B1A1B1A9A1A002AC8BF3A62BDE8F38777
:100FB0002DE9D04306460F4614464FF00008DFF8EF
:100FC000449012E0E00707D542464B46304639468A
:100FD00000F07AFC06460F464046494642464B46DC
:100FE00000F072FC641080468946002CEAD130463D
:100FF0003946BDE8D0830000A08601000000F03F24
:1010000084D7974100002440F8B505460E461746A0
:101010001C4600205CB117F8011BB068A847B060FF
:1010200030B1F06A401CF0620020641EF3D1F2BDC2
:101030004FF0FF30F2BD00007072696E74665F732E
:101040003A20256E20646973616C6C6F776564006B
:101050007072696E74663A2062616420256E206148
:101060007267756D656E7400000000006E616E0041
:101070004E414E00696E6600494E460030002E001B
:10108000C9B202788A421AB11CBF10F8012FF9E7E1
:1010900018BF00207047000080B500B906A00549C0
:1010A0000B681BB122220021984701E000F069FD86
:1010B000222002BD90080010636F6E737472616924
:1010C0006E742068616E646C65723A20626164209F
:1010D0006D6573736167650000F10103810704D0DA
:1010E00010F8011B820781B1FAD10268A2F1013127
:1010F000914311F0803104BF50F8042FF6E709BA8C
:10110000B1FA81F100EBD100401CC01A7047000019
:10111000C9B2830706D0521E22D310F8013B994270
:10112000F7D11FE0083A13D302F1040241EA01218A
:1011300041EA014150F8043B121F21BF4B40A3F18B
:10114000013C2CEA030C1CF0803FF3D0C9B2001F15
:10115000083210F8013B521E28BF91EA030FF8D85D
:1011600018BF0120401E70474AB1000011F8013B32
:10117000521E00F8013B1CBF11F8013BF8E7704715
:1011800010B5144600F002F8226010BDC1F30A53F6
:1011900043B14A0012F5001F28D2A3F2FE32A1EBA0
:1011A0000251704750EA410C20D001F0004C31EA66
:1011B0000C01B1FA81F204BFB0FA80F3D2180B3AF5
:1011C000B2F120032CBF00FA03F1914041EA0C0177
:1011D0003EBFC2F1200C20FA0CF31943904052425A
:1011E00040F2FD33D21A01EB0351704700227047E1
:1011F00041EA030C50EA4C0C52EA0C0C4FF4001C70
:1012000009D307D01CEB410F9CBF1CEB430F8B4253
:1012100008BF824270471CEB430FFBD8994208BFBE
:101220009042704741EA030C50EA4C0C52EA0C0C15
:101230004FF4001C09D307D01CEB410F9CBF1CEBE3
:10124000430F994208BF904270471CEB410FFBD8F7
:101250008B4208BF82427047124254D440F2FF7C56
:101260001CEA11530FD0634531D09B1863453CBF36
:1012700001EB0251704701F0004141EA0C5100209E
:10128000AFF30080704750EA410320D001F0004CDA
:1012900091EA0C011CD0B1FA81F30B3B9A420DD9B3
:1012A000D21A994051EA0C01C3F1200C20FA0CFC2F
:1012B00061449840531C40F2FF7CD7E7914041EADB
:1012C0000C01C2F1200C20FA0CF319439040704736
:1012D000B0FA80F31533202BE0D3202AEED3203A46
:1012E000203B9A4209D9D21A00FA03F141EA0C01D3
:1012F0000020531C40F2FF7CB8E700FA02F141EAFB
:101300000C0100207047524240F2FF7C1CEA11534E
:101310000DD06345DBD0B2EB030C3CBFA1EB025117
:1013200070470CF1010221EA035141F4801150EAA7
:10133000410CCCD001F0004C352A27DC30B481EAD6
:101340000C01B2F1200309DAC2F12003044601FACC
:1013500003F5D0402843D1409C400CE0C3F120026B
:10136000450020FA03F418BF44F0010421FA03F009
:1013700091400C43002174F1004550F1000051EB05
:101380000C01244230BC7FF47BAF704761460020E3
:1013900076E70000C1F30A5340F21E42D31A0CDD77
:1013A000CA0283F3070342EA505242F00042DA4095
:1013B00002EBE17282EAE17070476FEAE17203F2D8
:1013C000E13008B182F000407047000010F00041A9
:1013D00060B148BF4042B0FA80F29040D21CC2F5E2
:1013E000846241EA025202EBD021400570470000BE
:1013F000841A71EB030604D26E40001BB14112192E
:1014000073414FF4001C1CEB410F34BF7CEB4306CF
:1014100083E00C0DA4EB1356362E00F37C80012ED6
:1014200045EAC32341DC43EA525312BFD20292027F
:101430005B08240545EAC12141EA5051D2EBC020A6
:10144000994125D407D1B0FA80F610FA06F162D09E
:101450000020203608E0B1FA81F6B140C6F1200242
:1014600020FA02F21143B0404FEAF474B4EB465450
:1014700034F001064FEA74040AD8D6F50016760D4A
:1014800004F00044F04061FA06F25040F140484058
:10149000C00A40EA415021F0004128BF5FEA5005F0
:1014A00050F1000044EBD12135E0DB0A45EAC121CF
:1014B000C90AB6F120050EDD42EA0242120CC5F15E
:1014C000200603FA06F6EB4042EA06056D42984113
:1014D00061F100010DE062FA06F5F240554063FA51
:1014E00006FC82EA0C02F3405A406D42904161EBE7
:1014F000030111F4801F05D1641E620502D06D0046
:101500004041494121F48011430875F1004350F1F5
:10151000000041EB045170BC70471CEB410F15D229
:1015200023F0004352EA43060BD04FEA4C0CBCEBCD
:10153000410F04D80C0D661E342EB7DDEBE7801A80
:10154000994150EA410608BF0021E4E708BF1CEBBF
:10155000430F28BF6FF00001DDE7000070B491EA8F
:10156000030F4FF000457FF543AF6B40841A71EBDA
:10157000030603D2001BB141121973414FF4001C42
:101580001CEB410F34BF7CEB430442E00C0DA4EB99
:101590001356352E4FDC45EAC323DB0A45EAC12149
:1015A000C912B6F120050DDD63FA05F6EB4086EAB7
:1015B0000305124218BF45F00105C01851F10001A2
:1015C0000CD213E062FA06F5F2405540F3415A405E
:1015D000B340F3405A408018594107D349085FEAA5
:1015E00030005FEA350528BF45F0010501F580119F
:1015F000420875F1004250F1000041EB04514E00E9
:1016000016F5001F70BC38BF70470020090D090592
:1016100070471CEB410F10D252EA43060BD0BCEBD3
:10162000410F05D80C0DAB43661E342EB6DD02E02B
:10163000AB438018594170BC704770BC70470000C4
:10164000F0B540F2FF7581EA030C0CF0004C15EA8E
:1016500011541DBF15EA1357AC42AF42E5E0BC413F
:10166000C1F31301C3F31303801A994143F48013A8
:1016700004D2641E0018494180185941C90241EA48
:101680005051B1FBF3F603FB1611A2FB0675D7EB25
:10169000C020A94102D2761E80185941C90241EAF0
:1016A0005051B1FBF3FE03FB1E11A2FB0E75D7EBED
:1016B000C020A94103D2AEF1010E80185941890220
:1016C00041EA9051760546EA8E2EB1FBF3F603FB14
:1016D0001611A2FB0675D7EB8020A94102D2761E17
:1016E00080185941C90241EA50514EEA060EB1FB39
:1016F000F3F603FB1611A2FB0675D7EBC020A94138
:1017000002D2761E80185941C90241EA5051B1FBFC
:10171000F3F703FB1711A2FB0735D3EBC020A94158
:1017200067F100070CBF004247F0010766F3D527B9
:101730004FEA1E31B80814F5806412DDBD0775F15B
:10174000004250EB0E5051EB045111F5801F5CBF6D
:1017500041EA0C01F0BD4CF07F6141F0E041002016
:10176000F0BDBD076D0840EA0E5041F48011D4F180
:101770000104B4F120060ADAC4F120060200E040B8
:1017800001FA06F3E1401843B24015430EE0342C51
:1017900013DCC6F1200445EA40056D0820FA06F284
:1017A000154321FA06F0A1400D43002175F10042D6
:1017B00050F1000051EB0C01F0BD00205FEA0C017C
:1017C000F0BDCFB992185B41B3FA83F704BFB2FA08
:1017D00082F6BF190B3FB7F120062FBF02FA06F3BE
:1017E000BB40C7F1200622FA06F638BF3343BA40A1
:1017F0001CB1E419641E33E77F4231F00041B1FAB5
:1018000081F404BFB0FA80F6A4190B3CB4F12006B1
:101810002FBF00FA06F1A140C4F1200620FA06F617
:1018200038BF3143A0403C1B1AE7AC421ABF05EA5F
:101830001357AF4212E050EA41061CBF52EA43067A
:10184000BFE750EA4107304661461CBF41EA0551F7
:10185000F0BD52EA430C08BFC143F0BD00204FF475
:10186000001616EB410F98BF16EB430F08BF16EB9F
:10187000410F24BFC14305E016EB430F0CBF614687
:101880004CEA0551F0BD0000400D40F21E4C40EA0C
:10189000C120BCEB115C40F0004003D48CF3070185
:1018A000C84070476FEAE1707047000050B1B0FA6D
:1018B00080F18840C91CC1F58461090501EBD02184
:1018C000400570470146704730B540F2FF7C1CEA86
:1018D00011541DBF1CEA1355644565453FE064196A
:1018E00081EA030C6FF35F530CF0004C43F4801358
:1018F000C90241F0004141EA505EC5021100A5FB5A
:10190000020200284FF00000EEFB01204FF0000122
:10191000E3FB052118BF42F00102401800214941B4
:10192000E3FB0E01A4F580640D0302D2921840413E
:10193000494154F1010470DD450872F1004250F153
:10194000000051EB0451A1F5801102D441EA0C01D1
:1019500030BD40F2FF7E4CEA0E51002030BD0CEA53
:101960001355644518BF654581EA030C0CF0004C23
:1019700041D050EA410E1CBF52EA430E02E06146DC
:10198000002030BD24422C441BD15FEA050EF6D066
:10199000090302BF01460020AEF1140EB1FA81F531
:1019A000AEEB050401FA05FE0C35C5F1200100FA85
:1019B00005F5C8404EEA000E6FF35F5343F4801301
:1019C0009CE733F00043B3FA83F504BFB2FA82FE1A
:1019D00075440B3D641BB5F1200E2FBF02FA0EF3C8
:1019E000AB40C5F1200E22FA0EFE38BF43EA0E03CB
:1019F000AA40641C7CE750EA410E14BF52EA430E31
:101A00006FF000014FF4001515EB430F8EBF194620
:101A100015EB410F9DE7B4D830BDD4F10104B4F10A
:101A200020050FDAC4F12005520828BF42F0010258
:101A300010FA05FE01FA05F57244E2BFE0402843C2
:101A4000E1400FE0352C9ADCC5F1200452EA400257
:101A500020FA05F218BF42F0010231FA05F0A14068
:101A60000A43002172F1004250F1000051EB0C01D9
:101A700030BD0000004870475C010010D3BBD9B1F5
:101A8000B2F5803F5BD2022A1ED98C46B1FBF2F13F
:101A900002FB11C31B0443EA1043B3FBF2FC02FB3D
:101AA0001C3380B240EA0343B3FBF2F002FB103276
:101AB00040EA0C4000237047022A05D98446B0FB57
:101AC000F2F002FB10C270474AB105D100F00102EA
:101AD00049085FEA3000704700220023704700F099
:101AE00053B80B000200002100207047F7D30022FA
:101AF00000237047904271EB030CF2D370B5B1FA3A
:101B000081F4B3FA83F52C1BA340C4F1200532FA0B
:101B100005F63343A2405FF00046E64002E05B0872
:101B20005FEA3202841A71EB030524BF204629467E
:101B30007641F4D302000B003000002170BD70B577
:101B4000B1FA81F4B2FA82F5C4F120046419B4F157
:101B50002006DAD3B2405FF00044F440002502E0F2
:101B600052085FEA3303C61A71EB020E24BF3046F7
:101B7000714664416D41F3D302000B00200029003F
:101B800070BD012000F002B87047000080B500F081
:101B900007F8024A11001820ABBEFBE7260002003E
:101BA00010B500F03BF8020000230024E443106865
:101BB000A04203D011000220ABBE13605068A042C7
:101BC00003D0111D0220ABBE536010BDF0B583B031
:101BD000040000F023F8A10047183D680026F643F2
:101BE000B54216D1AFF300803D68B5420FD100BFBA
:101BF00009A00090002C01D1002000E004200190F9
:101C00000320029069460120ABBE05003D60AFF3A2
:101C10000080280003B0F0BD3A747400004870479B
:101C2000080700102DE9F24F8AB00025A846AB4600
:101C3000AA46A946019024E000200EE0009A002068
:101C40001060009B2068586000281CBF4088002856
:101C5000F2D0009801220260009805906D1C49683E
:101C600002980791CDE9086703A991E8DC5080E864
:101C7000DC5008F1010809F11C090AF1080A0BF10E
:101C8000040B019800B1008880452CD2019840686F
:101C900048B350F80B4034B3019881684A6800BFDC
:101CA00016A04A4402920022896851440091002300
:101CB000D0E90017A068E768000A60F31F210E460C
:101CC00003A994469646A1E80C50A1E80C10A0691F
:101CD000006800F06FFC0390A16988680490009888
:101CE0000028ABD1B9E70199AAB20AB189684A685C
:101CF0000A990A60A8B20BB0BDE8F08F010000009D
:101D0000000000002DE9F0434B8844889C4204D237
:101D1000002A4ED00020BDE8F083002A49D00022DE
:101D2000002B3FD044684D68C2EBC20304EB830430
:101D300005EB830393E8E05384E8E0534C88521C9E
:101D4000A2422FD244684D68C2EBC20304EB830465
:101D500005EB830393E8E05384E8E0534C88521C7E
:101D6000A2421FD244684D68C2EBC20304EB830455
:101D700005EB830393E8E05384E8E0534C88521C5E
:101D8000A2420FD244684D68C2EBC20304EB830445
:101D900005EB830393E8E05384E8E0534C88521C3E
:101DA000A242BFD34A884280098801800120BDE851
:101DB000F0834A684260F5E770B5044616460D4662
:101DC000304600F0A5FCA060A96909684143E160C4
:101DD0006868606008442060B1690A68900007D4B0
:101DE0008B68C86862681B1AD01888606268CA600D
:101DF00070BD70B4002818BF00293BD0002A1CBF5A
:101E00005268002A36D01346DFF8844753F8045B43
:101E1000A54205D0012902602CD170BC0120704779
:101E200000221D4606E0EE68A64223D0C660521C82
:101E3000103010358A4214D22E68A6421AD0521C95
:101E40008A4206600DD26E68A64213D0521C8A42A6
:101E5000466006D2AE68A6420CD0521C8A4286600A
:101E6000E1D38A4204BF53F82200A04202D170BCE1
:101E70000120704770BC0020704770B50400154603
:101E800018BF002D0E4628D0284600F0AEFC00B149
:101E90006888864221D168680021021D05E0506DE6
:101EA000D8B1E060491C70321034B14211D21068D0
:101EB00098B1491CB14220600BD2D06968B1491C6D
:101EC000B142606005D2906B38B1491CB142A0604C
:101ED000E5D3B14201D1012070BD002070BD10B426
:101EE000002A18BF002881B000D019B901B010BC79
:101EF000002070471368DFF89846A34203D101B071
:101F000010BC121DB9E701B010BC72E710B4002A72
:101F100018BF002881B000D019B901B010BC002052
:101F200070471368DFF86846A34203D101B010BCC4
:101F30000C32A2E701B010BC1C325AE7F0B4002802
:101F400018BF002900D012B9F0BC00207047DFF89C
:101F500040360360D1E90045C0E90145D2E9006798
:101F60000C30C0E90067F0BC0120704740B1026846
:101F7000DFF820160A408A4204BF0C3000F05CBC37
:101F80000FF224610868704700281CBF0C3000F075
:101F900058BC704770B5050082B00C461BD029684C
:101FA000DFF8F0050140814215D100220092288E11
:101FB000A0B96946FFF736FE060007D118221121A5
:101FC00005F10C0000F03DFC0020009004B12680DB
:101FD000009802B070BD002002B070BD686BE8E7E9
:101FE00070B5050082B00C460DD02968DFF8A40555
:101FF0000140814207D100200090298E022905DB93
:10200000686B0C3002E0002002B070BD6946FFF73B
:1020100009FE060007D11822112105F10C0000F07D
:1020200010FC0020009004B12680009802B070BD22
:102030002DE9F04304000FF2745081B00568164694
:102040001F4605D10FF26850006801B0BDE8F0836B
:102050002660DDF8208000F0EDFB10B90FF238505B
:1020600016E000224146F8B200F04CFB8146002207
:102070000521012000F046FB814518BF0FF21C50DE
:1020800006D10FF21C5000F0E7FB20B90FF21450FC
:102090000568002121604146099AF8B200F032FB40
:1020A000B06001B02846BDE8F0832DE9F04F00286C
:1020B00085B070D00268DFF8DC9409EA02024A4574
:1020C00069D10D00804602D1112210215FE02868FD
:1020D000DFF8BCA450450ED105F10C02CDF800A0EC
:1020E000D2E90001CDE903014FF0010BD5E901016F
:1020F000CDE9010133E06E680121284600F020FBA4
:1021000004462F6A012105F11C0000F019FB002193
:102110000022002C4FF0000B1ABF01212B46002398
:1021200020B101221C3517B9132203E0002556B94E
:102130004CB11222102108F10C0000F082FB0020AB
:1021400005B0BDE8F08FCDF800A0ADF804B0ADF853
:1021500006100293ADF80CB0ADF80E200495D8F837
:10216000001049451ED18BF00104224601A908F157
:102170002000FFF7C7FD08B9122207E0224603A995
:1021800008F12800FFF7BEFD48B91322162108F117
:102190000C0000F056FB002005B0BDE8F08F404673
:1021A00000F06DFB0320C8F8100005B04046BDE804
:1021B000F08F30B5040081B00FD02068DFF8D41361
:1021C00001EA00028A4208D1237C9D0708D410222C
:1021D000112104F10C0000F034FB002001B030BDEF
:1021E000884214D1204600F058FB206C00281CBF08
:1021F000A56B002D0BD000E00546626C236C2946D0
:10220000002098472869854218BF0028F4D1012092
:1022100001B030BD000000002DE9F44F82B0B0B134
:102220000368DFF870231340934210D1028E02B18D
:10223000426B002343830024037C048303F00303E5
:10224000032B08D0302211210C3000F0FAFA0020C4
:1022500003B0BDE8F08F00291EBF002A1388002BB1
:1022600000F008818B69D3F800800092A246002616
:10227000A14601F11807054618E000BF57F8140CF5
:10228000002800F0F68039680868002855D04045DD
:1022900028BF804601982246A7F11801FFF78CFD60
:1022A0000AF1010A1C3709F11009361D009801884E
:1022B0008A454CD2406800281CBF8459002C46D067
:1022C000009881680A6812EB0902019200F0D1803F
:1022D0000121A7F1180000F033FAA2695168814288
:1022E00030D3E0683B68D0F80CC0D3F80CE0F4457C
:1022F00002BFD0F808C0D3F808E0F44502BF406838
:102300005B6898421ED1106800F0EAF983462046C7
:1023100000F0FEF9834515D3A069006800F04AF982
:1023200057F8181C20F07E4021F07E418842A5D04D
:102330001922122105F10C0087E72122122105F153
:102340000C0082E71822122105F10C007DE70299AA
:10235000002900F07D80288E022874DB686B0C3029
:102360001CBF0288002A6ED04FF0000A0026D1461A
:1023700001F11807009016E057F8140C00285DD002
:1023800039680868002854D0404528BF8046019825
:102390002246A7F11801FFF70FFD0AF1010A1C37C9
:1023A00009F11009361D009801888A4550D240680D
:1023B00000281CBF8459002C4AD0009881680A6804
:1023C00012EB0902019239D00121A7F1180000F0A7
:1023D000B7F9A2695168814235D3E0683B68D0F80B
:1023E0000CC0D3F80CE0F44502BFD0F808C0D3F815
:1023F00008E0F44502BF40685B68984223D110684A
:1024000000F06EF98346204600F082F983451AD326
:10241000A069006800F0CEF857F8181C20F07E4044
:1024200021F07E418842A7D01922132105F10C002A
:102430000BE72122132105F10C0006E717221321D7
:1024400005F10C0001E71822132105F10C00FCE650
:10245000288EA5F81880002814BFD5F834804FF0D6
:1024600000080228A6BF686B00F10C0A4FF0000AB2
:1024700003E0284617221221E6E6688B298B884262
:1024800080F0818000264446B146B04617E082685D
:10249000C3687968D21A114481607A68C26078682A
:1024A000B968084478603968884202D3F8684042C5
:1024B0000844786008F1010809F11009361D002C64
:1024C00014BF20880020804511D2606878B18059FF
:1024D00068B1A16880690A68016802EB09078A008F
:1024E000D5D58168BA68786800F02AFAD7E7A0469F
:1024F000284600F0E9F900265446B146B24616E0F7
:102500007968BA68114479603A68914202D3F968EF
:102510004942114479608268C368D21A11448160CB
:102520007A68C2600AF1010A09F11009361D002C0F
:1025300014BF2088002082451CD26068D0B1805929
:10254000C0B1A16880690A68016802EB09078A00C6
:10255000D6D5BA687968806800F0F2F97868B96809
:10256000084478603968884202D3F86840420844D9
:102570007860D7E7688B298B401C6883A24680B2BD
:102580008842FFF47FAF688B03B0BDE8F08F000096
:10259000DECAFAA10001C0A1301000000110000045
:1025A00003840484021000001010000000000000EA
:1025B0001010000001464020C1F34342022A04D11A
:1025C0003848084040F4802052E021F07E42324BEF
:1025D000D21A46D0803A34D04FF46073D21A2AD03F
:1025E000D21F40D040F2F933D21A26D00F3A3CD055
:1025F00040F2F173D21A22D04FF4FA33D21A36D005
:10260000274BD21A27D0803A23D04FF46073D21AC6
:1026100019D0D21F21D040F2F933D21A15D00F3A77
:102620001DD040F2F173D21A11D04FF47E03D21AAA
:102630001ED11D481CE01D481AE01D4818E01D4829
:1026400016E01D4814E01D4812E01D4810E01D482A
:102650000EE01D480CE011480AE01C4808E01C4848
:1026600006E0184604E01B4802E01B4800E01B4857
:102670004A004CBF4FF08042002210438A004CBFFA
:102680004FF000520022104309014CBF4FF000618F
:10269000002108437047000040000400400084000F
:1026A00000FC7D00FF3F80004010820140040400D8
:1026B0004008040040100400C000040040048400EE
:1026C0004008840040108400C00084004704840057
:1026D0004F088400470404004F080400400406002B
:1026E00009B900207047C21102F07F025143C91D91
:1026F000C9084015C90000F00300C140C91DC80841
:1027000070470000090441EA006141EA0220704775
:102710000146C8684B69C068DA688B690649D3F816
:1027200000C0504301EA0C0C044A944504BFC01D8C
:10273000C008704700000000FFFF7F01C0000400D8
:1027400030B403004ED018682F4C20F07E42A242D5
:102750001EBF20F07E402D4A904206D129B19869D3
:1027600040681F304009400101E0986940685A699B
:1027700002F0FF0101290CBF01240024120A944237
:102780002EDA9969121B01EB840312F0030109D0C0
:10279000012C0CBF01251D686843641C491E03F110
:1027A0000403F5D192081BD0012C0CBF012119683C
:1027B0004843641C012C0CBF012159684843641C28
:1027C000012C0CBF012199684843641C012C0CBFEB
:1027D0000121D9684843641C521E03F11003E3D160
:1027E000002800DC002030BC704700281CBF416876
:1027F000002905D04088401E8041C043C00F70476B
:102800000020704700000000C0008400C0000400E9
:1028100000281CBF4368002B0AD0408800281CBF3A
:10282000C1EBC10C13EB8C0002D042600120704759
:1028300000207047012070470146002208680A60A6
:10284000704703785FEA036C04D141EA022101601A
:10285000012070470020704700B581B060B1017859
:10286000032909D104220FF2D40100F0E3F8401E3D
:102870008041C00F01B000BD002001B000BD034683
:1028800000209A6B42B100E00A461169D360401CF7
:102890008A4218BF0029F7D1704730B581B0846BE8
:1028A000002574B100E004462079C10704D5216AEF
:1028B00011B1204688476D1C2069844218BF00284A
:1028C000F1D1284601B030BD2DE9F0410446002584
:1028D000266CA16BE16330001FD0D9B1626C01207E
:1028E000B047E06BB0B1626CE16B0220B047D4F846
:1028F0003C80D8F8141040468847D8F81070626CB5
:10290000E16B474508BF00270320B0476D1C002F2F
:10291000E763E8D12846BDE8F0810029FAD0E66BEC
:102920007169304688473069B04208BF00206D1C8D
:102930000028E063F3D12846BDE8F08103840484D5
:1029400003468B4200D17047F0B4002A70D09C1827
:102950008B4238BFA14222D28818A34280F06880FF
:1029600014F8011D00F8011CA3423EBF14F8011D1C
:1029700000F8021CA3423EBF14F8011D00F8031C1E
:10298000A34255D214F8011D00F8041DA342E7D359
:10299000F0BC704713F8014B01F8014B521E11F0C7
:1029A000030018BF002AF5D110092CD0C4070CD59C
:1029B0001C685D689E68DF6841F8044B41F8045B61
:1029C00041F8046B103341F8047B40081BD01D68AC
:1029D0005F689E68DC6841F8045B41F8047B41F85D
:1029E000046B41F8044B53F8104F5F689D68DE6834
:1029F00041F8044B103341F8047B41F8045B401E5E
:102A000041F8046BE3D1C2F3810028B153F8044BC1
:102A100041F8044B401EF9D112F0030F00F008807A
:102A200002F0030213F8010B01F8010B521EF9D159
:102A3000F0BC70470300002013F0030F09D0521EB2
:102A400022BF13F8010B11F801CBB0EB0C00F3D04F
:102A5000704711F0030F14D1121F22BF53F8040B5B
:102A600051F804CB6045F7D0121D0AD200BA9CFA87
:102A70008CFCB0EB0C0038BF6FF0000088BF012069
:102A80007047521E22BF13F8010B11F801CBB0EBB7
:102A90000C00F6D0521C08BF104670472DE9F04FCD
:102AA00081B001462DED108B87B04C680D684869E8
:102AB000019003468A69534305EB8302954280F0F7
:102AC00030810291069202980169029804910E46A3
:102AD00087680198AE4605EB80018E45039180F032
:102AE000D7800591102E304622463B46DFEDAFFAE7
:102AF000C0F0778002F1100103F1100901F1100C10
:102B000009F1100A0CF110080AF1100BD8ED030AB4
:102B10009BED030ACDED000A93ED00FAD2ED00EA39
:102B200093ED01EAD2ED01DA93ED02DAD2ED02CAB9
:102B300093ED03CAD2ED03BA99ED00BAD1ED00AA24
:102B400099ED01AAD1ED019A99ED029AD1ED028A8F
:102B500099ED038AD1ED037A9AED007ADCED006AF3
:102B60009AED016ADCED015A9AED025ADCED024A57
:102B70009AED034ADCED033A9BED003AD8ED002ACA
:102B80009BED012AD8ED011A9BED021AD8ED020A3D
:102B90004FEE2EFA4EEE2DFA4DEE2CFA4CEE2BFAAD
:102BA0004BEE2AFA4AEE29FA49EE28FA48EE27FABD
:102BB00047EE26FA46EE25FA45EE24FA44EE23FACD
:102BC00043EE22FA42EE21FA41EE20FA1038DDED12
:102BD000000A102840EE20FA08F110020BF1100351
:102BE00088D20428C0F01E80D3ED000A92ED000ABE
:102BF000D3ED011A92ED011AD3ED023A92ED022AB9
:102C0000D3ED036A92ED035A40EE80FA41EE81FA69
:102C100010321033001F43EE82FA042846EE85FA84
:102C200080F0868050B310F0030109D093ED000AC4
:102C3000D2ED000A121D1B1D491E40EE20FAF5D1EF
:102C400080081BD093ED001A92ED000AD3ED010A23
:102C5000D2ED011A41EE00FA40EEA1FA93ED021A0C
:102C600092ED020AD3ED030AD2ED031A10321033AB
:102C700041EE00FA401E40EEA1FAE3D1CEED00FA9B
:102C80000EF1040E0598864507EB8607FFF42AAF80
:102C90000299CA68002A1CBF0198002839D0014651
:102CA00011F0030000F00D8095ED000AD2ED000A4E
:102CB00070EE200AC5ED000A401E121D2D1D0028D1
:102CC000F2D1890800F0258095ED001A92ED000AF6
:102CD00031EE000A85ED000AD5ED011AD2ED010AA8
:102CE00095ED021A31EEA00A85ED010A491E92ED1A
:102CF000020AD5ED030A31EE000A85ED020AD2ED93
:102D0000031A30EEA10A85ED030A103210350029AE
:102D1000DAD10498039D04EB800406988542FFF401
:102D2000D2AE07B0BDEC108B01B0BDE8F08F00BF94
:102D3000D3ED000A92ED000AD3ED011A92ED011ACB
:102D4000D3ED023A92ED022AD3ED036A92ED035AD3
:102D500040EE80FA41EE81FA10321033001F43EE4C
:102D600082FA042846EE85FAFFF45CAFD3ED002A20
:102D7000D2ED007A93ED014A92ED013AD3ED025A79
:102D8000D2ED024A93ED037A92ED036A42EEA7FA7E
:102D900044EE03FA10321033001F45EEA4FA042863
:102DA00047EE06FABFF420AF3CE700000000000049
:102DB0002DE9F04F81B005462DED028B84B0DDF892
:102DC00040B0139C1498DDF848806043BBF1000FBD
:102DD0008A46164605EB80070AD040225946184617
:102DE000FFF7AEFD0296A646019708F00104FCE04D
:102DF0009B46F7E705EB8E09029B4D4580F0AF80BF
:102E00004FEA5800400000904FEAD80C594600980D
:102E10005246BCF1000F02EB800B9FED790A59D0AE
:102E20004FEA0C0053F8046B92ED008A92ED017AA0
:102E300092ED026A92ED035A92ED044A92ED053A40
:102E400092ED062A92ED071AC6F3036701EB870796
:102E50002032D7ED000A370F01EB8707D7ED001AB4
:102E6000C6F3034701EB8707D7ED002A37023F0E71
:102E70003F0901EB8707D7ED003A370A07F00F0744
:102E800001EB8707D7ED004A37043F0E3F0901EBFE
:102E90008707D7ED005A06F00F0706F0FF06360940
:102EA00001EB860601EB8707D6ED007AD7ED006AC5
:102EB00007EE880A06EE870A05EE860A04EE850A02
:102EC00003EE840A02EE830A01EE820A401E00EE3F
:102ED000810AA7D15A452FD213F8010BD2ED000A6F
:102EE000D2ED011A00F00F06000901EB800001EBA2
:102EF000860790ED002A97ED001A083202EE200AAC
:102F00005A4501EE210A17D213F8010B92ED002A5F
:102F100092ED011A00F00F06000901EB800001EBB1
:102F20008607D0ED001AD7ED000A083201EE820ABA
:102F30005A4500EE810ACFD354B113F8010B92ED3C
:102F4000001A000901EB8000D0ED000A00EE810AB2
:102F500085ED000A2D1D4D45FFF459AF8B461198A4
:102F600000281FBF4FEA8E0149426A18BEF1000FC8
:102F70000AEB880A39D003461EF0030000F00D80EA
:102F800092ED000AD3ED000A70EE200AC2ED000AAD
:102F9000401E1B1D121D0028F2D15FEA9E0024D0A6
:102FA00092ED001A93ED000A31EE000A82ED000A5C
:102FB000D2ED011AD3ED010A92ED021A31EEA00A08
:102FC00082ED010A401E93ED020AD2ED030A31EEB2
:102FD000000A82ED020AD3ED031A30EEA10A82ED57
:102FE000030A103310320028DAD101998D42FFF420
:102FF00001AF04B0BDEC028B01B0BDE8F08F000062
:10300000000000002DE9F04F81B007462DED028B46
:1030100082B0119D12980E9CDDF8409068438A465C
:10302000164607EB800874B14FF4806221461846BB
:10303000FFF786FC0196CE46D4462B46CDF800809D
:103040000EF00709F9E01C46F4E700BF07EB830523
:10305000019EAF4280F0AD804FEADE01002960465C
:103060009FED7B0A5BD002464FEA010092ED008A99
:1030700092ED017A92ED026A92ED035AD6F8008041
:10308000D6F804A092ED044A92ED053A92ED062A94
:1030900092ED071A4FEA1A6B04EB8B0B0836DBED47
:1030A000000ACAF3074B04EB8B0B2032DBED001A4E
:1030B000CAF3072B0AF0FF0A04EB8A0A04EB8B0B16
:1030C000DAED003ADBED002A4FEA186A04EB8A0BCE
:1030D000C8F3074A04EB8A0ADBED004ADAED005A2E
:1030E000C8F3072A08F0FF0804EB880804EB8A0AF3
:1030F000D8ED007ADAED006A07EE880A06EE870A54
:1031000005EE860A04EE850A03EE840A02EE830ABF
:1031100001EE820A401E00EE810AA7D110461EF081
:10312000070F40D019F0030200F00D8016F801AB34
:1031300090ED001A04EB8A0B001DDBED000A521E15
:1031400000EE810AF2D15FEA9908424600F02B8036
:1031500016F801AB16F8018B90ED001AD0ED010ABC
:1031600004EB8A0A04EB88089AED002AD8ED001ACD
:1031700016F8018B16F801AB02EE010A04EB880881
:1031800001EEA00A04EB8A0AD0ED020A98ED002AAB
:1031900090ED031ADAED001A103002EE200A521EEA
:1031A00001EE810AD4D187ED000A3F1DAF42FFF442
:1031B00055AF0F9800281FBF990049427A18002B7D
:1031C0000CEB8E0C39D0054613F0030000F00D8097
:1031D00092ED000AD5ED000A70EE200AC2ED000A59
:1031E000401E2D1D121D0028F2D1980800F02580E8
:1031F00092ED001A95ED000A31EE000A82ED000A08
:10320000D2ED011AD5ED010A92ED021A31EEA00AB3
:1032100082ED010A401E95ED020AD2ED030A31EE5D
:10322000000A82ED020AD5ED031A30EEA10A82ED02
:10323000030A103510320028DAD100998F42FFF4CA
:1032400005AF02B0BDEC028B01B0BDE8F08F00000D
:10325000000000000020086000F09EB92DE9F8434E
:10326000040016D02078DFF82063C10713D5B068BA
:1032700000F00C00042807D0B06800F00C0008280B
:103280003FD1706841023CD53068810303D5606846
:10329000002800F063812078DFF8F472810719D5E7
:1032A000B06810F00C0F07D0B06800F00C000828D0
:1032B0005CD17068410259D43068810703D5E06859
:1032C000012840F04B813168206921F0F80141EA82
:1032D000C00131602178080779D56069DFF8B41240
:1032E000002868D001220A6000F056F90546706F88
:1032F00081076CD400F050F9401B0228F7D9032055
:103300002FE16068B0F5803F04D1306840F4803030
:10331000306011E0B0F5A02F306806D140F4802075
:103320003060316841F4803105E020F48030306055
:10333000316821F480213160606858B100F02CF9C7
:10334000054630688103A6D400F026F9401B6528A5
:10335000F7D3D4E700F020F90546306881039AD509
:1033600000F01AF9401B6528F7D3C8E7E068A8B158
:103370000121396000F010F905463068810705D455
:1033800000F00AF9401B0228F7D9B8E73068216934
:1033900020F0F80040EAC10030609BE7386000F0A0
:1033A000FBF805463168880794D500F0F5F8401B16
:1033B0000228F7D9A3E7FFF74EFF0546706F810794
:1033C00005D500F0E9F8401B0228F7D997E72078E7
:1033D000410759D5306C0025C10005D4002000906C
:1033E0000125316C00F0BFF8DFF8A081D8F80000AB
:1033F000C10512D4D8F8000040F48070C8F800006D
:1034000000F0CAF88146D8F80000C10505D400F0E4
:10341000C3F800F0B1F8F6D971E7A068012805D02B
:103420000528306F06D140F004003067306F40F05F
:10343000010005E0400840003067306F20F00400D4
:10344000306741F28938A06860B100F0A5F8814684
:10345000306F810713D400F09FF8A0EB09004045BE
:10346000F6D34CE700F098F88146306F810706D517
:1034700000F092F8A0EB09004045F6D33FE71DB1FC
:10348000306C20F080503064A069002868D0B168AA
:1034900001F00C01082938D002282AD100F070F878
:1034A00005463068810105D500F076F8401B0228FA
:1034B000F7D924E7E069216A626A0843A16A4908EA
:1034C00040EA8210491E40EA0140E16A226B40EA6C
:1034D000016040EA02707060012000F052F804467A
:1034E000306881013CD400F057F8001B0228F7D95E
:1034F00005E700F045F804463068810130D500F05A
:103500004BF8001B0228F7D9F9E6012826D070688D
:10351000E26900F48001914202BF00F03F01226A9B
:10352000914201BF47F6C0710140626AB1EB821F50
:1035300014D1A26A00F4403101F580315208B1EB98
:10354000024F02BF00F07061E26AB1EB026F02BF8E
:1035500000F0E040216BB0EB017F01D0012000E0E2
:103560000020BDE8F28341F080513164306C00F0FE
:103570008050009000987047A0EB09000228704727
:103580000020386600F008B80038024000700040A3
:1035900000004742800E474201484068704700BF24
:1035A000E406001000000000000000000000000021
:1035B000000000000000000000000000000000000B
:1035C000D454033F17D3CABD10EA903D03B4F13E73
:1035D00000000080D905843F96B8083F35C2A63F59
:1035E000E68056BF47E5363FC82ABEBEA3BAAEBD89
:1035F000F43563BF93B3F1BFC459CEBE452BB3BFFF
:10360000D9BA90BD973F0D3F4458E93EA250CBBF79
:103610003A529E3EFF439BBE3DE79BBE1AA0094027
:103620009C17C73D0D7F733F24B8873EFD70B2BE27
:10363000D6E631BE40A09E3FB7D2BBBEA6C348BEB1
:103640004A80563E9807213DFEB1D0BD7DC1CEBE19
:10365000C216083DBAA96E3D3C37E93DF09C12BE4A
:10366000B4DBFCBDFA9F0B3EB2029CBEEFAD893EBF
:103670007E479DBE8CCC27BEA6D1A9BDAE650BBE34
:10368000000000000C03C8BD9E096BBE24F780BD7E
:103690008410A3BD4B8F20BEBE4DDCBDF0058F3D19
:1036A00009499DBEA8685A3D1FF9A03E98D346BD62
:1036B0006E939D3EA4D29E3CC41BF8BDD88F3B3F69
:1036C000D8BD96BD3AFF593FDCEABB3EFD161F3F11
:1036D00016C886BEFA2C983FB6955A3EE9E232BE2D
:1036E0001E0B6F3E00F34CBECA041A3EB4FB12BE62
:1036F0008DAE853E12857EBE6A89453E987E27BD89
:103700008BC7703D9E9DD63D32843F3EE0C6793DDD
:103710003070F8BC2361E03DB69C64BDD8BF8FBE5D
:103720008D070EBE8F8F45BD7CA4D53E06D507BD47
:103730005E9E463E3D72603F48024CBE27C36C3FD2
:10374000E175EC3E1BDB143FCE19673E4BC7A43F2F
:10375000E0F43BBCE883513DDCA090BD1CC5B4BD8A
:10376000B01A873CEEA695BE290A9C3E447680BEE0
:103770004B8110BEA9DA9E3ECE8BCC3E43C9B0BD74
:10378000F8A04E3DC7A95F3FA30D49BE45E7D63E11
:103790006438023F93AD243FC25EAFBD0B01483F8A
:1037A000E27595BF6E093ABE7A310D3EEAA787BD34
:1037B000F2C08DBE26552E3EEBA33B3E321D3DBED4
:1037C0009A001A3E35E6A2BDDB9AA13F7F9011BE5A
:1037D000F70F35BEF275FABDE0A72F3F381F52BD77
:1037E000358B2DBE1DAA133F63C84CBEBE4FF33EA2
:1037F0006592B3BD0000000001680A680A44826057
:103800004B681344C3600831016070478168C26827
:10381000914207D102681168536811440B44C36098
:10382000083202604B1C83600878704738B5044644
:103830000D46A068E168884215D120686168884219
:1038400004D02168207C0A6820B102E0FEF799F9D3
:10385000F7E74A44A26010464A680244E260083131
:1038600090422160E9D0A068401CA06000F8015D92
:1038700031BD2DE9F04589B000F1080100910A46FB
:103880000168490802EBC1030022029203920193EE
:1038900000F108010268520801EBC2030493002200
:1038A000017901F001018DF8201040680499069219
:1038B000400801EBC0010591079217E002980399B7
:1038C000884213D06846FFF7A1FF074617F00304AC
:1038D00003D16846FFF79AFFC41C3D090F2D29D17B
:1038E0006846FFF793FF00F10F0523E00098019968
:1038F000884203D06846FFF77FFFDFE7059809B0ED
:10390000BDE8F0850298039988420BD100980168C0
:103910000844009902904A6810440390009800F10E
:10392000080100910298401C029010F8011D04A8A3
:10393000FFF77CFF641EE5D1002DBFD06846FFF77E
:1039400065FF0646C7F38100032804BF6846FFF7FA
:103950005DFF049C0699079F06EB002607E0361AD8
:10396000083CA4F10800016840680F18394654F873
:10397000080C081AB042F2D376420E444FF0000809
:1039800006E00698401C069008F1010800F801AD19
:10399000A8F10201A94291D0BE4206D154F8046BAD
:1039A00054F8040B3718BE42F8D00698079916F859
:1039B00001AB8842E5D104980599884206D0049865
:1039C00001689DF82000069130B102E0FEF7D9F8B9
:1039D000F5E701EB09000690049906984A688118FA
:1039E000049A02F10803884207910493E3D0C8E7E0
:1039F00010B500F0FF04030A444819B1224600F054
:103A0000D9F804E01A462146343000F0D3F8FEE736
:103A100070B53F4C002204F1180104F1080000F0D9
:103A2000E9F8010600F00480BDE8704039A1DFE745
:103A3000A068002100F020F9E0600021A06800F0FB
:103A400021F920611C210020E26801FB00F31A44E7
:103A5000556844F82050401C0028F5DD00202269FC
:103A600001FB00F31A4404EB800655687560401CA6
:103A70000028F4DD70BD000070B5254E4FF07F5179
:103A8000716196B01C2000F08BF9F0601C2000F0F2
:103A900087F9F56830610DB1040003D128A000F06A
:103AA00089F830E00DF13C0030A11C22FDF75CFBF1
:103AB0000DF1100029A11022FDF756FB04A8159066
:103AC0001C2208A834A1FDF74FFB68462EA1102246
:103AD000FDF74AFBCDF838D028460FA91C22FDF788
:103AE00043FB204608A91C22FDF73EFBB068224696
:103AF000294600F053F9012805D0B06800F06EF8AF
:103B00000BA1FFF775FF16B070BD0000E44600087A
:103B1000C402001061695F6E6574776F726B5F63DA
:103B200072656174655F616E645F696E69740000DF
:103B300061695F6E6574776F726B5F72756E00009E
:103B40004D656D6F727920616C6C6F636174696F24
:103B50006E206661696C6564210A00000100000046
:103B6000010000000100000001000000401082017F
:103B7000D80200100000000000000000010000005A
:103B8000010400000000000001000000010000002E
:103B900001000000010000004010820170080010C8
:103BA000000000000000000001000000010400000F
:103BB000000000000EB4C0B5024603A80021019029
:103BC000009101AB0121044878440C30FCF7F5FA70
:103BD00006BC5DF810FB00BF450D0000FEF7C6B93E
:103BE000E0B500220523019200930123684AFEF705
:103BF0001FFA0EBD2DE9F0410D468EB00746144662
:103C00000021FFF7EDFF80465FEA086030D168468B
:103C100000F058F9012803D03868FFF7DFFF26E0ED
:103C2000002665B107E055F82620314603A8FEF7C7
:103C3000EFFD761CB6B2BDF80E008642F3DB002520
:103C400064B107E054F82520294601A8FEF7E0FDFD
:103C50006D1CADB2BDF806008542F3DB38686946DD
:103C600000F016F8012803D03868FEF77FF9804687
:103C700040460EB0BDE8F08110B94548454A0260A3
:103C8000FEF788B910B94248424A0260FEF7A8B967
:103C90002DE9F84380468946FEF707FA040008BF7D
:103CA000002072D04A4601213B4F07F1C400FEF7C5
:103CB00016F907F18805B0B3396F386E41F08041CD
:103CC00040F0804038660126E86B396700F1280231
:103CD000BA6700F12801D7F88020F96742F08042E6
:103CE000B866F866C7F8802000F15001296000F13D
:103CF00050026A60A96841F08041A96000F5F07146
:103D000029616961A96941F08041A96100F50271E9
:103D10002962696200F50C70A96A41F08041A962CC
:103D20002863686305E0122230212046FEF72CF953
:103D300000264A46012107F1C000FEF7E7F8B0B1BE
:103D4000A86B00F1240100F12402B960FA60B863A5
:103D5000F863B865F86500F1280100F12802B9613F
:103D6000FA61B962FA62B964FA64012005E01322CB
:103D700030212046FEF708F9002006404046FEF7B5
:103D800018FA0640304618BF0120BDE8F283000053
:103D9000C80000100001C0A100000010FEF73CBAEE
:103DA00010B50446AFF30080204600F005F8044645
:103DB000AFF30080204610BDF8B500F10F04E40811
:103DC000E400A0422BD2082C04D2082402E00830E0
:103DD00000F03CF8DFF8E8201368190005D1002056
:103DE00007E00568A5420DD2011D08680028F8D13A
:103DF0001868111D00E0191D0B6883420BD01D6867
:103E0000A542F8D359B10B6818680838A04208D207
:103E1000586808600FE000F065F80028D7D100204E
:103E2000F2BD181908601D1D586828511E680F68DA
:103E3000361B3E601C60096800291DBF48680028C9
:103E4000081D0020106003F10800F2BD002800D119
:103E5000704770B4A0F108021368072B2ED913F035
:103E6000070F2BD1DFF85840616809B18A4203D2AD
:103E70005160626015E00146486808B19042FAD38B
:103E800008680E18B24219D3964203D11B180B6072
:103E90000A4606E0486810B1134498420ED35060B9
:103EA0004A60506850B11368D518854206D1002683
:103EB00026600168CB1813604068506070BC704782
:103EC0006808001028B100BF0FF2080203A1FEF736
:103ED00035B8704700000100BC040010000001006C
:103EE000D80400100749086808B100207047064848
:103EF000C008C00008600549C908C900091A016066
:103F0000704700BF940800109F0C00109814001018
:103F100070B401464FF001020B681B0A1ED04C68BA
:103F200004EB830118460D1F10F0030100F006801A
:103F300055F804695B1E7243491EF9D180080DD003
:103F400004EB83011039CB688C684D6851F8106917
:103F500063436B4373435A43401EF4D170BC104615
:103F60007047000093ED000A01EB820300EB820032
:103F70001B1F001F8B420ED3D3ED000AB4EE600A64
:103F8000F1EE10FAA8BFDFED040AC0ED000A1B1F16
:103F9000001F8B42F0D270470000000070B504464D
:103FA000A269118800291ABF5068001D042000680A
:103FB000002814BF056800250229A6BF50681030EC
:103FC00004200068002819BF006800F118060021CD
:103FD00001F11806E069F8B905F10800FFF798FF4C
:103FE000A969336889689C6801EB800204EB800052
:103FF000121F001F8A422ED392ED000AB5EE400A2E
:10400000F1EE10FA98BF9FED140A80ED000A121F1E
:10401000001F8A42F0D270BD4068012805F10800F7
:104020000CD1FFF775FF0246E0698368A869346820
:104030008168A068BDE87040FFF794BFFFF768FF94
:10404000E16934688B680246A8698168A068BDE8A8
:10405000704000F003B870BD0000000093ED000A4E
:10406000D3ED010A93ED021A001FB5EE401A00EBE2
:1040700082000B1FF1EE10FA03EB82022AD5F5EE57
:10408000400AF1EE10FA13D08A4210D392ED001AD2
:10409000B4EE410AF1EE10FAA4BF31EE401A21EE5F
:1040A000201A80ED001A121F001F8A42EED27047BC
:1040B0008A42FCD3D2ED000AB4EE600AF1EE10FAA7
:1040C000A8BFDFED130AC0ED000A121F001F8A42CD
:1040D000F0D270478A42EAD3D2ED001AB4EE611AE8
:1040E000F1EE10FA0ADBB4EE610AF1EE10FA07DB2A
:1040F00071EEC01A61EEA01A02E000BFF0EE411AA4
:10410000C0ED001A121F001F8A42E5D2704700005E
:10411000000000002DE9F04387B087693888002847
:104120001ABF7968091D04210968002914BF0B68AA
:1041300000230228A6BF79681031042109680029EC
:1041400014BFD1F800C04FF0000C0228C6BF796838
:104150001C3104210968002919BF096801F11808F8
:10416000002202F1180802280ADD7A6812F118010B
:1041700006D0118B022903DBD16909B14A6800E03E
:104180000022D9684C68DCF80C104D688E68C9684C
:10419000D8F800E04E430428A6BF786828300420F1
:1041A0000068DEF8001000281CBF0068002821F01D
:1041B0007E481ABF8069D0F808904FF00009002AA5
:1041C0001ABF926997680027DCF818009969DEF831
:1041D0000820DEF80C30DFF868E080688968F04578
:1041E0000AD0DFF860E0F0451ED0DFF85CE0F04573
:1041F0000FD007B0BDE8F0830090019102920397C1
:104200000494059506966846FEF748FC07B0BDE89D
:10421000F0830496039502940197CDF80090FEF781
:10422000C7FD07B0BDE8F08304960395029401979B
:10423000CDF80090FEF7E6FE07B0BDE8F083000081
:10424000401082014010D0014010E8012DE9F041FA
:1042500004000F4654D0404E306800F00F00B842C2
:1042600002D200F073F84BD120683C4D810712D583
:10427000400703D5A96841F4E051A96020780107FF
:1042800003D5A86840F46040A860A968A06821F040
:10429000F0010143A9602178C80729D56068012889
:1042A00002D129688A0305E0022818BF032803D138
:1042B00029688A0103D423E029688A0720D5A968E0
:1042C000890840EA8100A860FFF766F98046A8687F
:1042D000616800F00C00B0EB810F09D0FFF75CF9CA
:1042E000A0EB080041F289318842F0D303202BE093
:1042F000306800F00F00874204D200F027F801D0A8
:10430000012021E02078410705D5AA68E06822F461
:10431000E0520243AA602178080706D5A9682069FF
:1043200021F4604141EAC001A96000F01FF8AA68C9
:104330000B490C4BC2F30312895CC84018600A4851
:10434000006800F043F80020BDE8F0813770316864
:1043500001F00F01B9427047003C024000380240B2
:10436000BC48000840070010EC06001030B5144CA3
:10437000606800F00C00042802D0082802D01DE07C
:10438000104830BD226820680023410202F03F023D
:1043900004D525680B49C5F3881003E020680A4955
:1043A000C0F38810A1FB0001FDF768FB2168C1F391
:1043B0000141491C4900B0FBF1F030BD024830BD5D
:1043C0000438024040787D010024F40038B50D4DDA
:1043D0000D4B2A7804464FF47A711868B1FBF2F25B
:1043E000B0FBF2F000F04AF850B9102C08D20022CD
:1043F00021464FF0FF3000F023F8AC60002032BDC2
:10440000012032BDE406001040070010090102003F
:1044100002D4234881547047224B02F00F021A4401
:1044200002F8041C7047204B19684FF6FF02000287
:10443000114000F4E06008431C49084318607047CD
:1044400070B5194B1C68C4F302230124C3F107059E
:10445000052D2EBF0F2504FA05F56D1E1E1D072E16
:1044600034BF0023DB1E2940994004FA03F3BDE862
:1044700070405B1E1A401143C8E70000401EB0F1B7
:10448000807F01D30120704709490A4A4860002310
:10449000F02010708B60072008600020704700003B
:1044A00000E400E018ED00E00CED00E00000FA058B
:1044B00010E000E023ED00E080B500F063F800F0CC
:1044C00005F8FFF7A5FAFFF7D7FAFCE700B593B0B8
:1044D0003422002106A800F06FF81422002101A860
:1044E00000F06AF80020009001232348016841F0A1
:1044F000805101600021006800F080500090009819
:104500001E480091026842F44042026002220068A4
:1045100000F44040009006A80099069210210A91EC
:104520000C9200210D910822B4210E920F910222CB
:1045300004210993109211911292FEF78FFE08B197
:1045400000F01EF800F042F808B100F019F802215E
:104550000291002203920F204FF4A0510190049188
:104560004FF480520592052101A8FFF76FFE08B1B4
:1045700000F006F813B000BD403802400070004063
:1045800072B6FEE780B50B48016841F40071016026
:10459000026842F480620260016841F48071016047
:1045A0000320FFF740FF0F20FFF710FF00F04AF84D
:1045B000002002BD003C024010B5044610460A46E9
:1045C0000146204600F05AF8204610BDF8B500F02C
:1045D00027F8012100F01EF83160FEF7DDFF0746E5
:1045E0002868C10306D4FEF7D7FFC01BA042F7D34B
:1045F0000320F2BD01207060FEF7CEFF064628685A
:10460000810305D4FEF7C8FF801BA042F7D3EFE774
:104610000020F2BD006800F08050009000987047C4
:104620000020009040F2E9340448054E0168024D34
:1046300041F08051016070470470004040380240F2
:1046400040000E4281B00020009000220A484168DC
:1046500041F480414160416801F48041009100993A
:104660000092036843F080530360006800F08050BC
:104670000090009801B070474038024062F30F226A
:1046800062F31F42401810F0030308D0C91A1FD369
:10469000DB0748BF00F8012D28BF20F8022D1300CA
:1046A00030B414461546103928BF20E93C00FAD82A
:1046B000490728BF20E90C0048BF40F8042D8900B5
:1046C00028BF20F8022D48BF00F8012D30BC7047EC
:1046D000C91818BF00F8012DCB0728BF00F8012D1D
:1046E0007047000054454D504C415445202D204505
:1046F00072726F722028257329202D2074797065BD
:104700003D30782530327820636F64653D30782500
:104710003032780D0A00000054454D504C4154454C
:10472000202D204572726F72202D20747970653DA6
:1047300030782530327820636F64653D30782530DD
:1047400032780D0A0000000080B50D4979443031FF
:104750000C4A7A442E32914203D00B49AFF30080C9
:1047600002BD8DF8000001226946012000F00EF81C
:10477000012802D19DF8000002BD4FF0FF3002BDBC
:1047800080B8FFF77CB8FFF71401001080B500284F
:1047900002D400F003F802BD002002BD80B500295C
:1047A00001D1002002BD012801D0022802D100F071
:1047B00004F802BD00F011F802BD30B583B00C0062
:1047C00015000120FDF702FA009001940295694658
:1047D0000520ABBE281A03B030BD18B583B0030066
:1047E000140000930191029469460520ABBE01229A
:1047F0001900201AAFF3008004B010BD30B40025BA
:1048000012E050F8042BD30744BF4A44521E091F3C
:10481000042942F8045BFAD213468C0744BF158082
:104820009B1CC90748BF1D7050F8041B0029E8D124
:1048300030BC704710B5074979441831064C7C44A8
:10484000163404E00A68081D114488470146A14255
:10485000F8D110BD2C000000540000004EF6885125
:10486000CEF20001086840F470000860BFF34F8F7B
:10487000BFF36F8F4FF00170E1EE100A7047000038
:104880007DFFFFFF380100006007001000000000FE
:10489000E3EFFFFF020000000200000068020000DA
:1048A00052020000000000104407000002480168A6
:1048B00041F470010160704788ED00E000000000E5
:1048C00000000000010203040607080900F00DF8CB
:1048D000002801D0FFF7AEFFAFF300800020AFF358
:1048E0000080FFF7E9FD00F002F80120704700F0BA
:1048F00001B8000007463846FDF748F9FBE700001D
:104900000548014603B4684680F30988AFF3008088
:10491000FFF7A4FFFFF7DAFFA5EDF5FE38B5044673
:104920000D462846FFF710FFA84218BF0024204676
:1049300032BDFEE7FEE7FEE7FEE7FEE770477047A1
:10494000704700F001B800000248416802788A18F8
:1049500042607047E4060010014880470148004764
:10496000AD4800080149000804000000940100104F
:1049700004000000C401001004000000F401001055
:104980000400000024020010040000005402001083
:10499000FFF7FEBFFFF7FEBFFFF7FEBFFFF7FEBF4B
:1049A000FFF7FEBFFFF7FEBFFFF7FEBFFFF7FEBF3B
:1049B000FFF7FEBFFFF7FEBFFFF7FEBFFFF7FEBF2B
:1049C000FFF7FEBFFFF7FEBFFFF7FEBFFFF7FEBF1B
:1049D000FFF7FEBFFFF7FEBFFFF7FEBFFFF7FEBF0B
:1049E000FFF7FEBFFFF7FEBFFFF7FEBFFFF7FEBFFB
:1049F000FFF7FEBFFFF7FEBFFFF7FEBFFFF7FEBFEB
:104A0000FFF7FEBFFFF7FEBFFFF7FEBFFFF7FEBFDA
:104A1000FFF7FEBFFFF7FEBFFFF7FEBFFFF7FEBFCA
:104A2000FFF7FEBFFFF7FEBFFFF7FEBFFFF7FEBFBA
:104A3000FFF7FEBFFFF7FEBFFFF7FEBFFFF7FEBFAA
:104A4000FFF7FEBFFFF7FEBFFFF7FEBFFFF7FEBF9A
:104A5000FFF7FEBFFFF7FEBFFFF7FEBFFFF7FEBF8A
:104A6000FFF7FEBFFFF7FEBFFFF7FEBFFFF7FEBF7A
:104A7000FFF7FEBFFFF7FEBFFFF7FEBFFFF7FEBF6A
:104A8000FFF7FEBFFFF7FEBFFFF7FEBFFFF7FEBF5A
:104A9000FFF7FEBFFFF7FEBFFFF7FEBFFFF7FEBF4A
:104AA000FFF7FEBFFFF7FEBFFFF7FEBFFFF7FEBF3A
:104AB000FFF7FEBFFFF7FEBFFFF7FEBFFFF7FEBF2A
:104AC000FFF7FEBFFFF7FEBFFFF7FEBFFFF7FEBF1A
:104AD000FFF7FEBFFFF7FEBFFFF7FEBFFFF7FEBF0A
:104AE000FFF7FEBFFFF7FEBFFFF7FEBFFFF7FEBFFA
:104AF000FFF7FEBFFFF7FEBFFFF7FEBFFFF7FEBFEA
:104B0000FFF7FEBF8004401082090100011110F37D
:104B10002D010A10F12050F21E6430F30201000151
:104B2000F0050301C0A1E209D6DA1B1002DECAFAC1
:104B3000A121200300E00200100812FC0812022943
:104B40001003F4040010A004E13410040204010175
:104B5000B00718200108001008310C11016108F09D
:104B6000070E58010010440100100001129642F196
:104B7000070452FF01F2007E1421A2500100001030
:104B80006C210C52140C21B483F006788374082431
:104B9000921830831C07248378080C927C30922072
:104BA0003092246092F860928030922830922C608B
:104BB00092846092883092303092346092003C52FD
:104BC0008C30A002070104000116689440069D3F46
:104BD00000087049000820B2022052842052802030
:104BE000F1070112606CC340045C12344B216FF377
:104BF000018C061C4350001C869C042201101B0CD7
:104C000005301108121C08737000D8311C522C1C7E
:104C1000123C08738000E8311C524C1C125C085294
:104C2000901C52031C526C1C127C0852A01C520493
:104C30001C528C1C129C0852B01C52051C52AC1CFD
:104C400033BC0518311C52061C52CC1C12DC085215
:104C5000101C52071C52EC1C12FC0852201C62084B
:104C6000E05206E0110852301C6209E0511C263C5B
:104C700030511C620AE0511C125C0852501C620B3D
:104C8000E0511C127C0812601CB4010401056C2563
:104C9000E414031541000868C4B0010401031C4377
:104CA00084021C32781CCDEE0352A41C12881CF521
:104CB00007C056ACDC8BC0352065F812BC1C2152F5
:104CC0001A381C52CC0C123C0C52D80C2D6C0452CD
:104CD0000104520404522804F2020A2021184390CD
:104CE0000104F11340F20201406104F2020120A12B
:104CF00004F11320F10B80F15320F12FA0C33402F3
:104D000044F30D500010A1302E38500411041258F5
:104D100004124804121C04476008D8210129A1107C
:104D2000036C03001088041234041250041A4C88D7
:104D30001218086D900512141012300412F8142184
:104D40000C43DC030C43C0030C52A40C21082128A3
:064D500000020024F40043
:0400000508004901A5
:00000001FF
