:020000040800F2
:10000000D84B0020B17900088D7900088F7900085D
:1000100091790008937900089579000800000000A4
:1000200000000000000000000000000097790008B8
:1000300099790008000000009B7900089D7900086C
:10004000357A0008397A00083D7A0008417A0008BC
:10005000457A0008497A00084D7A0008517A00086C
:10006000557A0008597A00085D7A0008617A00081C
:10007000657A0008697A00086D7A0008717A0008CC
:10008000757A0008797A00087D7A0008817A00087C
:10009000857A0008897A00088D7A0008917A00082C
:1000A000957A0008997A00089D7A0008A17A0008DC
:1000B000A57A0008A97A0008AD7A0008B17A00088C
:1000C000B57A0008B97A0008BD7A0008C17A00083C
:1000D000C57A0008C97A0008CD7A0008D17A0008EC
:1000E000D57A0008D97A0008DD7A0008E17A00089C
:1000F000E57A0008E97A0008ED7A0008F17A00084C
:10010000F57A0008F97A0008FD7A0008017B0008FA
:10011000057B0008097B00080D7B0008117B0008A7
:10012000157B0008197B00081D7B0008217B000857
:10013000257B0008297B00082D7B0008317B000807
:10014000357B0008397B00083D7B0008417B0008B7
:10015000457B0008497B00084D7B0008517B000867
:10016000557B0008597B00085D7B0008617B000817
:10017000657B0008697B00086D7B000800000000BB
:10018000717B0008757B000810B5DFF8544C00F057
:1001900041FFA0600021DFF84C0C01600068606046
:1001A00010BD2DE9F042DFF83C1CDFF8346C0C6820
:1001B0007068241A00F02EFFB1683268401A0025DA
:1001C000002100238B420CD882420AD200F028FF83
:1001D0004FF0FF36A6FB007906FB01993C1949EB6D
:1001E000050520462946BDE8F08238B504460121C0
:1001F000A269156800F0D6FF21686843BDE8344065
:1002000001F025B8014648780A78000440EA026007
:100210008A78C97840EA022008437047F8B5044656
:100220000D462DED028B6069000A10600420A16963
:100230005160906000212970B0EE408A22682A64E3
:100240002B66606900F0FF0101290CBF4FF080713F
:100250000021089E41EA1021A9640121A2691768C2
:10026000204600F09FFF47436F64A06885ED158A24
:10027000AE6548B30178CA0726D5416821B34A68FC
:10028000002A1CBF4888002805D0126892ED000A99
:1002900085ED150A01E0002068650A784868930733
:1002A00007D500281CBF498800290BD0406800787A
:1002B00009E000281CBF4988002903D0406890F954
:1002C000000000E00020A8656068E865BDEC028BD6
:1002D000F1BD38B50C4611461A46E368009325680F
:1002E000636894ED020A1C2460432844FFF796FFDC
:1002F00031BD70B51E460C46154601203060211DEB
:1003000004227160B260206820B14022294601F0C9
:1003100035F801E000232B70DFF8CC0A286461680F
:1003200069640821306840F08070A8640020686526
:10033000A865A068E865296670BD2DE9F84187B019
:1003400004460D460E9E11201F46E88090460F9BE6
:10035000009304AA334605F108013846FFF75EFF13
:10036000DFF88C2A6A6504A8A865B0057968696712
:1003700002D50021296703E03846FFF736FF2867DA
:10038000684600F06DFA286FDFF8681A019042465F
:10039000686F0290A967C5F87CD02946204601F015
:1003A0008EF8012008B0BDE8F0810CB410B50A4603
:1003B000A8B1DFF8444A02AB5021204601F0A9F968
:1003C000002806E0215C0A2912BF0D2900212154D2
:1003D000401EF7D122460121012001F096F810BC01
:1003E0005DF80CFB2DE9F84F2DED028B94B0D0F8A1
:1003F00098600D461446FFF7D4FECDE90401A80726
:1004000009D57168491CE805716003D5DDE904234D
:10041000C6E90823ADE06807FCD5FFF7B5FED6E9CD
:100420000801DDE9042382184B41C6E90823B068BE
:10043000401CB0604FF08077A80548BF4FF0407770
:1004400060880FF68431C0F30E00074306A8182217
:1004500001F02AFBDDE9040101F0AAF904A90991E0
:10046000002206A88DED060A079202900023A188BB
:10047000019100973169F068022201F08AF8E06882
:1004800001880229A6BF406800F10C04002400275F
:100490000FF64C385CE050F82750002D61D02868EA
:1004A00000281FBF4268002A4188002969D01268CD
:1004B00092ED008AA969D1F800A0CAF3C0510029C1
:1004C0004FF0000960D000281CBF4168002904D00B
:1004D000408810B1486890F900900CA841461C2251
:1004E00001F0E2FACDF830A005F1080BA869C16867
:1004F0000D912846012101F0F9FA1090DBF8001067
:10050000119861F307001190DBF80010090A61F3FC
:100510001F2011900421DBF804001290002C0EBF64
:100520004FF0FF302088401E874208BF4FF4827191
:10053000307D08B141F400710091CDF8049031692B
:10054000F068B0EE480A0CAB0222FFF7F6FE7F1C03
:10055000002C14BF20880020874202D26068002847
:1005600099D1FFF71EFED6E9062310185941C6E9B6
:100570000601FFF709FE14B00020BDEC028BBDE8B8
:10058000F28F9FEDB28A95E700281FBF41680029CE
:1005900040880028A1D0486890F800909DE72DE998
:1005A000F843044600263CB32078DFF8505820B9C1
:1005B00009BB2868F8B12E461DE00027A021794329
:1005C0006E18306898B1D6F80880404601F0D6FA27
:1005D0008146204601F0D2FA814508D1404601F01B
:1005E000CDFA02462146404601F0D2FA18B1002663
:1005F0007F1C002FE2DD3046BDE8F28338B588B0BD
:1006000004460D4603A801F0E9F80B21E980042215
:100610000698A8600399E96000210498286105986C
:100620006861009102920191C5F81CD00022DFF8A8
:10063000C007A8612946204600F041FF09B030BD3F
:100640002DE9F84F0546A0B00E46A96805F10C004B
:10065000FFF7A5FF040000F0EF8004F19000477859
:1006600090F800901620F08006F1CC0814A801F054
:10067000A5FAA068402206F1080100F07FFEE068BC
:10068000402206F14C0100F079FE6069402206F13B
:100690008C0100F073FE15A8FFF7B4FDC8F8000048
:1006A00004F12400FFF7AEFDC8F804009DF86000D7
:1006B000012819D0102808BFDFF8440716D02028D9
:1006C00008BFDFF8400711D0302808BFDFF838072F
:1006D0000CD0502808BFDFF8340707D0402814BFDB
:1006E0000120DFF82C0701E04FF00110B064402238
:1006F000199806F58A7100F041FED4E90E0106F161
:10070000D80804F1440AC8E90001DAF84020C8F822
:1007100008204FF0010BB9F1000F18BF40F2014B58
:100720000AA800F09DF8DAF800100FF654000A91BC
:1007300003A990E80C4081E80C40CDF82CB00AAA3F
:10074000B4F84010DFF8CC960491059203A8C8F8DD
:100750000C10C8F81090C8F814004FF0020B0FB13D
:1007600040F2024B00F07BF8DAF804100FF61C00A0
:100770000691694690E88C0081E88C00CDF81CB0A9
:1007800006AAB4F8421001910292C8F81810C8F8ED
:100790001C90C8F820D00022BAF816001C2138B1ED
:1007A000002303E0DAF8184000F052F88342F9DB46
:1007B0000FF2E47393E8904011A880E89040129201
:1007C0000EA80FF2E07292E8980080E8980011A855
:1007D00010900EAA0120C8F82400C8F82890C8F884
:1007E0002C200022BAF80E0038B1002303E0DAF81A
:1007F000104000F02DF88342F9DB0FF2B47191E85C
:1008000098001DA80FF2B47180E898001E921AA8F3
:1008100091E81C0080E81C001DAF1C9701201AA95C
:10082000C8F83000C8F83810C8F8349000223146B3
:10083000284600F044FE07E0042000900423042230
:100840003146284600F048FEB0E1000000000000FC
:1008500001FB03F73C445B1C24692244704706A853
:10086000102101F0C7B900002DE9F34F9FB04FF000
:10087000FF310C30FFF793FE040003D104200090F9
:1008800004231DE104F19205002068701F99896816
:100890008A0748BF01204A0744BF012068702870BA
:1008A0004A0A02F00102880A090A01F001012971CD
:1008B000AA7000F00100DFF86015E8700122002343
:1008C0000A750B70287800B10A70687808B10A7050
:1008D0000B759846C1E90633C1E908834B608B600C
:1008E000C4F89810012304F144010A68029249688F
:1008F0000A91A26828790FF2FC51FFF756FDE878BB
:100900000190A97800916B782A782879DFF80C1586
:10091000FFF74BFD0298FFF768FC1F998A681F9943
:1009200000920246CB6C2879DFF8F414FFF73DFD06
:100930000298FFF75AFC034620991F98CDF80080D3
:10094000012200F0C9FD00F065FB03901DE05A464E
:100950003146484601F0A8F8D9440AF1010A009846
:10096000FFF743FCB0FBFBF08245F0D30020009082
:10097000079B20991F983A4600F0AEFD012F14BF47
:10098000022F00F0B2FD08F10108B4F840008045E4
:1009900050DA012708F10101814208BF02271C2615
:1009A000029806FB08F680190090FFF71EFC95F8E8
:1009B000039095F802A0FFF752FF0098FFF715FC8F
:1009C00007900298011D59EA0A008A59089213D02B
:1009D0000298DFF85034815921F07E429A421EBFBE
:1009E00021F07E40DFF84024904203D0012000F047
:1009F0002EFC00E004200790B9F1000F1CBF01A8F5
:100A0000089006A800F0B1FDDDF81CB0099B5B451D
:100A10000DD1BAF1000FA9D0B9F1000FA6D10298FB
:100A2000011D4FF0010A8E590BEB060997E70120D3
:100A3000009045E000F0EEFA0399DFF8E083B4F8A7
:100A40004030421A287908F17401FFF7AEFCD4F85F
:100A50009870387800281CBF2068002812D01F9991
:100A6000F9606946209A3A610BAA01F0B4F9DFF8FF
:100A7000BC03B8620621FC62396307F128010098C3
:100A800001F08BFF00F0C6FA0246287908F19C01BC
:100A9000FFF78BFC00F0BEFA0390FFF775FB0A9A94
:100AA0000299206801F087F901280FD0206801F031
:100AB00052F90FF25C4102F003F80A2000900A2379
:100AC000042220991F9800F007FD6FE0FFF769FBF3
:100AD000CDE9040100F09EFAD4F89810D1E906237C
:100AE000D1E90869961943EB0909DDE90423B21835
:100AF00049EB0303CDE904230399421A287908F14D
:100B0000C401FFF752FC0BA80FF2F041182200F0CD
:100B1000CBFFDDE9040100F04BFE04A900220BA885
:100B20008DED0B0A0E910C92029001920092A36837
:100B300020991F98022200F02CFDB4F84220287959
:100B40000FF2DC31FFF731FC1F9DDDF880800A9F3A
:100B5000002019E02E7A02220221360748BF40F217
:100B60000221461C9E4204BF032241F48071009181
:100B7000002301931C2148433B189FED970A4146EF
:100B80002846FFF7DAFB3046B4F842309842E1DB02
:100B9000D4F89850287848B1206811AA694601F025
:100BA0001AF9009805F1280101F02CFF21B0BDE8E9
:100BB000F08F1FB50FF288308A4C00F090FD0123B2
:100BC00007220FF294310FF2803000F088FD83A0ED
:100BD00000F085FD00F034FE02F004FA00202060F1
:100BE000642002F011FA20686421B0FBF1F06A463B
:100BF000002100F09EFD01990298039A642303FBF3
:100C000001018B4800F06BFD6A464FF0FF30002178
:100C100000F08FFD019902984FF47A7202FB0101F6
:100C20006F4A116002F0DEF9002004B010BD000030
:100C30002DE9F84F01F02EFF704EDFF8F8A10020EB
:100C4000C6F800004FF0FF399CA000F048FD4F4669
:100C500000254FF01C0801E000276D1C29460020EC
:100C600001F002F8040000F07C8021469BA000F017
:100C700036FD214672A0A02700F031FD6F4306EB40
:100C8000070B00225946204601F008F801061BD147
:100C900078A000F024FD00F09AF8002852D0F05916
:100CA00001F068F8A8B100F092F800284AD00BF1E2
:100CB000080002F005F80BF19002002000211070EE
:100CC00051700BF1400323E065A101F0F9FE4F469E
:100CD00048E0F05901F03FF873A101F0F1FEF0593E
:100CE00001F00AF80020F0516FF003073AE0012408
:100CF00014700CE05C6808FB01F704F1040E5EF868
:100D000007000028F3D15AF82100241DE051491CA6
:100D100018888142EEDB4FF0000C474C5888844520
:100D20009ADAD3F808E008FB0CF10EF104077858C2
:100D3000002819BF0120507054F82C0078500CF195
:100D4000010CEBE756F8070001F005F850A101F09F
:100D5000B7FEF05900F0D0FF0020F0516FF001070E
:100D600000E057B14FEA07017FA000F0B8FC4FF454
:100D7000FA6002F049F9384627E01CA4204600F04A
:100D8000AEFC2E4D284600F0AAFC05F1300000F024
:100D9000A6FC284600F0A3FC204600F0A0FC05F1CC
:100DA000600000F09CFC05F1A80000F098FC012216
:100DB000032105F1D80000F092FC06F1A00000F03C
:100DC00071FA00F09FFA0028FBD0BDE8F28FF059CD
:100DD0000BF1080100F0B0BF00000000230D0A0075
:100DE000940B0020041000E0400404000D0A0000F1
:100DF000B5130008A11400086809002000000020B5
:100E000001000600010005000100020001000400CD
:100E10000100030001140008580A00204070000877
:100E20007C700008C0008400C0000400E5030008D6
:100E30003C760008DC000020E0000020286F00085D
:100E40004372656174696E6720746865206E6574AD
:100E5000776F726B20222573222E2E0D0A00000060
:100E600061695F6D6E6574776F726B5F63726561E8
:100E700074650000496E697469616C697A696E67AE
:100E800020746865206E6574776F726B0D0A0000C0
:100E900061695F6D6E6574776F726B5F6765745FB4
:100EA000696E666F0000000061695F6D6E65747742
:100EB0006F726B5F696E6974000000004469736350
:100EC0006F766572696E6720746865206E657477E9
:100ED0006F726B2873292E2E2E0D0A000D0A466F95
:100EE000756E64206E6574776F726B202225732295
:100EF0000D0A000052554E3A20632D6D6F64656CEB
:100F00003D257320727469643D25640D0A0000005C
:100F100061695F6D6E6574776F726B5F72756E007D
:100F200052554E3A2073656E64202564206F7574A7
:100F30007075742074656E736F72730D0A00000013
:100F40000D0A230D0A000000232025732025642E9E
:100F500025640D0A0000000041492056616C696457
:100F60006174696F6E0000000D0A453A20206169C6
:100F7000496E6974282920723D25640D0A0000001D
:100F8000D30200080000000000000000D3020008A7
:100F90000000000000000000C07900080000000010
:100FA00000000000F3020008010000000000000043
:100FB000C87900080000000000000000F3020008EB
:100FC0000100000000000000000000000000000020
:100FD0000200000000000000FFFFFFFFFFFFFFFF17
:100FE0000000000000000000000000000000000001
:100FF00000000000000000000000000000000000F1
:10100000000000000200000000000000FFFFFFFFE2
:10101000FFFFFFFF01484068704700BF78070020CE
:10102000D3BBD9B1B2F5803F5BD2022A1ED98C4620
:10103000B1FBF2F102FB11C31B0443EA1043B3FB03
:10104000F2FC02FB1C3380B240EA0343B3FBF2F034
:1010500002FB103240EA0C4000237047022A05D9F7
:101060008446B0FBF2F002FB10C270474AB105D1D2
:1010700000F0010249085FEA3000704700220023B7
:10108000704701F0D5BF0B0002000021002070471F
:10109000F7D3002200237047904271EB030CF2D388
:1010A00070B5B1FA81F4B3FA83F52C1BA340C4F1F7
:1010B000200532FA05F63343A2405FF00046E640D1
:1010C00002E05B085FEA3202841A71EB030524BF79
:1010D000204629467641F4D302000B00300000215F
:1010E00070BD70B5B1FA81F4B2FA82F5C4F1200492
:1010F0006419B4F12006DAD3B2405FF00044F44042
:10110000002502E052085FEA3303C61A71EB020EB3
:1011100024BF3046714664416D41F3D302000B0099
:101120002000290070BDF0B40246106895681318BD
:10113000506803EB5004C00748BF4D44A3422DD074
:1011400013F8016B16F0030004BF13F8010BC01C69
:1011500031090F2907D113F8011B0F3103E013F8F0
:10116000017B05F8017B401EF9D10029E6D013F878
:10117000010BC6F38106032E08BF13F8016B00EBC9
:101180000620404228440026B71E8F421EBF10F89A
:10119000017B05F8017B761CF6D1CFE7F0BC02F1AC
:1011A0000C00704730B403004ED01868324C20F069
:1011B0007E42A2421EBF20F07E40304A904206D1BD
:1011C00029B1986940681F304009400101E09869E1
:1011D00040685A6902F0FF0101290CBF0124002474
:1011E000120A94422EDA9969121B01EB840312F061
:1011F000030109D0012C0CBF01251D686843641C44
:10120000491E03F10403F5D192081BD0012C0CBF39
:10121000012119684843641C012C0CBF0121596845
:101220004843641C012C0CBF012199684843641C8D
:10123000012C0CBF0121D9684843641C521E03F1E4
:101240001003E3D1002800DC002030BC704720B13F
:10125000C1F3C6114843C01DC008704700281CBF19
:101260004168002905D04088401E8041C043C00F1E
:101270007047002070470000C0008400C0000400D8
:1012800000281CBF4368002B0AD0408800281CBFE0
:10129000C1EBC10C13EB8C0002D0426001207047FF
:1012A0000020704738B50446DFF8545384B04FF43B
:1012B000EC71284600F09EFC01F049FF00216846D1
:1012C00001F036FF684690E80E0085E80E00002128
:1012D00001F01CFF05F10C006946102200F0E4FB50
:1012E000002100203CB1224601E0491C0C3250682C
:1012F0000028FAD12046E8612962012085F8D00152
:1013000005B030BD38B501F0CAFEDFF8F442DFF8B1
:10131000F41204F12402204602F083FA50B301F0E3
:10132000BEFE022084F8D001002500E06D1C206A7A
:1013300085420FD2E1690C2068430B1894F82810FD
:101340001A788A42F2D19A685B6804F1780104F154
:1013500024009847206A854209D104210091042382
:10136000042204F1780104F1240000F0B5F8012012
:1013700084F8D00101F093FE002032BD70B505461F
:101380000C46164600F0FAFB0246964238BF721E23
:101390007CB1002D1CBF002A521C04D1ACA52846EC
:1013A00000F0ECFB421C29462046BDE8704000F0EE
:1013B0007BBB70BD2DE9F0411668B46805468846D0
:1013C00004B90424002700E07F1C3068874214D24F
:1013D0004146284602F094FD68B17068022C0EBFA9
:1013E00030F8172004FB07F14258D317284602F0C3
:1013F0001CFD0028E8D1002000E00120BDE8F081BC
:101400002DE9F84F9CB01468DFF8FC917F4DDFF8B0
:1014100000A283468846002600E0761C6768BE422C
:101420001CD203A85146642200F03EFBA168D4F808
:1014300000C06B4603AA3046E0471695CDF85CD055
:101440004146584602F05CFD30B103AA4946584671
:1014500002F07DFD0028E0D1002000E001201DB059
:10146000BDE8F08FFEB516687768B46805460020C1
:1014700009E034B1012F04DB9DF8000004F8010BF2
:101480007F1EF068401CF060A86838B101226946F0
:10149000284601F07DFE0028EBD1FEBD0120FEBDF7
:1014A00070B51568AE68044602F02AFD30B16A686E
:1014B0003146204602F03CFD00B1012070BD80B5F0
:1014C000006808600A710A465249534802F075FCE8
:1014D000BDE8014001F0B2BD38B5049C8B600C251D
:1014E000CD800C73BDE83840E9E71CB50021CDE99B
:1014F000001100F005F8044601F0D1FD204616BDAC
:101500006A4646493E4802F08CB9FEB53C4F044657
:101510000D46002197F8D001CDE9001102281646AA
:1015200001D00020FEBD304600F028FB0D21A7F8B9
:101530007E10C7F880507F2888BF7F20421C31462C
:1015400007F1840000F0B0FA224607F1780107F1B4
:101550002400FFF7B4FF6A463049384602F061F9CB
:10156000044601F09CFD2046FEBD18B585B02C490F
:101570000391044604946A462A49214802F051F92D
:1015800001F08DFD0098206001200299A16006B055
:1015900010BD7FB504460D4610201646E88033B1D5
:1015A000402205F108011846FFF7E8FE01E000229D
:1015B0002A720A99099A0898A864EA6499B1086994
:1015C00028664A696A66086828654A686A65C8685C
:1015D00060B18A680D490092019004220292A965C7
:1015E000C5F85CD003E0002028656965A86532462F
:1015F00029462046FFF763FF012004B070BD0000BC
:101600009007002094740008DC710008B5130008EE
:10161000307400082C7100089C0700201077000827
:1016200065140008AC75000810B50A23CB8040F2A1
:1016300001340023CB608C60130C0B6192B243F435
:1016400000330B61CA600022BDE8104037E700009C
:10165000554E444546494E454400000080B500F0D3
:101660000DF802F06AFD05E0F8E780B500F006F835
:1016700002F0B1FD401E8041C00F02BD8AB201469A
:101680004FF0FF33DFF8BC027047DFF8BC120020D8
:1016900008707047D0B506460F46AC48002100F1EF
:1016A0001404017500F00CF8303204F8012D00F03C
:1016B00007F80F000646F5D1002EF3D12046D0BD25
:1016C000304639460A220023FFF7AABC02B59E49DC
:1016D000087818B101216846FFF7C0FF01BD0EB4BC
:1016E00000B5024601AB0021994802F03DFF5DF8CC
:1016F00010FB436882685B1E9A4200D3704710B5A6
:101700000468A15400228168491C81600068425429
:1017100010BDFEB56C4600250026002784E8E000D9
:101720000090019169468B4802F01EFF0298401E0E
:10173000FEBD2DE9F74612B94FF0FF3032E0CDE99A
:1017400000014FF47A7A03F01DF90446DDE9000147
:1017500000F02AF8DDE900720646AAFB07010AFB41
:10176000021100F021F87C4ADFF8F0A1A2FB067913
:10177000C7190298046002994E6002988760DDE9FB
:101780000023AAFB02010AFB031100F00DF84FF43D
:101790007A74A4FB0723801AAAFB0645029E001B4D
:1017A000F0600020BDE8FE8622460023FFF738BC2B
:1017B00080B52DED028B03F009F900EE100ADFED84
:1017C000600A20EE208A03F0DDF800EE100AB8EE81
:1017D000400A88EE000ABDEC028B01BD10B5040082
:1017E0000ED003F0CFF8206003F0CCF8606000F07A
:1017F00008F8A06003F02CF9E06003F025F92061FF
:1018000010BD574881B0016800910098009900F020
:10181000070040F08070C1F3002109B140F48070EE
:101820000099C1F3402109B140F400700099C1F35F
:10183000802109B140F4806040F4803001B07047ED
:1018400078B5484C87B04FF4A97209212046FFF7BC
:1018500046FF02A8FFF7C2FF6AA0FFF740FF059905
:1018600088B240F21342801A18D0801F22D0083864
:1018700016D0801E1AD00E3816D0801E08D0401EFA
:1018800016D00D380ED0173806D00B3802D013E022
:1018900052A212E04EA210E04AA20EE046A20CE0D4
:1018A00042A20AE03EA208E039A206E034A204E027
:1018B00030A202E02CA200E04CA2069B4DA504F150
:1018C0002400FFF70CFF00BF0FF280130FF2741219
:1018D00054A00421FFF703FF03F0B4F84FEA00011E
:1018E0005CA0FFF7FCFE0298DFF8701090FBF1F1AE
:1018F0005FA0FFF7F4FE0398DFF8601090FBF1F1B2
:1019000062A0FFF7ECFE16483CA20168C1F38020FC
:10191000002814BF2E461646C1F34020002814BFED
:101920002B461346C1F3002000B12A4601F0070000
:101930000190009604F15800FFF7D1FE08B070BD89
:1019400000007A44100A0020880700205C0B002069
:10195000CD160008F316000818FCFFFF40420F00E8
:10196000003C02407C72000853544D3332463478B8
:101970003700000053544D333246343639000000EE
:1019800053544D33324634303178422F43000000F7
:1019900053544D33324634313178432F45000000E3
:1019A00053544D33324634313200000053544D33DA
:1019B000324634343600000053544D3332463478C6
:1019C0000000000053544D333246343130000000E3
:1019D00053544D33324634313300000053544D33A9
:1019E000324634303178442F45000000554E4B4E7E
:1019F0004F574E00547275650000000046616C73CD
:101A00006500000053544D33322064657669636588
:101A100020636F6E66696775726174696F6E2E2ED2
:101A20002E0D0A0020436F726520417263682E20DC
:101A300020203A204D2564202D2025732025730D6C
:101A40000A000000465055200000000075736564D0
:101A5000000000002048414C2076657273696F6E6B
:101A600020203A203078253038780D0A0000000018
:101A700020535953434C4B20636C6F636B203A20C7
:101A80002575204D487A0D0A000000002048434C7F
:101A90004B20636C6F636B2020203A202575204D0E
:101AA000487A0D0A000000004AB1000011F8013B1D
:101AB000521E00F8013B1CBF11F8013BF8E77047CC
:101AC000090441EA006141EA022070472AA2136832
:101AD00081B0020E00938DF80020030C000A8DF8EF
:101AE00002008DF80130009801B0704770B40246D2
:101AF00021B19069436870BC184670479468240A05
:101B00004FF001031ED0D26802EB840120460D1F66
:101B100010F0030100F0068055F80469641E734359
:101B2000491EF9D180080DD002EB84011039CA6832
:101B30008C684D6851F8106962436A43724353439D
:101B4000401EF4D170BC184670470146C8684B6906
:101B5000C068DA688B690649D3F800C0504301EACF
:101B60000C0C044A944504BFC01DC0087047000017
:101B7000FFFF7F01C00004000000000000F101032E
:101B800010F8011B11B110F8011BFBE7C01A7047D8
:101B90008AB10B7890F800C09C4506D110F8013B43
:101BA0004BB1491C521EF4D105E002D24FF0FF3078
:101BB000704701207047002070470001F0B438B131
:101BC00006A191E8FC0080E8FC00F0BC0020704712
:101BD000F0BC014870470000010002000100000055
:101BE00009010000010000000000000030000000BA
:101BF00078790008002202F037BF000080B502F0BB
:101C00004DFFBDE80140FEF7D4BFFFF711B870B536
:101C1000040014D00D682846FFF7B0FF06462046A2
:101C2000FFF7ACFF86420AD12846FFF7A7FF02461E
:101C300021462846FFF7ACFF08B9012070BD0020FF
:101C400070BD10B502460023394C990160181AB1D5
:101C5000904204D1104610BD61580029FBD05B1C96
:101C6000002BF2DD002010BD2DE9F04180460D462D
:101C70000026304F2C24744339194046FFF7C7FF24
:101C800038B92846451E002803D0761C002EF1DD09
:101C900001E0385900E00020BDE8F0812DE9F8436B
:101CA00081460E4690460020FFF7CBFF040008BF98
:101CB00041F231001ED000272C211E4879434518DF
:101CC00029464846FFF7A3FF18B97F1C002FF3DD14
:101CD00006E02A69B8F1000F0CBF6968414602E0CE
:101CE00041F2140006E03046904718B9256031688B
:101CF00061603460BDE8F28338B50546FFF7A1FFA7
:101D0000040010D0216860688A6990476168884241
:101D100009D00020064982018B18A34205D0401C3F
:101D20000028F8DD0025284632BD00208850F9E75C
:101D3000980A00207077000810B50C46FFF781FF65
:101D4000020006D050681268D3682146BDE81040F2
:101D50001847002010BD10B5FFF773FF010041F2D6
:101D6000140405D0486809684A69BDE81040104766
:101D7000204610BD38B58EB0FFF763FF040017D0C2
:101D800021688A6868469047002507E0906A50F805
:101D90002520294603A8FFF773FA6D1CBDF80E0035
:101DA00022688542F2DB6068D2696946904700E0AC
:101DB00000200FB030BD38B50C461546FFF741FF87
:101DC000030006D058681B6821461C6A2A46A047B3
:101DD00032BD002032BD38B50D461446FFF731FF45
:101DE000010018BF002D09D044B1486828600831AF
:101DF00020463822FFF758FE002032BD4FF0FF305A
:101E000032BD00002DE9F24F8AB00025A846AB464E
:101E1000AA46A946019024E000200EE0009A002086
:101E20001060009B2068586000281CBF4088002874
:101E3000F2D0009801220260009805906D1C49685C
:101E400002980791CDE9086703A991E8DC5080E882
:101E5000DC5008F1010809F11C090AF1080A0BF12C
:101E6000040B019800B1008880452CD2019840688D
:101E700048B350F80B4034B3019881684A6800BFFA
:101E800016A04A440292002289685144009100231E
:101E9000D0E90017A068E768000A60F31F210E462A
:101EA00003A994469646A1E80C50A1E80C10A0693D
:101EB000006802F045FE0390A169886804900098CC
:101EC0000028ABD1B9E70199AAB20AB189684A687A
:101ED0000A990A60A8B20BB0BDE8F08F01000000BB
:101EE000000000002DE9F0434B8844889C4204D256
:101EF000002A4ED00020BDE8F083002A49D00022FD
:101F0000002B3FD044684D68C2EBC20304EB83044E
:101F100005EB830393E8E05384E8E0534C88521CBC
:101F2000A2422FD244684D68C2EBC20304EB830483
:101F300005EB830393E8E05384E8E0534C88521C9C
:101F4000A2421FD244684D68C2EBC20304EB830473
:101F500005EB830393E8E05384E8E0534C88521C7C
:101F6000A2420FD244684D68C2EBC20304EB830463
:101F700005EB830393E8E05384E8E0534C88521C5C
:101F8000A242BFD34A884280098801800120BDE86F
:101F9000F0834A684260F5E770B5044616460D4680
:101FA0003046FFF7D2FDA060A96909684143E160AE
:101FB0006868606008442060B1690A68900007D4CE
:101FC0008B68C86862681B1AD01888606268CA602B
:101FD00070BD30B50B461446002185B0002C1ABFE9
:101FE0002268002A01205BD0A2890AB94FF48071CF
:101FF000E5896D1E954208BF41F40071050012D1BC
:10200000207AC50748D5ADF8002041F001015A8873
:10201000ADF804201D88ADF802509A6903920023A0
:1020200002936A4635E0012802D12361002035E0A1
:10203000022817D1207A2361820730D5A089ADF814
:10204000000041F002015A88ADF804201D88ADF867
:1020500002509A690392002302936A4660682368DB
:1020600098471CE003281AD1207A430714D5ADF80D
:102070000020002320694288ADF8042041F00401CB
:1020800020690288ADF802202069826903920293D8
:102090006A46606823689847A089401CA081002098
:1020A00005B030BD70B4002818BF00293BD0002A0D
:1020B0001CBF5268002A36D01346DFF8784953F81F
:1020C000045BA54205D0012902602CD170BC01201F
:1020D000704700221D4606E0EE68A64223D0C66087
:1020E000521C103010358A4214D22E68A6421AD0E3
:1020F000521C8A4206600DD26E68A64213D0521C52
:102100008A42466006D2AE68A6420CD0521C8A4271
:102110008660E1D38A4204BF53F82200A04202D174
:1021200070BC0120704770BC0020704770B504007F
:10213000154618BF002D0E4628D02846FFF78EF80A
:1021400000B16888864221D168680021021D05E03F
:10215000506DD8B1E060491C70321034B14211D2D8
:10216000106898B1491CB14220600BD2D06968B1A7
:10217000491CB142606005D2906B38B1491CB14234
:10218000A060E5D3B14201D1012070BD002070BD37
:1021900010B4002A18BF002881B000D019B901B0CE
:1021A00010BC002070471368DFF88848A34203D1B1
:1021B00001B010BC121DB9E701B010BC72E710B439
:1021C000002A18BF002881B000D019B901B010BC96
:1021D000002070471368DFF85C48A34203D101B0C8
:1021E00010BC0C32A2E701B010BC1C325AE7F0B4AC
:1021F000002818BF002900D012B9F0BC0020704799
:10220000DFF830380360D1E90045C0E90145D2E983
:1022100000670C30C0E90067F0BC012070477DA06A
:1022200070470FF63C00006870470FF638000068F2
:1022300070470FF634000068704728B10268DFF875
:10224000F8170A408A4200D00020704740B1026867
:10225000DFF8E4170A408A4204BF0C3002F019BDCF
:102260000FF608010868704700281CBF0C3002F008
:1022700015BD70472DE9F04F04008BB00D4656D0C8
:102280002168DFF8B4070140814250D1002D4ED0C3
:102290000020E867A26B52B100E00246E96F491CDA
:1022A000E9671069824218BF0028F6D109B91822DF
:1022B00038E0208E00B1606B05F13C01FFF7A2FD14
:1022C000288710B9182212212DE0208E0228A6BFDF
:1022D000606B0C30002005F14001FFF793FD68872B
:1022E00010B9182213211EE004F12800FEF7B6FFF2
:1022F00048B904F12800FEF7B1FF00281EBF608D29
:10230000002813220ED104F12000FEF7A7FF90B998
:1023100004F12000FEF7A2FF00281CBF608C0028FB
:1023200009D01222112104F10C0002F0B7FC0020A8
:102330000BB0BDE8F08F6068C5F8800035A10FF2E2
:102340002070296102680FF21C716A6108680FF23F
:10235000187268621168A962A068FFF7B7FB28626B
:10236000DFF8D016686C88420ED104F1280205F11E
:102370005000D2E90067C0E90067D4E9082305F1FD
:102380004801C1E9002340E00FF2E46292E8C8533B
:1023900004A8694680E8C8530FF2A466CDF828D097
:1023A00005F1440C96E80D0881E80D0804A890E8B2
:1023B000CC4305F1440105F1600A81E8CC439CE877
:1023C000CF088AE8CF0804F12800FEF747FF58B18C
:1023D00004F12800FEF742FF00B1E06A90E8CC511A
:1023E00005F1600181E8CC5104F12000FEF736FFD1
:1023F00058B104F12000FEF731FF00B1606A05F129
:10240000440190E8FC1081E8FC1001200BB0BDE80D
:10241000F08F0000000000002DE9F04304000FF2EF
:102420006C6081B0056816461F4605D10FF26060EA
:10243000006801B0BDE8F0832660DDF8208002F07E
:1024400026FC10B90FF2086016E000224146F8B2EF
:10245000FFF736FB8146002205210120FFF730FB04
:10246000814518BF0FF2EC5006D10FF2EC5002F08C
:1024700021FC20B90FF2E45005680021216041469B
:10248000099AF8B2FFF71CFBB06001B02846BDE81E
:10249000F083002800D1704700B581B00168DFF8F3
:1024A000982502EA0103934204D1914208BF02F049
:1024B00073FC002001B000BD2DE9F04F002885B06D
:1024C00070D00268DFF8709509EA02024A4569D1C6
:1024D0000D00804602D1112210215FE02868DFF84C
:1024E00054A550450ED105F10C02CDF800A0D2E95B
:1024F0000001CDE903014FF0010BD5E90101CDE960
:10250000010133E06E6801212846FEF74BFE0446C8
:102510002F6A012105F11C00FEF744FE0021002274
:10252000002C4FF0000B1ABF01212B46002320B1D5
:1025300001221C3517B9132203E0002556B94CB10E
:102540001222102108F10C0002F0A8FB002005B0B7
:10255000BDE8F08FCDF800A0ADF804B0ADF80610DE
:102560000293ADF80CB0ADF80E200495D8F8001029
:1025700049451ED18BF00104224601A908F1200033
:10258000FFF7B0FC08B9122207E0224603A908F1C0
:102590002800FFF7A7FC48B91322162108F10C0008
:1025A00002F07CFB002005B0BDE8F08F404602F051
:1025B00094FB0320C8F8100005B04046BDE8F08F3A
:1025C00030B5040081B00FD02068DFF86C1401EA48
:1025D00000028A4208D1237C9D0708D410221121D1
:1025E00004F10C0002F05AFB002001B030BD88421B
:1025F00014D1204602F07FFB206C00281CBFA56B85
:10260000002D0BD000E00546626C236C29460020AB
:1026100098472869854218BF0028F4D1012001B0ED
:1026200030BD00002DE9F44F82B0B0B10368DFF88F
:1026300008241340934210D1028E02B1426B002352
:1026400043830024037C048303F00303032B08D09B
:10265000302211210C3002F021FB002003B0BDE834
:10266000F08F00291EBF002A1388002B00F008817C
:102670008B69D3F800800092A2460026A14601F1A2
:102680001807054618E000BF57F8140C002800F0A2
:10269000F68039680868002855D0404528BF804634
:1026A00001982246A7F11801FFF776FC0AF1010A0A
:1026B0001C3709F11009361D009801888A454CD253
:1026C000406800281CBF8459002C46D000988168BF
:1026D0000A6812EB0902019200F0D1800121A7F1F2
:1026E0001800FEF75FFDA2695168814230D3E068AF
:1026F0003B68D0F80CC0D3F80CE0F44502BFD0F82A
:1027000008C0D3F808E0F44502BF40685B6898420F
:102710001ED1106802F0AAFA83462046FFF715FA88
:10272000834515D3A069006802F00AFA57F8181C0F
:1027300020F07E4021F07E418842A5D0192212214E
:1027400005F10C0087E72122122105F10C0082E738
:102750001822122105F10C007DE70299002900F0F2
:102760007D80288E022874DB686B0C301CBF0288C9
:10277000002A6ED04FF0000A0026D14601F118075A
:10278000009016E057F8140C00285DD039680868EE
:10279000002854D0404528BF804601982246A7F122
:1027A0001801FFF7F9FB0AF1010A1C3709F11009BA
:1027B000361D009801888A4550D2406800281CBF09
:1027C0008459002C4AD0009881680A6812EB0902EB
:1027D000019239D00121A7F11800FEF7E3FCA269AC
:1027E0005168814235D3E0683B68D0F80CC0D3F81B
:1027F0000CE0F44502BFD0F808C0D3F808E0F44577
:1028000002BF40685B68984223D1106802F02EFA3C
:1028100083462046FFF799F983451AD3A0690068DB
:1028200002F08EF957F8181C20F07E4021F07E410E
:102830008842A7D01922132105F10C000BE72122B1
:10284000132105F10C0006E71722132105F10C00F6
:1028500001E71822132105F10C00FCE6288EA5F8EB
:102860001880002814BFD5F834804FF000080228E3
:10287000A6BF686B00F10C0A4FF0000A03E028467F
:1028800017221221E6E6688B298B884280F081802E
:1028900000264446B146B04617E08268C3687968AE
:1028A000D21A114481607A68C2607868B9680844B5
:1028B00078603968884202D3F868404208447860FA
:1028C00008F1010809F11009361D002C14BF2088F9
:1028D0000020804511D2606878B1805968B1A16844
:1028E00080690A68016802EB09078A00D5D581680A
:1028F000BA68786802F06AFAD7E7A046284602F07C
:1029000011FA00265446B146B24616E07968BA6814
:10291000114479603A68914202D3F96849421144FE
:1029200079608268C368D21A114481607A68C26093
:102930000AF1010A09F11009361D002C14BF208884
:10294000002082451CD26068D0B18059C0B1A16816
:1029500080690A68016802EB09078A00D6D5BA685F
:102960007968806802F032FA7868B968084478605B
:102970003968884202D3F868404208447860D7E753
:10298000688B298B401C6883A24680B28842FFF482
:102990007FAF688B03B0BDE8F08F00B581B00A4609
:1029A000A0B1036824490B408B420FD13AB91122E0
:1029B00010210C3002F072F9002001B000BD416C12
:1029C00039B1402211210C3002F068F9002001B029
:1029D00000BDD181836B4BB100E00B46D189491C0E
:1029E000D18119698B4218BF0029F6D1137A0021D1
:1029F00043F0807391819360426410490164012027
:102A000001B000BD00B581B050B103680A4A13405F
:102A1000934205D139B9112210210C3002F03EF950
:102A2000002001B000BD002141640164012001B01B
:102A300000BD0000DECAFAA10001C0A1D31F00083A
:102A40000100000000000000010000000100000083
:102A50003010000001100000038404840210000004
:102A60000901000001020000010500001010000033
:102A7000400404000000000000000000000000000E
:102A80000000000001040000000000000000000041
:102A900010100000F8B5FFF7C4FB039000239DF869
:102AA0000E009DF80D100290019101229DF80C007E
:102AB00000900121DFF82403FEF711FE05B000BDF0
:102AC00010B500F0FF04030AC54821B12246BDE855
:102AD0001040FEF704BE2146BDE810401A463030D3
:102AE000FEF7FDBD2DE9F8430546A8698368C26875
:102AF00001682C680FF21C30FEF7F1FDB5B1686972
:102B0000000A052807D1A869426801690FF2103050
:102B1000FEF7E5FD0FE0062808D1A8694368426981
:102B200001690FF20430FEF7DAFD04E0A86941689C
:102B3000A2A0FEF7D4FD00F0BEF80146A0A0FEF76B
:102B4000CEFDC4F34340012840F00480C4F3C61115
:102B5000AAA074E0032803D1C4F3C611A9A06EE0B3
:102B6000C4F3C050002814BF96A197A1C4F3C612A5
:102B7000A6A0FEF7B4FDC4F3434002286FD1A868B5
:102B8000002854D00178CA0751D5406800284ED09B
:102B90004688042ECCBF4FF00409B1464FEA060127
:102BA000A4A00FF29828FEF79AFD002715E09FEDEC
:102BB000870A002006E00028FBD049888F42F8DA17
:102BC0004068C05700907F1C10EE100A02F078F9A0
:102BD00002460B464046FEF782FD4F4520DAA868C4
:102BE0000028E4D00178CA07E1D541680029DED089
:102BF000486810B14A88974202DB9FED740A04E0EE
:102C0000026802EB870393ED000A0A789307D2D596
:102C10000028CED049888F42CBDA4068C05DD1E72A
:102C2000B145B4BF6AA06BA0FEF759FD17E0C4F32D
:102C3000C610082880F20680C4F3C61182A0FEF7F1
:102C40004EFD0CE004F07F01A1F14002411AC4F3F3
:102C5000C050091A11F140017EA0FEF740FD6868DE
:102C600058B100F028F82146FEF7F1FA6968BDE88E
:102C7000F843024679A0FEF732BD00F01CF8214669
:102C8000FEF7E5FABDE8F4434FEA000176A0FEF74F
:102C900026BD000070B50D4604462E6800F00BF806
:102CA0003146FEF7D4FA6A682146BDE87040034613
:102CB00072A0FEF714BD01212846FEF773BA00008A
:102CC0002DE9F041044600BF71A0FEF708FD216820
:102CD00076A0FEF704FD61687BA0FEF700FDA16809
:102CE00080A0FEF7FCFCE16885A0FEF7F8FCA16976
:102CF000087810B189A0FEF7F2FCA37F627F217FE4
:102D00003848FEF7ECFCD4E90C01FEF7C3FC0146A1
:102D10000FF22420FEF7E3FC04F14C068EA0316B89
:102D2000FEF7DDFCB6F8061092A0FEF7D8FC0027EF
:102D30001C2503E0B06800F05BF87F1CF088874238
:102D4000FFF6F8AFB4F84A1091A0FEF7C8FC0027D0
:102D500003E0306800F04CF87F1CB4F84A0087426A
:102D6000F7DB628FB4F8381090A00FF26028FEF7FE
:102D7000B6FC002718A60AE039464046FEF7AFFC2D
:102D8000E06B00F031F83046FEF7A9FC7F1C208F85
:102D90008742F1DB00270FF240280AE0394640461F
:102DA000FEF79DFC206C00F01FF83046FEF797FC04
:102DB0007F1C608F8742F1DBBDE8F081256429002C
:102DC00025642F006900000075000000000000006D
:102DD0002E2E0000000000000D0A0000AC76000856
:102DE000547500081478000805FB07F1084479E6DB
:102DF00005FB07F1014438464CE70000666C6F6143
:102E000074256400626F6F6C25640000257325646F
:102E1000000000002825642C25642C25642C00006B
:102E200025642C256429000025642C25642C256448
:102E3000290000002025643A000000002825662CA7
:102E40002564292C0000000020696E7433322D2582
:102E500064620000205125642E25640020403078F3
:102E600025582F25640000002028557365722044E2
:102E70006F6D61696E292F256400000020205B259D
:102E8000645D202040307825582F25640D0A00000D
:102E90004E6574776F726B20696E666F726D6174C8
:102EA000696F6E732E2E2E0D0A000000206D6F6468
:102EB000656C206E616D6520202020202020202060
:102EC0003A2025730D0A0000206D6F64656C207335
:102ED00069676E6174757265202020203A20257321
:102EE0000D0A0000206D6F64656C20646174657468
:102EF000696D6520202020203A2025730D0A0000EE
:102F000020636F6D70696C65206461746574696DB0
:102F1000652020203A2025730D0A000020546F6F91
:102F20006C207265766973696F6E202020202020E6
:102F30003A2025730D0A000020636F6D706C657870
:102F40006974792020202020202020203A20257319
:102F5000204D4143430D0A0020632D6E6F6465735D
:102F60002020202020202020202020203A202564FE
:102F70000D0A0000206D61705F6163746976617491
:102F8000696F6E73202020203A2025640D0A00000E
:102F9000206D61705F7765696768747320202020F9
:102FA000202020203A2025640D0A0000206E5F6951
:102FB0006E707574732F6E5F6F7574707574732097
:102FC0003A2025752F25750D0A0000002020495B49
:102FD00025645D200000000020204F5B25645D20FB
:102FE000000000000648016841F080710160002285
:102FF00004484260016841F001010160704700BF70
:10300000FCED00E0001000E038B50446FEF702F8E1
:1030100014F1010F054602D0044801786418FDF749
:10302000F9FF401BA042FAD331BD00BF7807002052
:103030007047000021213348FEF716BB10B5314C14
:10304000207840F080002070FFF7F4FF002020700F
:1030500010BD70B50E46144601202A4D13E016F837
:10306000012B2944641E4A702B785B1C2B702A7834
:103070001146202901DA002CF1D1202A03D1FFF7D3
:10308000D9FF00212970002CF1D170BD10B51E4C64
:1030900021212046FEF7E9FA0022626210BD1A489B
:1030A000FF210022017042627047F8B50F461446B6
:1030B00001260CB90120F2BD134D2878FF2812D14A
:1030C000FFF7E4FF06000ED13046F2BD002CFBD026
:1030D000686A2918401C4A7807F8012B641E297871
:1030E00068624A1E2A7028780028EFD1002CEBD0A5
:1030F000AA208DF8000001216846FEF7B5FAFFF717
:10310000C5FFF0E7000B0020D80A002038B584B0D6
:1031100004460D464FEA0D000FA11022FEF7C4FC35
:103120000195204669461022FEF7BEFC05B030BD71
:10313000FEB500BF0CA393E870006A4682E87000F9
:103140000191694691E8844080E88440F7BD80B5EC
:10315000FEF79BFA002002BD53300008000000007B
:10316000FFFFFFFF00000000AB3000080000000080
:10317000FFFFFFFF10B543689C18446031B1002089
:1031800002E01C5C0C54401C9042FAD3012010BD9C
:1031900038B584B00446154691B92068DFF8A023FD
:1031A00090420DD000E0103D102D05D9102200F006
:1031B000DDF80028F7D114E02A4600F0D7F810E037
:1031C000A068A84238BF00200BD323682A462046B7
:1031D0009847010002D0A068451BA560080018BFF1
:1031E000012005B030BD10B50446A06858B1236871
:1031F000012220469847010002D0A068401EA0602E
:10320000080018BF012010BD3EB5DFF8344302921C
:10321000009401916A4692E8380080E8380037BD92
:10322000F8B50E46054614466946FFF7DCFF28B997
:10323000A868A8BBA4B30120207031E09DF800105D
:10324000080603D40C4634600120F2BD072701F0C4
:103250007F0469462846FFF7C6FF08B3202F0FD327
:103260003F2F34BFFF2101219DF8000010F07F0F98
:103270000CD0E00F14D09DF80000884206D00FE07B
:103280009DF8001001F07F01B9400C439DF800004B
:10329000FF1D0106DDD4232FD5D110F0700FD2D041
:1032A0000020F2BD0022BBE72DE9FC4100270024ED
:1032B000002580460E4669464046FFF794FF80B1E0
:1032C0009DF8000000F07F0000213A4601F01CFE4E
:1032D0009DF8002004430D43FF1D100603D5402F29
:1032E000E9D3002002E0C6E900450120BDE8F681EF
:1032F0007CB51C460D460023164623702B703360A8
:1033000022466946FFF78CFF58B1009810B9012199
:10331000217076BDC00830600120009901F00701DE
:10332000297076BD1CB5044631B101290ED00229A1
:103330000ED0052913D017E0012200F017F8A0B134
:103340009DF800000106F7D4012016BD082207E011
:1033500000F086FB48B1009A0021204601E00422DB
:103360000021FFF715FF16BD002016BD6946204657
:103370000EE738B50D46044600F072FB70B194E8D4
:10338000070085E8070000998A4201D2002032BD7B
:10339000A9600098A168091AA160012032BD38B562
:1033A0000D460446AA6822B100212846FFF7F0FE28
:1033B00010B168686060012032BD2DE9F04180469F
:1033C000164686B0084671688A7812F0C00302D0AB
:1033D000402B62D0AFE05B4C02F00F0354F8234067
:1033E00012F0300755D0102F4CD0202F14D0302F92
:1033F000F0D173690888188002F00F02072A08D1FB
:103400000989306901F092FD70683169C06800F087
:1034100008F9326971683DE0022827D1042B25DCC8
:10342000756969464046FFF7A4FF012718B983E094
:103430002888401C2880029880B1716828884A89B1
:10344000904278D20A89336950431A186846A047D7
:103450000028EDD10298002700286CD1694640462B
:10346000FFF79DFF002867D0384665E07369326931
:103470001F880E89781C18807E434B899F423244F6
:1034800008D358E070693269904203D00123037079
:1034900000E032694046A0474EE03469002C1CBF72
:1034A0002168002942D0022817D169464046FFF71B
:1034B00060FF002840D071682368221D6846984745
:1034C000002839D002980028F5D169464046FFF718
:1034D00066FF002830D001202EE06F4668B1012839
:1034E00003D0052827D1042500E008252A4669468F
:1034F0004046FFF74DFE70B91DE000256D1C0B2DF9
:1035000019D2012239464046FFF742FE98B117F81A
:10351000010B0106F2D42A46694603A8FFF774FEA0
:1035200071682368221D03A8984705E001464046BC
:10353000FFF7F8FE00E0002006B0BDE8F0810000D3
:10354000753100089C77000870B50D460446286860
:1035500086686A683146204601F0EBFC68682061A5
:1035600005F10C016161B07800F0C000802804BF53
:10357000281D206170BD10B586B041688A7802F0C0
:103580000F03082B0ED100690468002C47D00022DD
:10359000227321466846FFF7D7FF6846FFF7EBFF27
:1035A000A468F2E712F0C00F29D102F03003102B0B
:1035B00011D1426903699A421CBF002414708A78B1
:1035C000CB68006902F00F02072A0ED101461846A7
:1035D00000F027F823E0202B1CBF02F03002302A35
:1035E000EDD140690021018019E0098923B10A4623
:1035F0001946FEF759FA12E001F098FC0FE002F0CC
:10360000C00180290BD10169002302F030040B6056
:10361000202C19BF02F03002302A4069038006B026
:1036200010BD80B50A4686B00146684601F081FCAF
:1036300038B16846FFF79FFF684601F08DFC00280F
:10364000F7D107B000BD2DE9F04792B0074602ABB5
:103650000020C3E900000A90ADF80200002504A88C
:1036600001F067FC0DF10808B8684FF0FF36B8B1FB
:103670000DF1010301AA69463846FFF739FE58B13A
:10368000019904A801F0A4FC002869D101980A99C5
:1036900088425FD3059C23E09DF8010000284FD0AD
:1036A000002D1EBFBDF80200698988426AD10598C5
:1036B0008578069C04A801F04FFC0028F7D115F08E
:1036C000300F03D10599088800B1641C402C7CD9C7
:1036D00040247BE004A801F03FFC0598A04206D0FE
:1036E0000598817801F00F010829F3D106880A9620
:1036F0000198B0422ED3BE680B9608989DF80090B2
:10370000DDF804A004681DE080680188514518D1E7
:1037100021460CA8FFF718FF012020730CAA494688
:103720003846FFF74AFE0AE02068D0F800C0BCF136
:10373000000FE9D04B46524621463846E047002864
:103740005FD0A46814B1B8688642EDD00B99B86810
:10375000814289D19DF800103846FFF7E3FD31E042
:103760000598817801F03001202902BF0999089A53
:1037700091420FD185420AD0002D1EBFBDF8021024
:103780006A8991423DD100210546ADF802100DF144
:1037900002020992807810F0300F0DD1069840286F
:1037A0000AD2410958F82120012300F01F0003FA32
:1037B00000F0104348F8210004AA9DF80010384694
:1037C000FFF7FBFD0028C4D11BE0B4B10020610964
:1037D00005E058F8202012F1010F12D1401C884258
:1037E000F7D314F01F0F08D004F01F0458F821007D
:1037F000C4F12004E640B04203D1012012B0BDE87C
:10380000F0870020FAE770B504460D4616463146AB
:103810002846FFF706FF324629462046BDE870409D
:1038200011E77FB500F010F840B1324629466846EE
:10383000FFF7E9FF00F004F800B1284604B070BDBE
:10384000054669462046AAE50D46044616466946E1
:103850008FE53EB50C466946FFF726FD68B1DDE908
:103860000023DDE900015B084FEA3202C50744BFCF
:10387000D243DB43C4E9002301203EBD1CB50C4606
:1038800004226946FFF784FC01000ED09DF8000079
:103890009DF8012040EA02209DF8022040EA024003
:1038A0009DF8032040EA02602060080018BF012054
:1038B00016BDDCB50C4608226946FFF769FC02001C
:1038C0001DD09DF800609DF801009DF8047046EA47
:1038D00000269DF8020046EA00469DF8030046EAED
:1038E00000669DF8050047EA00279DF8060047EAB4
:1038F00000479DF8070047EA0067C4E90067100029
:1039000018BF0120D6BD3EB500F051F818B32A8982
:10391000DDE90001082A08D102460B46C4E900236C
:103920008B4215D1824215D012E0C117042A03D16F
:1039300020600246D317F3E7022A03D12080B4F9AE
:103940000020F7E7012A03D1207094F90020F1E765
:1039500000203EBD01203EBD3EB500F028F828B352
:10396000288908280AD1DDE90001C4E90001DDE960
:103970000023994217D1904217D014E0042804D1B3
:10398000DDE9000120600021F1E7022804D1DDE932
:10399000000120802088F6E7012804D1DDE900013C
:1039A00020702078EFE700203EBD01203EBD0D468F
:1039B0001446694678E43EB50D4614466946FFF75D
:1039C00048FF38B3288908280AD1DDE90001C4E995
:1039D0000001DDE90023994219D1904219D016E087
:1039E000042804D1DDE900012060C117F1E70228B5
:1039F00005D1DDE900012080B4F90000F5E70128D8
:103A000005D1DDE90001207094F90000EDE7002008
:103A10003EBD01203EBD114630E7114649E77CB569
:103A20000E460446154600F01BF8C0B10098B0F5EC
:103A3000803F0BD20099801C884207D3B17801F0F7
:103A4000C001802902D03189814201D2002076BD97
:103A500000982880A91C009A2046FFF799FB76BDA4
:103A60006946FFF71FBC7CB50E4605461446FFF7B6
:103A7000F7FFB0B100980099401C884207D3B17895
:103A800001F0C001802902D03189814201D2002099
:103A900076BD009A21462846FFF77AFB009A00215E
:103AA000A15476BDFEB50D460446EF68164669463C
:103AB000FFF75FFC00281CBFE868002810D0A8783A
:103AC00000F03000202832463946684602D1FFF720
:103AD0009AFE01E0FFF7B7FDFFF7B2FE00B12846FE
:103AE000FEBD7CB50D4604461646FFF7B9FF98B1FA
:103AF0000098B0F5803F09D22A8928B9114630468E
:103B000001F014FA012076BD904201D0002076BD6C
:103B100031462046FFF73CFB76BD000038B5044631
:103B20001546236853B1E268A068AA18904203D3EF
:103B30002A462046984708B9002032BDE0682D1873
:103B4000E560012032BD38B5034686B00A46B3F9B8
:103B500006009978141811F0300F43D001F03005A9
:103B6000202D08BF208819D0302D08BF208815D0FF
:103B7000102D02D108B1207810E011F0C00F27D12C
:103B800001F00F00052801D1118802E0062802D1BA
:103B90001178481E03E0092804D11889401E80418D
:103BA000C00F13E001F00F01072911D1D968684651
:103BB00001F0BFF948B104990198FFF7C4FF88B13B
:103BC000684601F0C9F90028F5D1012007B030BDE1
:103BD0001C89002100E0491C88B2A042F5D2105C8B
:103BE0000028F8D00020F1E72DE9F8470D4685B010
:103BF000A978814611F0C00005D0402800F0C680A9
:103C0000802840F0CC801446674A01F00F0052F83B
:103C10002080B5F906006E4608B126180EE001F0C6
:103C20003001102907D121462846FFF78CFF411E9D
:103C30008941C90F00E001218DF80010A87800F03B
:103C4000C000802806D12468002C14BF0120002069
:103C50008DF80000A97811F0300000F08F80102856
:103C600000F0898020280CD0302860D131882A8843
:103C7000914250D100F09AF800281BD000F099F83A
:103C800047E0B5F90600002814BF36886E89002E7B
:103C900041D001F0C000802802D06889B04246D3EC
:103CA00001F00F01042943DC2A880221484600F074
:103CB00021F9002873D0A87800F00F01032908BF6C
:103CC000B70017D000F00F00042808BFF70011D08C
:103CD00001A800F0A7F8A246002708E052462946AE
:103CE00001A8C04700285AD0288982447F1CB742C7
:103CF000F4D3049F3A460023484600F096F8002883
:103D00004DD0D9F8000038B93A4600214846FFF7AF
:103D100005FF002844D040E00027B7423DD200F024
:103D200048F800281EBF288924187F1CF5D136E0EA
:103D3000002706E000F03DF8002830D02889044430
:103D40007F1CB74229D200F031F8002827D0A8788C
:103D500000F0C0018029EDD100F00F02062A1CBF3F
:103D600000F00F000528E5D1226829464846C047E3
:103D70000028E3D113E0307878B100E07CB100F0A6
:103D800015F860B100F015F850B106E0136823B1E2
:103D9000121D29464846984710B1012000E0002036
:103DA00006B0BDE8F0870000C47700082946484601
:103DB000A6E0224629464846404738B586B0054623
:103DC000684601F0B6F848B301998878049A00F083
:103DD0000F00082817D114680CE08168887800F07B
:103DE000C000802814BF6268221D2846FFF7FCFE31
:103DF00068B1A4686CB120684268002AEDD0214601
:103E000028469047F4E72846FFF7EEFE08B9002061
:103E100005E0684601F0A0F80028D5D1012007B0E0
:103E200030BD68461021FDF7E5BE38B50021002BF6
:103E300084B00FD8802A0DD28DF800206946012267
:103E400016E001AD42F080046C54D20942EA4362AC
:103E5000DB09491C002B08BF002AF2D101AA0A4441
:103E600012F8013C03F07F0302F8013C0A4601A965
:103E7000FFF754FE05B030BD20B51D465B0043EA98
:103E8000D2735200002D44BFD243DB43BDE8204033
:103E9000CBE71CB50A688DF80020130C140A120E2B
:103EA0008DF803208DF802308DF801400422694618
:103EB000FFF734FE16BD7CB5D1E900452204120E91
:103EC0008DF801208DF80040220E8DF80320210C82
:103ED0002A0C8DF802108DF806202E0A2C0E8DF873
:103EE00004508DF805608DF8074008226946FFF7F9
:103EF00015FE76BD530F41EAC20296E700000000AE
:103F00008A7802F00F02092A10D8DFE802F00505CE
:103F100005090B0D0D0D0F0D00230A881946E9E761
:103F20000523FAE70123F8E70223F6E700207047AC
:103F300070B505460E4614460023FFF776FF28B1FC
:103F4000224631462846BDE87040E7E570BDF8B529
:103F500084B007460D461646FFF763FF00F029F8C8
:103F600028B3039C224600233846FFF75EFFF0B1DA
:103F7000386828B9224600213846FFF7CFFD16E001
:103F8000FA68B968A218914210D3009000217868AD
:103F900001900391029400F00CF8FA6803998A18D2
:103FA000FA60019979600399A14200D0002005B020
:103FB000F0BD324629466846FFE60989012903D14A
:103FC00092F90020D31730E7022908BFB2F9002088
:103FD000F8D0042908BF1268F4D0082908BFD2E934
:103FE0000023F0D0002070470989012902D11278FE
:103FF00000231AE7022908BF1288F9D0042908BF54
:104000001268F5D0082908BFD2E90023F1D00020BA
:1040100070470989012903D192F90020D3172BE7B2
:10402000022908BFB2F90020F8D0042908BF12689D
:10403000F4D0082908BFD2E90023F0D0002070474F
:10404000114638E7114624E710B5130002D10022CB
:1040500000210BE08C781A8814F0C00F05D1098973
:10406000941CA14201D2002010BD991CBDE8104053
:104070005EE738B50C8989781346002201F0C0014B
:104080001D46802908BF4FF0FF340BB906E0521CD3
:10409000A24203D215F8011B0029F8D11946BDE848
:1040A000384045E7C968002918BFFFF750BF002016
:1040B000704713460A8919463AE7000038B50400EC
:1040C00001D1012032BD00F01BF808B900F01CF846
:1040D00000F01FF800F027F8FFE7416100F001F859
:1040E00032BD2068C16841F40051C16000206860A1
:1040F000202169702020A870002161630020704792
:1041000004F140056878704700212970204600F0CE
:10411000DCBC242068702068C16821F40051C160B3
:10412000204600F035B92068016921F49041016111
:104130002068416921F02A0170472DE9FC410646BB
:104140000D4696F84100202814461F4640D10DB177
:10415000200001D101203CE000207064212186F87C
:104160004110FCF757FFB4848046F48400F086F8D1
:1041700004BF306900281ABF2C460025002412E035
:1041800000228021304600F09DF8E0B93068002C14
:1041900012BF14F8011B35F8021BC1F3080141607E
:1041A000F08C411EF1844346F08C00970028E7D143
:1041B00000224021304600F085F820B9202086F802
:1041C0004100002005E0202086F84100032000E0A7
:1041D0000220BDE8F6812DE9FC4106460D4696F821
:1041E0004200202814461F4645D10DB1200001D1C0
:1041F000012041E000F04AF83063FCF70BFFB48582
:104200008046F48500F03AF804BF306900281ABFF0
:104210002C46002500240EE03068406800F07F0046
:1042200022E0BCB930684168C1F3080125F8021BDF
:10423000F08D411EF185F08DC8B1009743460022F4
:104240002021304600F03EF80028EAD000F01AF8AD
:10425000032011E000F012F804D0002804BF3069F8
:104260000028D9D13168486804F8010BE0E700F074
:1042700009F8002000E00220BDE8F681B068B0F542
:10428000805F7047202086F84200704700207064ED
:10429000222186F842107047026802F10C0151E8B1
:1042A000002F036803F10C047047016801F1140248
:1042B00052E8002F520801F11404520044E8002192
:1042C000002970472DE9FC41089C05460E469046A2
:1042D0001F46286801683140B1420CBF0120002010
:1042E00040452AD114F1010FF3D0FCF793FEC01B17
:1042F000844200D314B90320BDE8F6812968C86858
:104300004207E6D5802E18BF402EE2D0084602684C
:104310001307DED5002000902A68136800934968CF
:1043200000910098284600F012F805F1400008219D
:104330004160002202700120DEE70020DCE7016816
:1043400001F10C0252E8002F01F10C04704710B586
:10435000FFF7F5FF22F4907200F016F8F8D1FFF79E
:10436000A4FFFCD1016B012906D1FFF795FF22F0D4
:10437000100200F009F8F8D1202180F84210002244
:10438000026310BD22F4807244E8002100297047C6
:1043900070B5044622681169E06821F44051014378
:1043A0001161D3682748A168034020690B43616904
:1043B0000343E0690B430343D3605169A06921F4CF
:1043C00040710143516120498A421CBF1F4882420B
:1043D00002D100F0E2FA01E000F0D7FA6268256845
:1043E000E4691921B4F5004FA1FB00016FF06306E9
:1043F00012D1D30F5200FCF713FE00F029F8F6009B
:1044000032366420B6FBF0F0420002F4F87202EBA0
:10441000011200F0070010E0930F9200FCF700FE7D
:1044200000F016F8360132366420B6FBF0F000F0EA
:10443000F00202EB011200F00F008018A86070BDBE
:1044400000000000F369FFFF00100140001401406C
:104450006421B0FBF1F106FB010670472DE9F0473E
:1044600090B04FF000081646C2468DF83FA04FF0BE
:104470003E09B7687A0748BF002907D5404232682D
:1044800061EB4101521E4FF02D0A326004460D4689
:10449000F8060ED504F00F02290924090A2A44EA75
:1044A000057010DB3B074CBF412361239A180A3A81
:1044B0000AE0204629460A220023FCF7B1FD024605
:1044C000F62505FB024230320DF8092004460D00A6
:1044D000A9F1010908F1010808BF002CD8D15FEA51
:1044E0000A0045464C460ED0F8070CD40DF804A03F
:1044F000641E6D1C07E0FD0754BF202230220DF81A
:1045000004200C4605463268681C611E954201DA9B
:10451000BB07F0D55FEA0A0706D0521C954203DAC2
:104520000DF804A00C460546641C4FF0000A08E094
:104530000DEB040212F80A103069F26890470AF194
:10454000010AAA45F4DB307A810705D407E0306917
:10455000F268202190476D1C30688542F7DB2846C1
:1045600010B0BDE8F08700002DE9F74F2DED048B6A
:1045700096B09A464FF0000804E001461B981A9A3C
:104580009047B0461C98401C1C90401E00780028A4
:1045900000F060810A2808F10106EED02528ECD150
:1045A00068461421FDF726FB1A98DDF870E00390A9
:1045B00000241B9804900A2300201EF8011B0029E8
:1045C00000F0358130290AD1009A002A04BF019AEF
:1045D000002A12D1029941F001010291EDE72D2943
:1045E00003D1029941F00201F7E72E2901D1012000
:1045F000E3E7A1F13102092A0CD228B1019A03FBA9
:10460000021130390191D8E7009A03FB02113039C9
:104610000091D2E76C29D0D02529CDF870E0ADD03B
:10462000462974D0582954D063290ED0642960D00B
:1046300066296CD069295CD0702944D0732908D0D0
:1046400075295AD0782948D0F3E05AF8040BC1B242
:1046500094E75AF8046B06B985A63046FDF78EFA42
:104660000746019810B1B842D8BF07469DF8080028
:1046700081070BD4B94606E00498039A202190479D
:10468000641C09F1010900988145F5DB4FF0000930
:1046900007E016F8011B0498039A9047641C09F17F
:1046A0000109B945F5DB9DF80800810701D4A04454
:1046B00068E700988742FADA0498039A2021904725
:1046C000641C7F1CF5E7029941F001010291082169
:1046D0000091029840F0080002906A46029840F06B
:1046E0001000029000215AF8040BFFF7B7FE804437
:1046F00048E7029840F004000290752907BF5AF875
:10470000040B00215AF8040BC1176A46EDE70AF1C1
:10471000070020F0070000F1080A90ED008B0198D7
:1047200008B9062101913F2551EC180B0022002306
:1047300000F066FC4FF0000B38BF0124DDF8049058
:104740009FED479B002608E053EC192B00204649BB
:1047500000F070FC41EC190B761C4E45F4DB2CB1DB
:1047600051EC180B81F0004141EC180B00203F493F
:1047700053EC192B00F034FD53EC182B00F054FED1
:1047800053EC192B00F056FC00F076FF06460F465E
:10479000304639460A220023FCF742FC0346F6273E
:1047A00007FB036305AA303353556D1E0BF1010B54
:1047B000CB4506460F4604D12E2050556D1E0BF1F9
:1047C000010B002F08BF002EE2D1681E0BF1010182
:1047D000CB453FBF3023535505468B46F5D32E4678
:1047E00003D12E27975506468B4609F101008345D4
:1047F00004D130209055761E0BF1010B34B12D20E1
:1048000000E020209055761E0BF1010B00988345A7
:10481000F7D3761C002706E005A83044C15D049854
:10482000039A90477F1C5F45F6D3D844AAE6CDF89B
:1048300070E01B981A9A3C2190471B981A9A2121E4
:1048400090471B981A9A3E2190470AF1040A08F1F2
:10485000030897E616B04046BDEC048BBDE8FE8F1A
:10486000000000000000F03F000024400000E03F96
:10487000286E756C6C2900002DE9F04104000F468C
:1048800054D04B4E306800F00700B84202D200F01E
:1048900073F84BD12068474D810712D5400703D5E7
:1048A000A96841F4E051A9602078010703D5A86800
:1048B00040F46040A860A968A06821F0F0010143BD
:1048C000A9602178C80729D56068012802D1296824
:1048D0008A0305E0022818BF032803D129688A014A
:1048E00003D423E029688A0720D5A968890840EA0B
:1048F0008100A860FCF78EFB8046A868616800F024
:104900000C00B0EB810F09D0FCF784FBA0EB080092
:1049100041F289318842F0D303202BE0306800F067
:104920000700874204D200F027F801D0012021E0DF
:104930002078410705D5AA68E06822F4E0520243D6
:10494000AA602178080706D5A968206921F460418A
:1049500041EAC001A96000F0B3FEAA681649174BEE
:10496000C2F30312895CC84018601548006800F063
:10497000D7FE0020BDE8F0813770316801F00701F3
:10498000B94270470D48006870470C480D4A0068EE
:1049900013680D49C3F3822206E00848094A0068FB
:1049A00013680949C3F34232895CC840704700006C
:1049B000003C024000380240D07800088407002004
:1049C0008007002008380240087A0008A9B1B1FA2F
:1049D00081F241409040C2F1200261FA02F181EA85
:1049E000000018BF40F0010002F19D01C905020658
:1049F00072F1004241EB1020704750B1B0FA80F2E2
:104A00009040C2F19D02D205010671F1004142EBD6
:104A10001020704780B51148016841F400710160B1
:104A2000026842F480620260016841F480710160B2
:104A3000032000F0A2FE0F2000F072FE00F0E6FE60
:104A4000002002BD0648704706480068000C704709
:104A500004480068C0F30B0070470000003C0240AF
:104A600000030801002004E000B500BF13009646D3
:104A70009446103928BFA0E80C50FAD85FEA417C70
:104A800028BF0CC048BF40F8042BC90728BF20F836
:104A9000022B48BF00F8012B00BD000080B5244860
:104AA000244901604FF4E13200230C21426083600D
:104AB000C360036141618361C361FFF7FFFA18B10D
:104AC000BDE8014000F020BF01BD10B586B004462E
:104AD0001422002101A800F019FF21681548814225
:104AE00024D1002214480092416941F01001416133
:104AF000416901F010010091009900924FF4C061EA
:104B0000036843F0010303600222006800F0010023
:104B1000009000980948019102920021039103221C
:104B200007210591049201A900F0FAFE06B010BD1C
:104B3000100A0020001001403038024000000240FE
:104B400001464020C1F34342022A04D138480840BC
:104B500040F4802052E021F07E42324BD21A46D0FF
:104B6000803A34D04FF46073D21A2AD0D21F40D08A
:104B700040F2F933D21A26D00F3A3CD040F2F1730A
:104B8000D21A22D04FF4FA33D21A36D0274BD21A87
:104B900027D0803A23D04FF46073D21A19D0D21F95
:104BA00021D040F2F933D21A15D00F3A1DD040F27D
:104BB000F173D21A11D04FF47E03D21A1ED11D48C0
:104BC0001CE01D481AE01D4818E01D4816E01D486D
:104BD00014E01D4812E01D4810E01D480EE01D487D
:104BE0000CE011480AE01C4808E01C4806E01846A2
:104BF00004E01B4802E01B4800E01B484A004CBF91
:104C00004FF08042002210438A004CBF4FF0005208
:104C10000022104309014CBF4FF0006100210843FE
:104C200070470000400004004000840000FC7D004C
:104C3000FF3F80004010820140040400400804004F
:104C400040100400C00004004004840040088400B8
:104C500040108400C0008400470484004F08840092
:104C6000470404004F0804004004060009B900206E
:104C70007047C21102F07F025143C91DC908401597
:104C8000C90000F00300C140C91DC80870470120D9
:104C900070470146002208680A60704703785FEA9F
:104CA000036C04D141EA0221016001207047002019
:104CB0007047000000B581B060B10178032909D1C7
:104CC00004220FF2041100F02DFF401E8041C00F9E
:104CD00001B000BD002001B000BD034600209A6B6A
:104CE00042B100E00A461169D360401C8A4218BFF5
:104CF0000029F7D1704730B581B0846B002574B1BD
:104D000000E004462079C10704D5216A11B120468C
:104D100088476D1C2069844218BF0028F1D12846BD
:104D200001B030BD2DE9F04104460025266CA16B91
:104D3000E16330001FD0D9B1626C0120B047E06B55
:104D4000B0B1626CE16B0220B047D4F83C80D8F877
:104D5000141040468847D8F81070626CE16B4745E4
:104D600008BF00270320B0476D1C002FE763E8D180
:104D70002846BDE8F0810029FAD0E66B716930461B
:104D800088473069B04208BF00206D1C0028E063EE
:104D9000F3D12846BDE8F08130B581B0846B0025A1
:104DA00074B100E004462079410704D5A16A11B12D
:104DB000204688476D1C2069844218BF0028F1D125
:104DC000284601B030BD00000384048403468B42B2
:104DD00000D17047F0B4002A70D09C188B4238BFC5
:104DE000A14222D28818A34280F0688014F8011DE5
:104DF00000F8011CA3423EBF14F8011D00F8021C7C
:104E0000A3423EBF14F8011D00F8031CA34255D273
:104E100014F8011D00F8041DA342E7D3F0BC70474D
:104E200013F8014B01F8014B521E11F0030018BF9B
:104E3000002AF5D110092CD0C4070CD51C685D6878
:104E40009E68DF6841F8044B41F8045B41F8046B4D
:104E5000103341F8047B40081BD01D685F689E68D2
:104E6000DC6841F8045B41F8047B41F8046B41F8CD
:104E7000044B53F8104F5F689D68DE6841F8044B9F
:104E8000103341F8047B41F8045B401E41F8046B89
:104E9000E3D1C2F3810028B153F8044B41F8044B2D
:104EA000401EF9D112F0030F00F0088002F0030257
:104EB00013F8010B01F8010B521EF9D1F0BC704739
:104EC000C0F3C75181B1FF2906D0C110400721F0BE
:104ED000E04101F16051704741020CBF40F4E00134
:104EE0006FF000410020704700F0004100020AD03E
:104EF000B0FA80FC00FA0CF001F16051A1EB0C510A
:104F000001EBD02140057047D2B2203A22BF00FA0F
:104F100002F1002070475242D041D2F1200291406C
:104F20004140D0409040414070470000002200F0D6
:104F300031BE10B501604160C260002181604168EE
:104F40008B881A440261B1F9064022444261088804
:104F500000B10120C0B210BDF8B5426813461988EF
:104F600039B110324260118829B9C2680168FFF76F
:104F7000E0FF0020F2BD9D781C8905F03006302E40
:104F800002BF967806F03006302E02BF96884FF6A4
:104F9000FF77BE421AD005F0F006202E02D15989C3
:104FA0004C4304E005F0C001802908BF042415F03B
:104FB000300F02D18168491C8160016993882144C6
:104FC00019440161B2F90620114441610120F2BD8A
:104FD00070B504460D46666860680188A94204D130
:104FE000807800F00F00082806D12046FFF7B4FFB4
:104FF0006068B042F0D101E0012070BD002070BDBA
:1050000041EA030C50EA4C0C52EA0C0C4FF4001C21
:1050100009D307D01CEB410F9CBF1CEB430F8B4205
:1050200008BF824270471CEB430FFBD8994208BF70
:105030009042704730B540F2FF7C1CEA11541DBF0E
:105040001CEA1355644565453FE0641981EA030C89
:105050006FF35F530CF0004C43F48013C90241F02E
:10506000004141EA505EC5021100A5FB0202002882
:105070004FF00000EEFB01204FF00001E3FB0521A3
:1050800018BF42F00102401800214941E3FB0E0124
:10509000A4F580640D0302D292184041494154F1B5
:1050A000010470DD450872F1004250F1000051EB3F
:1050B0000451A1F5801102D441EA0C0130BD40F247
:1050C000FF7E4CEA0E51002030BD0CEA13556445BA
:1050D00018BF654581EA030C0CF0004C41D050EA42
:1050E000410E1CBF52EA430E02E06146002030BD73
:1050F00024422C441BD15FEA050EF6D0090302BFFF
:1051000001460020AEF1140EB1FA81F5AEEB0504B4
:1051100001FA05FE0C35C5F1200100FA05F5C8407D
:105120004EEA000E6FF35F5343F480139CE733F0B5
:105130000043B3FA83F504BFB2FA82FE75440B3D17
:10514000641BB5F1200E2FBF02FA0EF3AB40C5F180
:10515000200E22FA0EFE38BF43EA0E03AA40641C5A
:105160007CE750EA410E14BF52EA430E6FF0000193
:105170004FF4001515EB430F8EBF194615EB410F89
:105180009DE7B4D830BDD4F10104B4F120050FDAA5
:10519000C4F12005520828BF42F0010210FA05FEB2
:1051A00001FA05F57244E2BFE0402843E1400FE018
:1051B000352C9ADCC5F1200452EA400220FA05F2AF
:1051C00018BF42F0010231FA05F0A1400A43002164
:1051D00072F1004250F1000051EB0C0130BD0000B3
:1051E000F0B540F2FF7581EA030C0CF0004C15EAB3
:1051F00011541DBF15EA1357AC42AF42E5E0BC4164
:10520000C1F31301C3F31303801A994143F48013CC
:1052100004D2641E0018494180185941C90241EA6C
:105220005051B1FBF3F603FB1611A2FB0675D7EB49
:10523000C020A94102D2761E80185941C90241EA14
:105240005051B1FBF3FE03FB1E11A2FB0E75D7EB11
:10525000C020A94103D2AEF1010E80185941890244
:1052600041EA9051760546EA8E2EB1FBF3F603FB38
:105270001611A2FB0675D7EB8020A94102D2761E3B
:1052800080185941C90241EA50514EEA060EB1FB5D
:10529000F3F603FB1611A2FB0675D7EBC020A9415C
:1052A00002D2761E80185941C90241EA5051B1FB21
:1052B000F3F703FB1711A2FB0735D3EBC020A9417D
:1052C00067F100070CBF004247F0010766F3D527DE
:1052D0004FEA1E31B80814F5806412DDBD0775F180
:1052E000004250EB0E5051EB045111F5801F5CBF92
:1052F00041EA0C01F0BD4CF07F6141F0E04100203B
:10530000F0BDBD076D0840EA0E5041F48011D4F1A4
:105310000104B4F120060ADAC4F120060200E040DC
:1053200001FA06F3E1401843B24015430EE0342C75
:1053300013DCC6F1200445EA40056D0820FA06F2A8
:10534000154321FA06F0A1400D43002175F10042FA
:1053500050F1000051EB0C01F0BD00205FEA0C01A0
:10536000F0BDCFB992185B41B3FA83F704BFB2FA2C
:1053700082F6BF190B3FB7F120062FBF02FA06F3E2
:10538000BB40C7F1200622FA06F638BF3343BA40C5
:105390001CB1E419641E33E77F4231F00041B1FAD9
:1053A00081F404BFB0FA80F6A4190B3CB4F12006D6
:1053B0002FBF00FA06F1A140C4F1200620FA06F63C
:1053C00038BF3143A0403C1B1AE7AC421ABF05EA84
:1053D0001357AF4212E050EA41061CBF52EA43069F
:1053E000BFE750EA4107304661461CBF41EA05511C
:1053F000F0BD52EA430C08BFC143F0BD00204FF49A
:10540000001616EB410F98BF16EB430F08BF16EBC3
:10541000410F24BFC14305E016EB430F0CBF6146AB
:105420004CEA0551F0BD000070B491EA030F4FF053
:10543000004540F1B7806B40841A71EB030604D23B
:105440006E40001BB141121973414FF4001C1CEB5C
:10545000410F34BF7CEB430683E00C0DA4EB1356E5
:10546000362E00F37C80012E45EAC32341DC43EA5B
:10547000525312BFD20292025B08240545EAC121B1
:1054800041EA5051D2EBC020994125D407D1B0FA5E
:1054900080F610FA06F162D00020203608E0B1FA5A
:1054A00081F6B140C6F1200220FA02F21143B04069
:1054B0004FEAF474B4EB465434F001064FEA740436
:1054C0000AD8D6F50016760D04F00044F04061FAD3
:1054D00006F25040F1404840C00A40EA415021F0F5
:1054E000004128BF5FEA500550F1000044EBD12194
:1054F00035E0DB0A45EAC121C90AB6F120050EDD17
:1055000042EA0242120CC5F1200603FA06F6EB400D
:1055100042EA06056D42984161F100010DE062FA30
:1055200006F5F240554063FA06FC82EA0C02F340AD
:105530005A406D42904161EB030111F4801F05D187
:10554000641E620502D06D004041494121F4801182
:10555000430875F1004350F1000041EB045170BC69
:1055600070471CEB410F15D223F0004352EA43066B
:105570000BD04FEA4C0CBCEB410F04D80C0D661E4F
:10558000342EB7DDEBE7801A994150EA410608BF97
:105590000021E4E708BF1CEB430F28BF6FF00001B8
:1055A000DDE70000841A71EB030603D2001BB14152
:1055B000121973414FF4001C1CEB410F34BF7CEBFC
:1055C000430442E00C0DA4EB1356352E4FDC45EAA4
:1055D000C323DB0A45EAC121C912B6F120050DDD5E
:1055E00063FA05F6EB4086EA0305124218BF45F060
:1055F0000105C01851F100010CD213E062FA06F562
:10560000F2405540F3415A40B340F3405A408018AD
:10561000594107D349085FEA30005FEA350528BFE2
:1056200045F0010501F58011420875F1004250F185
:10563000000041EB04514E0016F5001F70BC38BF4E
:1056400070470020090D090570471CEB410F10D26F
:1056500052EA43060BD0BCEB410F05D80C0DAB430F
:10566000661E342EB6DD02E0AB438018594170BC93
:10567000704770BC7047000040F21E4CBCEB1152EA
:1056800009DDC90282F3070241F0004141EA5050AE
:105690000021D040704720320DDBC902D2F1200337
:1056A00041F0004141EA5051C002D04001FA03FCF0
:1056B000D140604470476FEAE171084670470000CE
:1056C00030B5144C606800F00C00042802D00828A3
:1056D00002D01DE0104830BD22682068002341023E
:1056E00002F03F0204D525680B49C5F3881003E09A
:1056F00020680A49C0F38810A1FB0001FBF790FC69
:105700002168C1F30141491C4900B0FBF1F030BDF3
:10571000024830BD0438024040787D010024F40086
:1057200038B50D4D0D4B2A7804464FF47A71186840
:10573000B1FBF2F2B0FBF2F000F04AF850B9102CD5
:1057400008D2002221464FF0FF3000F023F8AC6071
:10575000002032BD012032BD7807002084070020E0
:105760000901020002D4234881547047224B02F001
:105770000F021A4402F8041C7047204B19684FF6B8
:10578000FF020002114000F4E06008431C49084396
:105790001860704770B5194B1C68C4F302230124CC
:1057A000C3F10705052D2EBF0F2504FA05F56D1E63
:1057B0001E1D072E34BF0023DB1E2940994004FA2A
:1057C00003F3BDE870405B1E1A401143C8E70000B8
:1057D000401EB0F1807F01D30120704709490A4A79
:1057E00048600023F02010708B60072008600020C4
:1057F0007047000000E400E018ED00E00CED00E070
:105800000000FA0510E000E023ED00E081B0002088
:10581000009000220A48416841F48041416041689B
:1058200001F48041009100990092036843F0805395
:105830000360006800F080500090009801B070474D
:105840004038024080B5FFF7E5F800F007F800F0B7
:10585000D1F9FCF7D3F9FCF7D8F9FCE780B592B0A1
:105860003022002106A800F051F81422002101A8DE
:1058700000F04CF8002000902148016841F0805170
:1058800001600021006800F08050009000981D48E1
:1058900000910221026842F4804202600122006805
:1058A00000F48040009000980691099210210A911E
:1058B000022200210C920D910822A8210E920F9134
:1058C000022204211092119106A800F0A5F908B156
:1058D00000F01AF802210291002203920F204FF4E7
:1058E000A051019004914FF480520592052101A826
:1058F000FEF7C2FF08B100F007F813B000BD0000CA
:10590000403802400070004072B6FEE710B5044611
:1059100010460A460146204600F038F9204610BDE0
:105920002DE9F84F0D4600267349744A0F230446AB
:1059300001202F68B04000EA0708804540F0D5807C
:105940004FEA460C032707FA0CF76FEA070E6F6859
:1059500007F00309B9F1010F1CBF07F00307022F7D
:1059600012D1A768D5F80C900EEA070709FA0CF9CE
:1059700049EA0707A760676827EA00006F68C7F36E
:105980000017B74038436060B0002F7907F0030775
:10599000032F21D0E768D5F808900EEA070709FA27
:1059A0000CF949EA0707E7602F7907F00307022F90
:1059B00012D1F70804EB870700F01C09D7F820A0E4
:1059C00003FA09FB2AEA0B0AD5F810B00BFA09F919
:1059D00049EA0A09C7F8209027680EEA070E2F79CE
:1059E00007F0030707FA0CF747EA0E0CC4F800C0EB
:1059F0006F6817F4403F78D04FF0000ECDF800E00C
:105A00004FEA960C176847F48047176000F00C00C7
:105A1000D2F800E03A4F0EF4804ECDF800E0DDF809
:105A200000E057F82C7003FA00FE27EA0E0E354FFF
:105A3000BC4208BF002722D0334FBC4208BF012719
:105A40001DD0324FBC4208BF022718D0304FBC4295
:105A500008BF032713D02F4FBC4208BF04270ED026
:105A60002D4FBC4208BF052709D02C4FBC4208BFB0
:105A7000062704D02A4FBC420CBF0727082707FA85
:105A800000F040EA0E00DFF878E04EF82C006FEAF4
:105A90000800D1F808C06F6800EA0C0CFF0248BF8C
:105AA00048EA0C0CC1F808C0D1F80CC06F6800EAD5
:105AB0000C0CBF0248BF48EA0C0CC1F80CC0D1F86E
:105AC00004C06F6800EA0C0CBF0348BF48EA0C0C26
:105AD000C1F804C0D1F800C000EA0C0C6868C0032B
