:020000040800F2
:10000000F8670020A10100082B1C0008BD1A000899
:10001000291C000813100008A71E0008000000009B
:100020000000000000000000000000002F1C00087D
:1000300015100008000000002D1C0008311C0008ED
:10004000BB010008BB010008BB010008BB010008A0
:10005000BB010008BB010008BB010008BB01000890
:10006000BB010008BB010008BB010008BB01000880
:10007000BB010008BB010008BB010008BB01000870
:10008000BB010008BB010008BB010008BB01000860
:10009000BB010008BB010008BB010008BB01000850
:1000A000BB010008BB010008BB010008BB01000840
:1000B000BB010008BB010008BB010008BB01000830
:1000C000BB010008BB010008BB010008BB01000820
:1000D000BB010008BB010008BB010008BB01000810
:1000E000BB010008BB010008BB010008BB01000800
:1000F000BB010008BB010008BB010008BB010008F0
:10010000BB010008BB010008BB010008BB010008DF
:10011000BB010008BB010008BB010008BB010008CF
:10012000BB010008BB010008BB010008BB010008BF
:10013000BB010008BB010008BB010008BB010008AF
:10014000BB010008BB010008BB010008BB0100089F
:10015000BB010008BB010008BB010008BB0100088F
:10016000BB010008BB010008BB010008BB0100087F
:10017000BB010008BB010008BB0100080000000033
:10018000BB010008BB010008DFF810D000F0ACFC98
:1001900000480047693F0008AFF30080F86700207F
:1001A0000648804706480047FEE7FEE7FEE7FEE711
:1001B000FEE7FEE7FEE7FEE7FEE7FEE7C91C0008F4
:1001C000890100082DE9F05F0546002092469B4614
:1001D00088460646814640241BE02846414647465D
:1001E000224600F05DFA53465A46C01A914110D398
:1001F00011461846224600F044FA2D1A67EB010812
:100200004F4622460120002100F03BFA17EB00097F
:100210004E41201EA4F10104DFDC484631462A4647
:100220004346BDE8F09F40EA01039B0703D009E085
:1002300008C9121F08C0042AFAD203E011F8013BD2
:1002400000F8013B521EF9D27047D2B201E000F82B
:10025000012B491EFBD270470022F6E710B513466A
:100260000A4604461946FFF7F0FF204610BD421C1F
:1002700010F8011B0029FBD1801A704730B50446E5
:100280000020034600E05B1C934203D2E05CCD5C9F
:10029000401BF8D030BD00000FB400B58DB010A9E0
:1002A00009900B9000914FF0FF300A9000200C90C5
:1002B00005480690054807906A4609A80F9900F07E
:1002C00005FA0DB05DF814FBE90600080707000801
:1002D0002DE9FF4F087883B09946FF2805D0491CC7
:1002E0002D2804D00024002008E000200BE0012489
:1002F000F9E700EB800003EB4000491C0B78FF2B73
:10030000F7D104B1404200230293147819461D46E8
:100310002D2C01D02B2C04D1521C2D2C13D00024B9
:100320000294AA461478FF2C0FD00A25A3FB057867
:1003300001FB05814FF0000C03FB0C11521CE3196B
:100340004AEB0101EEE70124EAE7814453EA0100A8
:1003500002D019F5C87F06DA03980021C0E9001120
:1003600007B0BDE8F08F0025AE4E2F46DFF8B8820B
:10037000184600F061FBCDE90001B9F1000002DA96
:10038000C9F1000400E004460023A74A1AEB030B5E
:1003900042EB045A12E0E00707D02A4633463846BB
:1003A000414600F068FA074688462A46334610461A
:1003B000194600F060FA05460E466410002CEAD19A
:1003C000DDE90001B9F1000F5A46534606DA00F0A4
:1003D000C4FA3A46434600F0C0FA05E000F04BFA92
:1003E0003A46434600F047FA029A0AB181F00041CA
:1003F000039AC2E90001B3E72DE9FF4F1F468DB014
:10040000D7E901464FF0FF382E2045464FF000094E
:100410000B90B9696D1C0E988847396A82468847E7
:100420000028F6D1BAF1FF3F0AD024F4D064002EA0
:1004300011DDBAF12B0F08D0BAF12D0F0BD102E06C
:10044000404611B08DE744F48064B9696D1C0E9884
:1004500088478246761E6946600501D52D2000E05A
:100460002B208DF8000001F1010B0DF1200809E0AF
:10047000B9696D1C0E98884782460F9844F4007441
:10048000761E0560002E02DDBAF1300FF0D00B9918
:100490008A453ED144F0800406E00F99681CA9F11A
:1004A000010944F400740860B9696D1C761E0E9849
:1004B000884782463028F0D02BE00B998A4505D139
:1004C000200603D444F08004761E18E0504601F064
:1004D0004DFF08B30DF11301761E44F400748B45F3
:1004E00008D2AAF130000BF8010B200607D5A9F1BC
:1004F000010003E0200602D409F101008146A005B5
:1005000002D50F99681C0860B9696D1C0E98884760
:100510008246002ED1DC53E0002E51DDBAF1650F8A
:1005200002D0BAF1450F4BD1A00549D5B9696D1C70
:1005300024F44074761E0E9888478246002E0CDD07
:100540002B2804D0BAF12D0F07D144F48074B96977
:100550006D1C0E9888478246761EE00501D52D2138
:1005600000E02B2108F8011BCDF82C8021E00DF1D3
:100570002901761E44F4007488450CD2AAF130009B
:1005800010F0FF0088F8000002D10B99884509D9C6
:1005900008F1010806E0E00501D5244801E042F237
:1005A0000F708146B9696D1C0E98884782460F9876
:1005B0000560002E04DD504601F0D8FE0028D6D19B
:1005C000F9690E988847FF208BF8000088F8000032
:1005D0000020069007904B466A4608A906A8FFF738
:1005E00077FEA00502D46FF001002AE714F0240F73
:1005F0000AD0E00714D1DDE906123868031D3B601C
:100600000068C0E900120BE0DDE9060100F050FAD5
:100610000146E00704D13868021D3A6000680160B5
:1006200028460EE7000014400000F03FF1D8FFFF1D
:1006300000F0004230F000400AD0C10D01F56071B9
:10064000C0F3160042EA0151C20840071143704747
:1006500000200146704730B50B460146002020229D
:10066000012409E021FA02F59D4205D303FA02F5BF
:10067000491B04FA02F52844151EA2F10102F1DC1F
:1006800030BD202A04DB203A00FA02F10020704736
:100690009140C2F1200320FA03F3194390407047C0
:1006A000202A04DB203A21FA02F00021704721FAC7
:1006B00002F3D040C2F1200291400843194670472E
:1006C000026811441378016018467047D1600449EC
:1006D00051610449116200211161114600F02EBAE6
:1006E000C1060008310B0008426842B1016811F8E8
:1006F000013B23B1521EC0E9001218467047012188
:10070000C160881E704742685AB1C368016843B926
:1007100083688B4205D0491E521CC0E9001200209C
:1007200070474FF0FF3070472DE9FE4F804681EA59
:100730000300C00F0C46009021F0004123F000455B
:10074000B8EB0200A94105D24046214690461C461E
:100750000B46024623F00040104347D0270DC7F355
:100760000A00C3F30A510290401A019040286BDA44
:10077000C3F3130040F4801B0098924620B100237D
:10078000D2EB030A63EB0B0B01985946C0F1400210
:100790005046FFF776FF06460D4650465946019AE9
:1007A00000F0B4F910EB08006141002487EA11520F
:1007B00084EAE7731A4340D0009A62B3019A012A8F
:1007C0004FEA075215DC001B61EB02014FF00042BB
:1007D00002EA0752CDE90042001C41F58011324681
:1007E0002B4600F089FB03B0BDE8F08F4046214660
:1007F000F9E7001B61EB0201001C41F580130018B2
:100800005B412018A2F5001747EB030140EAD570C1
:10081000B6196D4111E06D084FEA360645EAC0751C
:100820004FEA0752001B61EB0201001C41F58011E9
:1008300049084FEA30000019514132462B4603B0B7
:10084000BDE8F04F00F049BB0098012240000023B2
:10085000D0EB020263EBE073009821464FEAE074AC
:10086000B8EB000061EB0401E9E783F000435BE7CC
:1008700081F0004158E72DE9FE4F81EA030404F0BE
:10088000004421F0004100944FF0000B23F000439E
:1008900050EA01045ED052EA03045BD0C3F30A5469
:1008A000C1F30A552C44A4F2F3340194A0FB025482
:1008B000C1F3130141F48011C3F3130343F4801314
:1008C00001FB024400FB034E840A970A44EA815468
:1008D00047EA8357A4FB076802958D0A05FB078545
:1008E0004FEA932C04FB0C542705029D4FEA06584F
:1008F00047EA1637B5EB08056EEB070C870E920E2C
:1009000047EA811742EA8312A7FB0201B6EB0B010B
:1009100064EB00042B0D43EA0C335E1844EB1C50CF
:10092000DA465146E7FB0201C5F313044FEA0B33E5
:1009300043EA14534FEA0432019C43EA0603A4F14C
:100940000C040294009CCDE900B400F0D5FA03B089
:10095000BDE8F08F00200146F9E72DE9F04D81EA6E
:10096000030404F0004B21F0004514464FF0000A48
:1009700023F0004150EA050220D054EA01021DD0C4
:10098000C5F30A570246C5F31303C1F31300C1F3BD
:100990000A5640F4801543F48013A7EB0608101B99
:1009A000D64608F2FD3873EB050002D308F10108C2
:1009B00001E092185B41B8F1000F03DA0020014614
:1009C000BDE8F08D00204FF48011064684460EE00D
:1009D000171B73EB050705D3121B63EB05030643D7
:1009E0004CEA010C49084FEA300092185B4150EA8A
:1009F0000107EDD152EA030012D082EA040083EA33
:100A00000501084305D0101BAB4106D2012200238B
:100A100006E000224FF0004302E06FF001025310A5
:100A20001AEB06004CEB085110EB0A0041EB0B01EE
:100A3000BDE8F04D00F051BA0EB540F233420292DB
:100A40000022CDE90022134600F056FA03B000BDA3
:100A5000C1F30A52C1F3130140F2FF3341F4801194
:100A60009A4202DA00200146704740F233439A422C
:100A7000A2F2334202DC5242FFF712BEFFF701BE80
:100A800030B5041E71F1000404DB4FF00044404215
:100A900064EB0101141E73F1000405DB1C464FF0EA
:100AA0000043524263EB0403994208BF904230BDB9
:100AB00001F0004330B421F0004150EA010206D0B9
:100AC0000A0DA2F56072C1F31301002A02DC30BCEA
:100AD00000207047440F44EAC104C100E01830BC54
:100AE00000EBC25000F0C2B9064C074D06E0E068CA
:100AF00040F0010394E8070098471034AC42F6D365
:100B0000FFF746FB7045000890450008202A06DBE9
:100B1000CB17203A41FA02F043EAE07306E041FACB
:100B200002F3D040C2F120029140084319467047B9
:100B3000C0B24FF4F05100F02DBA00002DE9F34F90
:100B40008BB04FF0000801F10C000C464FF0010B88
:100B500046460DF1080A019062690121019890470B
:100B6000051E2DD0252D2CD0216A8847C0B1626981
:100B7000012101989047216A88470028F7D1411E3A
:100B800062690198904700E0761CA1690B9888473C
:100B9000216A88470028F7D1E1690B988847DBE78D
:100BA000A1690B9888470746A84201D1761CD3E774
:100BB000E1690B9888477F1C02D1B8F1000F6FD014
:100BC00047E1002762693D463946019890472A2847
:100BD00004D162690121019890470125DFF88892CC
:100BE0006269012101989047A0F130010A290AD2D7
:100BF0004F45E5DC07EB870100EB4107303FDFD4D1
:100C000045F01005ECE7E90601D46FF000476C28C9
:100C10000AD04C2814D0682815D06A280DD0742822
:100C20001CD07A281AD01DE06269012101989047F2
:100C30006C2802D045F0040514E045F002050DE0F3
:100C400045F020050AE06269012101989047682873
:100C500002D045F0080505E045F400656269012110
:100C600001989047C4E9015765283DD019DC582800
:100C70007AD00CDC452837D004DC252826D0412842
:100C800031D131E046282FD047282CD12CE05B28E9
:100C900077D0612828D063287CD0642823D15AE0FB
:100CA000D1E06F2848D008DC66281DD067281BD00B
:100CB000692821D06E2816D127E0702845D07328E6
:100CC00068D0752847D078280DD14DE0A1690B98E0
:100CD0008847054625283FF469AFE1690B988847A6
:100CE0006D1C3FF46AAFB4E023466A466FF0010022
:100CF0000B99FFF781FB9FE045F040006060A8077B
:100D000023464FF0000236D43EE0E8077FF447AFB9
:100D10002068011D21600068290501D506701BE7C8
:100D2000290701D5068017E7A90703D5F117C0E900
:100D3000006111E706600FE745F040006060A8071A
:100D400023464FF0080216D41EE040F60E0125EAB5
:100D50000100606016E045F040006060A80723468F
:100D60004FF00A0207D40FE045F040006060A8078A
:100D700008D5234610226FF001000B99AFF30080D5
:100D80005AE007E0234610226FF001000B99AFF301
:100D9000008051E04FF000094F464B46632802D0D7
:100DA0005B2807D041E02079C00601D40120A06073
:100DB00001273AE062690121019890475E2805D138
:100DC0004FF001096269494601989047216939B994
:100DD00000210A46534643F82120491C0829FADB22
:100DE000B0B3216969B9C11700EBD16253110AEBA5
:100DF000830122F01F02821A01200B6890400343F6
:100E00000B6062690121019890475D28E8D1B9F132
:100E1000000F09D00020514651F82020D24341F85C
:100E20002020401C0828F7DB02AB224600976FF019
:100E300001000B99AFF3008000280CDA401C08D1A8
:100E4000BBF1000F05D04FF0FF300DB0BDE8F08FC3
:100E5000FFE74046F9E7E90701D108F10108064438
:100E60004FF0000B78E60000CCCCCC0C0029A8BFDA
:100E70007047401C490008BF20F00100704710B4C3
:100E8000B0FA80FC00FA0CF050EA010404BF10BC78
:100E9000704749B1CCF1200421FA04F411FA0CF1A5
:100EA00018BF012121430843A3EB0C01CB1D4FEADE
:100EB00000614FEA102042BF002010BC704700EBD9
:100EC000C35010440029A4BF10BC7047401C490007
:100ED00008BF20F0010010BC704710B5141E73F15C
:100EE000000408DA401C41F1000192185B411A43EA
:100EF00001D120F0010010BD2DE9F04D92469B4636
:100F000011B1B1FA81F202E0B0FA80F220329046DB
:100F1000FFF7B7FB04460F4640EA0A0041EA0B011F
:100F200053465A46084313D0114653EA010019D0DC
:100F3000C8F140025046FFF7B3FB05460E46504647
:100F400059464246FFF79DFB084305D0012004E0C7
:100F500020463946BDE8F08D0020054346EAE0769C
:100F60002C4337430A986305E40AA0EB08000022EB
:100F7000FD0A44EA47540A3002D500200146E9E759
:100F8000010510196941DDE9084500196941BDE80D
:100F9000F04DA2E77F2801D9002208E0064A02EBC3
:100FA0005002C007127800D1120902F00F0201208E
:100FB00090400840704700003045000870B58C181C
:100FC00010F8015B15F0070301D110F8013B2A115D
:100FD00006D110F8012B03E010F8016B01F8016B4A
:100FE0005B1EF9D12B0705D40023521E0DD401F846
:100FF000013BFAE710F8013BCB1A921C03E013F80F
:10100000015B01F8015B521EF9D5A142D8D3002043
:1010100070BDFEE7704772B6FEE700002DE9F84F9D
:10102000DFF8BCA10022012503264FF00F090AF1C9
:10103000040BAAF1040E00BF0B6805FA02F423406A
:10104000A34270D10F7907F00307012F01D0022FBF
:1010500016D187684FEA420806FA08FC27EA0C070F
:10106000D1F80CC00CFA08FC4CEA070CC0F808C018
:101070004768A7430C79C4F3001494403C43446090
:101080000C79E443A4070AD0C4684FEA420C06FA7C
:101090000CF7BC438F6807FA0CF72743C7600C793D
:1010A00004F00304022C12D1D40800EB840CDCF809
:1010B00020405707FF0E09FA07F824EA0804D1F880
:1010C000108008FA07F848EA0408CCF82080046881
:1010D0004FEA420C06FA0CF7BC430F7907F00307FE
:1010E00007FA0CF7274307604C6814F4403F70D0B0
:1010F0003C4C276847F480472760246822F00307A8
:1011000004F480440094384C07EB040CDCF80848E5
:1011100097074FEA177809FA08F7BC43334FB842EC
:1011200002D1002724E054E0314FB84201D1012719
:101130001EE0304FB84201D1022719E02E4FB842CD
:1011400001D1032714E02D4FB84201D104270FE04D
:101150002B4FB84201D105270AE02A4FB84201D1EE
:10116000062705E0284FB84201D1072700E00827ED
:1011700007FA08F72743CCF80878DAF80040574612
:10118000D1F804C09C435FEACC2C00D51C433C60E2
:10119000DBF800405F46D1F804C09C435FEA8C2C2A
:1011A00000D51C433C60DEF800407746D1F804C00F
:1011B0009C435FEA8C3C00D51C433C60084F083FD1
:1011C0003C68D1F804C09C435FEACC3C00D51C438A
:1011D0003C60521C102AFFF42FAFBDE8F88F0000CE
:1011E000083C014044380240003001400000024009
:1011F0000004024000080240000C024000100240BF
:101200000014024000180240001C0240014880689F
:1012100070470000DC060020024881680278114413
:1012200081607047DC0600200B4810B5016841F46E
:1012300000710160016841F480610160016841F45E
:1012400080710160032000F061F80F2000F006F8C3
:1012500000F024F8002010BD003C024070B50D4D98
:1012600004464FF47A712878B1FBF0F00A49096816
:10127000B1FBF0F000F0FEFA48B9102C07D20022C2
:101280002146501E00F022F800206C6070BD012045
:1012900070BD0000DC060020E80600200A4808B502
:1012A000016841F480410160006800F480400090D2
:1012B0000548001F016841F080510160006800F09E
:1012C0008050009008BD000044380240F0B40E4B3E
:1012D0001B680C46C3F30223C3F10705042D00D994
:1012E0000425191D072901D2002300E0DB1E012679
:1012F00006FA05F1491E214099409E40761E16408F
:101300003143F0BC00F0FABD0CED00E0064900F0FE
:10131000070208684FF6FF03184040EA0220034A1C
:1013200010430860704700000CED00E00000FA0573
:101330002DE9F0470E46050065D0DFF81481D8F896
:101340000000F7B200F00700B04207D288F8007042
:10135000D8F8000000F00700B04254D128683D4C96
:10136000810712D5400703D5206840F4E050206083
:101370002878000703D5206840F46040206020688A
:10138000A96820F0F000084320602878C0072DD01D
:10139000304968680839012812D0022813D0032880
:1013A00011D00968890700292DDA216821F003018D
:1013B00001432160FFF72AFF814641F2883A0EE09F
:1013C00009688903EFE709688901ECE7FFF71EFF69
:1013D000A0EB0901514502D90320BDE8F087206840
:1013E000696800F00C00B0EB810FEFD1D8F8001065
:1013F000404601F00701B14207D90770006800F0CC
:101400000700B04201D00120E7E72878400705D562
:101410002068E96820F4E05008432060287800073D
:1014200006D52068296920F4604040EAC1002060A8
:1014300000F038F82168084AC1F30311515CC84034
:101440000649086006480068FFF708FF0020C4E767
:10145000003C024008380240B0440008E806002082
:10146000E00600200448054900680968044AC1F301
:101470008221515CC8407047E806002008380240CD
:10148000C04400080448054900680968044AC1F3DB
:101490004231515CC8407047E806002008380240DD
:1014A000C0440008154810B5006810F00C0214483C
:1014B00013D01449042A0FD0082A0ED10F4C241F30
:1014C0002268236802F03F025B0207D52068C0F360
:1014D0008810A0FB010106E0084610BD2168C1F399
:1014E0008811A1FB00010023FEF76CFE2168C1F307
:1014F0000141491C4900B0FBF1F010BD0838024021
:101500000024F40040787D012DE9F84F04006ED0EE
:101510002078DFF84C93C007A9F104054AD009F1FF
:1015200004000168C1F38101012908D00068C0F3FB
:10153000810002280AD1D9F80000400206D52868A7
:10154000800337D560680028E1D033E06068B0F5EB
:10155000803F10D0B0F5A02F286810D020F4803044
:101560002860286820F4802028606068A8B1FFF710
:101570004DFE06460DE0286840F48030F4E740F464
:1015800080202860F7E700BFFFF740FE801B64283B
:1015900073D828688003F7D50CE0FFF737FE0646BE
:1015A00005E000BFFFF732FE801B6428F0D82868F2
:1015B0008003F7D42078DFF8AC8280074FF0000A70
:1015C0003ED5A748001D016811F00C0F08D0006837
:1015D000C0F3810002280BD1D9F80000400207D4E3
:1015E0002868800716D5E068012800D112E033E1B1
:1015F000E068B8B10120C8F80000FFF707FE064612
:1016000005E000BFFFF702FE801B0228C0D8286853
:101610008007F7D52868216920F0F80040EAC1006A
:1016200028600DE0C8F800A0FFF7F0FD064604E0D2
:10163000FFF7ECFD801B02281FD828688007F7D42D
:101640002078000722D5864F87486169703771B1CD
:1016500001210160FFF7DAFD064604E0FFF7D6FD41
:10166000801B022809D838688007F7D50EE0C0F83B
:1016700000A0FFF7CBFD064605E082E0FFF7C6FDC0
:10168000801B02287DD838688007F7D4207840076F
:1016900068D5DFF8CCB100270BF13C0BDBF800007C
:1016A000C0000BD4DBF8001041F08051CBF80010E3
:1016B000DBF80000012700F0805000906B4E30688E
:1016C000C00510D4306840F480703060FFF79EFD94
:1016D000009005E0FFF79AFD0099401A022850D8C3
:1016E0003068C005F6D55E4EA0686C3601280FD074
:1016F0000528306810D020F001003060306820F0FC
:1017000004003060A068B8B1FFF780FD00900FE0E2
:10171000306840F00100F4E740F004003060F7E783
:10172000FFF774FD0099411A41F28830814266D872
:1017300030688007F4D50EE0FFF768FD009007E001
:10174000FFF764FD0099411A41F28830814256D872
:1017500030688007F4D42FB1DBF8001021F08051FD
:10176000CBF80010A069C8B33D49091D0968C1F351
:10177000810102294AD00228504607D0C8F86000EB
:1017800000E03CE0FFF742FD04463BE04746C8F876
:101790006000FFF73BFD064605E000BFFFF736FDA2
:1017A000801B02282BD828688001F7D4D4E90701D0
:1017B0000843A16A2E4A490802EB0141626A41EAE4
:1017C0008211084394F82C1040EA0161C9F8001016
:1017D00001203866FFF71AFD044606E03EE000BF30
:1017E000FFF714FD001B022809D828688001F7D5EF
:1017F00034E000BFFFF70AFD001B022802D90320D6
:10180000BDE8F88F28688001F4D427E00128F7D0DC
:10181000D9F80000E26900F4800191421CD1226AEB
:1018200000F03F01914217D147F6C071626A014052
:10183000B1EB821F10D1A26A4FF0FF3300F44031A8
:1018400003EB5202B1EB024F06D194F82C1000F0DA
:101850007060B0EB016F01D00120D1E70020CFE72D
:101860000438024000004742800E474200700040AA
:101870000000FFFF10B5401EB0F1807F01D30120B2
:1018800010BD4FF0E02460610F21601700F036FBBF
:101890000020A06107202061002010BD70B5040069
:1018A00004D094F84100002510B106E0012070BD7D
:1018B00084F84050204600F023F8242084F84100AA
:1018C0002068C16821F40051C160204600F02CFA64
:1018D0002068016921F4904101612068416921F08B
:1018E0002A0141612068C16841F40051C16065640A
:1018F000202084F8410084F842006563002070BD18
:1019000010B586B0044614216846FEF7A5FC1449BC
:101910002068884221D113480021026842F0100259
:101920000260006800F0100005900E48143802684C
:1019300042F001020260006800F0010005904FF4DF
:10194000C06000900220CDE9010103200390072030
:10195000049069460448FFF761FB06B010BD000023
:101960000010014044380240000002402DE9F84FC9
:10197000044690F842009A4616460D46202802D0AA
:101980000220BDE8F88FB5B1AEB10020606422211D
:1019900084F842102063FFF739FCA6858146E6856E
:1019A000A0684FF480582027404501D1206920B11C
:1019B0002E46002529E00120E3E7002625E04B46DE
:1019C000002220212046CDF800A000F033FA18B103
:1019D00084F842700320D4E726B1A06840451AD0AD
:1019E00038B108E020684068C0F3080025F8020B11
:1019F00008E0206978B12068406800F07F0000BFEF
:101A000006F8010BE08D401EE085E08D0028D6D160
:101A100084F84270B5E720684068F1E72DE9F843A3
:101A2000044690F84100984616460D46202802D0FC
:101A30000220BDE8F88385B17EB1002060642120DA
:101A400084F84100FFF7E2FBA6848146E684A068A3
:101A50002027B0F5805F02D003E00120E9E720698C
:101A600010B12E4600250EE000260CE08021204615
:101A700000F0E0F9A8B9C6B116F8010B216848607A
:101A8000E08C401EE084E08C4B464FF00002CDF825
:101A900000800028EAD14FF04001204600F0CAF94A
:101AA00040B184F841700320C3E735F8020BC0F35E
:101AB0000800E3E784F841700020BAE7FEE7000081
:101AC000054808B5016841F001010160006800F0B7
:101AD0000100009008BD0000303802400C4810B5ED
:101AE0000A4901604FF4E1314160002181600C221C
:101AF000C160C0E904128161C161FFF7CFFE002817
:101B000003D0BDE81040FFF786BA10BD00100140B9
:101B1000B007002010B504A000F0C6F9BDE81040E1
:101B20000B4801F0C9BB0000582D435542452D41DB
:101B30004920696E697469616C697A65642073759E
:101B4000636365737366756C6C79210A000000002D
:101B5000C406002070B596B0264801F0BBFA1C20E0
:101B600000F076FA234C183C20611C2000F070FA3B
:101B700060612569A5B398B31F4E0DF1380C96E846
:101B80000F008CE80F001C2206F110016846FEF7DA
:101B90004AFB0EA82C36069096E80F0012AE86E897
:101BA0000F0015491C223C3107A8FEF73CFB12A888
:101BB0000D901C2269462846FEF735FB1C2207A91A
:101BC0006069FEF730FB04F10C0007C801F030FD3E
:101BD00001280AD0E06801F0FDFC08A101F056FCE4
:101BE0000AA000F061F916B070BD0248001D02F0B5
:101BF00055FAF8E7D40600205844000861695F6E82
:101C00006574776F726B5F72756E00004D656D6FF6
:101C1000727920616C6C6F636174696F6E206661AC
:101C2000696C6564210A0000FEE7FEE770477047B3
:101C3000FFF7F2BA30B593B030216846FEF70CFBDF
:101C400014210CA8FEF708FB1D480025016841F08F
:101C500080510160006800F08050119019480168BF
:101C600041F4804101600068022400F4804011903A
:101C70000120039010200490009406940820CDE9E0
:101C80000750A820CDE9090404200B906846FFF70F
:101C90003BFC08B172B6FEE70CA90F2081E83100C9
:101CA0004FF4A0500F904FF48050109005210CA8D5
:101CB000FFF73EFB002801D072B6FEE713B030BD3F
:101CC00040380240007000400248016841F4700151
:101CD0000160704788ED00E001680C3151E8002F89
:101CE00022F4907241E80023002BF5D101681431F1
:101CF00051E8002F22F0010241E80023002BF5D12A
:101D0000016B012909D101680C3151E8002F22F043
:101D1000100241E80023002BF5D1202180F8421069
:101D2000002101637047000070B504460068016936
:101D3000E26821F44051114301612169A068E26920
:101D400008436169114308432168CA6849F20C637A
:101D50009A430243CA6020684169A26921F4407134
:101D60001143416131492068884202D0304988429C
:101D700002D1FFF787FB01E0FFF774FBE269002364
:101D8000192164253226B2F5004F626828D0A0FBE5
:101D90000101930F9200FEF715FA0146B0FBF5F032
:101DA0006FF01802504301EB800006EB0010B0FB0F
:101DB000F5F000F0F002B1FBF5F002EB0012B1FB20
:101DC000F5F06FF01803584301EB800006EB0010AC
:101DD000B0FBF5F000F00F0021681044886070BD82
:101DE000A0FB010192185B41FEF7ECF90146B0FB44
:101DF000F5F00201B1FBF5F06FF01803584301EB69
:101E0000800006EBC000B0FBF5F000F0F80002EB3C
:101E10004002B1FBF5F0584301EB800006EBC00037
:101E2000B0FBF5F000F00700D6E70000001001401D
:101E3000001401402DE9F843984617460D46044624
:101E4000089E24E0701C22D0FFF7E0F9A0EB080008
:101E5000B0421AD8CEB12068C168490717D5802D85
:101E600015D0402D13D00168C94309070FD401686C
:101E70000025406800902046FFF72EFF0820606490
:101E800084F840500120BDE8F8830320FBE7206878
:101E9000006835EA000004D00020B842D2D000200B
:101EA000F1E70120F9E7FEE70FB4054B10B503A9F0
:101EB000044A029800F080FD10BC5DF814FB00009D
:101EC000D93E0008EC0600200FB47CB50C0009AD2B
:101ED00001D0611E00E00021CDE90001064B6A46F9
:101EE0002946089800F068FD002C02D0009A0021D5
:101EF00011707CBC5DF814FBBF3000080907090EA7
:101F0000002804DB00F1E02080F80014704700F0A6
:101F10000F0000F1E02080F8141D70479FED4B0A80
:101F200063E000BFD2ED003A91ED004A92ED013A34
:101F300091ED011A04EE230AD2ED021A91ED022A64
:101F4000D2ED032AD1ED030A92ED044A01EE030A11
:101F5000D1ED043A91ED053A92ED071A02EE210A0D
:101F600092ED052AD1ED061A00EEA20AD2ED062A5C
:101F7000D1ED070A03EE840A92ED084AD1ED083A42
:101F800003EE020A92ED093A92ED0A2A01EEA20A44
:101F9000D1ED092AD1ED0A1A00EE810A92ED0B1A51
:101FA000D1ED0B0A03EE840AD2ED0C3A91ED0C4A06
:101FB00002EE830AD2ED0D2A91ED0D3A01EE820A6E
:101FC00092ED0E2AD1ED0F1A00EE810AD1ED0E0A24
:101FD00092ED0F1A40314032103B04EE230A03EE1B
:101FE000220A00EE820A01EE810A102B9AD21AE030
:101FF000D1ED000A92ED001A00EE810AD1ED010A3E
:1020000092ED011A00EE810AD1ED020A92ED021A58
:1020100000EE810AD1ED030A92ED031A103110325D
:102020001B1F00EE810A042BE2D206E0F1EC010A4C
:102030005B1EB2EC011A00EE810A002BF6D1D0ED46
:10204000000A30EE800A80ED000A704700000000B0
:102050002DE9F04782460F4C10480D4E0E4F001BE5
:102060004FF0000820F007054FF00109002211464B
:10207000504601F051FF002802D1306810B1002015
:10208000BDE8F0873C60C4E90058C6F80090EDE771
:10209000F4060020FC070020F0060020F8270020AE
:1020A00002E008C8121F08C1002AFAD17047704721
:1020B000002001E001C1121F002AFBD1704710B5BA
:1020C0004169044688472069A04200D1002010BD24
:1020D0002DE9F04F002699B00F4605463446B0462C
:1020E0004CE0A868C4EBC4038946426802EB830253
:1020F0000E92806810AA00EBC40A2C480D9251F889
:10210000082F006A120A62F31F200190D1F804B070
:102110001C2105A8FEF7A0F8D9F81800006801F006
:1021200037F80590D9F81800806806905FEA0A0031
:1021300009D0C0F80080D9F80010416029B1498861
:1021400019B1012102E0404603E00021016001B91C
:1021500000200790D9F818001C2205A940680990B2
:102160000198CDE90A0B0D98FEF75DF81C2210A925
:102170000E98FEF758F8761CB6B2641C0DB128888C
:1021800000E00020A04205D9686818B150F824107A
:102190000029A6D11EB1A8684068386001E0C7F8E0
:1021A000008019B03046BDE8F08F0000C844000838
:1021B000D3ED000A9FED0B1A01EB820300EB8200C6
:1021C000001F1B1F8B420BD393ED000AB4EEE00AF5
:1021D000F1EE10FA01D8B0EE410A80ED000AEFE707
:1021E00070470000000000002DE9FF5F82B0002171
:1021F000DDE90430020DDDF840B0034318D044F6A9
:102200001050A2F2FF3242431514119801281FD03A
:10221000A5EB0B00401C5FEA000A4FF000064E4F92
:10222000DFF83891B046504615D5CAF1000413E0E6
:10223000119801244AA3012801D16FEA0B010298E9
:10224000119AC0E90031C0E9024206B0BDE8F09F32
:10225000CBF10000DFE704460021404A491842EB79
:102260000450CDE9001012E0E00707D032463B46AB
:1022700040464946FEF7FFFA8046894632463B46CD
:1022800010461946FEF7F7FA06460F466410002C72
:10229000EAD1DDE90401DDE90023BAF1000F06DA35
:1022A000FEF7E9FA42464B46FEF7E5FA05E0FEF78F
:1022B00054FB42464B46FEF750FB04460E460022B6
:1022C000284BFEF7DDFB03D84FF0FF30014607E057
:1022D0000022254B20463146FEF726FAFEF7B8FBD2
:1022E000102409E0002C0ADB0A220023FDF76AFF14
:1022F000039B30321A55641E50EA0102F2D1641C6D
:10230000039AC4F111031444119A012A03D0012243
:1023100008430DD10AE0084304D000204FF0110B10
:10232000119072E7A3EB0B056D1E0DE05B4504DD1C
:102330004FF0000205F1010504E003DA4FF000025E
:10234000A5F10105002AECD002981199C0E90231EB
:10235000C0E9004579E70000000014400000F03FAC
:10236000300000000000F0430000E03F30380A2851
:1023700001D201207047002070470000F0B50546EB
:10238000059C24F0010003EB80069FED460AE70858
:1023900056E001C9D3ED002AC0F3031C02EB8C0CFC
:1023A0009CED002A00F00F0C02EB8C0C02EE220ACE
:1023B000DCED001A93ED012AC0F3072C4FEA1C1C38
:1023C00002EB8C0C01EE820A9CED001AD3ED021A8E
:1023D000C0F3032C02EB8C0CD3ED042A01EE210A8E
:1023E000DCED000A93ED031AC0F3074C4FEA1C1C06
:1023F00002EB8C0C00EE810A9CED002AC0F3034C2A
:1024000002EB8C0CDCED001A02EE220A93ED052A99
:102410004FEA107C02EB8C0CC0F303609CED001AB9
:1024200001EE820AD3ED061A02EB8000D0ED000A1D
:1024300001EE210A93ED071A20337F1E00EE810A78
:10244000002FA6D116E000BF11F8010B93ED001A82
:10245000070902EB870700F00F00D7ED000A02EB37
:10246000800000EE810AD0ED000A93ED011A0833D6
:1024700000EE810AB342E7D3E0070AD011F8010B5E
:1024800093ED001A000902EB8000D0ED000A00EE87
:10249000810AD5ED000A084630EE800A85ED000A73
:1024A000F0BD000000000000F0B50446059D9FED62
:1024B000370AE8084FE040C9D3ED002AF7B202EB33
:1024C0008707401E97ED002AC6F3072702EB870710
:1024D00002EE220AD7ED001A93ED012AC6F3074750
:1024E00002EB8707360E01EE820A97ED001AD3ED54
:1024F000021A02EB8606D3ED042AD6ED000A01EE9D
:10250000210A93ED031A40C9F7B200EE810A02EBEB
:10251000870797ED002AC6F3072702EB870702EE2D
:10252000220AD7ED001A93ED052AC6F3074702EBFE
:102530008707360E01EE820A97ED001AD3ED061AD0
:1025400002EB8606D6ED000A01EE210A93ED071A8A
:10255000203300EE810A0028ADD105F007000AE023
:1025600011F8015B401E02EB8505B3EC011AD5EDB5
:10257000000A00EE810A0028F2D1D4ED000A0846D4
:1025800030EE800A84ED000AF0BD0000000000007B
:1025900070B505460C4648886988884202D9AAB1B8
:1025A000002070BD92B100260CE000BF6168C6EB50
:1025B000C6006A6801EB800102EB80001C22FDF777
:1025C00032FE761C6088B042F0D801E06068686036
:1025D0006088688020882880012070BD30B500B3F5
:1025E000F9B1F2B15268E2B10F4C1368A34203D0C3
:1025F0000260012913D014E00023121D07E000BF80
:1026000052F82350A54204D040F823505B1C8B4263
:10261000F6D38B4205D152F82300A04201D101200C
:1026200030BD002030BD0000DECAFAA170B50D46F5
:10263000060014461AD0CCB1104600F081FE00B15D
:102640006088A84212D10023042109E0C3EBC30231
:10265000606801EB8202805820B146F823005B1CC1
:10266000AB42F3D3AB4201D1012070BD002070BD5D
:102670000349884201D101207047002070470000C3
:10268000DECAFAA12DE9FE4F92468946040003D026
:10269000208E20B1656B03E00020BDE8FE8F002591
:1026A000002060832083207CC043800702D030223A
:1026B0001121DCE0B9F1000F61D0D5B32888C0B397
:1026C000D9F818000026D0F8008056E0A868006805
:1026D00000EB0610019052D058B3C6EBC600029032
:1026E00009EB80000121009000F034FEDBF8183087
:1026F000596888421AD80098DBF80C208069D7689E
:10270000D0F80CC0674511D19768D0F808C067456C
:102710000CD152684068824208D1186800F028FD48
:102720000746584601F0E4FB874203D218221221E3
:102730009DE024E0DBF81800006800F029FD029914
:1027400020F07E4259F8210020F07E40824201D0E4
:102750001922ECE70098406888B100988069006809
:1027600078B14146404500D208468046DDE9001078
:102770005A4600F08FF8761C2DB1288804E0172205
:10278000D5E72122D3E70020B04206D9686820B1FE
:1027900050F826B0BBF1000F98D1BAF1000F74D0F9
:1027A000208E012806D9656B0C3503D0288808B126
:1027B000002658E0182259E0A868006800EB061BC4
:1027C0003BD0BBF1000F38D0C6EBC60001900AEB3E
:1027D00080000121009000F0BDFDD9F81830596843
:1027E0008842E7D80098D9F80C208069D768D0F8DB
:1027F0000CC06745DED19768D0F808C06745D9D1CD
:10280000526840688242D5D1186800F0B1FC074692
:10281000484601F06DFB8742CCD3D9F81800006818
:1028200000F0B6FC20F07E4201985AF8200020F01B
:102830007E40824203D0192218E0172216E0009849
:1028400040680028F9D000988069006868B1414666
:10285000404500D2084680464A465846009900F056
:1028600019F8761C3DB1288806E021221321204664
:1028700001F086F810E70020B04206D9686820B160
:1028800050F82690B9F1000F96D1A4F818804FF0B7
:10289000010002E770B504460E461546104601F0E9
:1028A00027FB0146A060B06900684843E06071689A
:1028B0006160726810442060A8690268920007D4C1
:1028C000D0E90223D21A11448160A9696068C86006
:1028D00070BD70B50646002521E0B068006800EBC9
:1028E000051488690268920005D58168A26860684D
:1028F00001F0F8FB08E0D0E90223D21A63681A4419
:10290000826089696068C860D4E901010844606038
:102910002168884201D3E068081A6D1C60600EB11E
:10292000308800E00020A84206D97068002803D053
:1029300050F825100029D0D170BD2DE9F041064690
:10294000002529E0B1688369096801EB051419685D
:102950008900D4E901120DD5986801F0C3FBD4E9D0
:102960000101084460602168884201D3E068081AC8
:10297000606010E00A44626021688A4201D3E26824
:102980008A1A62608169D1E90237DB1B1A448A60C6
:1029900080696168C1606D1C0EB1308800E0002064
:1029A000A84206D97068002803D050F825000028F6
:1029B000C8D1BDE8F08100002DE9FF4F95B09A46DF
:1029C000884606460025EEE1252877D100242746D3
:1029D000F94A0121039400E0044316F8013F203B2B
:1029E00001FA03F01042F7D130782A2811D06FF0A5
:1029F0002F033078A0F13002092A16D8039A44F048
:102A0000020402EB820203EB42021044761C0390A4
:102A1000EFE758F8042B0392002A03DA504244F4FB
:102A20000054039044F00204761C30782E2816D10E
:102A300016F8010F44F004042A280DD06FF02F027D
:102A40003078A0F13003092B09D807EB870302EB9C
:102A50004303C718761CF3E758F8047B761C3078DC
:102A60006C280FD006DC4C2817D068280DD06A28B7
:102A700014D104E0742810D07A280FD10DE044F46A
:102A800000140AE044F4801401E044F44014727825
:102A9000824202D104F58014761C761C30786628B8
:102AA0000BD013DC582877D009DC002875D04528D6
:102AB000F6D04628F4D047281AD193E118E06328CD
:102AC00035D0642879D0652812D18BE1702873D075
:102AD00008DC6728F1D069286FD06E280DD06F28E8
:102AE00006D1ACE073282CD0752874D0782853D048
:102AF0005246179990476D1C54E1C4F302500228C6
:102B000009D003280DD0D8F8001004280DD00D608E
:102B100008F1040846E1D8F80010EA17C1E90052AC
:102B2000F6E7D8F800100D80F2E70D70F0E718F81E
:102B3000041B8DF8001000208DF80100EB460120E9
:102B400003E058F804BB4FF0FF3061074FF000017D
:102B500002D40DE009F101018946B9420FDA81453D
:102B6000F8DB1BF809100029F4D108E009F1010194
:102B700089468142FADB1BF809100029F6D1039837
:102B80005346A0EB090721463846179A00F080FA11
:102B9000284400EB090507E044E008E10DE01BF8DC
:102BA000010B524617999047B9F10109F7D25346E4
:102BB00021463846179AF2E039E00A21C4F302525E
:102BC0004FF0000B0091022A06D058F8040BC117F1
:102BD000032A09D00AE023E008F1070020F00702E9
:102BE000F2E80201904605E000B2C117042A01D1C3
:102BF00040B2C117002906DA0A460021404261EBC3
:102C000002012D2202E0220504D52B228DF804209A
:102C1000012203E0E20701D02022F7E7914657E0C6
:102C20000A2100E010214FF0000B00910BE0102171
:102C30004FF0000B44F004040827009103E0082043
:102C40004FF0000B0090C4F30252022A05D058F84E
:102C5000040B0021032A08D008E008F1070020F047
:102C60000702F2E80201904603E080B2042A00D194
:102C7000C0B24FF0000922072AD53278702A07D057
:102C8000DDF800C08CF0100C5CEA0B0C05D00EE0F7
:102C900040228DF80420012208E050EA010306D00A
:102CA00030238DF804308DF8052002229146009BD8
:102CB00083F0080353EA0B030AD150EA010201D161
:102CC000620705D530228DF804204FF001097F1EE0
:102CD0003278582A04D039A20C920CAA02920BE046
:102CE0003BA2F9E75B46009AFDF76CFA0C9B9B5CF4
:102CF000029A521E0292137050EA0102F2D1029817
:102D000004A9081A00F1200B600702D524F48034CE
:102D100000E001275F4502DDA7EB0B0000E000208B
:102D200000EB0B01009003984944401A0390E00324
:102D300006D453462146179A039800F0A9F9054492
:102D4000002706E001A85246C05D179990476D1C08
:102D50007F1C4F45F6DBE0030CD553462146179AFE
:102D6000039800F095F9054404E030205246179985
:102D700090476D1C0099481E00900029F5DC08E082
:102D80000298029952460078491C0291179990477F
:102D90006D1CBBF10001ABF1010BF1DC5BE100F05C
:102DA00065F90544761C307800287FF40DAE19B023
:102DB0002846BDE8F08F0000092801003031323389
:102DC0003435363738396162636465660000000067
:102DD0003031323334353637383941424344454651
:102DE00000000000600700D4062708F1070020F06B
:102DF0000700F0E80223804603F0004C5FEA0C0075
:102E000001D097A009E0200501D596A005E0E007D4
:102E100001D095A001E0AFF24C001390307823F080
:102E2000004365280CD006DC452809D046281DD073
:102E300047287FD13BE0662818D067287AD136E052
:102E40000021112F01DB112000E0781CCDE90001E9
:102E500004A90CA8FFF7C8F9DDE90D010C9A4FF0A1
:102E6000000B07F10109109200914EE04FF0004075
:102E70000097CDE9011004A90CA8FFF7B5F9DDE929
:102E80000D020C9B0F994FF0000B9146109300928E
:102E900011B9791C00EB0109B7EB090003D4C0F1AB
:102EA000FF3B07F10109A9EB0700019042E0012F68
:102EB00000DA01270021112F01DD112000E0384642
:102EC000CDE9000104A90CA8FFF78EF9DDE90D0199
:102ED0000C9A00914FF0000BB946109221070FD4C5
:102EE000009A4A4503DA914601E0A9F10109B9F1D6
:102EF000010F05DD109AA9F10101515C3029F4D0D0
:102F0000B84202DA10F1040F03DA0121CDE9011011
:102F100010E0002803DC8344A9EB000102E0411C1F
:102F2000494500DD8946A0EB0B00401C01904FF0A5
:102F300000400290200705D40198484502DB4FF07D
:102F4000FF30019000208DF84B0002980DF14B07E7
:102F5000B0F1004F25D002200C902B200D9002984C
:102F600000280CDA404202902D200D9007E00A2143
:102F70000298FDF770FB3031029007F8011D0C99A3
:102F8000481E0C900029F2DC02980028EFD1791E2F
:102F90000D980870307800F0200040F0450007F8E8
:102FA000020D11A8C01BC01D02901398007800B13B
:102FB000012000EB0901019801EBE0710298014446
:102FC0000398401A401E0390E00306D4534621465E
:102FD000179A039800F05CF805441398007818B12C
:102FE0005246179990476D1CE00323D5534621465E
:102FF000179A039800F04CF805441BE0BBF1000F52
:1030000007DB0098584504DD1098179910F80B005D
:1030100001E0179930205246904701980BF1010BBF
:10302000401E05F10105019004D12E20524617994A
:1030300090476D1CB9F10001A9F10109DEDC05E042
:1030400017F8010B5246179990476D1C0299481EBC
:1030500002900029F4DC53462146179A03989EE615
:103060002D0000002B000000200000002DE9F041A1
:10307000044600251E461746880404D405E0394658
:103080002020B0476D1C641EF9D52846BDE8F081AC
:103090002DE9F041044600251E469046C80301D59F
:1030A000302700E02027880404D505E04146384653
:1030B000B0476D1C641EF9D52846BDE8F0814A680A
:1030C000002A06D00A68531C0B6010704868401E26
:1030D00048607047F0B587B000240546671E6E460D
:1030E0003B46012206A91448FEF740FC9DF8180053
:1030F0000A2801D0132C1BD30020305505AA0FA19C
:103100006846FDF7C9F89DED050A694685ED000A98
:103110000BA0FEF7C9FE2868FDF78AFA41EC100BF8
:103120000CA053EC102BFEF7BFFE07B00020F0BD43
:103130003055641CE4B2D3E7B007002025660000D8
:1031400052656365697665642041534349493A2075
:1031500025730A00436F6E76657274656420746F20
:1031600020666C6F61743A20252E34660A000000D8
:1031700059B1C0F3C6125143C91D21F00701C0F374
:103180004150C140C91DC808704700207047000069
:1031900070B54021C0F34342022A1BD0394A20F0C7
:1031A0007E439C1A0D014E0193425FD029DC364AC2
:1031B000A3EB0204934259D019DC402B57D0403B7B
:1031C000B3F580234CD0802B37D0AB424FD12E4962
:1031D000C91F4CE0C0F3C051C905C0F3C61241EA93
:1031E000C21100F07F02114341F480213FE0A4F5B9
:1031F0004074F93C1FD00F2C35D0B44237D123494D
:1032000035E0234BE21A9C421BD00BDC214AA2186A
:103210001DD0802A19D0AA4211D0A2F58062073AA7
:1032200025D117E00F2A18D0B2420CD01A4BDA423F
:103230001DD11A491BE01A4919E01A4917E01A4929
:1032400015E01A4913E01A4911E01A490FE019492B
:1032500080390CE01449C91D09E014490F3106E01A
:103260001049803903E00E490F3100E0114600F0AB
:1032700080420A4300F00051114300F0006008430F
:1032800070BD000040040600470404004010040024
:1032900000047E00000482FF00F801FF401082015C
:1032A00040080400C000040040048400400884007A
:1032B00040108400C000840010B5014600220F4871
:1032C00000F030F910F0FF0F02D00DA100F0DEF891
:1032D0000A4C00210C3CE06800F096F920610021C6
:1032E000E06800F09BF9606121692246496811603D
:1032F000111D40680860002010BD0000C8060020B5
:1033000061695F6E6574776F726B5F63726561741C
:10331000655F616E645F696E6974000070B5144624
:103320000D46064600F00CF840B17068C5EBC501CB
:1033300010EB810002D04460012070BD002070BD00
:1033400028B1416819B1408808B1012070470020B8
:103350007047000010B502002AD0164B1068B3EB7E
:10336000C01F03D0144BB3EBC01F01D1012000E0FC
:10337000002008429069406802D01F3020F01F00F2
:103380005369D9B2012900D000211C0A07E00129A4
:1033900007D0936953F821305843491C1AB123468A
:1033A00002E00123F8E700238B42F0DC002800DC78
:1033B000002010BD006000420060000208B509A1B5
:1033C0000968009148B101789DF80020914204D12C
:1033D00004226946FCF752FF08B1002008BD012015
:1033E00008BD0000038404842DE9F041066C816B64
:1033F00004460025C163CEB1D9B10120626CB0474B
:103400000CE00220626CB047E06BFEF758FE074606
:103410000320626CE16BB0476D1CE763E16B002930
:10342000EFD106E0FEF74BFE6D1CE063E06B002879
:10343000F8D12846BDE8F08103460020996B0029A9
:1034400008D0CB600A69401C8A4203D0002A01D010
:103450001146F6E770472DE9F041846B002594B1E1
:10346000012600272079C00707D0216A204611B124
:103470008847304600E0384605442069A04202D023
:1034800008B10446EEE72846BDE8F081020A31B1F2
:10349000C0B21346024604A0FEF706FD03E0C1B227
:1034A0000EA0FEF701FDFEE754454D504C4154453A
:1034B000202D204572726F722028257329202D201F
:1034C000747970653D30782530327820636F64659B
:1034D0003D3078253032780D0A00000054454D50BB
:1034E0004C415445202D204572726F72202D20745E
:1034F0007970653D30782530327820636F64653DA2
:103500003078253032780D0A000000001CB5002309
:103510000522CDE900230123014A00F0F7F81CBD84
:10352000340400202DE9F0430F468FB016460546BF
:103530000021FFF7EBFF804610F0FF0F0AD168462D
:1035400000F034F818B100240DF10C090EE02868E1
:1035500000F040F80FB0BDE8F08300BF57F824201A
:1035600021464846FFF7DAFE641CA4B21FB1BDF83D
:103570000E00A042F2D800246F4607E056F824203F
:103580002146381DFFF7CAFE641CA4B21EB1BDF867
:103590000600A042F2D86946286800F01DF818B964
:1035A000286800F017F880464046D3E71FB500288A
:1035B0000CD00749D1E90023CDE90023D1E902214C
:1035C000CDE902216A4602A900F034F804B010BD2A
:1035D0009C41000800F0E8B82DE9F0410D46064690
:1035E00000F0F0F8041E0DD0294600F009FD074652
:1035F0002946204600F0D8FC00EA0704304600F0D7
:103600006DF92040BDE8F08110B90248024A02601D
:1036100000F05AB8340400200001C0A110B90248DB
:10362000024A026000F0B2B9340400200001C0A1D7
:1036300000F07CB910B570B169B162B1074C04609B
:10364000D1E90041C0E90141D2E90012C0E9031209
:103650000123184610BD002010BD0000DECAFAA1EB
:10366000016810B1024A8A4300D000207047000070
:103670000001C0A130B44AB140B139B1074C136860
:10368000A34206D130BC0C32FEF7D0BF30BC0020C4
:10369000704730BC1C32FEF7A1BF0000DECAFAA1A1
:1036A00030B44AB140B139B1064C1368A34206D1D7
:1036B00030BC121DFEF7BABF30BC0020704730BCD2
:1036C000FEF78CBFDECAFAA1F8B50E46FFF7C8FFB9
:1036D00004000AD000270097208E00B1606B694675
:1036E000FEF7F6FC050006D00BE01022114600F0B4
:1036F00047F90020F8BD18221121204600F040F9BA
:10370000009706B135800098F8BD00002DE9F04F14
:1037100089B00500DDE912104FF0000A564663F348
:103720000706CDE9011361F30F261D4F914654465C
:1037300060F31746834618D0C5F8009000F063F98F
:10374000B8B1B846BF8AC6F30721F0B2002200F034
:103750004EF90646C7F30721F8B2002200F047F9F8
:10376000864208D0D8F804400EE0F86909B0BDE8F8
:10377000F08F3C6808E00BA0006800906846FFF7F7
:103780001DFE18B9D8F80840C5F800A0DDE9011001
:103790005A4600F02CF9C9F808002046E6E7000078
:1037A000C84400080384048410B5FFF759FF20B112
:1037B000BDE810400C3000F020B90148806910BD10
:1037C000C84400082DE9F04F91B00C46FFF748FFC0
:1037D000050013D0B4B13DA12068FEF749FF0600F3
:1037E0004FF0000B11D020680190D4E90301CDE91E
:1037F0000401D4E90101CDE9020143E0002011B048
:10380000BDE8F08F112210215CE001212046D4F8A0
:1038100004A0FFF79FFD804604F11C00D4F820901F
:1038200001211090FFF796FD07461422294907A8A9
:10383000FCF7F9FC0120B8F1000F02D0ADF822002E
:1038400002E0ADF822B0002409941FB1ADF82A00BF
:10385000109802E0ADF82AB000200B90B9F1000FEB
:1038600002D10FB1132206E0BAF1000F05D1B8F171
:10387000000F02D01222102123E0142207A901A870
:10388000FCF7D1FC14492868884212D186F0010265
:10389000144602A905F12000FEF77AFE68B122461F
:1038A00004A905F12800FEF773FE40B12846FFF792
:1038B000C3FD032028612846A1E7122200E013225D
:1038C0001621284600F05CF898E70000696E6974DC
:1038D000000000001C4500080001C0A170B5FFF702
:1038E000BFFE002807D0017C890705D410221121D2
:1038F00000F046F8002070BD0B4A0168914211D1DA
:103900000546FFF7A8FD286C60B1AC6B54B1D5E952
:1039100010322146002098472069A04202D008B109
:103920000446F4E7012070BD0001C0A170B5134644
:103930000D46FFF795FE04461A462946FEF7A2FEFD
:1039400000281CD0208E08B1656B00E000250128FE
:1039500002D9666B0C360DE000260BE02846FEF718
:10396000B8FF2046FFF740FD3046FEF7E6FF608BCC
:10397000401C6083608B218B8842EFD380B270BD86
:10398000002802D00C3000F040B87047F8B50E4661
:10399000FFF766FE040007D000270097208E01285D
:1039A00008D9606B0C3006E010221146FFF7E8FFE3
:1039B0000020F8BD00206946FEF78AFB050005D10E
:1039C000182211212046FFF7DBFF009706B1358052
:1039D0000098F8BD02460068010A012004E053681F
:1039E000491E53F8213058430029F8D1704700068A
:1039F00040EA014040EA022070470022016802705C
:103A000002600846704701207047037813F0FF0FEB
:103A100001D0002070470170016862F31F2101602E
:103A2000012070472DE9F047806988B0018809B10D
:103A3000426800E00022526832B109B1426800E0F9
:103A400000225268146800E00024012902D942686B
:103A50000C3200E0002252684AB1012902D94268C2
:103A60000C3200E000225268D2F8008001E04FF0F2
:103A70000008022902D94268183200E00022526888
:103A800042B1022902D94268183200E0002252688D
:103A9000176800E0002702290BD9426812F1180FBD
:103AA00007D032F8183F012B03D9526812B152687F
:103AB00000E00022E368D8F80CC003295E68DCE966
:103AC0000153DCF80CC003FB0CF3D7F818C0DCF88A
:103AD000007027F07E4A02D94768243700E00027AB
:103AE0007F685FB1032902D94068243000E00020DC
:103AF0004068006810B18069876800E00027D8F846
:103B00001800A1698068896812B19269946800E020
:103B10000024DCE9022CDFF85080E1461AEB080CA7
:103B200010D0BCF59C0F15D0BCF5CC0F07D1009779
:103B3000CDE90353CDE901464B4600F063F808B0E8
:103B4000BDE8F0878DE85700CDE90553684600F0E1
:103B50000DF8F4E70097CDE90353CDE901464B4654
:103B600000F0A6F8EBE70000C0EF7DFE2DE9F04F76
:103B700004462DED028B81B0D0E9005AD4E905014D
:103B8000484305EB800934E060692E4605EB800868
:103B90009FED1B8AD4F810B0A7680DE08DED008A68
:103BA0005B46524639466846FEF7B8F99DED000A75
:103BB00007EB8B07A6EC010A4645EFD3E06890B10E
:103BC00000200DE0E16801EB800191ED000A05EBBA
:103BD0008001401CD1ED000A30EE200A81ED000A80
:103BE00061698142EED8216960690AEB810A05EBBF
:103BF00080054D45C8D301B0BDEC028BBDE8F08F08
:103C0000000000002DE9FF4F04462DED028B83B02C
:103C10008B46DDE91550DDE9128A684304EB800626
:103C2000DDF850905FEA080005D040224146184672
:103C300000F058FA33E0984631E000BF04EB850706
:103C40009FED1A8A07990DE08DED018A5B46424689
:103C500001A8CDF80090FEF791FB9DED010A014609
:103C6000A4EC010ABC42EFD30BEB890BBAF1000FB5
:103C700015D0A4EB850100200DE000BF01EB800210
:103C80000AEB800392ED000AD3ED000A401C30EEEF
:103C9000200A82ED000AA842F0D301EB8504B44269
:103CA000CCD303B0BDEC028BBDE8FF8F0000000059
:103CB0002DE9FF4F04462DED028B83B08B46DDE9E5
:103CC0001550DDE9128A684304EB8006DDF8509058
:103CD0005FEA080006D04FF480624146184600F0C3
:103CE00001FA32E0984630E004EB85079FED1A8A2E
:103CF00007990DE08DED018A5B46424601A8CDF89B
:103D00000090FEF7D1FB9DED010A0146A4EC010AEB
:103D1000BC42EFD30BEB890BBAF1000F15D0A4EB2B
:103D2000850100200DE000BF01EB80020AEB80035B
:103D300092ED000AD3ED000A401C30EE200A82ED1D
:103D4000000AA842F0D301EB8504B442CCD303B0FF
:103D5000BDEC028BBDE8FF8F00000000D3ED021A1E
:103D600093ED000A93ED011AF5EEC01A01EB820300
:103D7000F1EE10FA00EB82002AD2B5EEC01AF1EE95
:103D800010FA11D0001F1B1F8B4220D3D3ED000A65
:103D9000F4EEC00AF1EE10FA03D870EEC00A60EE3D
:103DA000810AC0ED000AEDE79FED161A0BE000BF97
:103DB000D3ED000AF4EEC00AF1EE10FA01D8F0EEED
:103DC000410AC0ED000A001F1B1F8B42F0D2704752
:103DD000001F1B1F8B42FAD3D3ED000AF4EEE10A59
:103DE000F1EE10FA09D8F4EEC00AF1EE10FA06D896
:103DF00070EEC00A60EE810A01E0F0EE610AC0EDEB
:103E0000000AE5E70000000070B5054680690188FA
:103E100009B1426800E00022526832B109B142683B
:103E200000E000225268146800E00024012902D951
:103E300042680C3200E00022526842B1012902D9E6
:103E400040680C3000E000204068066800E0002672
:103E5000E86988B14068012804F108002CD0FFF718
:103E6000B9FD0246E8698368A0698168B069806825
:103E7000BDE87040FFF772BFB0698668A0698568C9
:103E800004F10800FFF7A6FD05EB800106EB8000BA
:103E9000DFED100A0BE000BF91ED000AB5EEC00A9D
:103EA000F1EE10FA01D8B0EE600A80ED000A001FB2
:103EB000091FA942F0D270BDFFF78CFD0246E869E8
:103EC0008368A0698168B0698068BDE87040FEF7CA
:103ED0006FB900000000000013B54FF6FF73012218
:103EE00069460248FDF79AFD00981CBDB007002006
:103EF0000146C0684A698969C068D2680968504348
:103F0000044A1140A1F58022C03A01D1C01DC00869
:103F100070470000FFFF7F012DE9F0410B3020F0DA
:103F20000706104D19E02068B04215D3B0420AD9F7
:103F3000871B201DD4F80480FCF775F9A019C0E98F
:103F40000078286004E060682860201DFCF76BF9A9
:103F5000201D2660BDE8F081251D2C68002CE2D1D3
:103F60000020F7E7F0060020FDF75EF9FDF762FE9E
:103F7000FDF7A6FDFDF7B2FDFDF7CCFD02A0FDF7B4
:103F800093FFFDF7E7FDF9E7E8BE93E585A5302D42
:103F900035E997B4E79A84E6B5AEE782B9E695B01D
:103FA000EFBC9A0D0A00000010B504460A46012134
:103FB0001248FFF75FFBC8B11048104A0168083289
:103FC00001F124009060D0601032001D9060D0603C
:103FD00010329060D06010329160D16010329060E9
:103FE000D060103201209160D16010BD13223021C9
:103FF0002046FFF7C5FC002010BD00006C03002028
:1040000010B504460A4601212348FFF749FBD0B307
:104010002149643101F11002086840F080400860D5
:104020001D4800688860C860116841F080411160D7
:1040300000F128019160D1601032116841F0804197
:10404000116000F150019160D1601032116841F0AF
:104050008041116000F5F0719160D16010321168FB
:1040600041F08041116000F502719160D16002F170
:10407000100100F50C700A68886042F080420A6006
:10408000C860012010BDFFE7122230212046FFF753
:1040900077FC0020F6E700007003002000B58FB029
:1040A0000068FCF7C5FACDE9000109A2322102A897
:1040B000FDF70AFF02A8FCF7DAF882B24FF0FF33EF
:1040C00002A90748FDF7AAFC0FB0002000BD0000C0
:1040D0004F75747075743A20252E34660A000000FE
:1040E000B0070020F0B588420ED0002A0CD083180B
:1040F000814210D999420ED2114403E013F8012DE8
:1041000001F8012D8342F9D8F0BD00BF10F8013B42
:1041100001F8013B521E8B0701D0002AF6D1170986
:1041200011E000BF50F8046B7F1E50F8045B50F89C
:10413000084B50F8043C41F8046B41F8045B41F82B
:10414000084B41F8043C002FECD1C2F3810304E09A
:1041500050F8044B41F8044B5B1E002BF8D102F0E1
:10416000030204E010F8013B01F8013B521E002A53
:10417000F8D1F0BD0400000094010020040000000C
:10418000D4010020040000001802002004000000F8
:1041900058020020040000009C02002000000100E2
:1041A0008406002000000100A0060020010000009D
:1041B0005000000001000000010000004004040065
:1041C000000000000000000000000000500000009F
:1041D00001040000000000000100000034020000A3
:1041E0000100000001000000400404400000000045
:1041F0000000000000000000340200000104000084
:1042000000000000000000000000000000000000AE
:10421000000000000000000000000000000000009E
:10422000D454033F17D3CABD10EA903D03B4F13E06
:1042300000000080D905843F96B8083F35C2A63FEC
:10424000E68056BF47E5363FC82ABEBEA3BAAEBD1C
:10425000F43563BF93B3F1BFC459CEBE452BB3BF92
:10426000D9BA90BD973F0D3F4458E93EA250CBBF0D
:104270003A529E3EFF439BBE3DE79BBE1AA00940BB
:104280009C17C73D0D7F733F24B8873EFD70B2BEBB
:10429000D6E631BE40A09E3FB7D2BBBEA6C348BE45
:1042A0004A80563E9807213DFEB1D0BD7DC1CEBEAD
:1042B000C216083DBAA96E3D3C37E93DF09C12BEDE
:1042C000B4DBFCBDFA9F0B3EB2029CBEEFAD893E53
:1042D0007E479DBE8CCC27BEA6D1A9BDAE650BBEC8
:1042E000000000000C03C8BD9E096BBE24F780BD12
:1042F0008410A3BD4B8F20BEBE4DDCBDF0058F3DAD
:1043000009499DBEA8685A3D1FF9A03E98D346BDF5
:104310006E939D3EA4D29E3CC41BF8BDD88F3B3FFC
:10432000D8BD96BD3AFF593FDCEABB3EFD161F3FA4
:1043300016C886BEFA2C983FB6955A3EE9E232BEC0
:104340001E0B6F3E00F34CBECA041A3EB4FB12BEF5
:104350008DAE853E12857EBE6A89453E987E27BD1C
:104360008BC7703D9E9DD63D32843F3EE0C6793D71
:104370003070F8BC2361E03DB69C64BDD8BF8FBEF1
:104380008D070EBE8F8F45BD7CA4D53E06D507BDDB
:104390005E9E463E3D72603F48024CBE27C36C3F66
:1043A000E175EC3E1BDB143FCE19673E4BC7A43FC3
:1043B000E0F43BBCE883513DDCA090BD1CC5B4BD1E
:1043C000B01A873CEEA695BE290A9C3E447680BE74
:1043D0004B8110BEA9DA9E3ECE8BCC3E43C9B0BD08
:1043E000F8A04E3DC7A95F3FA30D49BE45E7D63EA5
:1043F0006438023F93AD243FC25EAFBD0B01483F1E
:10440000E27595BF6E093ABE7A310D3EEAA787BDC7
:10441000F2C08DBE26552E3EEBA33B3E321D3DBE67
:104420009A001A3E35E6A2BDDB9AA13F7F9011BEED
:10443000F70F35BEF275FABDE0A72F3F381F52BD0A
:10444000358B2DBE1DAA133F63C84CBEBE4FF33E35
:104450006592B3BD000000000100000001000000F3
:10446000010000000100000040108201D40600207D
:104470000000000000000000010000000104000036
:104480000000000001000000010000000100000029
:104490000100000040108201D8060020000000004A
:1044A0000000000001000000010400000000000006
:1044B00000000000000000000102030406070809D4
:1044C0000000000001020304301000000110000091
:1044D00002100000090100000102000001050000B7
:1044E000101000001010000001000000000000008B
:1044F00001000000000000000100000001000000B9
:104500004004040000000000000000000000000063
:10451000000000000104000000000000DECAFAA153
:10452000000000000000000000000000000000008B
:10453000DDDDDDDDDCBBBBDDDDDDDDDDDDDDDDDDF0
:104540009888888888888888777777777788888830
:1045500085555556666666666666666666688888C8
:104560008333333222222222222222222228888DC1
:104570009045000800000020F8060000BC0F00086D
:10458000C8470008F806002000610000B0200008BD
:104590003201320A290829045A04045A2804291C21
:1045A000E92029181A900D2904092240691CA94004
:1045B0006904A91CA9406904092220091A8009621A
:1045C00020093AA0137C051B20980413D4041B2057
:1045D000F0044129288B80010C5A840C32025A883D
:1045E0000C415A900C1A604029488129349AC440E1
:1045F0009AC8349ACC0C5AD00C1A443C29441A9CC0
:10460000809AB8848B04020C5A080C29845A0C0C2A
:10461000415A140C1A28402948A9849A48409A4CB7
:10462000349A500C5A540C1A0C3C29441AB4049A6B
:1046300080849A88449A8C849A90449A98241A3454
:104640001D29082904D4400404391C19131ACC303C
:1046500029205A502809122C391C19131AF82C2910
:104660009C79F012071C20F806AC12039B209818C6
:104670001A40181A24041A401829501A24085A30CB
:104680000C1A3C081A4804792C2C1082091899102D
:104690000B3C010A10092F500A2D6430A96011004B
:1046A000081401C0A1BA0DDFC51DDECAFAA121118F
:1046B0002BDC02F012011A08F832021A54082B48B7
:1046C00006140115540101041B2002081A10081ACF
:1046D000E4303919591C190D391C1A30085AF41CC8
:1046E0001958391C5A401C1A50084B04041C5A0310
:1046F0001C5A601C1A70085A141C190F391C5A8055
:104700001C1A90085A241C5A051C5AA01C1AB008DE
:104710005A74705A061C5AC01C1AD0085A841C5A63
:10472000071C5AE01C1AF0085A941C6A08E05A0147
:10473000E019085AA41C6A09E0591C1A30085AB436
:104740001C6A0AE0591C1A50085AC41C6A0BE0592A
:104750001C1A70081AD41C1B0401C2B113D0051412
:1047600020253A140874413B080785C91C13093EEB
:104770001B087C1C41D40401035AEC3C3A843CD213
:10478000024B0C063C7A8C3CD2011A2820293C1A98
:104790009420291A3250290869041A344F690CCB25
:1047A000400498392C19131A6444291C4B20426484
:1047B000413938191C1A741C818B60070CC1295CA3
:0847C0008210D324F400000074
:040000050800018965
:00000001FF
