:020000040800F2
:10000000F06C0120310200081B150008F1130008F4
:1000100019150008CB060008151A0008000000009A
:100020000000000000000000000000007117000840
:10003000CD060008000000006F17000873170008C5
:100040004B0200084B0200084B0200084B0200085C
:100050004B0200084B0200084B0200084B0200084C
:100060004B0200084B0200084B0200084B0200083C
:100070004B0200084B0200084B0200084B0200082C
:100080004B0200084B0200084B0200084B0200081C
:100090004B0200084B0200084B0200084B0200080C
:1000A0004B020008191800084B0200084B02000818
:1000B0004B0200084B0200084B0200084B020008EC
:1000C0004B0200084B0200084B0200084B020008DC
:1000D0004B0200084B0200084B0200084B020008CC
:1000E0004B0200084B0200084B0200084B020008BC
:1000F0004B0200084B0200084B0200084B020008AC
:100100004B0200084B0200084B0200084B0200089B
:100110004B0200084B020008251800084B0200089B
:100120004B0200084B0200084B0200084B0200087B
:100130004B0200084B0200084B0200084B0200086B
:100140004B0200084B0200084B0200084B0200085B
:100150004B0200084B0200084B0200084B0200084B
:100160004B0200084B0200084B0200084B0200083B
:100170004B0200084B0200084B0200080000000080
:100180004B0200084B02000800F002F800F041F8B2
:100190000AA090E8000C82448344AAF10107DA45E2
:1001A00001D100F036F8AFF2090EBAE80F0013F0F3
:1001B000010F18BFFB1A43F001031847A0690300A1
:1001C000C0690300103A24BF78C878C1FAD8520732
:1001D00024BF30C830C144BF04680C6070470000C1
:1001E0000023002400250026103A28BF78C1FBD840
:1001F000520728BF30C148BF0B607047642900F028
:100200001B81002070471FB52CF0EDFB1FBD10B502
:1002100010BD00F020FA1146FFF7F5FF23F0F8FEBD
:1002200000F03EFA03B4FFF7F2FF03BC00F046FA19
:100230000948804709480047FEE7FEE7FEE7FEE77A
:10024000FEE7FEE7FEE7FEE7FEE7FEE704480549B6
:10025000054A064B7047000009180008890100088C
:10026000F00C0120F06C0120F02C0120F02C01207A
:1002700053EA020C00F069802DE9F04B4FF00006C4
:10028000002B1FBFB3FA83F503FA05F424FA05F631
:100290005E4012BF1643B2FA82F502FA05F4C5F1C8
:1002A00020051EBF22FA05FC44EA0C04203556EA5C
:1002B000044C4FEA144418BF641C4FF000084FF080
:1002C0000009904271EB030C39D3002919BFB1FA30
:1002D00081F701FA07F6B0FA80F700FA07F6C7F1DE
:1002E00020071EBF20FA07FC46EA0C062037B6FBA3
:1002F000F4FCA7EB0507103F07F01F0BCBF120061E
:100300000CFA0BFB2CFA06F644BFB3460026202F4E
:10031000A4BF5E464FF0000B5BEA060C08BF4FF02F
:10032000010B19EB0B09ABFB027C48EB0608C01B69
:1003300006FB02CC0BFB03CC71EB0C01C1E70B46B7
:10034000024641464846BDE8F08B13B54FF0000029
:100350004FF00001AFF30080BDE81C40704710B5BE
:100360004C1084EA530404D54042C1F1000138BF67
:10037000491E1B4204D55242C3F1000338BF5B1E25
:10038000FFF776FF14F0804F04D04042C1F1000126
:1003900038BF491E14F0004F04D05242C3F100038D
:1003A00038BF5B1E10BD00000FB41CB5074B06AA7A
:1003B0007B4469460090059800F035F900206946B5
:1003C00000F044F91CBC5DF814FB00009902000029
:1003D0002DE9F0410E460446002020622046E168E7
:1003E000884730B3252805D0D4E901219047206AF9
:1003F000401CF2E7E168204600278847050018D036
:10040000A5F14100192802D820354FF40067324683
:10041000294620462760FFF7F1FE40B1012804D0AD
:10042000F61D26F007060836D8E7361DD6E728461B
:10043000DAE7206ABDE8F0812DE9F04106460024A4
:1004400010687529314616A510D0AFF3008000283A
:1004500002DA404213A507E031688A0701D512A5E8
:1004600002E0490704D511A5012401E0AFF30080A3
:1004700000210A2206F1240709E0B0FBF2FCB0FBE0
:10048000F2F302FB1C00303078541846491C002857
:10049000F3D123462A463046BDE8F04100F064B867
:1004A000000000002D0000002B00000020000000D4
:1004B00010B5203AC0F00B80B1E81850203AA0E8FF
:1004C0001850B1E81850A0E81850BFF4F5AF5FEA33
:1004D000027C24BFB1E81850A0E8185044BF18C9E6
:1004E00018C0BDE810405FEA827C24BF51F8043B8D
:1004F00040F8043B08BF7047D20728BF31F8023BE1
:1005000048BF11F8012B28BF20F8023B48BF00F874
:10051000012B70474FF0000200B5134694469646F3
:10052000203922BFA0E80C50A0E80C50B1F1200106
:10053000BFF4F7AF090728BFA0E80C5048BF0CC0B4
:100540005DF804EB890028BF40F8042B08BF704712
:1005500048BF20F8022B11F0804F18BF00F8012B84
:1005600070477047704770472DE9F0470D46994630
:100570009246044600F124080168880604D5E06923
:1005800021F01001216000E00120A84201DD471B9D
:1005900000E00027A1697A1902EB0900081AA0619E
:1005A0002078C00602D42046AFF30080002608E081
:1005B000D4E901211AF806009047206A401C761CF5
:1005C00020624E45F4DB2078C0060AD52046AFF302
:1005D000008006E0D4E9012130209047206A401CC9
:1005E0002062381EA7F10107F4DC07E0D4E90121FD
:1005F00018F805009047206A401C2062281EA5F1CB
:100600000105F3DC2046AFF300802078000602D518
:100610000220BDE8F0870120FBE7000001694A1CC9
:1006200002610878704700B58FB0CDE90131002133
:10063000059105497944CDE9031011466846FFF755
:10064000C7FE0FB000BD0000E5FFFFFF0A6802F81B
:10065000010B0A607047754600F02CF8AE460500A5
:100660006946534620F00700854618B020B5FFF7CD
:10067000EDFDBDE820404FF000064FF000074FF0C1
:1006800000084FF0000B21F00701AC46ACE8C009B0
:10069000ACE8C009ACE8C009ACE8C0098D467047B9
:1006A00010B50446AFF300802046BDE81040FFF7C8
:1006B000B9BD000000487047900C01200149182086
:1006C000ABBEFEE7260002007047FEE7704772B639
:1006D000FEE7000070B5044600F010F90546601C06
:1006E00002D004480078044400F008F9401BA042FE
:1006F000FAD370BD080000202DE9F84FDFF8BCA147
:100700000022012503264FF00F090AF1040BAAF17C
:10071000040E00BF0B6805FA02F42340A34270D117
:100720000F7907F00307012F01D0022F16D1876838
:100730004FEA420806FA08FC27EA0C07D1F80CC079
:100740000CFA08FC4CEA070CC0F808C04768A7433D
:100750000C79C4F3001494403C4344600C79E443A6
:10076000A4070AD0C4684FEA420C06FA0CF7BC434F
:100770008F6807FA0CF72743C7600C7904F003046D
:10078000022C12D1D40800EB840CDCF8204057076F
:10079000FF0E09FA07F824EA0804D1F8108008FAD5
:1007A00007F848EA0408CCF8208004684FEA420CB5
:1007B00006FA0CF7BC430F7907F0030707FA0CF7AA
:1007C000274307604C6814F4403F70D03C4C2768C6
:1007D00047F480472760246822F0030704F480442C
:1007E0000094384C07EB040CDCF8084897074FEAF4
:1007F000177809FA08F7BC43334FB84202D10027F3
:1008000024E054E0314FB84201D101271EE0304FBF
:10081000B84201D1022719E02E4FB84201D1032777
:1008200014E02D4FB84201D104270FE02B4FB842FE
:1008300001D105270AE02A4FB84201D1062705E079
:10084000284FB84201D1072700E0082707FA08F728
:100850002743CCF80878DAF800405746D1F804C0AE
:100860009C435FEACC2C00D51C433C60DBF8004085
:100870005F46D1F804C09C435FEA8C2C00D51C4332
:100880003C60DEF800407746D1F804C09C435FEA44
:100890008C3C00D51C433C60084F083F3C68D1F8B5
:1008A00004C09C435FEACC3C00D51C433C60521C16
:1008B000102AFFF42FAFBDE8F88F0000083C01407C
:1008C0004438024000300140000002400004024071
:1008D00000080240000C02400010024000140240D8
:1008E00000180240001C02400069084000D00120AE
:1008F00070470AB1816170470904FBE701488068CD
:100900007047000008000020024881680278114406
:1009100081607047080000200B4810B5016841F461
:1009200000710160016841F480610160016841F477
:1009300080710160032000F095F80F2000F006F8A8
:1009400000F04AF8002010BD003C024030B50546DA
:100950001C4887B00024016841F001010160006873
:1009600006A900F00100009001A800F027F900F0AE
:1009700055F915494000B0FBF1F11548134A491EDD
:10098000026040F2E732C0E90324C0E90114846147
:1009900000F086FB040012D10D4800F0CDFB0400EE
:1009A0000DD1192000F030F8102D07D20022294671
:1009B000192000F037F80748056000E0012407B06F
:1009C000204630BD4438024040420F000000014044
:1009D0005C0100200C0000200A4808B5016841F4C1
:1009E00080410160006800F4804000900548001FCD
:1009F000016841F080510160006800F08050009073
:100A000008BD000044380240002809DB00F01F0246
:100A1000012191404009800000F1E020C0F8001160
:100A200070470000F0B40E4B1B680C46C3F3022362
:100A3000C3F10705042D00D90425191D072901D28A
:100A4000002300E0DB1E012606FA05F1491E2140C5
:100A500099409E40761E16403143F0BC00F0DBBF4B
:100A60000CED00E0064900F0070208684FF6FF03AE
:100A7000184040EA0220034A104308607047000013
:100A80000CED00E00000FA052DE9F0470E460500E8
:100A900065D0DFF81481D8F80000F7B200F0070045
:100AA000B04207D288F80070D8F8000000F00700C4
:100AB000B04254D128683D4C810712D5400703D578
:100AC000206840F4E05020602878000703D52068B3
:100AD00040F4604020602068A96820F0F0000843DE
:100AE00020602878C0072DD030496868083901286F
:100AF00012D0022813D0032811D0096889070029D1
:100B00002DDA216821F0030101432160FFF7F6FE91
:100B1000814641F2883A0EE009688903EFE70968E7
:100B20008901ECE7FFF7EAFEA0EB0901514502D984
:100B30000320BDE8F0872068696800F00C00B0EB86
:100B4000810FEFD1D8F80010404601F00701B14203
:100B500007D90770006800F00700B04201D00120FB
:100B6000E7E72878400705D52068E96820F4E050D9
:100B7000084320602878000706D52068296920F4FA
:100B8000604040EAC100206000F058F82168084A3F
:100B9000C1F30311515CC84006490860064800686B
:100BA000FFF7D4FE0020C4E7003C024008380240B2
:100BB000F0C90208140000200C0000200F2202607F
:100BC0000C4A136803F003034360136803F0F00357
:100BD0008360136803F4E053C36012684FF4E0537A
:100BE00003EAD20202610448006800F007000860CE
:100BF0007047000008380240003C024004480549A4
:100C000000680968044AC1F38221515CC8407047FA
:100C1000140000200838024000CA020804480549B0
:100C200000680968044AC1F34231515CC84070470A
:100C3000140000200838024000CA0208154810B508
:100C4000006810F00C02144813D01449042A0FD085
:100C5000082A0ED10F4C241F2268236802F03F029D
:100C60005B0207D52068C0F38810A0FB010106E0F5
:100C7000084610BD2168C1F38811A1FB00010023C3
:100C8000FFF7F6FA2168C1F30141491C4900B0FBA6
:100C9000F1F010BD083802400024F40040787D01D6
:100CA0002DE9F84F04006ED02078DFF84C93C00790
:100CB000A9F104054AD009F104000168C1F38101DA
:100CC000012908D00068C0F3810002280AD1D9F8B0
:100CD0000000400206D52868800337D560680028E8
:100CE000E1D033E06068B0F5803F10D0B0F5A02FC0
:100CF000286810D020F480302860286820F48020F4
:100D000028606068A8B1FFF7F9FD06460DE0286885
:100D100040F48030F4E740F480202860F7E700BF1B
:100D2000FFF7ECFD801B642873D828688003F7D593
:100D30000CE0FFF7E3FD064605E000BFFFF7DEFD30
:100D4000801B6428F0D828688003F7D42078DFF867
:100D5000AC8280074FF0000A3ED5A748001D01680D
:100D600011F00C0F08D00068C0F3810002280BD1ED
:100D7000D9F80000400207D42868800716D5E0683B
:100D8000012800D112E033E1E068B8B10120C8F8D1
:100D90000000FFF7B3FD064605E000BFFFF7AEFD1C
:100DA000801B0228C0D828688007F7D528682169E9
:100DB00020F0F80040EAC10028600DE0C8F800A06B
:100DC000FFF79CFD064604E0FFF798FD801B022814
:100DD0001FD828688007F7D42078000722D5864FCF
:100DE00087486169703771B101210160FFF786FDA5
:100DF000064604E0FFF782FD801B022809D8386808
:100E00008007F7D50EE0C0F800A0FFF777FD064693
:100E100005E082E0FFF772FD801B02287DD838686C
:100E20008007F7D42078400768D5DFF8CCB10027D9
:100E30000BF13C0BDBF80000C0000BD4DBF800101A
:100E400041F08051CBF80010DBF80000012700F0E2
:100E5000805000906B4E3068C00510D4306840F46C
:100E600080703060FFF74AFD009005E0FFF746FD17
:100E70000099401A022850D83068C005F6D55E4E59
:100E8000A0686C3601280FD00528306810D020F0FB
:100E900001003060306820F004003060A068B8B114
:100EA000FFF72CFD00900FE0306840F00100F4E700
:100EB00040F004003060F7E7FFF720FD0099411A89
:100EC00041F28830814266D830688007F4D50EE060
:100ED000FFF714FD009007E0FFF710FD0099411A9D
:100EE00041F28830814256D830688007F4D42FB15F
:100EF000DBF8001021F08051CBF80010A069C8B3D6
:100F00003D49091D0968C1F3810102294AD002281F
:100F1000504607D0C8F8600000E03CE0FFF7EEFC68
:100F200004463BE04746C8F86000FFF7E7FC06468A
:100F300005E000BFFFF7E2FC801B02282BD82868E1
:100F40008001F7D4D4E907010843A16A2E4A490871
:100F500002EB0141626A41EA8211084394F82C10C5
:100F600040EA0161C9F8001001203866FFF7C6FCAD
:100F7000044606E03EE000BFFFF7C0FC001B02286D
:100F800009D828688001F7D534E000BFFFF7B6FC28
:100F9000001B022802D90320BDE8F88F28688001D1
:100FA000F4D427E00128F7D0D9F80000E26900F472
:100FB000800191421CD1226A00F03F01914217D179
:100FC00047F6C071626A0140B1EB821F10D1A26A7C
:100FD0004FF0FF3300F4403103EB5202B1EB024F0C
:100FE00006D194F82C1000F07060B0EB016F01D0C6
:100FF0000120D1E70020CFE704380240000047423B
:10100000800E4742007000400000FFFF70477047AD
:1010100070B590F83C20012A32D0012480F83C4081
:10102000022280F83D2003685A689D6822F070060D
:101030000A6832435A60134B02689A4214D0B2F1E4
:10104000804F11D0104B9A420ED0104B9A420BD0C9
:101050000F4B9A4208D00F4B9A4205D00E4B9A4242
:1010600002D00E4B9A4204D1496825F080031943FF
:10107000916080F83D40002180F83C10084670BD2A
:10108000022070BD00000140000400400008004044
:10109000000C0040000401400040014000180040E6
:1010A00010B5040003D094F83D0010B107E0012012
:1010B00010BD002084F83C00204600F01FF80220FC
:1010C00084F83D00211D206800F0B2FB012084F867
:1010D000460084F83E0084F83F0084F8400084F81D
:1010E000410084F8420084F8430084F8440084F806
:1010F000450084F83D00002010BD000008B50068E0
:101100000B49884212D10B48016841F0100101607F
:101110000068002200F01000009011463620FFF712
:1011200081FCBDE808403620FFF76EBC08BD00001A
:10113000001000404038024090F83D10012901D0D5
:1011400001207047022180F83D100168CA6842F012
:101150000102CA6000681149884214D0B0F1804F82
:1011600011D00F4988420ED00E4988420BD00E494B
:10117000884208D00D49884205D00D49884202D0E6
:101180000C49884204D1816801F00701062903D087
:10119000016841F00101016000207047000001403A
:1011A0000004004000080040000C00400004014022
:1011B000004001400018004070472DE9F04104460E
:1011C0000068C66805694FF00007A90713D5B10785
:1011D00011D5F91E01610120207720688069800700
:1011E000204602D0FFF7E8FF04E000F07EF820463A
:1011F00000F07CF82777680716D5700714D52168AA
:101200006FF004000861022020772068806910F4E4
:10121000407F204602D0FFF7CFFF04E000F065F8E2
:10122000204600F063F82777280715D5300713D537
:1012300021686FF008000861042020772068C069E9
:101240008007204602D0FFF7B7FF04E000F04DF81A
:10125000204600F04BF82777E80616D5F00614D59F
:1012600021686FF010000861082020772068C069AD
:1012700010F4407F204602D0FFF79EFF04E000F00C
:1012800034F8204600F032F82777E80708D0F00756
:1012900006D021686FF001000861204600F028F8B0
:1012A000280608D5300606D521686FF08000086151
:1012B0002046FFF7ABFE680608D5700606D5216804
:1012C0006FF040000861204600F028F8A8060AD513
:1012D000B00608D521686FF0200008612046BDE8FF
:1012E000F041FFF794BEBDE8F08170477047000001
:1012F00010B5044600680749884201D1FFF704FB96
:1013000005492068884204D1BDE81040012022F040
:1013100023B910BD0000014000100040704770B5B7
:10132000040004D094F84100002510B106E001202B
:1013300070BD84F84050204600F024F8242084F842
:1013400041002068C16821F40051C160204600F0CE
:10135000DBFA2068016921F490410161206841694C
:1013600021F02A0141612068C16841F40051C16047
:101370006564202084F8410084F842006563002001
:1013800070BD000010B586B0044614216846FFF712
:10139000C1F814492068884221D11348002102680D
:1013A00042F010020260006800F0100005900E4844
:1013B0001438026842F001020260006800F0010087
:1013C00005904FF4C06000900220CDE90101032098
:1013D00003900720049069460448FFF78DF906B092
:1013E00010BD0000001001404438024000000240DF
:1013F000FEE7000030B587B014216846FFF78AF891
:1014000022480024016841F010010160016801F0E8
:1014100010010591016841F004010160016801F0CB
:1014200004010591016841F080010160016801F04B
:1014300080010591016841F001010160016801F03E
:1014400001010591016841F0080101600068104D3B
:1014500000F0080005900122C0212846FFF749FA54
:101460001020CDE900040120029069460948FFF7E9
:1014700043F9C02000901120CDE90104022003901F
:1014800069462846FFF738F907B030BD30380240CA
:10149000000C0240001002401CB500240F480094CC
:1014A0000D49019401605321C0E9011440F2E73174
:1014B000C16080218161FFF7F3FD08B1FFF707F9F3
:1014C0000094694605480194FFF7A2FD002801D069
:1014D000FFF7FDF81CBD000000100040CC0000200C
:1014E0000C4810B50A4901604FF4E1314160002118
:1014F00081600C22C160C0E904128161C161FFF703
:101500000EFF002803D0BDE81040FFF7E0B810BD83
:101510000010014014010020FEE7FEE770B5002432
:101520000021204600F0F0F80025002000F00EF920
:101530006D1CEDB2802DF8D3641CE4B2082CEFD3FF
:1015400070BD000070B50446802819D2402917D21A
:10155000CB08012001F00705A8400A4DC90805EB9A
:10156000C115295D0AB1014300E081432955214697
:10157000184600F0C9F8285DBDE8704000F0E6B8F4
:1015800070BD0000A401002010B5064C01224021CE
:101590002046FFF7AEF920460122BDE81040802129
:1015A000FFF7A7B9000C02402DE9F0410024174DC8
:1015B0000746802626FA04F0384201D0012200E0D6
:1015C000002280212846FFF794F901224021284675
:1015D000FFF78FF9012003F052FF00224021284637
:1015E000FFF787F9641CE4B2082CE3D30122402101
:1015F0002846FFF77EF9012003F041FF2846BDE8A9
:10160000F04100224021FFF774B90000000C0240B5
:1016100010B50B4C012280212046FFF76AF9012208
:1016200040212046FFF765F9002280212046FFF780
:1016300060F920460022BDE810404021FFF759B96B
:10164000000C024010B5094C002280212046FFF713
:1016500050F9012240212046FFF74BF92046012294
:10166000BDE810408021FFF744B90000000C0240A3
:1016700010B5FFF789FFAE2000F057F8D52000F035
:1016800054F8802000F051F8A82000F04EF83F20D8
:1016900000F04BF8D32000F048F8002000F045F8A7
:1016A000402000F042F8A12000F03FF8C82000F0F0
:1016B0003CF8DA2000F039F8122000F036F88120EA
:1016C00000F033F8CF2000F030F8D92000F02DF8EA
:1016D000F12000F02AF8DB2000F027F8302000F09D
:1016E00024F8A42000F021F8A62000F01EF88D2098
:1016F00000F01BF8142000F018F8AF2000F015F8E7
:10170000BDE81040FFF70ABF10B50C4640F0B0002E
:1017100000F00BF8102040EA141000F006F804F076
:101720000F00BDE81040AFF3008010B50446FFF78E
:101730006FFF7820FFF738FF0020FFF735FF2046C6
:10174000FFF732FFBDE81040FFF77CBF10B504463D
:10175000FFF75EFF7820FFF727FF4020FFF724FF09
:101760002046FFF721FFBDE81040FFF76BBF704731
:101770007047704730B593B030216846FEF7CAFE17
:1017800014210CA8FEF7C6FE1D480025016841F093
:1017900080510160006800F0805011901948016884
:1017A00041F4804101600068022400F480401190FF
:1017B0000120039010200490009406940820CDE9A5
:1017C0000750A820CDE9090404200B906846FFF7D4
:1017D00067FA08B172B6FEE70CA90F2081E8310064
:1017E0004FF4A0500F904FF48050109005210CA89A
:1017F000FFF74AF9002801D072B6FEE713B030BDFA
:1018000040380240007000400248016841F4700115
:101810000160704788ED00E00148FFF7CEBC000092
:101820005C0100200148FFF7C8BC0000CC0000208C
:10183000F0B50268294C2A4D2A4E2B4F2B4B4FF006
:10184000804CA04209D0604507D0A84205D0B042E4
:1018500003D0B84201D0984204D122F0700E4A68F9
:1018600042EA0E02A0421BD0604519D0A84217D010
:10187000B04215D0B84213D0984211D01C4DA842A6
:101880000ED01C4DA8420BD01B4DA84208D01B4DBA
:10189000A84205D01A4DA84202D01A4DA84203D141
:1018A00022F44075CA682A434D6922F080022A4317
:1018B00002608A68C2620A688262A04201D09842CD
:1018C00001D109690163012141610169C90703D09F
:1018D000016921F001010161F0BD0000000001403B
:1018E0000004004000080040000C004000040140DB
:1018F0000040014000440140004801400018004001
:10190000001C00400020004070B5044600680169DA
:10191000E26821F44051114301612169A068E26944
:1019200008436169114308432168CA6849F20C639E
:101930009A430243CA6020684169A26921F4407158
:101940001143416131492068884202D030498842C0
:1019500002D1FFF763F901E0FFF750F9E2690023D4
:10196000192164253226B2F5004F626828D0A0FB09
:101970000101930F9200FEF77BFC0146B0FBF5F0EE
:101980006FF01802504301EB800006EB0010B0FB33
:10199000F5F000F0F002B1FBF5F002EB0012B1FB44
:1019A000F5F06FF01803584301EB800006EB0010D0
:1019B000B0FBF5F000F00F0021681044886070BDA6
:1019C000A0FB010192185B41FEF752FC0146B0FBFF
:1019D000F5F00201B1FBF5F06FF01803584301EB8D
:1019E000800006EBC000B0FBF5F000F0F80002EB61
:1019F0004002B1FBF5F0584301EB800006EBC0005C
:101A0000B0FBF5F000F00700D6E700000010014041
:101A100000140140FEE70907090E002804DB00F16D
:101A2000E02080F80014704700F00F0000F1E02083
:101A300080F8141D704770B5044600256FF02F061E
:101A400008E02068411C2160007805EB850106EB69
:101A5000410145182068007800F02CF80028F0D1EA
:101A6000284670BD70B514460D461BB9114611F0DD
:101A7000BDFA034603FB05F0142C0ED0E11F032929
:101A80000AD8072C0DD0082C0DD0092C0DD00A2C0B
:101A90000DD0002100EB810070BD590801FB05004D
:101AA00070BD0221F6E70421F4E71021F2E74FF4BC
:101AB0008071EFE73038092801D8012070470020F5
:101AC00070472DE9FC5F9B460CAB8A468146DDE9F9
:101AD000116093E81210DDE90F575FEA80784FF04C
:101AE00030031AD45EB15FEAC07808D000F00C0869
:101AF00058EA0C0803D0761E01E00B55641CBC426A
:101B000004D2202CF9D301E00B55641C5FEAC078A5
:101B100003D0B44201D2202CF6D35FEAC06825D5A9
:101B20005FEA40580AD44CB1BC4201D0B44205D15E
:101B3000641E03D0102D03D1641E04E0102D02D0CA
:101B4000022D0AD00EE0850603D4202C1ED2782563
:101B500006E0202C1AD2582502E0202C16D262254D
:101B60000D55641C202C11D20B55641C202C0DD259
:101B7000BCF1000F01D02D2306E0430701D52B2334
:101B800002E0030702D520230B55641CCDE900BAFF
:101B9000C846154681468B46AA46800714D127467B
:101BA00007E02A46DDE900316D1C2020C446E047ED
:101BB0007F1CB742F5D307E02A466D1C641EDDE9A1
:101BC00000311BF80400C047002CF5D15FEA897092
:101BD00006D409E02A46DDE900316D1C2020C0470B
:101BE000A5EB0A00B042F5D32846BDE8FC9F2DE9DD
:101BF000F04F8FB099468B46DDE91818DDE91C637C
:101C0000DDE91A4792468646002209B923F01003FF
:101C1000580507AD00D5C9B1B1FBF4F004FB1010B5
:101C2000C0B20A2801D2303009E05FEA836C02D5E5
:101C30004FF0410C01E04FF0610C60440A38B1FBF9
:101C4000F4F1A854521C09B1202AE5D3CDF808803C
:101C5000CDE90563CDE90052CDE903474B46524635
:101C600059467046FFF72DFF0FB0BDE8F08F2DE904
:101C7000FF4F8FB01CACDDE9239594E8030820AC3E
:101C800094E8C004002450EA010201D125F01005B7
:101C90006A050DF11C0802D550EA010217D0324640
:101CA0003B46FEF7E5FAD2B20A2A01D2303206E00C
:101CB000AB0601D5412300E061231A440A3A08F833
:101CC0000420641C50EA010201D0202CE7D3CDE9A6
:101CD0000084CDF808B0CDE90595CDE9036A0FAFD2
:101CE00097E80F00FFF7EDFE13B0BDE8F08F9A42C2
:101CF00000D288547047704770B50D46040011D06B
:101D00008DB100F0C0FE00280BD0616800690EF0B4
:101D1000A9FF0646E16B28468847E1680844E06071
:101D2000304670BDFEE7FEE72DE9FF4114460E4642
:101D300005460A461F4621466846DDF828800DF014
:101D4000B4FC00281AD0019861682268411A0098F2
:101D500008FB0151821A551831683844441A684604
:101D60000DF091FC002107E0625C6B5C1A44FF2AD5
:101D700000D9FF226254491C8142F5D3BDE8FF819E
:101D800010B502004FF000000CD04B1E194200D0DD
:101D9000FEE70A44521E9A43B2F5803F02D20C2A53
:101DA00001D9104610BD0C2010BD00002DE9F04FE8
:101DB000064691B0D6E90170804696F821B03568A4
:101DC000F0680F90D6E906400E90D6E904A009907D
:101DD0000AA80FF0ABFF96F8220008B10020C9E076
:101DE000BAF1000F05D0BBF1FD0F4FF0000066D235
:101DF0008DE0BBF1FD0F4FF0000017D21CE0002674
:101E00000CE000BF04EB460005EB46010088ADF88E
:101E100004000AAA01980FF0E7FC761CBE42F1DB31
:101E20000F9805440E98044409F10100814640458D
:101E3000E5DB11B0BDE8F08F81464045F9DA0026B8
:101E400013E000BF04EB46000088ADF804009DF8E5
:101E5000051011FB0BF0000A8DF8050005EB46019B
:101E60000AAA01980FF0C0FC761CBE42EADB0F986C
:101E700005440E98044409F10100DDE7002614E052
:101E800004EB46000088ADF808009DF809101AF828
:101E9000060011FB00F0000A8DF8090005EB460171
:101EA0000AAA02980FF0A0FC761CBE42E8DB0F984D
:101EB000099905440E988A44044409F101008146B9
:101EC0004045DBDBB5E7002617E000BF04EB46002A
:101ED0000088ADF808009DF809101AF8060011FBFB
:101EE00000F101FB0BF1080C8DF8090005EB460130
:101EF0000AAA02980FF078FC761CBE42E6DB0F9827
:101F0000099905440E988A44044409F10100814668
:101F10004045D8DB8DE700201EE000BF04EB490000
:101F2000BAF1000F0088ADF8080027D09DF809200D
:101F30001AF8090012FB00F101FB0BF15FEA1140F6
:101F40008DF8090096F8222005EB49000AAB0299AA
:101F500001F092FD09F101008146B842DEDBBAF1E1
:101F6000000F01D009998A440F9805440E98044443
:101F70000398401C03904045CDDB5AE79DF80910BB
:101F800011FB0BF0000ADBE72DE9F04F064695B098
:101F9000D6E90170804696F821B03568F0680E9059
:101FA000D6E906400C90D6E904900A9096F82200F3
:101FB00020B110A80FF0CEFE0020D0E0B9F1000F44
:101FC00005D0BBF1FD0F4FF0000064D289E0BBF1FA
:101FD000FD0F4FF0000019D21EE000BF4FF00009C6
:101FE0004E460BE004EB460005EB8901427814F8FD
:101FF00016000FF04AFD09F10109761CBE42F1DB23
:102000000E9805440C9804440AF1010082464045AC
:10201000E4DB15B0BDE8F08F82464045F9DA4FF0B9
:1020200000094E460FE000BF04EB4600417811FB6B
:102030000BF0020A05EB890114F816000FF025FDDC
:1020400009F10109761CBE42EEDB0E9805440C989E
:1020500004440AF10100DFE74FF0000A564610E0A1
:1020600004EB4600417819F8060011FB00F0020A63
:1020700005EB8A0114F816000FF007FD0AF1010ABA
:10208000761CBE42ECDB0E980A9905440C988944F4
:1020900004440BF1010083464045DDDBB9E700BF96
:1020A0004FF0000A564612E004EB4600417819F85A
:1020B000060011FB00F000FB0BF0020C05EB8A019F
:1020C00014F816000FF0E1FC0AF1010A761CBE427A
:1020D000EADB0E980A9905440C9889440444059853
:1020E000401C05904045DBDB93E70020039028E08F
:1020F00014F81A100298B9F1000F61F3174061F358
:102100000F2061F3070004EB4A012CD0039A4B78AF
:1021100019F8021013FB01F101FB0BF15FEA114109
:1021200061F31F600290039896F8222005EB80006F
:1021300010AB029901F0C6FC0398401C03900AF111
:1021400001008246B842D3DBB9F1000F01D00A98F2
:1021500081440E9805440C9804440598401C059051
:102160004045C2DB55E74A7812FB0BF1090AD7E775
:102170002DE9F04F054687B0D5E9016790F821B009
:1021800000680090E8680290D5E906400390D5E920
:1021900004900490686AC11700EB517121F00701A7
:1021A000A0EB010A95F8220008B1002029E1B9F15D
:1021B000000F05D0BBF1FD0F4FF0000070D2E2E040
:1021C000BBF1FD0F4FF000002ED233E04FF00008BE
:1021D00045461FE008EB0A018B46009807F0ADFB6F
:1021E000C0EB00208DF8040004EB450001A9427803
:1021F00014F815000FF066FC9DF8040059467F287E
:10220000009802D926F070FB01E002F01CFF08F1F3
:1022100001086D1CB542DDDB02990098084400906E
:102220000398044409F101008146B842CEDB07B0AF
:10223000BDE8F08F8146B842F9DA4FF00008454614
:1022400023E000BF08EB0A010191009807F075FB3D
:10225000C0EB00208DF8100004EB4500417811FB25
:102260000BF0020A14F8150004A90FF02BFC9DF8DE
:1022700010007F28DDE9000102D926F035FB01E0DE
:1022800002F0E1FE08F101086D1CB542DADB0099AD
:102290000298084400900398044409F10100C9E73A
:1022A00035E000BF4FF00008454624E008EB0A0186
:1022B0000191009807F041FBC0EB00208DF814005D
:1022C00004EB4500417819F8050011FB00F0020A03
:1022D00014F8150005A90FF0F5FB9DF814007F28F0
:1022E000DDE9000102D926F0FFFA01E002F0ABFEC1
:1022F00008F101086D1CB542D8DB0299009808442A
:10230000009003980499044489440BF1010083462A
:10231000B842C7DB8BE700BF4FF00008454626E018
:1023200008EB0A010191009807F007FBC0EB0020C1
:102330008DF8140004EB4500417819F8050011FBF5
:1023400000F101FB0BF10A0C14F8150005A90FF0C0
:10235000B9FB9DF814007F28DDE9000102D926F0C1
:10236000C3FA01E002F06FFE08F101086D1CB542EE
:10237000D6DB02990098084400900398049904441D
:1023800006988944401C0690B842C5DB4FE7002000
:10239000059026E014F818100198B9F1000F61F3C8
:1023A000174061F30F2061F3070004EB48012CD0C4
:1023B0004B7819F8081013FB01F101FB0BF1090C24
:1023C00061F31F600190059895F8223000EB0A0137
:1023D000DDE9000201F0C9FB0598401C059008F1F9
:1023E00001008046B042D5DBB9F1000F01D004995D
:1023F0008944009902980844009003980444069880
:10240000401C0690B842C2DB11E74A7812FB0BF180
:10241000090AD5E72DE9F04F064691B0D6E90170DB
:10242000804696F821B03568F0680F90D6E90640EE
:102430000D90D6E904900B9096F8220008B1002088
:10244000C7E0B9F1000F05D0BBF1FD0F4FF0000060
:1024500063D288E0BBF1FD0F4FF0000018D21DE001
:102460004FF000094E460BE004EB460005EB090176
:10247000427814F816000FF033FB09F10109761CBD
:10248000BE42F1DB0F9805440D9804440AF10100A7
:1024900082464045E4DB11B0BDE8F08F82464045FE
:1024A000F9DA4FF000094E460FE000BF04EB46009A
:1024B000417811FB0BF0020A05EB090114F8160034
:1024C0000FF00EFB09F10109761CBE42EEDB0F98FE
:1024D00005440D9804440AF10100DFE74FF0000ABB
:1024E000564610E004EB4600417819F8060011FB4F
:1024F00000F0020A05EB0A0114F816000FF0F0FADA
:102500000AF1010A761CBE42ECDB0F980B990544D8
:102510000D98894404440BF1010083464045DDDBFE
:10252000B9E700BF4FF0000A564612E004EB460040
:10253000417819F8060011FB00F101FB0BF10A0CC0
:1025400005EB0A0114F816000FF0CAFA0AF1010AA5
:10255000761CBE42EADB0F980B9905440D9889441E
:1025600004440498401C04904045DBDB93E70020C2
:10257000039020E014F81A100098B9F1000F61F3ED
:10258000174061F30F2061F3070026D0039A19F872
:10259000022012FB0BF1090A61F31F6000900398FF
:1025A00096F822202844009901F018FB0398401C5B
:1025B00003900AF101008246B842DBDBB9F1000F5B
:1025C00001D00B9881440F9805440D980444049859
:1025D000401C04904045CADB5DE76BF31F60DDE7FC
:1025E0002DE9F04F804687B0D8E90170814698F810
:1025F00021B0D8F80040D8F80C000290D8E9065075
:102600000190D8E904A0039098F8220008B10020B6
:1026100032E1BAF1000F05D0BBF1FD0F4FF0000021
:1026200067D28CE0BBF1FD0F4FF000001AD21FE023
:102630000026B0460EE000BF05EB480034F8161047
:10264000427815F818000FF0D5F924F8160008F1B3
:102650000108761CBE42EFDB029804440198054451
:102660000AF1010082464845E2DB07B0BDE8F08F81
:1026700082464845F9DA0026B04610E005EB4800EE
:10268000417811FB0BF0020A34F8161015F8180007
:102690000FF0B0F924F8160008F10108761CBE42CC
:1026A000ECDB02980444019805440AF10100DFE7DD
:1026B0000026B04613E000BF05EB480041781AF849
:1026C000060011FB00F0020A34F8161015F8180085
:1026D0000FF090F924F8160008F10108761CBE42AC
:1026E000EADB02980399044401988A4405440BF1FB
:1026F000010083464845DBDBB7E70026B04614E01F
:1027000005EB48001AF80610407810FB01F101FBB8
:102710000BF10A0C34F8161015F818000FF06AF9CE
:1027200024F8160008F10108761CBE42E8DB029886
:102730000399044401988A4405440098401C009081
:102740004845DADB91E7002630460096049485E0A0
:1027500015F8101098F82220C8088908012A1DD001
:10276000022A4AD0032A80D1049A32F81620D30ACA
:1027700013FB00F34FEA531C4FF6FF7303EACC231D
:10278000C2F3451C1CFB01F1890903EB411102F066
:102790001F0212FB00F001EB50101BE0049A32F80C
:1027A000162000EBD2231F2B00D31F234FF6FF7CF4
:1027B0000CEAC323C2F3451C61443F2900D33F21E7
:1027C00002F01F0203EB4111104489B21F2800D30D
:1027D0001F20084480B2BAF1000F2BD01AF806204F
:1027E000BBF1FD0F30D2009905EB4101497812FB96
:1027F00001F101FB0BF10A0C26E0049A32F81620D5
:10280000C0EBD223002B00DC00234FF6FF7C0CEA48
:10281000C323C2F3451CACEB0101002900DC0021FD
:1028200002F01F0203EB4111101A89B20028D0DC1C
:102830000020CEE70099BBF1FD0F05EB41014A787E
:1028400002D212FB0BF10A0A34F816100EF0AEFF9A
:1028500024F816000098001D761C0090BE42FFF67A
:1028600077AF0298BAF1000F04440198054401D0F3
:1028700003998A440598401C05904845FFF663AFCC
:10288000F3E600002DE9F34F064685B0D6E9017066
:10289000804696F821B03568F0680190D6E9064088
:1028A0000090D6E90490039096F8220008B1002029
:1028B000CAE0B9F1000F05D0BBF1FD0F4FF00000E9
:1028C00063D288E0BBF1FD0F4FF0000018D21DE08D
:1028D0004FF000094E460BE004EB460005EB090102
:1028E000427814F816000FF0B5F80698761C81446B
:1028F000BE42F1DB01980544009804440AF101004E
:1029000082464045E4DB07B0BDE8F08F8246404593
:10291000F9DA4FF000094E460FE000BF04EB460025
:10292000417811FB0BF0020A05EB090114F81600BF
:102930000FF090F80698761C8144BE42EEDB0198B9
:102940000544009804440AF10100DFE74FF0000A53
:10295000564610E004EB4600417819F8060011FBDA
:1029600000F0020A05EB0A0114F816000FF072F8E5
:102970000698761C8244BE42ECDB0198039905441C
:102980000098894404440BF1010083464045DDDB97
:10299000B9E700BF4FF0000A564612E004EB4600CC
:1029A000417819F8060011FB00F000FB0BF0020C57
:1029B00005EB0A0114F816000FF04CF80699761C86
:1029C0008A44BE42EADB0198039905440098894491
:1029D00004440298401C02904045DBDB93E7002052
:1029E000029023E014F81A00B9F1000F60F3070118
:1029F00060F30F2160F3174104EB4A0029D04378BC
:102A0000029819F8000013FB00F000FB0BF0000C1B
:102A100060F31F61029896F82220284401F004F91F
:102A200006990298084402900AF101008246B842D1
:102A3000D8DBB9F1000F01D003998944019805440E
:102A4000009804440498401C014604904045C6DBAD
:102A500059E7427812FB0BF0000AD9E708444A1EF6
:102A6000401E9043114200D0FEE7704710B5402051
:102A700018F038FF040005D04022002119F063F857
:102A8000204610BDFEE72DE9FC410D4604002AD08A
:102A900055B304F1240080461DF03BFE009008B3BE
:102AA0000769616838460EF0DDF806462946384663
:102AB000626818F08DFF04F1300018F038FE0190C4
:102AC00098B10422694618F083FF2046009907F068
:102AD00035FB042201A918F07BFF214630466268CD
:102AE0000EF0D0F807E0FEE7FEE7404600991DF043
:102AF000DAFD002000900098BDE8FC812DE9F0414E
:102B00000F460121002504462E46C16309E01A49FB
:102B10001EF046FE08B16D1C02E0E06B401CE06355
:102B2000761C57F8260010B101780029EFD1A06B70
:102B3000A8421FD0206B002610B115F005FC2663BB
:102B4000606B10B115F000FC6663280118F0CAFE36
:102B5000206338B1680018F0C5FE606318B1216BBE
:102B600011B102E0FEE7FEE700256A00002118F03F
:102B7000EAFFA563BDE8F081B007010870B504461F
:102B800090F85400E26BC107616C04D121B14B1C79
:102B900018D0491E6164A9B90AB1C10712D02146F3
:102BA000164818F069FE00F02BF8216909B120469B
:102BB0008847616909B1204688472046BDE87040D2
:102BC00015F0C2BBD4E90C1500238D4200DD6B1A51
:102BD000256C5B1B6363002A0FD0C30702D1A36B74
:102BE0005B426363431C63F3000084F85400E36AB0
:102BF000606A6362E163C4E90B0270BD500B01209F
:102C000010B50A4C012084F8A40004F1AC0018F0BF
:102C100069FD0028D4F8A80003D0BDE8104020F0DA
:102C2000FDBDBDE8104020F0E7BD0000A40A012072
:102C30002DE9F047414D95F8A50038B15FF000004F
:102C400085F8A5003D48AC3081466BE00120F7E7F0
:102C5000206D20F06BFC616B0844606320F06CFC1D
:102C60002065002085F8A40094F8540095F8A5107C
:102C7000C0F340028A425BD061F3410084F8540003
:102C800041071ED4616B002948DB000709D4A16904
:102C900039B120468847616A01446162E16A0844AB
:102CA000E062204622F038FEE16809B120468847FC
:102CB00094F8540040F0040084F85400204622F0B8
:102CC0004BFD606B002829DB216B8046884200DDCC
:102CD0006163216A2046676B8847A16A0646B14254
:102CE0000DD0A662626812B131462068904795F80F
:102CF000A40020B9A26812B1314620469047606B0B
:102D0000B84201D1C4F8348095F8A40048B9D4E998
:102D10000C0181420CDB2046FFF730FF95F8A40040
:102D200030B1484618F0DEFC040091D1BDE8F087D0
:102D30002146484618F0E8FCF6E70000A40A012006
:102D400070B5044640680D4608B1FFF7F9FF2268E8
:102D5000002A04D029462046BDE87040104770BDC7
:102D600070B50D6806460C46286838B1296AC90254
:102D700004D5206021463046FFF7F2FF2146304659
:102D80002560BDE87040FFF7DBBF0CF04BBA0CF0DC
:102D90008FBA00002DE9F04F064691B0D6E90170D8
:102DA000814696F8210008903568F0680F90D6E9C2
:102DB00006400E90D6E904B00A900BA80EF0B6FFBC
:102DC00096F8220008B10020DFE00898BBF1000F60
:102DD00004D0FD284FF0000076D29FE0FD284FF090
:102DE000000021D226E000BF4FF0000814E000BF31
:102DF00004EB880BDBF800000EF0C4FC60F3070660
:102E00009BF80310304661F30F2005EB48010BAA35
:102E10000EF0EAFC08F10108B845E9DB0F9805441B
:102E20000E9804440AF1010082464845DCDB11B0EB
:102E3000BDE8F08F82464845F9DA002617E000BF6A
:102E400004EB860BDBF800000EF09CFC60F3070837
:102E50009BF80310089811FB00F0010A404661F34B
:102E60000F2005EB46010BAA0EF0BEFC761CBE42FD
:102E7000E6DB0F9805440E9804440AF10100D9E7F7
:102E8000002617E004EB8601079108680EF07AFC33
:102E9000079960F307084046CA781BF8061012FB32
:102EA00001F1090A61F30F2005EB46010BAA0EF0B0
:102EB0009BFC761CBE42E5DB0F980A9905440E98F0
:102EC0008B4404440AF1010082464845D8DBAEE752
:102ED000002619E004EB8600079000680EF052FC13
:102EE00060F307080798C1781BF8060011FB00F093
:102EF00008990BAA4843010C404661F30F2005EBEB
:102F000046010EF071FC761CBE42E3DB0F980A9975
:102F100005440E988B4404440AF10100824648455A
:102F2000D6DB84E7002022E004EB8A0002900068F0
:102F30000EF028FC414660F307010298BBF1000F38
:102F4000C07860F30F2124D01BF80A2010FB02F098
:102F5000089A50435FEA104060F30F2196F8222050
:102F600005EB4A000BAB00F087FD0AF10100824639
:102F7000B842D9DBBBF1000F01D00A998B440F98FE
:102F800005440E9804440398401C03904845C9DB4F
:102F90004DE7089A10FB02F0000ADDE72DE9F04F3B
:102FA000064693B0D6E90170804696F821B03568A0
:102FB000F0681190D6E906401090D6E904A00B9075
:102FC0000CA80EF0C7FE96F8220008B10020C4E05D
:102FD000BAF1000F05D0BBF1FD0F4FF0000066D233
:102FE0008DE0BBF1FD0F4FF0000018D21DE0002670
:102FF0000DE000BF05EB860A04EB8600DAF800104E
:1030000000680CAA0EF0AFFCCAF80000761CBE42A5
:10301000F0DB119805441098044409F10100814641
:103020004045E4DB13B0BDE8F08F81464045F9DA56
:10303000002612E004EB86000068020E12FB0BF182
:10304000090A05EB860A61F31F60DAF800100CAA82
:103050000EF089FCCAF80000761CBE42EADB11982B
:1030600005441098044409F10100DEE7002614E04D
:1030700004EB86001AF806100068020E12FB01F13C
:10308000090A05EB860B61F31F60DBF800100CAA40
:103090000EF069FCCBF80000761CBE42E8DB11980C
:1030A0000B99054410988A44044409F101008146B3
:1030B0004045DBDBB6E7002617E000BF04EB8600E7
:1030C0001AF806100068020E12FB01F101FB0BF169
:1030D000090C61F31F6005EB8601079109680CAAD2
:1030E0000EF041FC0799761C0860BE42E6DB1198A1
:1030F0000B99054410988A44044409F10100814663
:103100004045D8DB8EE7002019E000BF04EB8900C2
:10311000BAF1000F016824D01AF809000B0E13FB56
:1031200000F202FB0BF2100C60F31F6196F82220F4
:1031300005EB89000CAB00F0C5FC09F101008146EC
:10314000B842E3DBBAF1000F01D00B998A44119821
:103150000544109804440398401C03904045D2DB7A
:1031600060E70A0E12FB0BF0000ADDE72DE9F04FD5
:10317000054689B0D5E9016790F821B00068009054
:10318000E8680290D5E906400390D5E904900490E0
:10319000686AC11700EB517121F00701A0EB010A29
:1031A00095F8220008B100201BE1B9F1000F05D00D
:1031B000BBF1FD0F4FF0000071D2E3E0BBF1FD0F5A
:1031C0004FF000002FD234E0002522E004EB850B05
:1031D000DBF800000EF0D6FA05EB0A0104908946F0
:1031E000009806F0AAFBC0EB00208DF804009BF8C5
:1031F000032001A904980EF065FC9DF804004946DF
:103200007F28009802D925F06FFB01E001F01BFF39
:103210006D1CB542DADB00990298084400900398CF
:10322000044408F101008046B842CDDB09B0BDE896
:10323000F08F8046B842F9DA002525E004EB8500DE
:10324000059000680EF09EFA05EB0A01049089468D
:10325000009806F072FBC0EB00208DF80400059882
:10326000C17811FB0BF0020A01A904980EF02AFCA8
:103270009DF8040049467F28009802D925F034FBC8
:1032800001E001F0E0FE6D1CB542D7DB0299009829
:10329000084400900398044408F10100C9E735E0B0
:1032A000002527E004EB8500069000680EF06AFA1E
:1032B00005EB0A0105908B46009806F03EFBC0EB3B
:1032C00000208DF80400069819F80510C07811FB4D
:1032D00000F0020A01A905980EF0F4FB9DF8040025
:1032E00059467F28009802D925F0FEFA01E001F046
:1032F000AAFE6D1CB542D5DB0299009808440090E7
:10330000039804990444894408F101008046B842B6
:10331000C6DB8BE7002529E004EB850007900068F9
:103320000EF030FA05EB0A0101910690009806F0C4
:1033300004FBC0EB00208DF81400079819F8051065
:10334000C07811FB00F000FB0BF0020C05A90698F9
:103350000EF0B8FB9DF814007F28DDE9000102D9CA
:1033600025F0C2FA01E001F06EFE6D1CB542D3DB20
:1033700002990098084400900398049904448944F1
:1033800008F101008046B842C4DB4FE7002018E096
:1033900004EB8800B9F1000F026826D019F8080084
:1033A000130E13FB00F000FB0BF0000C60F31F6228
:1033B00095F8223008EB0A01009800F0D6FB08F1DE
:1033C00001008046B042E3DBB9F1000F01D004995F
:1033D0008944029900980844009003980444019895
:1033E000401C0190B842D1DB20E7110E11FB0BF01D
:1033F000000ADBE72DE9F04F06468FB0D6E90170F1
:10340000804696F821B03568F0680D90D6E9064000
:103410000C90D6E904A0089096F8220008B100208C
:10342000B6E0BAF1000F05D0BBF1FD0F4FF0000080
:103430005DD280E0BBF1FD0F4FF0000016D21BE023
:1034400000260BE004EB860ADAF800000EF09AF989
:103450009AF80320A9190EF043FB761CBE42F1DB5B
:103460000D9805440C98044409F10100814640453B
:10347000E6DB0FB0BDE8F08F81464045F9DA002663
:103480000FE000BF04EB860ADAF800000EF07AF9CC
:103490009AF8032012FB0BF10A0AA9190EF020FB7F
:1034A000761CBE42EEDB0D9805440C98044409F1ED
:1034B0000100E1E7002610E004EB860BDBF80000DA
:1034C0000EF060F99BF803201AF8061012FB01F1C8
:1034D0000A0AA9190EF004FB761CBE42ECDB0D981B
:1034E000089905440C988A44044409F10100814676
:1034F0004045DFDBBDE7002613E000BF04EB86019B
:10350000069108680EF03EF90699CA781AF8061076
:1035100012FB01F101FB0BF10A0CA9190EF0E0FA04
:10352000761CBE42EADB0D98089905440C988A4443
:10353000044409F1010081464045DCDB99E70020A5
:1035400018E000BF04EB8900BAF1000F016823D036
:103550001AF809000B0E13FB00F000FB0BF0000C37
:1035600060F31F6196F8222005EB090000F036FB9E
:1035700009F101008146B842E4DBBAF1000F01D045
:1035800008998A440D9805440C9804440298401CFC
:1035900002904045D3DB6CE70A0E12FB0BF0000AE9
:1035A000DEE700002DE9F04F804687B0D8E90170D2
:1035B000814698F821B0D8F80040D8F80C00029065
:1035C000D8E906500190D8E904A0039098F82200A9
:1035D00008B100203AE1BAF1000F05D0BBF1FD0FB0
:1035E0004FF0000061D284E0BBF1FD0F4FF000000E
:1035F00018D21DE00026B0460CE000BF05EB080025
:1036000034F81610C2780EF04FF924F8160008F1BD
:103610000408761CBE42F1DB02980444019805447C
:103620000AF1010082464845E4DB07B0BDE8F08FAF
:1036300082464845F9DA0026B0460EE005EB080060
:10364000C27812FB0BF10A0A34F816100EF02CF9AE
:1036500024F8160008F10408761CBE42EEDB02983E
:103660000444019805440AF10100E1E70026B04650
:1036700011E000BF05EB08001AF80610C27812FB33
:1036800001F10A0A34F816100EF00EF924F81600AB
:1036900008F10408761CBE42ECDB0298039904444E
:1036A00001988A4405440BF1010083464845DDDB5F
:1036B000BBE70026B04612E005EB08001AF806202A
:1036C000C17811FB02F101FB0BF10A0C34F8161062
:1036D0000EF0EAF824F8160008F10408761CBE4241
:1036E000EADB029804440198054403988244009858
:1036F000401C00904845DCDB97E7002600960494C8
:1037000096E000BF98F82200012822D0022857D066
:1037100003288AD1049800996A1830F81600917825
:10372000C30AC90813FB01F149095278C902C0F361
:103730004513920813FB02F2920901EB421100F0CB
:103740001F020098285CC00812FB00F001EB50102B
:1037500024E0049800996A1830F816009178C30A9A
:1037600003EBD1011F2900D31F214FF6FF7303EA9A
:10377000C1215278C0F3451303EB92023F2A00D3D4
:103780003F2201EB421100F01F02009889B2285C31
:1037900002EBD0001F2800D31F20084480B2BAF1EA
:1037A000000F32D01AF80620BBF1FD0F36D2009977
:1037B0002944C97812FB01F101FB0BF10A0C2DE041
:1037C0000498009A2A4430F816009378C10AA1EBB5
:1037D000D301002900DC00214FF6FF7303EAC12367
:1037E0005278C0F34511A1EB9201002900DC0021C1
:1037F00000F01F02009803EB411189B2285CA2EB94
:10380000D0000028C9DC0020C7E70099BBF1FD0FFC
:103810002944CA7802D212FB0BF10A0A34F81610B6
:103820000DF0C4FF24F816000098001D761C0090CF
:10383000BE42FFF667AF0298BAF1000F0444019848
:10384000054401D0039882440598401C05904845E2
:10385000FFF653AFE9E600002DE9F34F064685B0C9
:10386000D6E90170804696F821B03568F06801907D
:10387000D6E906400090D6E90490039096F822001D
:1038800008B10020BCE0B9F1000F05D0BBF1FD0F7D
:103890004FF000005DD280E0BBF1FD0F4FF0000063
:1038A00016D21BE04FF000094E4609E004EB8600FB
:1038B00005EB0901C2780EF030F80699761C8944B0
:1038C000BE42F3DB01980544009804440AF101006C
:1038D00082464045E6DB07B0BDE8F08F82464045B2
:1038E000F9DA4FF000094E460DE000BF04EB860008
:1038F000C27812FB0BF10A0A05EB09010EF00DF874
:103900000699761C8944BE42F0DB01980544009874
:1039100004440AF10100E1E74FF0000A56460EE0C8
:1039200004EB860019F80610C27812FB01F10A0AAE
:1039300005EB0A010DF0F1FF0699761C8A44BE42A0
:10394000EEDB0198039905440098894404440BF187
:10395000010083464045DFDBBDE700BF4FF0000AB2
:10396000564610E004EB860019F80610C27812FBE8
:1039700001F101FB0BF10A0C05EB0A010DF0CDFF83
:103980000699761C8A44BE42ECDB019803990544F3
:103990000098894404440298401C02904045DDDBB5
:1039A00099E7002002901DE004EB8A00B9F1000FB6
:1039B000016829D0029A0B0E19F8020013FB00F0DF
:1039C00000FB0BF05FEA104060F31F61029896F86D
:1039D0002220284400F028F9069902980844029011
:1039E0000AF101008246B842DEDBB9F1000F01D0D6
:1039F0000399894401980544009804440498401CA4
:103A000004904045CDDB66E70A0E12FB0BF0000A7E
:103A1000DAE7000010B5416C96B0044601B3684681
:103A20000AF02CFF214668460AF0BFFF0F4968469E
:103A30000AF0A5FF6846616C0AF099FF0122002197
:103A400068460AF0ACFF0A4968460AF09AFF09493D
:103A500068460AF085FF68460AF0C8FF16B010BD38
:103A600016B0BDE8104020F057BE00009D47020888
:103A700041E900089F47020830B415460A4601464E
:103A8000D4B2012D08D0022D14D0032D18D10D78F9
:103A900015FB04F4240A04E00D782C44FF2C00D319
:103AA000FF2464F30700120A62F30F2030BC1A46A9
:103AB0000DF09ABE0D782C1B002CF2DC0024F0E7F0
:103AC00030BC70472DE9F04117460446C1F3074664
:103AD000C1F30725CAB2012F14D0022F31D0032F12
:103AE0002DD1A77817FB06F6360A66F317406678DD
:103AF00016FB05F52D0A65F30F20257815FB02F25C
:103B0000120A12E0A7783E44FF2E00D3FF2666F388
:103B1000174066783544FF2D00D3FF2565F30F204D
:103B200025782A44FF2A00D3FF2262F30700090EFA
:103B300061F31F6021681A460DF015FF2060BDE893
:103B4000F081A778BE1B002E00DC002666F317402C
:103B50006678751B002D00DC002565F30F202578A5
:103B6000AA1A002AE1DC0022DFE72DE9F8438046AB
:103B70001F460E46154610460DF004FE044631461B
:103B8000404605F0DAFEC0EB0020C0B28DF8000020
:103B9000012F15D0022F19D0032F0FD110FB04F0E5
:103BA000C0F307202A0E69460DF08CFF9DF8000037
:103BB00031467F2840460ED924F096FEBDE8F883B2
:103BC0002044FF2800DBFF20C0B2EBE7001B0028E9
:103BD000FADC0020F8E701F036FAEFE770B50446AA
:103BE00016460D4608460DF0CDFD012E0ED0022ED4
:103BF00013D0032E17D1217811FB00F0C0F307205A
:103C00002A0E2146BDE870400DF06ABF21780844B5
:103C1000FF2800DBFF20C0B2F2E72178081A002855
:103C2000F9DC0020F7E770BD38B500230093CDB272
:103C3000C1F30724C1F30743012A14D0022A2DD06F
:103C4000032A2AD1027812FB05F2120A8DF800200D
:103C5000427812FB04F2120A8DF80120827812FBDE
:103C600003F2120A12E002782A44FF2A00D3FF224C
:103C70008DF8002042782244FF2A00D3FF228DF8DD
:103C8000012082781A44FF2A00D3FF228DF80220F7
:103C90000A0E014668460DF040FE38BD0278521B00
:103CA000002A00DC00228DF800204278121B002A36
:103CB00000DC00228DF801208278D21A002AE5DC8F
:103CC0000022E3E710B50446406882080AD049683C
:103CD00021F00301091D08446060204600F042F80D
:103CE000204610BDFEE74068103120F003008842F6
:103CF00001D301207047002070472DE9FC4705469D
:103D000048680C4620F0030001AA694620F0F1F94A
:103D1000DDE9007005EBC71101EB80098046D9F899
:103D20003C0060B164B1C4E9020504F10806C46056
:103D300030460421FEF792FE864202D0FEE7FEE7FF
:103D4000FEE7C9F83C400120296900FA07F2114357
:103D5000296105EB870100FA08F04A6902434A61CC
:103D6000BDE8FC8710B5044600F087F8046010BD7C
:103D70002DE9FC4706464FF000000D000090074675
:103D8000019042D00C46E9460DF10408802907D382
:103D9000084627F01FFB411F01208840401E0444B5
:103DA00042464946204620F0A4F9009C0A2C2CDA11
:103DB00006EB8400019A40694FF0FF3101FA02F2EC
:103DC00010400CD1641C3069A14008401DD027F080
:103DD000F9FA0446009006EB8000406978B127F0BC
:103DE000F1FA034606EBC411019001EB8000C76BAA
:103DF0005FB1786820F00300A84201D2FEE7FEE739
:103E000039463046009A21F0E3FC3846BDE8FC878D
:103E100010B50446FFF7A6FF416841F0020141607A
:103E2000606840F00100606010BD10B5044600F00D
:103E300024F8416821F002014160606820F001002F
:103E4000606010BD70B506460D46084600F015F8D6
:103E5000040010D02079C0070BD0686880080BD010
:103E60002146304600F03CF821462846FFF72AFF5D
:103E70000546284670BDFEE7FEE7426800F10801EE
:103E800022F00300001F0844910800D1FEE77047AC
:103E900070B506460C004FF000001ED0F2B120793C
:103EA0001546C0071BD011462046FFF71CFF78B10E
:103EB0002946204600F025F805462046FFF752FF28
:103EC0006868294640F0020068603046FFF715FF39
:103ED0002046FFF7AAFF04F1080070BDFEE7FEE7E9
:103EE0007CB5054648680C4620F0030001AA6946E7
:103EF00020F0FFF8DDE900232146284621F068FC88
:103F00007CBD2DE9F0410D46044600F10801281F53
:103F10000E18606806F1080720F00300401BA0F1AE
:103F2000040838460421FEF799FD874200D0FEE7D9
:103F3000606820F0030108EB0500001D814200D0FD
:103F4000FEE7307900F0030040EA0800706020F0DE
:103F500003000C2800D2FEE7207900F0030028437C
:103F600060603046FFF754FF3046BDE8F081000046
:103F70007CB5044613F02CFF0546204613F082FF63
:103F80000446012D0ED1084808A14268521C426027
:103F90006846FCF709FA0021204618F0DCFF694664
:103FA00017F09CF87CBD0000000000202564000094
:103FB00038B5044615F008FB054615F0F0FC00285E
:103FC000204605D0616C21641AF0A5FC012038BDA3
:103FD00013F0E6FC002820461ED013F091FBD4E934
:103FE000100181420CD06064206C00906A4623214D
:103FF00020461BF046FD0128E9D120461AF08BFC33
:10400000284615F0DBFC0428E0D1204619F07FF8A3
:10401000002114F07FFDD9E713F020FDD6E700283A
:1040200002D0C01C20F00300704714F08DB9C01CF2
:1040300017F058BC2DE9F04100240D4626460B4FE1
:10404000DFF82C8000E024B910214046FCF74CFC3E
:1040500040B1641CE4B2022CF5D3AE743878E86049
:10406000BDE8F0810120A8743E70F7E71C00002035
:10407000001002402DE9F041044600681546134641
:10408000476A0E4600222046B84701280FD100207B
:10409000BDE8F0812946204600F013F80028F7D04B
:1040A00020682B460022476A31462046B84702283E
:1040B000F0D020682A46314603692046BDE8F04129
:1040C000184770B5044600680E46026A20469047BD
:1040D000050010D02068324629464369204698479B
:1040E00028460CF0BAFDA2693146904728460CF0EC
:1040F000ABFD012070BD002070BD000010B504466E
:1041000040680CF0B7FD01462046BDE81040024B68
:10411000042216F000B800001D41000870B51546D5
:1041200006460C0015D0216806F1300091B117F059
:10413000EBFA206000280BD000687168046908461B
:104140000CF098FD02462146284617F041FC01205C
:1041500070BDFEE717F0C6FAEBE72DE9F04F0C460D
:1041600085B00546002118F0F6FE58B321462846D2
:1041700000F08CFA2146284600F068F80021284615
:1041800019F0F1FD83460021284619F040FE049005
:104190000021284619F0B5FC01281BD0002700217A
:1041A000284619F0C1FF80460021284619F033FD4A
:1041B0006FF040490646C8450ED1688D00050BD406
:1041C00001200AE005B02046BDE8F04F2022002182
:1041D00017F0B9BC0127E2E700208046284618F016
:1041E00058FF824628460021822219F03AFEC2B2C8
:1041F0002369A1682068CDE90031CDE902075B465B
:104200004146504606F0F0FAA0614E4504D1688D53
:10421000400501D4012600E00026284618F028FFBA
:10422000074628460021832219F01BFEC2B26069AE
:1042300000256368E1688DE82B0031463846049B11
:1042400006F0D2FAE06105B0BDE8F08F2DE9F34F3A
:1042500081B00C46019805F04EFD06004FF00008B5
:104260001ED1019818F0A8FF05F045FD070074D095
:10427000019805F044FD8146019805F044FD804613
:104280008500281D17F02EFB06462A4607EB8901FC
:1042900017F09EFB6FF0604146F828104FF00108C0
:1042A000019818F0F6FE8346304600F06BFF20615F
:1042B000800017F017FB20602069800017F012FBC8
:1042C0000025DFF82CA1A06038E056F82510DFF8B3
:1042D0002491514531D100271FE03946019818F04B
:1042E0003AFE4549009019F0F3FFA8B9009805F08F
:1042F0000AFD012810D1009805F001FDA8420BD15C
:10430000009819F098FF4946484501DA084602E04E
:10431000009819F090FF81467F1C019818F05AFE12
:10432000B842DAD8B9F1000F03DBA16841F8259053
:1043300003E0A168002041F825006D1C2069A84217
:10434000C3D8DFF8AC90002509F10109C9F10003D9
:1043500052462F4628469A4614E046E056F820106A
:10436000494503DB6B1803EB0A050AE0914204D1CF
:10437000A16851F820100F4403E0A3680F4443F8EC
:104380002010401C21698142E8D80021019819F0D1
:10439000EAFC2169C1F1010200FB02B0C01B00D59B
:1043A0000020002114E000BF56F821204A450EDB12
:1043B00002EB0A0300FB03F205EBD57702EB670281
:1043C00092FBF5F2A768ED1A801A47F82120491CE4
:1043D00022698A4201D9002DE6D1B8F1000F04D03C
:1043E0003046BDE8FE4F13F0AFBFBDE8FE8F0000C2
:1043F0009AFFFF1F010000E0010006002DE9FC5FAD
:10440000054619F029F88346A86808B100214162E1
:104410000021284619F0E5FD01900021284619F0F9
:1044200053FD8246284619F027FB014601982E4C81
:10443000014401EB0A07284618F0CCFD804600260F
:1044400039E0A868DFF8A0902849006850F82600F5
:10445000009019F03DFF68BB00981AF0BDFAE0BB70
:104460000021009819F02CFBB8B3012836D002289F
:1044700034D0032832D00021009819F061FE60B9D1
:10448000009814300BF0F0F8019900EB01090021BD
:10449000009819F0F6FB484481460021009819F075
:1044A000D5FB4844A04205DB0021009819F0CEFB63
:1044B00000EB0904761C4645C3D3A86810B1CBF1C4
:1044C000000141626FF06040C44203D004EB0A0077
:1044D000B84200DA3846BDE8FC9FFFE70098A969BA
:1044E000006A401A401CD7E7010000E00100040008
:1044F0002DE9FE4F054618F0A9FF0290A86808B103
:10450000002101620021284619F03CFD00900021A5
:10451000284619F008FD8346284619F0BBFA00EB3F
:104520000B010098DFF85C9101EB00084C4628462F
:1045300018F050FD07460021284619F0D0FA01284E
:104540004FF0000645D082E0A868CA464E49006890
:1045500050F82600019019F0BBFEC8BB01981AF074
:104560003BFA20B10198E9694069081A14E000217A
:10457000019819F0A5FA58B1032809D0062807D0E8
:10458000082805D00021019819F0D7FD30B112E0BC
:104590000199E8694969401A401C0BE00198143000
:1045A0000BF071F8009900EB010A0021019819F055
:1045B00056FB504482460021019819F050FB5044AC
:1045C000A04205DB0021019819F049FB00EB0A0429
:1045D000761CBE42B8D34C453FD05C443DE0A86851
:1045E000CA462949006850F82600019019F070FE6B
:1045F00060BB01981AF0F0F9E0BB0021019819F0B6
:104600005FFAB8B3012836D0042834D0072832D056
:104610000021019819F091FD58B9019814300BF060
:1046200032F800EB0B0A0021019819F021FB5044ED
:1046300082460021019819F01BFB5044A04205DB83
:104640000021019819F014FB00EB0A04761CBE420D
:10465000C5D34C4501D000980444A86810B1029914
:10466000494201624C45404602D0444500DD2046A7
:10467000BDE8FE8FFFE701986969C069401A401CD8
:10468000D6E70000010000E0010004002DE9F34F2F
:1046900081B00C46019805F0EAFE06004FF00008D4
:1046A0001ED1019818F088FD05F0E1FE070072D0D8
:1046B000019805F054FF8146019805F054FF8046AB
:1046C0008500281D17F00EF906462A4607EB8901DA
:1046D00017F07EF96FF0604146F828104FF001089E
:1046E000304600F04FFD6061800017F0FBF860601D
:1046F0006069800017F0F6F80025DFF838A1E06067
:104700003AE056F82500DFF83091504533D10027C4
:10471000DFF828B11FE03946019818F01CFC594613
:10472000009019F0D5FDA8B9009805F01CFF0128EC
:1047300010D1009805F013FFA8420BD1009818F093
:10474000EBFC4946484501DA084602E0009818F0BB
:10475000E3FC81467F1C019818F03CFCB842DAD893
:10476000B9F1000F03DBE16841F8259003E0E1684F
:10477000002041F825006D1C6069A842C1D8DFF80F
:10478000B490002509F10109C9F1000352462F46F2
:1047900028469A4614E04AE056F82010494503DBC3
:1047A0006B1803EB0A050AE0914204D1E16851F865
:1047B00020100F4403E0E3680F4443F82010401C2E
:1047C00061698142E8D80021019819F020FB8346F5
:1047D000019818F04DFC01466069C0F101020BFB25
:1047E0000210C01B00D50020002113E056F8212044
:1047F0004A450EDB02EB0A0300FB03F205EBD5771B
:1048000002EB670292FBF5F2E768ED1A801A47F8AF
:104810002120491C62698A4201D9002DE6D1B8F1F4
:10482000000F04D03046BDE8FE4F13F08DBDBDE84B
:10483000FE8F00009AFFFF1F010000E0010006004C
:1048400070B5044600216E2219F00BFBD8B9204642
:1048500000216C2219F005FB4FF48075A84212D19B
:10486000204600216D2219F0FCFAA8420BD1204607
:104870000021712219F0F5FA28B920460021722290
:1048800019F0EFFA08B1022070BD20460021602225
:1048900019F0E7FAC0B2FF280DD12046002173229B
:1048A00019F0DFFA38B920460021672219F0D9FA49
:1048B00010F0FF00E8D0012070BDF8B51D46174686
:1048C0000446DDE90860DDE9062302290FD003294B
:1048D0000CD10090294638461DF09AFF0546304617
:1048E0000AF0D1FE401B216808442060F8BD00900A
:1048F000294638461DF08CFF054630460AF0C3FEB7
:1049000000EBD071491005EBD570A1EB6000EAE730
:104910002DE9FF4F95B0C878269CC0070D460028AA
:1049200001D0FE4800E0FE48099001D0FD4800E0BB
:10493000FD480F9001D1FB4800E0FB48109001D0EA
:10494000FA4800E0FA48039001D0FA4800E0FA483B
:10495000069001D1F54800E0F548059001D1F548F1
:1049600000E0F5484FF01409049069E0D4E9011221
:104970004FF0000BA1EB0203584659464FF00C0EC6
:104980000FE000BF01EB4102266909EBC20C16F8EB
:104990000CC05FEACC7C08D00EEBC202B2589B1A66
:1049A000491C8F42EED8002144E04FF0100C0CEB74
:1049B000C202B2581044F3E701EB4106276909EB44
:1049C000C60A17F80A20D20733D1E8B34FF0100C0B
:1049D00093FBF0F20CEBC60CCDF848C057F80C80F6
:1049E0004FF0080C08FB02F804220CEBC60C02EB9B
:1049F000C60257F80CC0BA58CDF820C0C44500DD37
:104A0000C446624503DC089A424500DD4246424501
:104A100004D04FF0010C47F80AC0E346D4F810C0A8
:104A20000EEBC6064CF806202769129EBE59801B65
:104A30009B1A491C62698A42BED8BBF1000F02D0A2
:104A40006769002F92D100E028E00021159819F045
:104A500052F8012823D00021002088460D900E90A6
:104A60000EA90DA8CDE900012878E36862682499B1
:104A70001FF07BFDE87810EA080F05D0159818F0B4
:104A800008FB0D9908440D901799159818F063FAD2
:104A90000646DFF8A8926FF0704B3AE1FEE701217D
:104AA000DAE7A749304619F013FC00287AD1002133
:104AB000304619F0A4F8E8B30027384661690FE0E2
:104AC000226900EB400352F83320B24207D100EBD9
:104AD00040020C20216900EBC2000F5802E0401C8C
:104AE0008142EDD8E878C007708D04D020F4806052
:104AF00040F4006003E020F4006040F480607085C2
:104B000006F114000F9982468847B84224D03046F7
:104B100019F001FF70691190B0691290F06913905B
:104B2000306A1490099A39465046904711AA3121AB
:104B3000304600E00CE01AF0A4FF304618F03CFBD1
:104B400032462A211AF09DFF304619F0E4FE03E0B8
:104B5000708D20F4406070856878012823D0022889
:104B600004D0059A00213046904727E0109906F1BD
:104B7000140088472168059A491C21F00101081A90
:104B800000EBD0704FEA600A00213046904707469C
:104B9000049A002130469047381A00EBD0710AEB96
:104BA00061000BE0ADE0109906F114008847216820
:104BB000049A0F1A002130469047381A0790E87877
:104BC00010EA080F06D00F9906F1140088470D99D6
:104BD000081A0D90304600216A2219F042F9074662
:104BE000304600216B2219F03CF98246304619F01C
:104BF00022FB0C90304618F08FFA0146C7F3417043
:104C000001280DD127F0C040484509DCB0F1805F94
:104C100001DBABEB00000C9A5043642290FBF2F7EF
:104C2000CAF3417001280CD12AF0C040484508DC85
:104C3000B0F1805F01DBABEB00004843642190FBE7
:104C4000F1FA71692298401A0744B1692398411A10
:104C500001EB0A000190E878C00706D0039A002112
:104C6000304690470D99084400E0079800EB070A8A
:104C7000E878C00701D0079805E0039A0021304684
:104C800090470D990844019947185AEA070019D02E
:104C9000304619F040FE716901EB0A007061F1695C
:104CA00001EB0A00F061B0693844B061306A384401
:104CB0003062304619F02FFE00233A465146304606
:104CC00019F0D2FEE87810EA080F14D10F9906F116
:104CD000140088472599039A08440E994718002123
:104CE000304690470744069A0021304690470D9978
:104CF0003844084404E00E99259808440D99081A90
:104D00000D90E87817AAC0F38001159805F08EFA87
:104D10000646002E19D0DDE9170113E063F90008FB
:104D200059F9000887F6000869F6000865DC0108F3
:104D300089DC010877DC010853DC0108FEFFFF1F56
:104D40000100060088427FF4ACAE19B0BDE8F08FD8
:104D50002DE9F04F91B00E0005463AD0AE612868BB
:104D600008B113F0F1FA06EB4601062000EB410012
:104D700016F0B8FD286018B3022101EB460101448A
:104D8000E960042101EB86010144C5E9010101212B
:104D90000024012E15D03001103016F0C7FDA346B7
:104DA000B100CDE9051B8246C1F1010700EBC60049
:104DB000891000F108095C46CDF834B0099196E0FD
:104DC000FEE7B4220270E8680480E8684180A868C1
:104DD000048011B0BDE8F08F4FF00008002F05DC13
:104DE0000699032000EB4100074408E0DDE90501D6
:104DF0000A1A052101EB4201401E0F440590069856
:104E0000401C069005A800F0DAF870B1059809ABCF
:104E100082100DA943F8282000F0030041F8280073
:104E200008F10108B8F1040FD8DBB8F1040F64D120
:104E30000C99099888420AD14AF8240049F824B00C
:104E4000DDE90D010144DDE90F02104418E00A9983
:104E5000884218D04AF8240049F824B069680D98AF
:104E600008556968000108550998641C401E4AF8F5
:104E7000240049F824B0DDE90E0101441098001D1A
:104E8000084469682CE00B994AF82400884249F8E4
:104E900024B0DDE90D01084411D06968085569683E
:104EA000000108550998641C401E4AF8240049F87E
:104EB00024B0DDE90F0108440830696810E00F995B
:104EC0000844696808556968000108550998641C18
:104ED000401E4AF8240049F824B0109869680C3044
:104EE0000BF1010B0855696800010855641C05A801
:104EF00000F065F800287FF46FAF0AEB840140F200
:104F0000D320464351F8041CB012814205D109EB6D
:104F1000840151F8041C814219D0A6EB8021B1F51F
:104F2000007F03DC494341F3CF3106E0C1F58061E6
:104F3000494341F3CF31C1F10F014AF8240049F848
:104F4000240068680155686809010155641CA01EA9
:104F50000DE000BF59F820204AF824205AF82020FC
:104F600049F8242069680A5C0A55401E641C002820
:104F7000F0DAEB680021084619801AE0EA6822F8A6
:104F80001100AB683AF8202023F811200AE0AB6842
:104F90005AF8202033F81160964200DA324623F89E
:104FA0001120401C59F820208A4201D1A042EEDB9A
:104FB000491CA042E2DB504613F0C6F909E703C8DA
:104FC000814201DC012070470020704710B5044683
:104FD000007DC10708D1800706D5204600F005F8FE
:104FE000207D20F00200207510BD2DE9F04781469C
:104FF0000AF01DFD002507462C4616E021464846CE
:105000000AF0B4FC0646294648460AF0AFFC804642
:10501000306803F09AFF18B1306813F095F903E097
:1050200031686D1CC8F80010641CBC42E6D32DB179
:1050300029464846BDE8F0470AF0E4BC4846BDE8CA
:10504000F0470AF09FBCCA1701EB527200EBE20076
:1050500022F00702891AC1F1070203780121914069
:105060008B43037070470120704700007CB50446F5
:1050700012F0B2FE0646204612F0AAFE0546304661
:1050800018F09AF80446332D23D00E2D4DD114F08C
:105090009BFA10B1007A012847D06946304618F0D3
:1050A000EDF894F8300010F00C0F30461BD017F0DC
:1050B000F0FF05460021204618F03BFD012800982E
:1050C00005EBD5710CD000EB610000BF90FBF5F54E
:1050D00012E0E16A02B00022BDE870401DF0DAB8CB
:1050E000C0EB6100F2E717F0C3FF019900EBD0724B
:1050F00001EB620191FBF0F5002D00DA0025E06A7A
:105100000026A84200D0012614F05EFA08B1012260
:1051100000E00022294620461DF0BCF8002E04D0F5
:105120000022232120461AF0ACFC7CBD30B50028BB
:1051300022DA8B1A002B00DC531A64225343C0F38B
:105140000901B3FBF1F1C0F30953C0F38922C0F3A5
:10515000095000EB800003EB83034000B1EB430FE9
:1051600001D20C4600E0044602EB8205B4EB450F89
:1051700003D202EB8200400030BDB1EB430FFBD203
:10518000084630BD014600206FF0604200E0401C40
:1051900051F820309342FAD170471FB5044690F879
:1051A000640000F00100884225D094F8640011B139
:1051B00040F0010001E020F0010084F8640004F1F7
:1051C000500168460AF0DCF9E06A0099426911442E
:1051D00000910199806908440190E06A0299406950
:1051E00008440290E06A0399806908440390694684
:1051F000204619F0ABFB1FBD08B5084611460CF060
:1052000098FC0090BDF800009DF8021040EA0140B3
:1052100008BD00002DE9FC5F088C0C46C0F3072098
:105220008F6C0CF0A7FC8146208D636A81B2CA00A6
:10523000B2FBF9F0072202EBC002D6081A0C01FB00
:1052400002FA02FB00F599B20E23364800960DF0E3
:10525000C7FC060007D0206AD6F81080000C0007B3
:1052600004D5386A18E00020BDE8FC9F207C0128A6
:1052700001D080B115E001A80090534642460C21B0
:10528000386804F0F6FA10B90199514509D0304652
:105290000DF0E7FCE7E7E06852460169404616F08A
:1052A00097FB208CC0F307200E2837D008EB0A00AC
:1052B000A0F1010B08EB0500A0F1010A012000FAA2
:1052C00009F0401E002100F0FF0E0B4624E000BF55
:1052D0009BF800004A46C84010EA0E000FD08046F6
:1052E0000AE000BFC2F1080C00FA0CFC4CEA080C02
:1052F0004A440CF0FF08D2B2082AF3D340468AF899
:10530000000001EB0900C1B2082902D30021ABF172
:10531000010BAAF1010A5B1CAB42D9D3FE6101204B
:10532000E662A1E79C0B01202DE9FC478F6C086A1F
:105330000E46D7F800A0C0F307254FF48079072D5B
:105340000DD0082D0DD0092D0DD00A2D0DD0002126
:1053500089008846C0F3C04048B1386A28E002217D
:10536000F6E70421F4E71021F2E74946F0E7307C44
:10537000012801D0D8B115E0084616F0B3FA0400B0
:1053800009D001A80090434622460C21504604F063
:1053900070FA20B900E0FEE70199414505D02046AA
:1053A00012F0D2FF0020BDE8FC877C6001E0F068CD
:1053B00004693463072D09D0082D09D0092D09D0BF
:1053C0000A2D09D0002070630120ECE70220FAE7E3
:1053D0000420F8E71020F6E74846F4E72DE9F0430B
:1053E0000024DDE90759D617072808D0082810D06F
:1053F000092819D00A2821D00020BDE8F08302EB4B
:10540000567405EBE40502F007020120C2F107041F
:1054100016E002EB9674022005EBA40502F00302ED
:105420000624A4EB42040BE002EBD274042005EB4B
:10543000640502F00102A0EB820401E0082015449B
:1054400001228240521E1FFA82FC0026C0F108028F
:1054500011E02F7809EB8608E74007EA0C0701EB1B
:105460008707241A3F6864B2C8F80070002C01DA7C
:1054700014466D1C761C9E42EBDB0120BDE701B596
:1054800000E000BF0098411E0091FAD208BD10B1A3
:105490000268D2691047FEE770B5054612F098FC25
:1054A0000446284612F0EEFC382C07D1D0F804034D
:1054B000002803D0BDE870401EF0B0B970BD0000F8
:1054C0002DE9F0418046184817460E46007830B363
:1054D000756821E034681BE004EBC510C11700EBD0
:1054E0005172D11022F00702801AC0B2795CC0F16B
:1054F0000700C14001F00102402C03D42946A4F169
:10550000400002E0691E04F14000FCF71BF8641C37
:10551000B068A042E0DA6D1CF068A842DADA4046D2
:10552000BDE8F0410CF0E2BD180000202DE9F0418B
:105530000446C0690E4610B10020BDE8F08101228A
:10554000002130460DF08CFE05004FF0FF3716D0DD
:1055500030460EF06FFB90B10220A86405F13800D0
:10556000E561C4E90160204603F040FDE1690320E4
:1055700088640020E0610DF013FE0120DDE738466D
:10558000DBE7414302EBA121414303EBA12141436E
:10559000881270477CB504461BF0A4FE94F8A01056
:1055A00004F12C0541F0010184F8A010F8B10128A4
:1055B0001DD002281DD114F007F8694614F0D2F965
:1055C0000322694620461AF015FE0021204618F0F5
:1055D0009EFA01280ED00026204607F0D9FE01468B
:1055E00094F84C000E40B04206D0012205E0C4F809
:1055F0009C507CBD0126EFE7002204F1380089B3FE
:10560000009902B3D4F884209142F0DBE26F91421A
:105610003ADC626FE16F009B891A01EBD17102EBFA
:105620006102D11A002900DC991AD4F88460D4F8F8
:105630008C20921B02EBD27206EB6206F21A002A51
:105640004ADC9A1B48E0D4F88C209142CFDC626F90
:10565000914219DBDDE700BF44F89C5F207920F020
:10566000020006E007E000BF44F89C0F207940F0FC
:10567000020020717CBD01994AB1D4F8902091427A
:10568000B5DCA26F91420ADAC4F89C007CBDD4F864
:1056900088209142ABDBD4F880209142F4DCD4F82E
:1056A0008020A16F521A02EBD27201EB62020199C3
:1056B000511A002901DC0199891AD4F89030D4F8E4
:1056C00088209B1A03EBD37302EB6303019A9A1AA7
:1056D000002A01DC019AD21A8A42C5DABCE72DE918
:1056E000FF4FB7B0154637981F460C468268DDF865
:1056F0001081469E1DA809F0D8FF00287DD01DA866
:1057000009F0C1FF1C9005A82C22002116F01BFAFD
:105710001C9816F0E7F803900B900020219022903F
:10572000239001234246294624A811F0EBFA24A82D
:105730002190002F07DD00233A4621462DA811F0C5
:10574000E1FA2DA8229010A805900D90BDF8140143
:10575000ADF829009DF816018DF82B008DF8286012
:105760002068C1192868814200DD08461890A068A9
:10577000A968C01B884200DB08461A906068C119FE
:105780006868814200DD08461990E068C11BE8683E
:10579000814200DA08461B9018A809F074FF61687E
:1057A0006A68914201DC012100E000218946E1683C
:1057B000EA68914201DB012100E000218A4621686C
:1057C0002A68914201DC012600E00026A168AA684F
:1057D000914201DB012200E00022904606EA080126
:1057E00001EA09014FF0010B11EA0A0F03D0322838
:1057F00001DA4FF0000B012000E030E18DF83000BD
:1058000019EA0B0F0CD0189810901A981290606833
:105810001190686805A9401E139037980FF019FA87
:105820001AEA0B0F0CD0189810901A981290E8688A
:1058300005A9401C1190E068139037980FF009FA01
:105840002968A868814205DB96B1B8F1000F02D043
:10585000206812E066B120681090286805A9401EF3
:105860001290199811901B98139037980FF0F1F936
:10587000B8F1000F0CD0A868401C1090A0681290DE
:10588000199811901B98139005A937980FF0E1F91A
:105890001D98BBF1000F109006D018981F9A411E5A
:1058A0008A423EDA10463DE01F98129068686168AF
:1058B000401AB84200DA3846814600252EE060687A
:1058C0004619E068A0EB05081E98B04202DD209959
:1058D000414522DBFF211C9A039816F034F91C98ED
:1058E0000090334621A8109A039911F0F1F88DF831
:1058F00030001E98B04205DC119605A91396379822
:105900000FF0A7F92099414507DBCDF8448005A9A0
:10591000CDF84C8037980FF09CF96D1C4D45CEDBCF
:1059200092E0401E129010A809F0ADFE051E39DD70
:1059300056EA090019D01E9C14E011942A46FF2152
:105940001394039816F0FFF80095234621A8109AA7
:10595000039911F0BDF88DF8300005A937980FF0C4
:1059600078F9641C1998A042E7DC56EA0A0619D0B7
:105970001B9C13E011942A46FF211394039816F000
:10598000E2F80095234621A8109A039911F0A0F897
:105990008DF8300005A937980FF05BF92098641C4A
:1059A000A042E7DA12991D98491C884201DD0146A0
:1059B00001E01299491C10911A99491C884201DC96
:1059C0001A98401C10901F98129010A809F05BFEC6
:1059D000051E39DD58EA090019D01E9C14E0119407
:1059E0002A46FF211394039816F0ADF8009523463C
:1059F00021A8109A039911F06BF88DF8300005A9D1
:105A000037980FF026F9641C1998A042E7DC58EA91
:105A10000A0019D01B9C13E011942A46FF2113940D
:105A2000039816F090F80095234621A8109A039940
:105A300011F04EF88DF8300005A937980FF009F9EC
:105A40002098641CA042E7DA24A811F07FF8002F08
:105A500002DD2DA811F07AF8039812F075FC3BB026
:105A6000BDE8F08F2DE9FF4794B015460C468246FD
:105A700004A82C220021209E16F065F8CDF810D045
:105A8000BDF85C00ADF825009DF85E008DF827009C
:105A90008DF8246060686968884201DC012700E0B5
:105AA0000027E068E968884201DB012600E0002663
:105AB00020682968884201DC012100E00021894634
:105AC000A168AA68914201DB012100E00021009059
:105AD000A06802906068019068688846401E039044
