:020000040800F2
:10000000C07000200D020008AB1400086F1000083B
:10001000A91400086F050008BD15000800000000C5
:10002000000000000000000000000000AF14000805
:100030007105000800000000AD140008B1140008AC
:1000400027020008270200082702000827020008EC
:1000500027020008270200082702000827020008DC
:1000600027020008270200082702000827020008CC
:1000700027020008270200082702000827020008BC
:1000800027020008270200082702000827020008AC
:10009000270200082702000827020008270200089C
:1000A000270200082702000827020008270200088C
:1000B000270200082702000827020008270200087C
:1000C000270200082702000827020008270200086C
:1000D000270200082702000827020008270200085C
:1000E000270200082702000827020008270200084C
:1000F000270200082702000827020008270200083C
:10010000270200082702000827020008270200082B
:10011000270200082702000815150008270200081A
:10012000270200082702000827020008270200080B
:1001300000F002F800F05AF80AA090E8000C82449F
:100140008344AAF10107DA4501D100F04FF8AFF27C
:10015000090EBAE80F0013F0010F18BFFB1A43F0A5
:1001600001031847A4DD0200C4DD02000A444FF079
:10017000000C10F8013B13F0070408BF10F8014B06
:100180001D1108BF10F8015B641E05D010F8016B4B
:10019000641E01F8016BF9D113F0080F1EBF10F8AF
:1001A000014BAD1C0C1B09D16D1E58BF01F801CBD2
:1001B000FAD505E014F8016B01F8016B6D1EF9D555
:1001C0009142D6D37047000000230024002500266A
:1001D000103A28BF78C1FBD8520728BF30C148BFAA
:1001E0000B6070471FB51FBD10B510BD00F085F93D
:1001F0001146FFF7F7FF20F027FC00F0A3F903B446
:10020000FFF7F2FF03BC00F0ABF90000094880479C
:1002100009480047FEE7FEE7FEE7FEE7FEE7FEE7E8
:10022000FEE7FEE7FEE7FEE704480549054A064B00
:10023000704700001315000831010008C05000206D
:10024000C0700020C0600020C060002053EA020C93
:1002500000F069802DE9F04B4FF00006002B1FBF26
:10026000B3FA83F503FA05F424FA05F65E4012BFEB
:100270001643B2FA82F502FA05F4C5F120051EBF55
:1002800022FA05FC44EA0C04203556EA044C4FEAF5
:10029000144418BF641C4FF000084FF0000990424E
:1002A00071EB030C39D3002919BFB1FA81F701FAB8
:1002B00007F6B0FA80F700FA07F6C7F120071EBF6D
:1002C00020FA07FC46EA0C062037B6FBF4FCA7EB45
:1002D0000507103F07F01F0BCBF120060CFA0BFBB4
:1002E0002CFA06F644BFB3460026202FA4BF5E4674
:1002F0004FF0000B5BEA060C08BF4FF0010B19EB47
:100300000B09ABFB027C48EB0608C01B06FB02CCCA
:100310000BFB03CC71EB0C01C1E70B4602464146D7
:100320004846BDE8F08B13B54FF000004FF00001D8
:10033000AFF30080BDE81C40704740EA010302466D
:1003400030B59B0710D14FF0013400E008C208C956
:100350001D1B9D4315EAC41FF8D013F0FF0102F8DE
:10036000011B0DD01B0AF8E711F8013B002B02F826
:10037000013B05D011F8013B002B02F8013BF3D102
:1003800030BD10B5431C02E010F8011B71B18107AC
:10039000FAD14FF0013202C88C1A8C4314EAC21110
:1003A000F9D0C01A0A0603D0C01E10BDC01A10BD75
:1003B0000A0401D0801E10BD0902FCD0401E10BDF1
:1003C00010B5203AC0F00B80B1E81850203AA0E8F0
:1003D0001850B1E81850A0E81850BFF4F5AF5FEA24
:1003E000027C24BFB1E81850A0E8185044BF18C9D7
:1003F00018C0BDE810405FEA827C24BF51F8043B7E
:1004000040F8043B08BF7047D20728BF31F8023BD1
:1004100048BF11F8012B28BF20F8023B48BF00F865
:10042000012B70474FF0000200B5134694469646E4
:10043000203922BFA0E80C50A0E80C50B1F12001F7
:10044000BFF4F7AF090728BFA0E80C5048BF0CC0A5
:100450005DF804EB890028BF40F8042B08BF704703
:1004600048BF20F8022B11F0804F18BF00F8012B75
:10047000704700004FF0013C50F8042B51F8043B4A
:100480009A4221D1A2EB0C03934313EACC1317D168
:1004900050F8042B51F8043B9A4215D1A2EB0C03FF
:1004A000934313EACC130BD150F8042B51F8043BBF
:1004B0009A4209D1A2EB0C03934313EACC13DBD08D
:1004C0004FF00000704700BFD01A01BAB1FA81F1B5
:1004D00001F0180122FA01F0CB40C1F12001DBB29A
:1004E000C0B2C01A2CFA01F3D11A914311EAC31118
:1004F000E6D17047704770477047754600F02CF89A
:10050000AE4605006946534620F00700854618B000
:1005100020B5FFF789FEBDE820404FF000064FF000
:1005200000074FF000084FF0000B21F00701AC4628
:10053000ACE8C009ACE8C009ACE8C009ACE8C00947
:100540008D46704710B50446AFF300802046BDE8E5
:100550001040FFF754BE0000004870476050002074
:1005600001491820ABBEFEE7260002007047FEE7F7
:10057000704772B6FEE7000070B5044600F010F94F
:100580000546601C02D004480078044400F008F9D5
:10059000401BA042FAD370BD000000202DE9F84FA7
:1005A000DFF8C8910024A9F1040B23460F2709F1B5
:1005B000040AABF1040ED1E00125A54006EA0502CC
:1005C000AA4276D1DFF8A8C14E68A6EB0C086645B2
:1005D0002BD00DDC032E34D005DC36B3012E19D020
:1005E000022E2FD11BE0112E16D0122E2AD119E087
:1005F000B8F5881F19D006DCB8F5803F15D0B8F5DE
:10060000801F1FD111E0B8F5001F0ED0B8F5041FF0
:1006100018D10AE0CB6815E0CB681B1D12E0CB684F
:1006200008330FE0CB680C330CE08B682BB1012B47
:100630004FF0080303D0456104E0042302E00561A4
:1006400000E00023FF2A01D8064601E000F104067D
:100650004FEA840501D9A5F12005D6F8008007FAF4
:1006600005FC28EA0C0803FA05F548EA0508C6F86F
:1006700000804D68ED0070D53E4DAE6946F0010634
:10068000AE61AD6924F0030605F0010500953A4D11
:1006900006EB050CDCF80850A607360F07FA06F83B
:1006A00025EA0805DFF8D480404503D14FF0000863
:1006B00025E052E0DFF8C880404502D14FF0010844
:1006C0001DE0DFF8C080404502D14FF0020816E07F
:1006D000DFF8B480404502D14FF003080FE0DFF8A7
:1006E000AC80404502D14FF0040808E0DFF8A0805C
:1006F000404502D14FF0050801E04FF0060808FA26
:1007000006F848EA0508CCF808804D68D9F800607A
:10071000ED024D4601D5164300E096432E604D682C
:10072000DAF80060AD02554601D5164300E0964365
:100730002E604D68DBF80060AD035D4601D51643C1
:1007400000E096432E604D68DEF80060ED037546CC
:1007500001D5164300E096432E60641C0A681646D5
:10076000E2407FF429AFBDE8F88F000008040140A3
:10077000000011100010024000000140000801407C
:10078000000C01400010014000140140001801401D
:10079000001C01400AB1016170470904FBE7000039
:1007A000014880687047000000000020024881680E
:1007B000027811448160704700000020074810B59E
:1007C000016841F010010160032000F075F80F206E
:1007D00000F006F800F024F8002010BD00200240D0
:1007E00070B50D4D04464FF47A712878B1FBF0F0E6
:1007F0000A490968B1FBF0F000F0BCFA48B9102CC6
:1008000007D200222146501E00F036F800206C600E
:1008100070BD012070BD0000000000200C00002011
:100820000C4808B5816941F001018161816901F0DD
:1008300001010091C16941F08051C161C06900F0BE
:10084000805000900448416821F0E06141F000715F
:10085000416008BD0010024000000140002809DB93
:1008600000F01F02012191404009800000F1E020CA
:10087000C0F8001170470000F0B40E4B1B680C4626
:10088000C3F30223C3F10705042D00D90425191D64
:10089000072901D2002300E0DB1E012606FA05F13C
:1008A000491E214099409E40761E16403143F0BCBF
:1008B00000F085BE0CED00E0064900F00702086874
:1008C0004FF6FF03184040EA0220034A1043086035
:1008D000704700000CED00E00000FA052DE9F0473C
:1008E0000F46050061D0434E306800F00700B84263
:1008F00009D2306820F0070038433060306800F0DB
:100900000700B84251D128683B4C810712D54007F7
:1009100003D5606840F4E06060602878000703D584
:10092000606840F4605060606068A96820F0F00082
:10093000084360602878C00728D06868012810D074
:100940002168022810D0890700292EDA616821F079
:10095000030101436160FFF723FF804641F28839BC
:100960000DE021688903EFE78901EDE7FFF718FF44
:10097000A0EB0801494502D90320BDE8F087606873
:10098000696800F00C00B0EB810FEFD1306800F027
:100990000700B8420BD9306820F0070038433060B8
:1009A000306800F00700B84201D00120E5E7287860
:1009B000400705D56068E96820F4E060084360609E
:1009C0002878000706D56068296920F4605040EA5D
:1009D000C100606000F018F86168084AC1F30311B3
:1009E000515CC8400649086006480068FFF7F8FEF9
:1009F0000020C2E70020024000100240D25A020844
:100A00000C000020040000200E4A51680E4801F03E
:100A10000C03042B11D0082B0FD10C48C1F38343D6
:100A2000C903C05C0AD55168084AC1F34041921E0F
:100A3000515C054A5043B0FBF1F07047044948430C
:100A4000704700000010024000127A00C25A0208EB
:100A500000093D002DE9F84F040070D02078C04D0A
:100A6000C00749D06868C0F38100012807D06868D2
:100A7000C0F38100022809D16868C00306D5286840
:100A8000800339D560680028E7D035E06068B0F5AC
:100A9000803F0BD010B1B0F5A02F11D0286820F402
:100AA00080302860286820F4802002E0286840F424
:100AB00080302860606890B1FFF772FE06460AE059
:100AC000286840F480202860F0E700BFFFF768FE48
:100AD000801B642873D828688003F7D50CE0FFF7E3
:100AE0005FFE064605E000BFFFF75AFE801B642844
:100AF000F0D828688003F7D420789A4E80074FF00A
:100B000001094FF0000839D5686810F00C0F07D0C4
:100B10006868C0F38100022809D16868C00306D460
:100B20002868800714D52069012808D110E02069C1
:100B3000B0B1C6F80090FFF733FE074605E00AE1C2
:100B4000FFF72EFEC01B0228C4D828688007F7D5FF
:100B50002868616920F0F80040EAC10028600DE0D3
:100B6000C6F80080FFF71CFE074604E0FFF718FEFA
:100B7000C01B022823D828688007F7D420780007F4
:100B80002CD57948A169D9B1C0F80090FFF708FECB
:100B9000074604E0FFF704FEC01B02280FD8686A6E
:100BA0008007F7D571484FF4FA510068B0FBF1F0B7
:100BB000009000BF0098411E0091FAD20EE080E044
:100BC000C0F80080FFF7ECFD074604E0FFF7E8FD02
:100BD000C01B022875D8686A8007F7D420784007C0
:100BE00060D5E8690027C00008D4E86940F080506B
:100BF000E861E869012700F0805000905C480168D6
:100C0000C90513D40168834641F480710160FFF780
:100C1000C7FD824606E000BFFFF7C2FDA0EB0A0059
:100C200064284ED8DBF80000C005F5D5E06801283F
:100C30000AD008B1052813D0286A20F001002862E4
:100C4000286A20F0040002E0286A40F001002862CF
:100C5000E06841F2883B98B1FFF7A2FD82460BE0C5
:100C6000286A40F004002862EEE700BFFFF798FD15
:100C7000A0EB0A0159455AD8286A8007F6D50CE03E
:100C8000FFF78EFD824605E0FFF78AFDA0EB0A0123
:100C900059454CD8286A8007F6D41FB1E86920F07E
:100CA0008050E861E06988B36968C1F38101022975
:100CB00044D00228C6F8608004D0FFF771FD0446D6
:100CC00038E034E0FFF76CFD074604E0FFF768FD0D
:100CD000C01B02282BD828688001F7D4206AB0F501
:100CE000803F05D16868A16820F40030084368603F
:100CF000D4E908010843696821F474110843686065
:100D0000C6F86090FFF74CFD044606E025E000BF02
:100D1000FFF746FD001B022809D828688001F7D597
:100D20001BE000BFFFF73CFD001B022802D9032097
:100D3000BDE8F88F28688001F4D40EE00128F7D0D0
:100D40006868226A00F48031914204D1616A00F43B
:100D50007010884201D00120EAE70020E8E7000097
:100D60000010024000004242800442420C00002079
:100D70000070004010B5401EB0F1807F01D301200B
:100D800010BD4FF0E02460610F21601700F017FCE8
:100D90000020A06107202061002010BD704770472F
:100DA00070B590F83C20012A2CD0012480F83C40FA
:100DB000022280F83D2003685A689D6822F0700680
:100DC0000A6832435A60104B02689A420ED00F4BA9
:100DD0009A420BD0B2F1804F08D00D4B9A4205D009
:100DE0000C4B9A4202D00C4B9A4204D1496825F030
:100DF00080031943916080F83D40002180F83C1049
:100E0000084670BD022070BD002C01400034014036
:100E10000004004000080040000C004010B5040031
:100E200003D094F83D0010B107E0012010BD002070
:100E300084F83C00204600F01FF8022084F83D00B2
:100E4000211D206800F06CFB012084F8460084F826
:100E50003E0084F83F0084F8400084F8410084F8A4
:100E6000420084F8430084F8440084F8450084F884
:100E70003D00002010BD000008B500680B49884205
:100E800012D10B48C16941F01001C161C069002253
:100E900000F01000009011463620FFF7EDFCBDE891
:100EA00008403620FFF7DABC08BD00000010004003
:100EB0000010024090F83D10012901D00120704738
:100EC000022180F83D100168CA6842F00102CA6040
:100ED00000680E4988420ED00D4988420BD0B0F10F
:100EE000804F08D00B49884205D00B49884202D078
:100EF0000A49884204D1816801F00701062903D01C
:100F0000016841F00101016000207047002C0140A0
:100F1000003401400004004000080040000C004084
:100F200070472DE9F04104460068C66805694FF036
:100F30000007A90713D5B10711D5F91E01610120DA
:100F40002077206880698007204602D0FFF7E8FFFD
:100F500004E000F07EF8204600F07CF82777680770
:100F600016D5700714D521686FF0040008610220BF
:100F700020772068806910F4407F204602D0FFF778
:100F8000CFFF04E000F065F8204600F063F8277713
:100F9000280715D5300713D521686FF008000861C0
:100FA000042020772068C0698007204602D0FFF720
:100FB000B7FF04E000F04DF8204600F04BF827772B
:100FC000E80616D5F00614D521686FF01000086108
:100FD000082020772068C06910F4407F204602D0A6
:100FE000FFF79EFF04E000F034F8204600F032F8EE
:100FF0002777E80708D0F00706D021686FF00100D6
:101000000861204600F028F8280608D5300606D5E5
:1010100021686FF0800008612046FFF7BFFE680678
:1010200008D5700606D521686FF04000086120469B
:1010300000F01CF8A8060AD5B00608D521686FF0A4
:10104000200008612046BDE8F041FFF7A8BEBDE8DA
:10105000F08170477047000000680349884202D160
:1010600001201EF0F5BF7047001000407047FEE7FA
:101070002DE9F04107461C4615460E462A2000F091
:1010800057F9BF1CB8B200F049F9AD1CA8B200F086
:1010900045F92B2000F04CF9F61CB0B200F03EF9F7
:1010A000E41CA0B200F03AF9BDE8F0412C2000F0B9
:1010B0003FB92DE9F04780461F46581E83B21646B9
:1010C000501E82B20C464046DDF82090FFF7D0FF5C
:1010D0000AE0454604E0484600F020F96D1CADB238
:1010E000B542F8D3641CA4B2BC42F2D3BDE8F08789
:1010F00070B5151A5C1A5B1E521E65439BB292B204
:10110000049EFFF7B5FF002405E000BF36F8140089
:1011100000F004F9641CAC42F8D370BD10B57E4CED
:10112000002240212046FFF735FB6420FFF724FA18
:10113000012240212046FFF72DFB6420FFF71CFA17
:10114000012251022046FFF725FB6420FFF714FA25
:10115000112000F0EDF87820FFF70EFAB12000F032
:10116000E7F8022000F0F8F8352000F0F5F8362016
:1011700000F0F2F8B22000F0DBF8022000F0ECF80A
:10118000352000F0E9F8362000F0E6F8B32000F052
:10119000CFF8022000F0E0F8352000F0DDF836202E
:1011A00000F0DAF8022000F0D7F8352000F0D4F88B
:1011B000362000F0D1F8B42000F0BAF8032000F097
:1011C000CBF8C02000F0B4F8A22000F0C5F802204F
:1011D00000F0C2F8842000F0BFF8C12000F0A8F8A9
:1011E000C52000F0B9F8C22000F0A2F80D2000F0F0
:1011F000B3F8002000F0B0F8C32000F099F88D207B
:1012000000F0AAF82A2000F0A7F8C42000F090F817
:101210008D2000F0A1F8EE2000F09EF8C52000F02F
:1012200087F80A2000F098F8362000F081F8C820EE
:1012300000F092F8E02000F07BF8122000F08CF82B
:101240001C2000F089F8102000F086F8182000F02B
:1012500083F8332000F080F82C2000F07DF8252062
:1012600000F07AF8282000F077F8282000F074F8D1
:10127000272000F071F82F2000F06EF83C2000F0DD
:101280006BF8002000F068F8032000F065F80320F8
:1012900000F062F8102000F05FF8E12000F048F85C
:1012A000122000F059F81C2000F056F8102000F031
:1012B00053F8182000F050F82D2000F04DF82820A9
:1012C00000F04AF8232000F047F8282000F044F806
:1012D000282000F041F8262000F03EF82F2000F0F2
:1012E0003BF83B2000F038F8002000F035F80320F0
:1012F00000F032F8032000F02FF8102000F02CF856
:101300003A2000F015F8052000F026F8BDE810405E
:10131000292000F00DB80000000C014010B5044673
:10132000000A00F019F8E0B2BDE8104000F014B86F
:1013300070B5084C0546002280212046FFF72AFAA6
:10134000284600F009F82046BDE8704001228021BF
:10135000FFF720BA000C01402DE9F041144E05467C
:101360004FF48077002239463046FFF713FA002405
:10137000002210213046FFF70DFA280601D5012280
:1013800000E0002220213046FFF704FA012210215C
:101390003046FFF7FFF96806641C050EE4B2082C1E
:1013A000E6D339463046BDE8F0410122FFF7F2B9F5
:1013B000000C01402DE9F04385B00025254800953B
:1013C000019502950395816941F010018161816960
:1013D00001F010010491816941F02001816181696E
:1013E00001F020010491816941F00401816181696A
:1013F00001F004010491816941F008018161806973
:10140000DFF8548000F008004FF48074049000224C
:1014100021464046FFF7BEF9DFF840904FF47C7755
:10142000002239464846FFF7B5F900940124032607
:10143000CDE90246694640460194FFF7AFF801AA9C
:10144000009782E8700069464846FFF7A7F805B0A4
:10145000BDE8F0830010024000080140000C01408C
:101460001CB500240F4800940D49019401604721E8
:10147000C0E9011440F2E731C16080218161FFF7CA
:10148000CDFC08B1FFF775F8009469460548019452
:10149000FFF786FC002801D0FFF76BF81CBD0000A9
:1014A0000010004044020020FEE7FEE7704770474E
:1014B000FFF77CB930B58FB028216846FEF7B2FF40
:1014C00014210AA8FEF7AEFF01210804CDE900109F
:1014D0000024029402250491CDE907504FF4E01056
:1014E00009906846FFF7B6FA08B172B6FEE70F201A
:1014F000CDE90A054FF48060CDE90C4002210AA82D
:101500000E94FFF7EBF9002801D072B6FEE70FB09A
:1015100030BD70470148FFF704BD000044020020C1
:10152000F0B50268204C214D214E224F224B4FF046
:10153000804CA04209D0984207D0604505D0A8420F
:1015400003D0B04201D0B84204D122F0700E4A68F4
:1015500042EA0E02A04209D0984207D0604505D069
:10156000A84203D0B04201D0B84203D122F4407562
:10157000CA682A434D6922F080022A4302608A68C1
:10158000C2620A688262A04201D0984201D1096910
:101590000163012141610169C90703D0016921F09B
:1015A00001010161F0BD0000002C01400004004079
:1015B00000080040000C004000340140FEE709072D
:1015C000090E002804DB00F1E02080F800147047C9
:1015D00000F00F0000F1E02080F8141D704770B596
:1015E000044600256FF02F0608E02068411C2160AA
:1015F000007805EB850106EB41014518206800786D
:1016000000F004F80028F0D1284670BD30380928D1
:1016100001D80120704700207047000010B5442118
:10162000074800F082FE00221E2106481EF06AFDD7
:10163000054CA06001F04AFF0020207010BD0000A2
:1016400008040020813500087C0100202DE9F047C6
:101650000E46814617461146304600F011F9002823
:101660007ED000223946304600F0B6F800284FF010
:10167000000076D1B6F904C0B6F90030F288ACEBC0
:1016800003010FFA81FAB6F90210B7F80280521A74
:10169000A8EB01080FFA88F812B2B8F1000F0EDDBE
:1016A00063F30F046CF30F0501EB080061F31F44B3
:1016B00060F31F45C9F800400120C9F80450B7F98C
:1016C00006107388CB1AD21A12B2002A13DDB6F9AB
:1016D000063099420FDA338863F30F04B38861F35D
:1016E0001F4463F30F05114461F31F4509EBC0016B
:1016F000401C0C604D60B7F90220B6F902108A4216
:1017000000DD1146B7F90630B6F90620934200DA3B
:101710001A463B88B6F900C0521AA3EB0C031BB261
:1017200012B2002B10DD002A0EDD634463F30F05B7
:101730008B1863F31F456CF30F0409EBC00361F3CF
:101740001F441C605D60401CB7F904703388FE1AAA
:10175000AAEB06031BB2002B11DD67F30F0401E0B7
:101760000FE00CE061F31F443B4463F30F051144A9
:1017700061F31F4509EBC001401C0C604D60BDE8E2
:10178000F0874FF0FF30FAE770B5B1F90030B2F9E9
:101790000040A34200DC23460380B1F90250B2F9B5
:1017A0000240A54200DD2C464480B1F90460B2F944
:1017B0000450AE4200DA35468580B1F90610B2F920
:1017C0000620914200DB1146C1800120AB4201DCC2
:1017D0008C4200DD002070BDF8B50D460446B0F91E
:1017E0000000B1F900101646884247DBB4F9021038
:1017F000B5F90220914241DBB4F90410B5F9042097
:1018000091423BDCB4F90610B5F90620914235DC73
:1018100096B3ADF800006088ADF802003246694624
:10182000284600F099F8002827D0A088ADF80000DD
:101830006088ADF8020032466946284600F08CF810
:1018400000281AD02088ADF80000E088ADF802002A
:1018500032466946284600F07FF800280DD0A0885F
:10186000ADF80000E088ADF802003246694628462F
:1018700000F072F8002800D00120F8BD0020F8BD6B
:10188000B0F90020B1F904309A4213DCB0F9042019
:10189000B1F900309A420DDBB0F90220B1F90630FF
:1018A0009A4207DCB0F90600B1F90210884201DB68
:1018B0000120704700207047F8B50D460446B0F986
:1018C0000400B1F900101646884243DBB4F9060063
:1018D000B5F9021088423DDBB4F90000B5F90410F7
:1018E000884237DCB4F90210B5F90620914231DCA8
:1018F00076B3ADF800006088ADF802003246694664
:10190000284600F029F818BBA088ADF800006088D0
:10191000ADF8020032466946284600F01DF8B8B915
:101920002088ADF80000E088ADF802003246694634
:10193000284600F011F858B9A088ADF80000E088FA
:10194000ADF8020032466946284600F005F808B1B5
:101950000020F8BD0120F8BD2DE9FC4114460E46DB
:10196000B1F90020B0F9001005468A423ADBB5F91A
:101970000400824236DCB6F90270B5F902209742C3
:1019800030DBB5F906309F422CDC002C75DD401AA7
:101990009A1A401C521C00B212B200EBD07002EB3B
:1019A000D27240105210904200DB1046844200DD9B
:1019B0000446ADF80010288800222044ADF8040049
:1019C0006888ADF80200688831462044ADF806000A
:1019D0006846FFF7C1FF40B1BDF804002044ADF8F0
:1019E00004003FE00020BDE8FC81E8880022001BE5
:1019F000ADF80200E888ADF8060031466846FFF70A
:101A0000ABFF28B1BDF804002044ADF8040011E09C
:101A1000A8880022001BADF80000A888ADF80400DB
:101A200031466846FFF798FF50B1BDF80000001B33
:101A3000ADF80000BDF80200001BADF8020016E092
:101A40006888ADF80200688800222044ADF80600DE
:101A500031466846FFF780FF70B1BDF80000001BFB
:101A6000ADF80000BDF806002044ADF80600314690
:101A700068461BF093FEB6E7FFE70120B3E710B519
:101A8000B1F90040B2F900309C4200DA23460380ED
:101A9000B1F90240B2F902309C4200DA2346438099
:101AA000B1F90440B2F904309C4200DD2346838042
:101AB000B1F90610B2F90620914200DC1146C1804E
:101AC00010BD0000F8B507461EF0B8FA0025374CE7
:101AD0000646009537B1F868606038461EF0E0FBB6
:101AE000606802E010F018FF606000691BF052FDB2
:101AF0006068406908B11BF04DFD6068C0691BF06B
:101B000049FD6068006A1BF045FD6068016991B19C
:101B10001BF036FF20F0C4FA1FF0EEFF6068B0F84B
:101B20005011D9B30068017CC9071DD0C068406856
:101B3000D0B1002713E0A0F85051F8BDC11991F8B9
:101B4000301151B900F5AC7000F046FC616801EB52
:101B5000C7010A6B0260496B41607F1CBFB26068BD
:101B6000B0F85011B942E9D860684FF48071303054
:101B700017F058F96068202100F5987017F052F9B5
:101B80006068A0F8505130461EF052FA009060682C
:101B90000068436A13B122680099984716F0C0FFA5
:101BA00000F032F8BDE8F84000F002B83C00002038
:101BB00070B50A4D002400BFC4EBC40655F82600DA
:101BC00008B117F021F805EB86001C2117F02AF95F
:101BD000641CE4B2042CEFD370BD0000E4040020C8
:101BE000084949680AE04A68824202D00A6882428B
:101BF00003D10A7E42F001020A7649690029F2D136
:101C000070470000100000207047000004210148C8
:101C100000F08BBBFC0300202021014800F085BBB5
:101C2000140400202DE9FF410446DDE90A671D0088
:101C30004FF0000002D1B6F5807F2BD003900190C9
:101C40000290ADF80C100090ADF80410ADF80A2029
:101C5000ADF80E203B463246294668461BF0FEFC96
:101C60003B463246294601A81BF0F8FC3B4632466B
:101C7000294602A81BF0F2FC3B463246294603A83F
:101C80001BF0ECFCBDF90000BDF90430984209DA04
:101C9000054608E02080491E6080A180521EE28037
:101CA000BDE8FF811D46BDF90820BDF90C108A4230
:101CB00001DA164600E00E46B54203DA984206DB2A
:101CC000184604E08A4201DA104600E00846801E09
:101CD0002080BDF90030BDF90420934201DD1D468E
:101CE00000E01546BDF90800BDF90C10884201DD81
:101CF000064600E00E46B54205DD934201DD194679
:101D000004E0114602E0884200DD0146891CA18002
:101D1000BDF90230BDF90620934201DA1D4600E00C
:101D20001546BDF90A00BDF90E10884201DA0646D3
:101D300000E00E46B54205DA934201DA194604E0A6
:101D4000114602E0884200DA0146891E6180BDF931
:101D50000230BDF90620934201DD1D4600E0154624
:101D6000BDF90A00BDF90E10884201DD064600E00B
:101D70000E46B54205DD934201DD194604E01146E9
:101D800002E0884200DD0146891CE18088E700000E
:101D90002DE9F04115460E460746114C1EF04EF94E
:101DA00080462B4632463946204614F087FF20B144
:101DB0000020A062E06950B110E02C21204617F00D
:101DC00031F84FF00040A0620020BDE8F0814046AD
:101DD0001EF02EF9E06108B90120E0612046F4E729
:101DE0003804002010B51421074800F09EFA14F0C2
:101DF0002BFF40B1054901600549416005498160FB
:101E00000549C16010BDFEE72004002021660108DD
:101E10009D690108696B0108ED65010870B50D4603
:101E200004461021284616F0FDFF2068007801289E
:101E300004D0022807D0042807D008E0A08A288010
:101E4000E08A688003E0E06800E00A2068602068BB
:101E50004268002A03D02946BDE87040104770BD93
:101E60002DE9FE430446808A10B9E08A002873D029
:101E7000D4F82C805FEA080010D120460AF06DFAF1
:101E80005FEA000868D020460CF0F2FD002209212C
:101E9000404613F017FE607880075DD44FF48079D8
:101EA00000274E4645460021284619F035FC3844A7
:101EB00007B20021284619F04DFCC11700EB116054
:101EC0000012704306B2284618F024FC0500EAD13F
:101ED0000FB94E450CD0784201B24FF4803090FBE0
:101EE000F6F002B26B4604F1140000951BF0B6FB4D
:101EF000ADF80450ADF8085094F8400000F00F0021
:101F00000328404616D018F057FD0646404618F004
:101F10000DFC03460C200090B4F9161032464046E2
:101F200009F0D0FDADF80800404618F051FCC1079B
:101F300013D018E018F0D4FC0646404618F070FCA8
:101F4000024603200090B4F914103346404609F0CD
:101F5000B9FDADF80400E7E736E0BDF9041000294B
:101F600001DDADF80450810705D4BDF90410002946
:101F700001DAADF80450410705D4BDF90810002975
:101F800001DDADF80850000705D4BDF908000028B0
:101F900001DAADF8085002AA01A9204620F01CFC85
:101FA000BDF90820BDF90410404600F08AFA6078B7
:101FB000800709D4208BBDF8041008442083608B6F
:101FC000BDF8081008446083BDE8FE832DE9FC5F7E
:101FD0000446C06A5FEA000B71D094F84000000725
:101FE0006DD015F0FDF8019000684021457E5846FF
:101FF00019F0DCFC4FF0000818B9A4F81E80A4F812
:102000001C80584618F0CAFC8246584618F0CDFC91
:10201000064694F840004FF0640900F00F000C28C9
:1020200002D003284CD09AE0A4F81C8056B1B4F931
:102030001E50002715F0D4F80068407EC0F16401FE
:10204000484622E0B4F91E00C5F16401484390FB04
:10205000F9F0E083584618F069FB0546584618F039
:10206000ABFC02460C200090B4F91E102B465846DB
:1020700009F028FDE083024600231EE07A1917B21A
:1020800001FB05F292FBF0F215B2002DF6D1ADF88E
:102090000070A4F81E806A460021204620F09CFBB8
:1020A00041F6FF72BDF90030514258460AF0ECFA91
:1020B000BDF800100123084402B200214CE09AE070
:1020C000A4F81E80BAF1000F0AD0B4F91C50002702
:1020D00015F086F800684946407EC0F1640022E0B1
:1020E000B4F91C00C5F16401484390FBF9F0A083EA
:1020F000584618F095FB0546584618F0F1FB034684
:1021000003200090B4F91C102A46584609F0DAFC66
:10211000A083014600231EE07A1917B200FB05F2E6
:1021200092FBF1F215B2002DF6D1ADF80070A4F8D3
:102130001C8000226946204620F04EFB41F6FF72CB
:10214000BDF90030514258460AF016FABDF80010A9
:102150000123084401B2002258461AF05BFDA08B0F
:10216000002848D1E08B002845D1C6B9584618F060
:1021700023FC0546584618F0D9FA002D06DC002845
:102180000DDD002D02DA01232A4604E0002806DADC
:102190000123404202B2002158461AF03BFDBAF139
:1021A000000F19D1584618F03BFB0546584618F069
:1021B00097FB002D07DC00280EDD002D03DA01233C
:1021C0000022294605E0002806DA012300224042C9
:1021D00001B258461AF01EFD0A215846019A13F022
:1021E00071FC6078800706D414F8400F20F00F00CF
:1021F000207044F8148CBDE8FC9F7FB50E460400A7
:1022000003D110F089FB04002CD010F0F9FB00285A
:1022100028D094F82800400724D4002506B3ADF850
:102220000050ADF80250204610F08EFB401EADF875
:102230000400204610F0CEFB401EADF806006A46B2
:10224000314602A8FFF7A0FA00280BD02068017CD5
:10225000890708D5DDE90001C4E90C01012029E066
:10226000A4F850517FBD82690AB102A990470026A7
:102270000AE004EBC601002202A83031FFF7ACFAF5
:102280000028EFD1761CB6B2B4F85001B042F0D8B5
:1022900080B2202804D204EBC00002A9303004E050
:1022A000A4F8505104F1300069460EF0F0F8B4F88B
:1022B0005001401CA4F8500160680028D2D01DF0E5
:1022C000FBFF7FBD70B5054600F012F804460CE038
:1022D0002146284600F01EF806462146284600F012
:1022E000A2F8204616F090FC3446002CF0D170BDC8
:1022F000002800D04068704700B503460022FFF771
:10230000F7FF03E01846521C00F004F80100F9D171
:10231000104600BD0068091D4058704700684058CD
:102320007047002800D08068704700224260C91CB6
:1023300021F0030182600160704770B504460068B7
:10234000083016F0D5FB050013D0014600222046C8
:102350001EF0D0FF2946204662681EF0C5FF616866
:1023600019B12A4620461EF0C5FF6560A06800B975
:10237000A560284670BD2DE9F0410C4606000AD044
:102380004CB1FFF7B5FFA04208D13046FFF7D5FFAB
:10239000051E01D01EE00020BDE8F0813068083045
:1023A00016F0A6FB051EF7D030682A4607593046BE
:1023B00039461EF099FF3A46294630461EF09AFFEC
:1023C0002A46214630461EF095FF224629463046D1
:1023D0001EF08AFF2846DFE770B504460068083023
:1023E00016F086FB050013D00146002220461EF0A1
:1023F0007BFF29462046A2681EF07CFFA16819B128
:102400002A4620461EF070FFA560606800B965602E
:10241000284670BD28B1416809B9806808B100201C
:1024200070470120704770B504000DD0FFF760FFC2
:1024300000228842204608D1FFF76CFF6060011E31
:1024400001D000221EE0A26070BDFFF76AFF884243
:10245000206808440AD10168A16029B12046BDE87E
:10246000704000221EF040BF626070BD05682046CB
:10247000FFF750FF06460246294620461EF034FF6D
:102480002A4631462046BDE870401EF033BF10B5E5
:102490000446006882680AB12146904720680068B7
:1024A000002801D02060F5E710BD8068002801D029
:1024B000B0F9160070478068002801D0807E80093E
:1024C000704770B5164605460C4651EA06001AD00C
:1024D000284617F00DFAA86801233246018A2144E4
:1024E0000182A868418A314441822146284619F078
:1024F000E9FD00220B21284613F0E4FA012803D15C
:10250000284619F038FD012070BD77B581B00E4620
:10251000050017D0622219F02DF8040012D02068AF
:1025200080B128463146632219F024F810F0FF02EA
:1025300008D023682046039998470090BDF8000012
:10254000ADF80C00039804B070BD00002DE9F04711
:10255000074692B0408C1A9E40F00800788490465E
:102560003A8499468A463289384619F003F8054676
:10257000A7F8209032895146384618F0FBFF0446F0
:10258000788CA54220F00800788403D12904B1EBAF
:10259000044F68D0A7F8208032895146384618F099
:1025A000E9FF05468046A7F82090514638460BF0D3
:1025B000BDFA318900682A461CF08CFC30890B2852
:1025C00023D147F6FF794D4501D04C451DD1384602
:1025D00019F0A3F900EBD0704510384618F059F8FF
:1025E00000EBD0704010C84506D1691C431C9942CD
:1025F00000DA00E0194688464C4506D1691C421CA9
:10260000914201DA6C1C00E014461948FFF795FE70
:1026100005002BD02F60C5E903843089A880684667
:10262000C5F808A00DF0A8F91248FF21CDE9005027
:10263000114802901148039000200890CDE909014B
:1026400030880B9070889DF8421040420C90F068E2
:102650000790002060F300018DF842103069069069
:1026600068460DF0FDF912B0BDE8F087FEE7000006
:102670002C04002005530208ED54020849540208B6
:1026800014210148FFF751BE2C0400202DE9F84F1A
:1026900000259046894606462C460427E6E000BF02
:1026A000F06807EBC401405881017CD480B230EA65
:1026B000090112D05FF0000230EA08000FD00020BC
:1026C000824270D0F0686A46102150F83400824689
:1026D0001CF062F9002871D103E00122ECE701202F
:1026E000EEE76A46112150461CF056F9002865D1E4
:1026F0006A46122150461CF04FF900285ED16A4606
:10270000132150461CF048F9002857D16A4615217C
:1027100050461CF041F9002850D16A461421504619
:102720001CF03AF9F0BB6A460A2150461CF034F915
:10273000C0BB6A466B2150461CF02EF990BB6A461E
:102740006C2150461CF028F960BB6A4601215046B6
:102750001CF022F930BB6A46042150461CF01CF9DB
:1027600000BB6A46022150461CF016F9D0B96A46F1
:10277000032150461CF010F9A0B96A4605215046C5
:102780001CF00AF970B96A46062150461CF004F99B
:1027900040B96A46322150461CF0FEF810B96A462C
:1027A0006E2101E00AE060E050461CF0F5F828B91F
:1027B0006A466D2150461CF0EFF810B10320BDE8C9
:1027C000F88F6A46692150461CF0E6F8F0BB6A466D
:1027D0006A2150461CF0E0F8C0BB6A466E215046A4
:1027E0001CF0DAF890BB6A466D2150461CF0D4F814
:1027F00060BB6A46372150461CF0CEF830BB6A46B3
:10280000382150461CF0C8F800BB6A4635215046B6
:102810001CF0C2F8D0B96A46402150461CF0BCF802
:10282000A0B96A46452150461CF0B6F870B96A4610
:10283000412150461CF0B0F840B96A46422150464A
:102840001CF0AAF810B96A46432100E009E050469E
:102850001CF0A2F828B96A46492150461CF09CF8A1
:1028600008B1022501E005B90125641C708CC0F394
:102870000510A0423FF614AF2846A0E70148406883
:10288000704700003C0000207047C0F30410072888
:1028900000D9072070470000A0F57F41FF3905D01F
:1028A000002804D0712803D208490AE01F2070478D
:1028B0000749713880B2096829B1064A52689042C6
:1028C00001D2085C7047002070470000809A02081F
:1028D000A8010020BC01002010B518210348FFF713
:1028E00024FD03490120087010BD0000D80300201A
:1028F000C40100202DE9F04190460C46050015D09A
:10290000FDF73FFD0A4F06462146BA682846904724
:102910000446BA682819414690470146701A03E0F8
:102920006218AA5C2A55641CA042F9D2BDE8F08165
:10293000D80100202DE9F041094D90460E466A6805
:102940001C46074619469047306020B120686A68E7
:10295000384400219047C8F80000BDE8F08100002D
:10296000D80100202DE9F04F87B08A46DDE91058E4
:102970001F4693460446002105B129805CB12078AA
:10298000002809D0BAF1000F05D0002618F0060F74
:1029900015D0002004E0002007B0BDE8F08F401CF7
:1029A000215C0A2904D00D2902D00029F7D100E0CA
:1029B000401C002DF0D04FF0FF312980ECE75FEA9A
:1029C000887001D541F6FF77894608468DF81410C6
:1029D000049127E00498CDF8189068B34FF0000CEC
:1029E00005AA06ABCDF80CC0CDF80080CDE90132C8
:1029F00020443B465A4651461DF0A0FD06997A1ADE
:102A0000314417B20EB288B1049901440491207880
:102A10000A280BD00D2809D0605C0A280FD00D2899
:102A20000DD00846205C08B1002FD3DC049848B1D3
:102A300005B12E800498AFE74FF0010CD0E7481C99
:102A40000490F3E7064A04A9204652689047002DF7
:102A5000F0D001460022504613F048F906B2E8E7EC
:102A6000D80100202DE9F0411746884606001ED007
:102A7000002F1CD0FDF785FC04463846FDF781FC8D
:102A8000050014D00B4A2C444146926830469047CA
:102A9000411903E0621BB25C3255641EA142F9D9B0
:102AA00030442A463946BDE8F04116F07DB9BDE80C
:102AB000F0810000D801002000230278232902D0F1
:102AC000012A0DD00FE02AB10021012A04D0022AE8
:102AD00004D008E0012101E0017004E0017001E090
:102AE000202902D00123184670470221F6E72DE97C
:102AF000F0410E46804602460021334608461DF04E
:102B00005BFF04460027401C15F0F2FF050008D0CB
:102B10002F5533464246611C1DF04EFF2846BDE846
:102B2000F081FEE72DE9F0471E4614460D46824629
:102B3000DDF8209015E000BF4FEA540808FB065767
:102B4000394650464A469047002808DD44F30000C5
:102B5000C0EB540407EB0605A4F1010401E005DA1B
:102B60004446002CE8D12046BDE8F0873846FBE714
:102B70002DE9FC5F9B460CAB8A468146DDE911607E
:102B800093E81210DDE90F575FEA80784FF03003C9
:102B90001AD45EB15FEAC07808D000F00C0858EA99
:102BA0000C0803D0761E01E00B55641CBC4204D215
:102BB000202CF9D301E00B55641C5FEAC07803D0E8
:102BC000B44201D2202CF6D35FEAC06825D55FEA73
:102BD00040580AD44CB1BC4201D0B44205D1641E65
:102BE00003D0102D03D1641E04E0102D02D0022D5D
:102BF0000AD00EE0850603D4202C1ED2782506E0EC
:102C0000202C1AD2582502E0202C16D262250D5510
:102C1000641C202C11D20B55641C202C0DD2BCF14D
:102C2000000F01D02D2306E0430701D52B2302E03E
:102C3000030702D520230B55641CCDE900BAC84612
:102C4000154681468B46AA46800714D1274607E0E1
:102C50002A46DDE900316D1C2020C446E0477F1C78
:102C6000B742F5D307E02A466D1C641EDDE900314A
:102C70001BF80400C047002CF5D15FEA897006D428
:102C800009E02A46DDE900316D1C2020C047A5EB94
:102C90000A00B042F5D32846BDE8FC9F2DE9F04F6D
:102CA0008FB099468B46DDE91818DDE91C63DDE934
:102CB0001A4792468646002209B923F010035805A8
:102CC00007AD00D5C9B1B1FBF4F004FB1010C0B2E0
:102CD0000A2801D2303009E05FEA836C02D54FF058
:102CE000410C01E04FF0610C60440A38B1FBF4F193
:102CF000A854521C09B1202AE5D3CDF80880CDE9AB
:102D00000563CDE90052CDE903474B46524659468B
:102D10007046FFF72DFF0FB0BDE8F08F2DE9FF4F94
:102D20008FB01CACDDE9239594E8030820AC94E84F
:102D3000C004002450EA010201D125F010056A0503
:102D40000DF11C0802D550EA010217D032463B466D
:102D5000FDF77CFAD2B20A2A01D2303206E0AB0685
:102D600001D5412300E061231A440A3A08F80420FF
:102D7000641C50EA010201D0202CE7D3CDE9008485
:102D8000CDF808B0CDE90595CDE9036A0FAF97E816
:102D90000F00FFF7EDFE13B0BDE8F08F9A4200D2AE
:102DA00088547047704700002DE9FF4F89B00546F1
:102DB0000A9800249246002800D1FE4D8FE1252874
:102DC00004D02246641C53460A990BE2491C4FF07A
:102DD000000808460C9101782B2919D004DC202921
:102DE00019D0232904D119E02D290ED0302909D07A
:102DF0000026C8B2FEF70AFCB0B10CA8FEF7EFFB44
:102E000006461FE048F001010AE048F0020107E031
:102E100048F0040104E048F0080101E048F0100126
:102E2000401C88460C90D6E70C9908782A2809D1CE
:102E3000169840C81690002E02DA48F00208764232
:102E4000491C0C910C984FF0000B01782E2919D1D8
:102E5000401C0C9048F480680078FEF7D7FB20B146
:102E60000CA8FEF7BCFB83460CE00C9A10782A28CD
:102E700008D1169901C91691002800DC0020521CC7
:102E800083460C920C9801786C290AD004DC6829DE
:102E90000FD06A2919D128E0742929D07A2914D1B0
:102EA00026E0401C0C90017848F480786C291CD0F6
:102EB0000BE0401C0C90017848F08008682904D190
:102EC00048F04001401C88460C9001460078692873
:102ED00022D015DC62281FD00DDC252872D05028A6
:102EE0001AD058287FF46DAF16E048F40071E9E776
:102EF00048F48071E6E7632879D06428F2D10BE0CA
:102F0000732875D004DC6F2806D07028EAD103E05E
:102F1000752801D07828E5D178280DD058280BD015
:102F200070280BD0502809D06F2816D0622816D0F0
:102F30000A2228F0100016E0102207E0487810223C
:102F400048F48878562804D1491C0C9108785828F0
:102F500007D00878502804D006E0082209E00222B1
:102F600007E048F0200080460878692803D06428EC
:102F700001D028F00C085FEA485001D528F001087C
:102F8000087869281FD064281DD0562864D05FEACD
:102F9000885072D51698CDF818B0C01D0021CDE923
:102FA00004210291CDE9076820F007005346F0E8BC
:102FB0000212CDE900121690224628460A99FFF720
:102FC000ADFE88E009E15FEA885022D5169804AF8B
:102FD000C01D20F00703F3E802011693002387E8E1
:102FE0000C08CDE90768002903DA012202E07FE03E
:102FF000A6E00022002302921A461B1A8A4103DB34
:103000000022404262EB010153462246CDE9000115
:10301000D3E75FEAC85004D5169901C90FE04042D2
:1030200015E05FEA486003D5169911F8040B06E035
:103030005FEA0860F0D5169931F8040B00B21691DA
:10304000CDE9022BCDE90468C10F0028E7DD534626
:103050002246CDE900013AE01699AAEB040201C923
:10306000169141680968009103680A980119284679
:10307000FFF79AFE04442FE0FFE75FEAC8500CD543
:10308000CDE9022BCDE9046816980021534604C807
:10309000CDE900211690224619E05FEA486003D589
:1030A000169810F8041B08E05FEA0860169803D52C
:1030B00030F8041B89B200E002C8169001AF00206E
:1030C000009187E80508CDE9046853462246284662
:1030D0000A99FFF7E3FD04460C98401C0C900C99EC
:1030E000087800287FF46BAE54457DD222467DE0FF
:1030F00001275FEA887006D509E02246641C534622
:1031000020200A99A84738467F1CB042F5D316986C
:103110002246641C10F804CB1690534660460A9968
:10312000A8475FEA887006D4D6E72246641C534657
:1031300020200A99A84738467F1CB042F5D3CBE738
:10314000169850F8049B16904B46BBF1000001D036
:10315000014601E04FF0FF31484600E0401C027894
:103160000AB1491EFAD2C71A5FEA485003D5584639
:103170005F4500D307465FEA887006D511E0224616
:10318000641C534620200A99A84738467F1CB04249
:10319000F5D306E0224609F10109641C53460A9959
:1031A000A84799F8000040B15FEA4851F2D5BBF159
:1031B000010B01E0A52D0008ECD25FEA887006D46F
:1031C0008AE72246641C534620200A99A8473846BD
:1031D0007F1CB042F5D37FE706E02246641C5346CD
:1031E00025200A99A84777E7AAF101025346002053
:1031F0000A99A8470DB02046BDE8F08F10B502002F
:103200004FF000000CD04B1E194200D0FEE70A44DC
:10321000521E9A43B2F5804F02D20C2A01D91046B1
:1032200010BD0C2010BD08444A1E401E90431142A0
:1032300000D0FEE7704700002DE9F0410F46012164
:103240000025044641862E460BE01B49FDF712F986
:1032500010B16D1CADB202E0608E401C6086761C21
:10326000B6B257F8260010B101780029EDD1208EB2
:10327000A8421ED0A06A002610B115F0C5FCA662B7
:10328000E06A10B115F0C0FCE662E80015F030FC11
:10329000A06238B1680015F02BFCE06218B1A16A99
:1032A00011B102E0FEE7FEE70025690015F0BAFD66
:1032B0002586BDE8F08100009C0E01082DE9F84F3D
:1032C0008146407A0F4600F00700022819D01046C8
:1032D0008046974200DD3A46164603202A4C2B4A88
:1032E00000EB460020F00305A06811681035411A74
:1032F000636805EB010C9C4505D2416821F0004153
:1033000024E00846E4E79D4219D892464FF0FF3B7F
:1033100048196168884210D9002269461C48CDF8D6
:1033200000B00BF07FFF002269461A480BF07AFFCD
:10333000A168DAF80000091AEAE7A068DDE7284684
:1033400015F0D6FBC0B1416841F0004188EA670240
:10335000416089EA02010160416801F04041491C75
:1033600031F0804141608681A0F80E8005D500F1E2
:1033700010018160BDE8F88FFEE7A16801F110023D
:1033800029448260A160F5E744000020A4010020E8
:1033900049C3000899F2000870B586B000224A4C73
:1033A0008DF808208DF80C208DF81020E2888A42D4
:1033B00001D0FF22A270E18090F83C20142302F09B
:1033C00003024FF4B475012A24D0022A5ED0A578F6
:1033D000AA4211D010F8265F05EB051505EB45054F
:1033E000B5FBF3F52570407800EB001000EB4000D2
:1033F000B0FBF3F06070A27004AA03A8CDE900024C
:1034000001EB41004FF6FF7101EA400002AB627828
:1034100021781BE0A678B24210D0868C06EB4606D7
:103420007602B6FBF5F5A58090F8270000EB0010BA
:1034300000EB4000B0FBF3F06070A27004AA03A898
:10344000CDE90002C9B202AB62783AE008F094FC20
:103450009DF810109DF80C00CB08BDF800109DF8E9
:10346000082063F30401ADF800108108BDF80000E6
:1034700061F34A10D10880B261F3CF20ADF80000AB
:1034800080B20090BDF8000006B070BDA678B242D0
:1034900010D0868C06EB46067602B6FBF5F5A580C5
:1034A00090F8260000EB001000EB4000B0FBF3F0BA
:1034B0002070A27004AA03A8CDE90002CAB2217844
:1034C00002ABA088C2E70000F000002010B5084C55
:1034D000012020700748FEF70BFF0028A06803D0EA
:1034E000BDE810401CF0E8BEBDE810401CF0D8BE9E
:1034F0007C0100200804002010B5044690F842002A
:10350000A16B820709D4B4F840204AB1A2F57F43E9
:10351000FF3B1BD0521EA4F84020B4F84020AAB9AB
:1035200009B1820712D521461448FEF77CFFFFF748
:10353000CDFFE16809B120468847216909B12046DD
:1035400088472046BDE8104015F05EBBE26B524252
:103550002263002911D0820702D4626B5242226397
:103560004210521C62F3410084F84200A26A206AB1
:103570002262A062E06AE162A06310BD080400203C
:1035800070B5304D68681CF053FD0646687880F0D1
:103590000100687047E00020287094F842006978C4
:1035A000C0F380028A4242D061F3820084F8420074
:1035B000216B8A19030719D4002917DC002A15DBAF
:1035C000C00709D1616939B120468847216A0144A1
:1035D0002162A16A0844A062A16809B12046884717
:1035E00094F8420040F0080084F84200206B8019F3
:1035F000206316D4E16A884200DD2163E169204638
:1036000088470146606A884204D0616262680AB1F4
:1036100020689047D4E90B01814202DB2046FFF786
:103620006BFF287818B10848FEF762FE03E02146D8
:103630000548FEF76FFE0400ADD11CF0FFFC68608A
:1036400070BD00007C0100200804002070B5044615
:1036500040680D4608B1FFF7F9FF2268002A04D040
:1036600029462046BDE87040104770BD89B20CF075
:1036700073BE89B20CF0ACBE2DE9FF4F99B09846ED
:10368000DDE926B12D9816468A464FF00009042838
:1036900011D0052811D0062812D0142873D1012783
:1036A000022508FB06F00E901A980024401E0D908B
:1036B000701E06904AE10027F2E701270325F0E794
:1036C00001270225FFF7DAF80068D0F83890E8E71C
:1036D000289860430BEB2022299860430AEB2021B5
:1036E00010124FEA212E7DD41A9B98427ADABEF14D
:1036F000000F77DBB645F9DAD3B201F0FF0C802B6F
:1037000005DAC3F17F014FF0FF32490003E00122E7
:103710005900A1F580710991BCF1800F05DACCF157
:103720007F034FF0FF315B0004E04FEA4C030121BF
:10373000A3F580730A930EFB080C199B0CFB053351
:103740000793831811937BD4DDF834C0634577DC8D
:103750001EEB01030F9373D4DDF818C063456FDCD3
:10376000079B01FB08F102FB053201FB05311692B4
:103770009C460C91BFB32D99052905D014290AD078
:1037800006294CD059E0E5E00C989CF8022081789D
:103790001698807810E0199A0E9902EB41010B18E7
:1037A0000EFB0811119817930EFB08F2085C0F9995
:1037B000D25C01FB08F1C95C914207D00A9B5943D6
:1037C000C3F5807302FB0311C1F30721904207D0B8
:1037D000099B5843C3F5807302FB0300C0F3072025
:1037E000084401E09AE02CE02C99400808555FD08D
:1037F0009CF800109CF8010001EB0020ADF80C00D3
:103800000C980178407801EB0020ADF81000169874
:103810000178407801EB0020ADF808001FE0BCF80B
:1038200000101FFA89F0814278D00C9909888142F2
:1038300074D016990988814270D0FF210846CFE7DD
:1038400037E0BCF80000ADF80C0016980088ADF821
:1038500008000888ADF810002C98FF210155BDF82C
:103860000C00BDF81010884209D1BDF8081088423C
:1038700005D12B98BDF80C1000EB440017E00A9816
:10388000C2B2DDE903100EF02FFC04900998C2B219
:10389000DDE902010EF028FC7F22029004990EF06F
:1038A00023FC00902B98BDF8001000EB4400018031
:1038B0004AE0079B93F800C05B780CEB0323DDF82C
:1038C000ACC09BB22CF81430DDF8B4C0BCF1050FCD
:1038D00006D0BCF1060F06D0BCF1140F09D10AE0E6
:1038E000079B9B780FE01FFA89FC634501D10023F9
:1038F00009E0FF2307E0199B0EFB083C0E9B00EB41
:1039000043031CF8033008B9002A05DBDDF834C096
:10391000604504D1002A02DD09980BE011E0BEF1F8
:10392000000F01D1002904DB069A964509D1002930
:1039300007DD0A98C0F1FF005843010A2C98015591
:1039400002E02C9900200855641C24B22A98844275
:10395000FFF6BEAE1DB0BDE8F08F000010B5818F40
:1039600092B00446A9B168460CF006F80B48012154
:10397000CDE90040A08F0B9000200890CDE909010F
:10398000074807900748039068460CF069F812B0A2
:1039900010BD12B0BDE810401DF0FCBD0D160208B0
:1039A00037FA00080F16020810B50446406882086E
:1039B0000AD0496821F00301091D084460602046CF
:1039C00000F042F8204610BDFEE74068103120F0BC
:1039D0000300884201D301207047002070472DE981
:1039E000FC47054648680C4620F0030001AA6946DA
:1039F0001DF020FBDDE9007005EBC71101EB80092C
:103A00008046D9F8340060B164B1C4E9020504F11C
:103A10000806C46030460421FFF705FC864202D048
:103A2000FEE7FEE7FEE7C9F834400120296900FA05
:103A300007F21143296105EB870100FA08F04A6992
:103A400002434A61BDE8FC8710B5044600F087F8E0
:103A5000046010BD2DE9FC4706464FF000000D0044
:103A600000900746019042D00C46E9460DF104084B
:103A7000802907D3084621F033FC411F01208840EC
:103A8000401E04444246494620461DF0D3FA009C9D
:103A9000082C2CDA06EB8400019A40694FF0FF31C4
:103AA00001FA02F210400CD1641C3069A1400840B8
:103AB0001DD021F00DFC0446009006EB800040690B
:103AC00078B121F005FC034606EBC411019001EB2F
:103AD0008000476B5FB1786820F00300A84201D2F4
:103AE000FEE7FEE739463046009A1EF027FC3846CE
:103AF000BDE8FC8710B50446FFF7A6FF416841F01A
:103B000002014160606840F00100606010BD10B5C6
:103B1000044600F024F8416821F002014160606829
:103B200020F00100606010BD70B506460D460846E5
:103B300000F015F8040010D02079C0070BD0686899
:103B400080080BD02146304600F03CF8214628463C
:103B5000FFF72AFF0546284670BDFEE7FEE74268EC
:103B600000F1080122F00300001F0844910800D171
:103B7000FEE7704770B506460C004FF000001ED0FF
:103B8000F2B120791546C0071BD011462046FFF739
:103B90001CFF78B12946204600F025F8054620464E
:103BA000FFF752FF6868294640F00200686030461F
:103BB000FFF715FF2046FFF7AAFF04F1080070BDCC
:103BC000FEE7FEE77CB5054648680C4620F003009A
:103BD00001AA69461DF02EFADDE900232146284698
:103BE0001EF0ACFB7CBD2DE9F0410D46044600F112
:103BF0000801281F0E18606806F1080720F003006E
:103C0000401BA0F1040838460421FFF70CFB874253
:103C100000D0FEE7606820F0030108EB0500001DFE
:103C2000814200D0FEE7307900F0030040EA08004E
:103C3000706020F003000C2800D2FEE7207900F02D
:103C40000300284360603046FFF754FF3046BDE86C
:103C5000F08138B5044613F0C3FA054613F0F5FABF
:103C60000028204605D0218FE18618F084F9012034
:103C700038BD11F0E5FC002820461ED011F0ACFB49
:103C8000218FE08E81420CD02087E08E00906A4622
:103C90001C21204611F016FF0128E9D1204618F01A
:103CA0006AF9284613F0DDFA0428E0D1204616F020
:103CB000EBFC002112F00BFCD9E711F01DFDD6E75B
:103CC00070B511F0FBFE054616F024FD04462846AB
:103CD0000DF0ACF901462046BDE8704000221BF013
:103CE000D5BC00000020401CC0B20228FBD300203D
:103CF000887302480078886070470000180200202E
:103D00002DE9F04F0D4687B00446002116F0F0FB78
:103D100060B32946204600F061FA2946204600F0AB
:103D20006FF80021204617F011FB05900021204676
:103D300017F0C0FB04900021204617F0D2F90128AB
:103D400000D0002080460021204617F015FD0746D0
:103D50000021204617F040FA42F2D17906464F453D
:103D60000BD1608C000508D4012707E007B0284676
:103D7000BDE8F04F1C2115F055B80027204616F07D
:103D800035FCDFF878A0834620460021BAF80420ED
:103D900017F0F0FBD5F810C0AB682968CDF800C06B
:103DA000CDF80C80CDE90131C2B239465846059BA9
:103DB00009F02EFF28834E4504D1608C400501D4C4
:103DC000012600E00026204616F0F6FB07462046B6
:103DD0000021BAF8082017F0CDFBC2B268690024B0
:103DE0006B68E9688DE81B0031463846049B09F092
:103DF0000FFF688307B0BDE8F08F0000640000206B
:103E00002DE9F34F81B00C46019809F085F906467B
:103E1000019816F0EBFB8246304600F0DEFF206191
:103E2000400014F093FE20602069400014F08EFEE4
:103E3000002541F69A79A0603AE036F91510DFF8CE
:103E40002081494533D10027DFF818B11FE03946FA
:103E5000019816F04DFB5946009017F0AEFDA8B939
:103E6000009809F06BF9012810D1009809F05CF96D
:103E7000A8420BD1009817F050FD4146404501DAA9
:103E8000084602E0009817F048FD80467F1C019824
:103E900016F040FBB842DAD8B8F1000F03DBA16896
:103EA00021F8158003E0A168002021F815006D1CA1
:103EB0002069A842C1D800252F46284641F69B78A4
:103EC0004A4615E036F91010414504DB0D44A5F5CE
:103ED000F8559B3D0BE0914204D1A16831F81010D8
:103EE000394403E0A36823F8101039440FB2401C92
:103EF00021698142E6D80021019817F027FA21694B
:103F0000C1F1010200FB02A0C01B00B2002800DAD0
:103F1000002000224FF0FF331146C44611E000BFDD
:103F200036F9117067450BDBA7F5F8579B3F3AB29E
:103F300000FB02F3B3FBF5F3A76827F811300B463B
:103F4000491C27698F42EBD8002B07DBA91A414394
:103F5000B1FBF5F1401AA16821F81300BDE8FE8F0E
:103F600001E0FFFF010006002DE9F14F002211469C
:103F7000009818F091FF0021009817F0EBF8044624
:103F80000021009817F0A8FA20440FFA80F90021C8
:103F9000009817F093F920440FFA80F8009817F072
:103FA0004DF800EB090101EB0800DFF898A006B21C
:103FB0005446009816F0AEFA074600252AE000980D
:103FC00021498068006850F82500834617F0F5FC09
:103FD000F8B9584618F028F840BB0021584617F0A9
:103FE00051F818B3012821D002281FD003281DD072
:103FF0000021584617F0D8FB58B9BBF81A10BBF887
:104000001600081A401C00B24844A04200DB0446D7
:1040100024B26D1CBD42D2D3544504D004EB080039
:1040200000B2B04200DC3046BDE8F88F0098BBF922
:104030001A10B0F91600081A411CA142E8DB0C4620
:10404000E6E7000001E0FFFF010004002DE9F84F62
:1040500000228046114618F009FF0021404617F063
:1040600079F804460021404617F0DCF920440FFAA5
:1040700080FA0021404617F087F920440FFA80F9B2
:10408000404616F0E9FF00EB090101EB0A00DFF8FA
:1040900044B105B25C46404616F03CFA07460021A2
:1040A000404617F00CF801284FF0000644D078E0A5
:1040B000D8F808004849006850F82600009017F02A
:1040C0007CFCC0BB009817F0AFFF50B10098B8F966
:1040D0001810B0F91400091A481CA0422ADB4C1C25
:1040E00028E00021009816F0CDFF58B1032809D030
:1040F000062807D0082805D00021009817F04EFBAD
:1041000058B118E00098B8F91810B0F91400081A5E
:10411000411CA1420EDB0C460CE0009814300090CC
:104120000CF02FFA5044A04204DB00980CF029FA5E
:1041300000EB0A0424B2761CBE42B9D35C453BD0E6
:1041400004EB090033E000BFD8F8080022490068FA
:1041500050F82600009017F030FC08BB009817F0CC
:1041600063FF60BB0021009816F08CFF38B3012874
:1041700025D0042823D0072821D00021009817F04B
:1041800013FB68B90098143000900CF0FAF9484419
:10419000A04204DB00980CF0F4F900EB090424B20F
:1041A000761CBE42D0D35C4506D004EB0A0000B2B8
:1041B000584501D0A84200DC2846BDE8F88F009899
:1041C000B0F91810B8F91400091A481CA042E6DB2F
:1041D0004C1CE4E701E0FFFF010004002DE9F84F6B
:1041E0000C46834609F09EFB064600F0F6FD606132
:1041F000400014F0ABFC60606069400014F0A6FC65
:10420000002541F69A79E0603AE036F91500DFF8CA
:104210002881484533D10027DFF820A11FE0394627
:10422000584616F065F95146009017F0C6FBA8B93C
:10423000009809F0FFFB012810D1009809F0F0FB6D
:10424000A8420BD1009816F024FA4146404501DA05
:10425000084602E0009816F01CFA80467F1C58467B
:1042600016F058F9B842DAD8B8F1000F03DBE1686C
:1042700021F8158003E0E168002021F815006D1C8D
:104280006069A842C1D800252F46284641F69B7890
:104290004A4615E036F91010414504DB0D44A5F5FA
:1042A000F8559B3D0BE0914204D1E16831F81010C4
:1042B000394403E0E36823F8101039440FB2401C7E
:1042C00061698142E6D80021584617F0F3F881462B
:1042D000584616F071F901466069C0F1010209FB08
:1042E0000210C01B00B2002800DA002000224FF0AC
:1042F000FF331146C44610E036F9117067450BDBF9
:10430000A7F5F8579B3F3AB200FB02F3B3FBF5F376
:10431000E76827F811300B46491C67698F42EBD8D4
:10432000002B07DBA91A4143B1FBF5F1401AE16804
:1043300021F81300BDE8F88F01E0FFFF010006003F
:104340001CB50B8804892344ADF800304B884489A0
:104350002344ADF802308B8804892344ADF804303F
:10436000C98843891944ADF80610436969469847DE
:104370001CBD00002DE9FF4F89B0C8781A9CC0070A
:104380000D46002801D0F84800E0F848069001D01A
:10439000F74800E0F748049001D1F54800E0F548FF
:1043A0004FF010034FF00C0E4FF0080BCDF8140037
:1043B0006188A2884FF0000AA1EB0201504609B2C1
:1043C0005246D4F810C00FE002EB8207E66803EB18
:1043D000870816F808805FEAC87809D00BEB8707D2
:1043E000F65B891B09B2521C9445EDD8002254E0BB
:1043F0000EEB8707F65B304400B2F4E7E66802EBA9
:10440000820703EB870CB146CDF820C016F80C608C
:10441000F60741D1002872D091FBF0F80EEB870629
:10442000079639F8066006FB08F60FFA86FCCDF809
:1044300000C04FF0060C0CEB870C042639F90C80F9
:1044400006EB8706DDF800C039F90660E04500DCC0
:10445000C446664504DC009EC446B04500DC6646A2
:10446000DDF800C00196664506D0DDF820C04FF0AB
:104470000108C24649F80C80D4F80C80019E0BEB71
:10448000870728F80760D4F80CC0079F3CF807702E
:10449000C01B891B00B209B2521C26699642ADD8D6
:1044A000BAF1000F84D10021099816F014FE0128FA
:1044B00026D000270020ADF80800ADF80C0003A9B5
:1044C00002A8CDE900012089B4F9022003B22878BE
:1044D00018991CF0ACFFE878384207D0099816F01C
:1044E00085F8BDF808100844ADF808000B99099844
:1044F00015F0FEFF06464FF4FA682AE1FFE7FEE7F3
:104500000127D7E79C49304617F057FA00286FD1AA
:104510000021304616F04AFEF0B34FF0000948463D
:1045200021690FE0E26800EB800352F82320B242D9
:1045300007D1E16800EB80020BEB820031F90090BB
:1045400002E0401C8142EDD8E878C007708C04D0AE
:1045500020F4806040F4006003E020F4006040F448
:104560008060708406F114000499824688474845AB
:1045700028D0304617F0FFFCB08AADF80000F08A72
:10458000ADF80200308BADF80400708BADF806007A
:1045900049465046069A00E010E090476A462921B5
:1045A000304611F08FFA304616F0B4F83246222128
:1045B00011F088FA304617F0DEFC03E0708C20F42E
:1045C00040607084002000906878012811D0022893
:1045D00017D1059906F114008847B4F90010491C59
:1045E00021F00101081A00EBD07040F34F0007E002
:1045F000A7E0059906F1140088472188081A00B23F
:104600000090E878384208D0049906F114008847F1
:10461000BDF80810081AADF80800304600216B22DA
:1046200016F0A8FF0FFA80F9304600216C2216F030
:10463000A1FF0FFA80FA304617F06FF9019030466B
:1046400016F027F80146C9F3413001280FD129F4AB
:10465000C04040450BDCB0F57A7F01DDC0F57A70D3
:10466000019A5043642290FBF2F00FFA80F9CAF3EA
:10467000413001280ED12AF4C04040450ADCB0F593
:104680007A7F01DDC0F57A704843642190FBF1F038
:104690000FFA80FAB18A1698F28A411A01EB0900E2
:1046A000179900B28A1A02EB0A01EA7809B2D20716
:1046B000002A02D0BDF9082000E0009A10440FFA49
:1046C00080FA01D0009801E0BDF9080008440FFA13
:1046D00080F95AEA09011BD0304617F04CFCB18A28
:1046E00001EB0A00B082318B01EB0A003083F18AC2
:1046F00001EB0900F082718B01EB090070833046F9
:1047000017F039FC00234A465146304617F0DAFCD0
:10471000E87838420CD1049906F1140088471999B9
:104720000844BDF80C100844BDF80810084406E021
:10473000BDF80C1019980844BDF80810081AADF817
:104740000800E8780BAAC0F38001099808F0B0FFD0
:104750000646002E04D0DDE90B0188427FF4D2AE7C
:104760000DB0BDE8F08F00000B060108010601083E
:10477000A70501084F050108010006002DE9F04FCB
:1047800091B00E0005463FD02E83286808B114F082
:104790003BFA06EB4600062101EB400014F0A8F9B5
:1047A000286040B3022101EB46010144E960042185
:1047B00001EB86010144C5E9010101210024012E1C
:1047C0001AD0F000083014F0C1F9814600EB8600E1
:1047D00000F10408B00000B2A346ADF81000C0F12B
:1047E00001028010ADF812B00FFA82FA5C46CDF8E3
:1047F00028B00690ABE0FEE7B4220270E8680480BF
:10480000E8684180A868048011B0BDE8F08F0027F7
:10481000BDF81220BAF1000F07DC032101EB4201C1
:104820000AEB01000FFA80FA0CE0BDF81010052326
:10483000521A03EB420202EB0A00491E0FFA80FAF9
:10484000ADF81010BDF81200401CADF8120004A81D
:1048500000F0E7F868B1BDF9100006AA811042F82F
:1048600027100AA900F0030041F827007F1C042F3D
:10487000CEDB042F71D109990698884212D129F80C
:10488000140028F814B0DDE90A010144DDE90C2028
:104890001044084469680855696800010855641C9B
:1048A00024B252E00799884219D029F8140028F858
:1048B00014B06A680A9810556A6800011055641CA3
:1048C000069A20B2521E29F8102028F810B0DDE90F
:1048D0000B120A440D99091D11446A682FE00899CA
:1048E00029F81400884228F814B0DDE90A02594674
:1048F000104412D06A6810556A6800011055641C93
:10490000069A20B2521E29F8102028F81010DDE96E
:104910000C12114408316A6811E00C9A10446A685C
:1049200010556A6800011055641C069A20B2521E88
:1049300029F8102028F810100D996A680C311154CC
:104940006A6809011154401C04B20BF1010B04A860
:1049500000F067F800287FF45AAF09EB440140F2F9
:10496000D320464331F9021CB012814205D108EB35
:10497000440131F9021C81421AD0A6EB8021B1F525
:10498000007F03DC494341F3CF3106E0C1F580618C
:10499000494341F3CF31C1F10F0129F8140028F840
:1049A000140068680155686809010155641C24B247
:1049B000A01E0DE038F8102029F8142039F8102036
:1049C00028F8142069680A5C0A55641C24B2401E49
:1049D0000028EFDAEB680021084619801BE0EA683E
:1049E00022F81100AB6839F8102023F811200AE0F2
:1049F000AE6839F9102036F81130934200DA1A46C1
:104A000026F81120401C38F910208A4201D1A0421A
:104A1000EEDB491C09B2A042E1DB484614F0E2F8A3
:104A2000F2E6B0F90210B0F90000814201DC012089
:104A300070470020704717B581B0022A03D8BDF82F
:104A4000080004B010BDBDF80830BDF80400D90A54
:104A500001EBD0211F2900D31F2161F3CF20C3F325
:104A60004511C0F345142144ADF804003F2900D39B
:104A70003F2161F34A1003F01F0100F01F031944A6
:104A8000ADF804001F2900D31F2161F30400ADF825
:104A90000400FF2A07D0DDE901010DF00BFB0090B7
:104AA000BDF80000CDE780B2CBE717B581B0022A90
:104AB00003D8BDF8080004B010BDBDF80400BDF86F
:104AC0000810C30ACC0A63435B0963F3CF2001F0EB
:104AD0001F0400F01F0363435B0963F30400C0F38A
:104AE0004513C1F345114B43990961F34A10ADF8E1
:104AF0000400FF2A07D0DDE901010DF0DBFA009088
:104B0000BDF80000D7E780B2D5E717B581B0022A1B
:104B100003D8BDF8080004B010BDBDF80830BDF8DA
:104B20000400D90AA1EBD021002900DC002161F3A7
:104B3000CF20C3F34511C0F34514091BADF80400A1
:104B4000002900DC002161F34A1003F01F0100F08E
:104B50001F03C91AADF80400002900DC002161F32D
:104B60000400ADF80400FF2A07D0DDE901010DF0D3
:104B7000A1FA0090BDF80000CDE780B2CBE7F8B510
:104B8000044610F09BFF0646204610F059FF0546EC
:104B9000304615F0BFFD04462B2D34D00A2D31D1FF
:104BA00012F01EFB10B1007901282BD06946304667
:104BB00015F016FE94F82C0010F00C0F30462BD098
:104BC00015F014FD05460021204616F090FA012844
:104BD000BDF9000005EBD5711BD000EB610090FB27
:104BE000F5F001B2002900DA0021608D4FF00102DA
:104BF000884220461BD01AF049FD00221C21204685
:104C000010F060FFF8BD618DBDE8F84000221AF099
:104C10003DBDC0EB6100E2E715F0CEFCBDF902102E
:104C200000EBD07201EB620191FBF0F0D9E71AF0D2
:104C30002DFDF8BD2DE9FF4F89B00446169EDDE934
:104C400019577000DDF86090DDF828A00FFA80FB9E
:104C5000B9F1040F22D0B9F1060F1FD0B9F1050F39
:104C60005CD0B9F1140F56D1B4F90000B4F90210B8
:104C7000CDF80CB006FB01030AEB43020092E28878
:104C80004FF00008511A491C0FFA81F9A188081A3F
:104C9000401C0FFA80FA4FEA4A0B81E020460BF0E5
:104CA00062FC01460390384614F0EAF8B4F90000BB
:104CB000B4F90280A18806FB0802081A401C00B261
:104CC000069040000AEB420A2E4602900CE0514644
:104CD0003046029A13F0D4FF069808F10108DA442E
:104CE00006EB40060FFA88F8B4F906004045EEDA04
:104CF000B9F1060F0FD100224FF4FC60ADF80000AF
:104D0000114605E035F81130834200D17A54491C30
:104D1000039B9942F6D30DB0BDE8F08FB4F90010B3
:104D2000B4F9023006FB031000EB400202EB0A006C
:104D3000A288511A491C0AB2B11A01EB41010EB204
:104D4000E188C91A491C0CB2002317E000210DE0CC
:104D500090F802C007F801C010F801CB10F8028BE0
:104D60000CEB082C25F811C0491C09B29142EFDB6D
:104D70005B1C05EB4205174430441BB2A342E5DB44
:104D8000C9E75A462846009913F07AFF009903981C
:104D900005EB4A050844009008F101000FFA80F87D
:104DA000C845EEDBDDE90A014A000C9902FB01006F
:104DB000B4F90010B4F9022006FB02110D1800240A
:104DC00008E052462946384613F05AFF641C5744FF
:104DD000354424B24C45F4DB9DE70146002041F602
:104DE000FF7200E0401C31F910309342FAD1704755
:104DF0001CB5044690F8540000F0010088422DD004
:104E000094F8540011B140F0010001E020F00100DD
:104E100084F8540004F1480168460BF089FB606A8D
:104E2000BDF80010828A1144ADF80010BDF80210E0
:104E3000C08A0844ADF80200606ABDF80410808A98
:104E40000844ADF80400606ABDF80610C08A084442
:104E5000ADF806006946204617F0B0F81CBD08B54D
:104E6000084611460CF0EBFF0090BDF8000008BDAD
:104E70002DE9F04F0746C87A89B015460E4602283C
:104E800003D8012009B0BDE8F08F18463269B16837
:104E9000FCF77EFF041EF5D0207D00F01F0011F00E
:104EA00062FB4FF4807808B1062011E0207D00F00D
:104EB0001F000E2806D014280AD011F044FB30B190
:104EC000052005E030884FF00E0930B902E00420DB
:104ED000814606E07088404503D000204FF0050968
:104EE000A061226A22B1294638461DF0A8FFB7E02A
:104EF000A069E0B3294602A80BF0E4FAB6F9003045
:104F000013B97088404529D0A88829886A88401A32
:104F1000401C01B2E88806F1040C801A401C02B261
:104F20007088CDE9000C02A8FCF77CFEBDF80800F3
:104F300029880844ADF80800BDF80A1068880844BC
:104F4000ADF80A00BDF80C0029880844ADF80C0043
:104F5000BDF80E1068880844ADF80E0002AA04A837
:104F6000B968FCF711FC00287AD004A800E00DE035
:104F7000D7F80880B860CDF800902A463146384608
:104F8000A3690DF073FFC7F8088069E02A4604A8FA
:104F9000B968FCF7F9FBE0B3BDF81400BDF81010D8
:104FA000401A401C0FFA80FB0BEB4B0013F0CEFDB8
:104FB000039004A901A8D7F808A00BF083FA0121F7
:104FC00001A80BF01DFBBDF91000B5F90010BDF9EB
:104FD0001280401A0690B5F90200A8EB000536E0F1
:104FE00001AA514607A8FCF7CFFB70B303980090C5
:104FF00006985B4601B22AB2204611F0BDFE012898
:105000000ED0204611F00DFE039813F0EBFD204664
:1050100000E025E011F005FE0020C7F808A031E708
:1050200007A8B860CDF8009001AA31463846039B26
:105030000DF01CFFBDF80600401CADF80600BDF8E1
:105040000A00401CADF80A006D1C08F10108BDF90A
:1050500016004045C4DAC7F808A0039813F0C2FD53
:10506000204611F0DEFD0CE738B50546094800780A
:1050700058B10092C8884C88401C83B28888401C74
:1050800082B208882146FCF733F82846BDE838404C
:105090000DF03CBC1402002070B5054612F0A0F8DB
:1050A0000646286B1AF0C4FF3168898B884223D2E8
:1050B00095F83C006C6A10F0030105D064200129CA
:1050C00006D0022909D106E0002060F30F0404E0B5
:1050D00060F3174401E060F31F64304612F0FAF900
:1050E000214628460DF0DEFA30B100221C21284668
:1050F00010F0E8FC012803D11AF0A0FF286301207A
:1051000070BD00002DE9F04F99B0074614468A465D
:1051100014A80DF09BFC4FF4A021384615F0BBFFFE
:105120009DF85D1060F382018DF85D10A1882088E4
:10513000091A491C09B201EBD1714E103044ADF887
:105140006000608800213044ADF86200384616F0F7
:1051500073F88146514602A815F008F814A80A9081
:105160004FF400300F902F4803900020049007F177
:1051700030008346FDF7D5F84EE02079032847D16B
:10518000208BADF85000208AADF852006079FD28E0
:1051900001D9484602E000FB09F0000A8DF85C00E6
:1051A0002568B5F92030E88B18440090D5E9051240
:1051B000A06813F07FFC8046B5F92030E88B1844D6
:1051C0000090D5E90512E06813F074FC1FFA88F529
:1051D000ADF854501FFA80F8ADF85680608B02AAE3
:1051E0003044ADF8440018A80B901A2113943846A7
:1051F00010F068FCCDE90058BDF8443018AA14A995
:1052000050460DF013FC02AA1B21384610F05AFC40
:1052100021465846FDF782F80400AED119B0BDE82A
:10522000F08F0000EC6102082DE9F74FC878A0B0BC
:105230000C4602287DD9114601A80BF03AF9B4F9C1
:105240002000012829DD94F82200FD2825D320889C
:1052500018B394F82300BDF804104008C0F380028E
:105260001144ADF80410BDF80610C0F34000084426
:10527000ADF8060094F82310BDF808004908C1F302
:10528000C001401AADF8080094F82310BDF80A00D8
:10529000C1F34001401AADF80A00209801A98268C4
:1052A00005A8FCF771FA002843D0E07B10F0070650
:1052B00019D0E088ADF80000BDF80000618988428F
:1052C00000D1002601A80EF023FB07461C210EA8E2
:1052D000FBF7A8F8A0788DF85100BDF80000ADF8F4
:1052E00040001FB105E060680090E5E7208800B944
:1052F000EEB3E078FD2800D3FF208346BDF8080018
:10530000BDF80410401A401C0FFA80FABDF80A00DC
:10531000BDF80610401A401C01B289465046CA45E5
:1053200000DB0846B4F90050B5EB600F00DB451018
:1053300000E043E0BDF81810BDF81400081A401C46
:105340000FFA80F84FF0FF301D9000200790002DDD
:1053500000DC87B1404613F0F9FB079000232A4692
:1053600001A916A80EF040FD002116A800E01CE0DF
:105370000EF0EEF81D90BDF81400ADF80C00BDF86D
:105380001800ADF810000798119003A80E90139024
:10539000FF208DF850004A465146A01D10F0C6FE71
:1053A000040018D0022E0CD015E001A80E90E07871
:1053B0008DF850000EA920980EF0DCFF23B0BDE858
:1053C000F08FBDF91410A06800EB4100BDF9041086
:1053D000A0EB41000F90002F7DD0BDF9165027E0C3
:1053E0002FB2ADF80E70ADF81270424659460798CC
:1053F00013F0E6FCBDF9141043463A4607980EF048
:1054000049FA8DF84800012802D102208DF84800A1
:10541000012E08D1BDF90610A068691A00EB410001
:105420000088ADF840000EA920980EF0A3FF6D1C77
:10543000BDF91A00A842D3DAB7E000BFBDF80600F4
:10544000BDF9161038440FFA80F9BDF80A00C01BE8
:105450000FFA80FA494503DDBDF91A10514544DBC6
:1054600042465946079813F0ABFCBDF90C10434671
:105470004A4607980EF00EFA8DF84800012802D12E
:1054800002208DF84800BDF91610494513DCADF82F
:105490000E90ADF81290012E09D1BDF90620A16839
:1054A000A9EB020001EB40000088ADF840000EA916
:1054B00020980EF05FFFBDF91A10514515DBADF8CD
:1054C0000EA0ADF812A0012E0BD1BDF90600A26806
:1054D000AAEB000000E009E002EB40000088ADF814
:1054E00040000EA920980EF045FF7F1CAF42A5DBBF
:1054F000BDF80400ADF87800BDF80800ADF87C00F8
:10550000BDF806002844ADF87A00BDF80A00401B3B
:10551000ADF87E001EA80EF0FBF9074630430CD014
:1055200001208DF84800BDF90A008DF850B0A0EBBD
:105530000509BDF90600054435E0BDF806008DF803
:1055400050B02844ADF80E00BDF80A000EA9401B6B
:10555000ADF812000020119020980EF00BFF24E00F
:105560006FB142465946079813F02AFCBDF9141052
:1055700043462AB207980EF08DF98DF84800ADF831
:105580000E50ADF81250012E08D1BDF90600A168E9
:10559000281A01EB40000088ADF840000EA92098C1
:1055A0000EF0E8FE6D1C4D45DADD079808B113F0EA
:1055B00019FB1D98401C05D01D980EF0C1FC16A8C3
:1055C0000EF08AF9002C3FF4F9AE204610F0A8FD49
:1055D000F4E62DE9F0410646086992B015460C46FE
:1055E00000287DD0A07E02287AD929460EA8B2686C
:1055F000FCF7CAF8002873D00EA8D6F80880B0606F
:10560000206911F0A3FD022806D06946206911F037
:1056100029FB012849D0C9E0002741F6FF70CDE9F8
:1056200000700297D4E904123B4610A81BF020F842
:1056300028460AF0ACFF01462A88BDF9400001EB7C
:10564000D17102EB610100EBD072A1EB6201084461
:10565000401EADF81000ADF80C1028460AF071FF9E
:1056600001466A88BDF9420001EBD17102EB61018C
:1056700000EBD072A1EB62010844401EADF81200AD
:10568000ADF80E1005A80DF0B3FE60690590208BF3
:10569000ADF82000A07E8DF82E00009703AA05A982
:1056A000304623690DF004FC80E005A80DF0E6FB10
:1056B000A0788DF82000208BADF81C00E07E8DF8DE
:1056C0001E00A07E8DF81F00207F4FF0FF3740B1F5
:1056D00000996888ADF8060007EB515108445DE079
:1056E00066E028460AF053FF298800EBD07001EBF2
:1056F00060000099C1F38A21A0EB5100ADF80400CD
:1057000028460AF01EFF698800EBD07001EB6001AB
:105710000098A1EB9051C0F38A22ADF80610BDF8B5
:105720000430521E1A4407EB5050ADF808200844CC
:10573000ADF80A0001AA05A9304623690DF06AFBFD
:1057400034E000992888C1F38A21ADF80400491E8D
:10575000084410E001AA05A9304623690DF05AFB60
:105760000098BDF80410C0F38A200144ADF804107D
:10577000BDF808100844ADF80800BDF90400B5F9FB
:1057800004108842E6DDBDF80610009801EB505188
:10579000ADF80610BDF80A1001EB5050ADF80A0044
:1057A000BDF90600B5F906108842CADDC6F80880C2
:1057B00012B0BDE8F081F0B5074691F8220087B03D
:1057C00016460C4602286BD9208C002868D094F825
:1057D000230010F03E0F63D0C00761D1B08831883C
:1057E0007288401A401C01B2F088B4F90050801A47
:1057F000401C00B2814200DA0846B5EB600F00DDC4
:105800004510314604A80AF054FE94F82300BDF96F
:105810001020C0F344014807B4F9200001D4284403
:1058200040421044ADF810000807BDF91420B4F947
:10583000200001D428444042101AADF8140094F816
:105840002300BDF9121040088007B4F9200001D4EC
:10585000284440420844ADF8120094F82300BDF9F2
:1058600016104008C007B4F9200001D12844404276
:10587000081AADF81600208C281A00B2002800DAA9
:105880000020A27894F82210CDE90212E18BADF845
:10589000041000902B4604AA3146384600F002F866
:1058A00007B0F0BD2DE9FF4FA9B01D46DDE93879FD
:1058B000DDF8D88016460C46FF2F00D3FF27084698
:1058C0000EF026F82690284350EA080074D0299854
:1058D0002146826808A8FBF757FF002873D0BDF85F
:1058E0002400BDF82010401A401C00B204901C2176
:1058F0000AA813F097FA049813F028F90D904FF0C6
:10590000FF302490002D0ADD00232A46214615A8E9
:105910000EF06AFA002115A80DF01AFE249001235A
:10592000424631461BA80EF05FFA00211BA80DF07D
:105930000FFE259001A80A900F90BDF8DC008DF8AD
:105940004070ADF830008DF84190B4F9000022901D
:10595000B6F900304119994200DC1946B4F9040047
:105960000FFA81F92190B6F90410421B8A4200DB3C
:105970000A460FFA82F8B4F902E0B6F902200EEBFB
:1059800005009246504500DC1046B4F906B007B257
:10599000B6F90620ABEB0500904200DB104600B2E2
:1059A0000590A8EB0900401C00B22790D6450DDCFD
:1059B00001200CE000E006E0009732462146379BCC
:1059C000299800F0B8F92DB0BDE8F08F002082468C
:1059D000934501DB012000E0002083462698D8B3E0
:1059E000BDF82000ADF80400BDF82400ADF80800B3
:1059F000BDF9224022E000BFBAF1000F01D1A74259
:105A00001BDCBBF1000F02D10598A0421ADB25B2C6
:105A1000ADF80650ADF80A5004990D9813F030FA1D
:105A2000BDF920102A46049B0D980DF033FF8DF828
:105A300038000AA929980EF09DFC641CBDF92600C7
:105A4000A042D9DA1BA80DF047FF25980EF078FA8E
:105A50002498401C07D000E009E015A80DF03CFF99
:105A600024980EF06DFA0D9813F0BCF8ABE722986D
:105A7000984201DC012000E0002013902198884228
:105A800001DB012100E00021012000901398129118
:105A9000084000EA0A0010EA0B0F04D027983228C9
:105AA00001DA00200090012000998DF838001AEAF0
:105AB000010F0ED0ADF80490ADF808806088ADF805
:105AC000060070880AA9401EADF80A0029980EF059
:105AD00051FC00991BEA010F0ED0ADF80490ADF80F
